{
	"contracts/promissory.sol": {
		"Promissory": {
			"abi": [
				{
					"inputs": [
						{
							"internalType": "string",
							"name": "_holderName",
							"type": "string"
						}
					],
					"stateMutability": "nonpayable",
					"type": "constructor"
				},
				{
					"inputs": [],
					"name": "bank",
					"outputs": [
						{
							"internalType": "uint256",
							"name": "",
							"type": "uint256"
						}
					],
					"stateMutability": "view",
					"type": "function"
				},
				{
					"inputs": [],
					"name": "dateOfAcceptance",
					"outputs": [
						{
							"internalType": "uint256",
							"name": "",
							"type": "uint256"
						}
					],
					"stateMutability": "view",
					"type": "function"
				},
				{
					"inputs": [],
					"name": "getPromissoryInfo",
					"outputs": [
						{
							"components": [
								{
									"internalType": "address payable",
									"name": "holder",
									"type": "address"
								},
								{
									"internalType": "address",
									"name": "debtor",
									"type": "address"
								},
								{
									"internalType": "string",
									"name": "holderName",
									"type": "string"
								},
								{
									"internalType": "string",
									"name": "debtorName",
									"type": "string"
								},
								{
									"internalType": "uint256",
									"name": "promissoryAmount",
									"type": "uint256"
								},
								{
									"internalType": "uint256",
									"name": "dateOfRegistration",
									"type": "uint256"
								},
								{
									"internalType": "uint256",
									"name": "dateOfClose",
									"type": "uint256"
								},
								{
									"internalType": "uint256",
									"name": "dateOfHolderConsent",
									"type": "uint256"
								},
								{
									"internalType": "uint256",
									"name": "dateOfDebtorConsent",
									"type": "uint256"
								},
								{
									"internalType": "bool",
									"name": "holderConsent",
									"type": "bool"
								},
								{
									"internalType": "bool",
									"name": "debtorConsent",
									"type": "bool"
								}
							],
							"internalType": "struct Promissory.PromissoryInfo",
							"name": "",
							"type": "tuple"
						}
					],
					"stateMutability": "view",
					"type": "function"
				},
				{
					"inputs": [],
					"name": "payPromissory",
					"outputs": [],
					"stateMutability": "payable",
					"type": "function"
				},
				{
					"inputs": [],
					"name": "paymentAccepted",
					"outputs": [
						{
							"internalType": "bool",
							"name": "",
							"type": "bool"
						}
					],
					"stateMutability": "view",
					"type": "function"
				},
				{
					"inputs": [],
					"name": "promissoryPaid",
					"outputs": [
						{
							"internalType": "bool",
							"name": "",
							"type": "bool"
						}
					],
					"stateMutability": "view",
					"type": "function"
				},
				{
					"inputs": [],
					"name": "setDebtorConsent",
					"outputs": [],
					"stateMutability": "nonpayable",
					"type": "function"
				},
				{
					"inputs": [],
					"name": "setHolderConsent",
					"outputs": [],
					"stateMutability": "nonpayable",
					"type": "function"
				},
				{
					"inputs": [],
					"name": "setPaymentAccepted",
					"outputs": [],
					"stateMutability": "nonpayable",
					"type": "function"
				},
				{
					"inputs": [
						{
							"internalType": "address payable",
							"name": "_debtor",
							"type": "address"
						},
						{
							"internalType": "string",
							"name": "_debtorName",
							"type": "string"
						},
						{
							"internalType": "uint256",
							"name": "_promissoryAmount",
							"type": "uint256"
						},
						{
							"internalType": "uint256",
							"name": "_dateOfRegistration",
							"type": "uint256"
						},
						{
							"internalType": "uint256",
							"name": "_dateOfClose",
							"type": "uint256"
						}
					],
					"name": "setPromissoryInfo",
					"outputs": [],
					"stateMutability": "nonpayable",
					"type": "function"
				},
				{
					"stateMutability": "payable",
					"type": "receive"
				}
			],
			"devdoc": {
				"kind": "dev",
				"methods": {},
				"version": 1
			},
			"evm": {
				"assembly": "    /* \"contracts/promissory.sol\":57:5128  contract Promissory {... */\n  mstore(0x40, 0x80)\n    /* \"contracts/promissory.sol\":112:117  false */\n  0x00\n    /* \"contracts/promissory.sol\":83:117  bool public promissoryPaid = false */\n  dup1\n  exp(0x0100, 0x00)\n  dup2\n  sload\n  dup2\n  0xff\n  mul\n  not\n  and\n  swap1\n  dup4\n  iszero\n  iszero\n  mul\n  or\n  swap1\n  sstore\n  pop\n    /* \"contracts/promissory.sol\":153:158  false */\n  0x00\n    /* \"contracts/promissory.sol\":123:158  bool public paymentAccepted = false */\n  dup1\n  exp(0x0100, 0x01)\n  dup2\n  sload\n  dup2\n  0xff\n  mul\n  not\n  and\n  swap1\n  dup4\n  iszero\n  iszero\n  mul\n  or\n  swap1\n  sstore\n  pop\n    /* \"contracts/promissory.sol\":1745:1885  constructor(string memory _holderName) {... */\n  callvalue\n  dup1\n  iszero\n  tag_1\n  jumpi\n  0x00\n  dup1\n  revert\ntag_1:\n  pop\n  mload(0x40)\n  sub(codesize, bytecodeSize)\n  dup1\n  bytecodeSize\n  dup4\n  codecopy\n  dup2\n  dup2\n  add\n  0x40\n  mstore\n  dup2\n  add\n  swap1\n  tag_2\n  swap2\n  swap1\n  tag_3\n  jump\t// in\ntag_2:\n    /* \"contracts/promissory.sol\":1822:1832  msg.sender */\n  caller\n    /* \"contracts/promissory.sol\":1794:1804  promissory */\n  0x03\n    /* \"contracts/promissory.sol\":1794:1811  promissory.holder */\n  0x00\n  add\n  0x00\n    /* \"contracts/promissory.sol\":1794:1833  promissory.holder = payable(msg.sender) */\n  0x0100\n  exp\n  dup2\n  sload\n  dup2\n  0xffffffffffffffffffffffffffffffffffffffff\n  mul\n  not\n  and\n  swap1\n  dup4\n  0xffffffffffffffffffffffffffffffffffffffff\n  and\n  mul\n  or\n  swap1\n  sstore\n  pop\n    /* \"contracts/promissory.sol\":1867:1878  _holderName */\n  dup1\n    /* \"contracts/promissory.sol\":1843:1853  promissory */\n  0x03\n    /* \"contracts/promissory.sol\":1843:1864  promissory.holderName */\n  0x02\n  add\n    /* \"contracts/promissory.sol\":1843:1878  promissory.holderName = _holderName */\n  swap1\n  dup2\n  tag_6\n  swap2\n  swap1\n  tag_7\n  jump\t// in\ntag_6:\n  pop\n    /* \"contracts/promissory.sol\":1745:1885  constructor(string memory _holderName) {... */\n  pop\n    /* \"contracts/promissory.sol\":57:5128  contract Promissory {... */\n  jump(tag_8)\n    /* \"#utility.yul\":7:82   */\ntag_9:\n    /* \"#utility.yul\":40:46   */\n  0x00\n    /* \"#utility.yul\":73:75   */\n  0x40\n    /* \"#utility.yul\":67:76   */\n  mload\n    /* \"#utility.yul\":57:76   */\n  swap1\n  pop\n    /* \"#utility.yul\":7:82   */\n  swap1\n  jump\t// out\n    /* \"#utility.yul\":88:205   */\ntag_10:\n    /* \"#utility.yul\":197:198   */\n  0x00\n    /* \"#utility.yul\":194:195   */\n  dup1\n    /* \"#utility.yul\":187:199   */\n  revert\n    /* \"#utility.yul\":211:328   */\ntag_11:\n    /* \"#utility.yul\":320:321   */\n  0x00\n    /* \"#utility.yul\":317:318   */\n  dup1\n    /* \"#utility.yul\":310:322   */\n  revert\n    /* \"#utility.yul\":334:451   */\ntag_12:\n    /* \"#utility.yul\":443:444   */\n  0x00\n    /* \"#utility.yul\":440:441   */\n  dup1\n    /* \"#utility.yul\":433:445   */\n  revert\n    /* \"#utility.yul\":457:574   */\ntag_13:\n    /* \"#utility.yul\":566:567   */\n  0x00\n    /* \"#utility.yul\":563:564   */\n  dup1\n    /* \"#utility.yul\":556:568   */\n  revert\n    /* \"#utility.yul\":580:682   */\ntag_14:\n    /* \"#utility.yul\":621:627   */\n  0x00\n    /* \"#utility.yul\":672:674   */\n  0x1f\n    /* \"#utility.yul\":668:675   */\n  not\n    /* \"#utility.yul\":663:665   */\n  0x1f\n    /* \"#utility.yul\":656:661   */\n  dup4\n    /* \"#utility.yul\":652:666   */\n  add\n    /* \"#utility.yul\":648:676   */\n  and\n    /* \"#utility.yul\":638:676   */\n  swap1\n  pop\n    /* \"#utility.yul\":580:682   */\n  swap2\n  swap1\n  pop\n  jump\t// out\n    /* \"#utility.yul\":688:868   */\ntag_15:\n    /* \"#utility.yul\":736:813   */\n  0x4e487b7100000000000000000000000000000000000000000000000000000000\n    /* \"#utility.yul\":733:734   */\n  0x00\n    /* \"#utility.yul\":726:814   */\n  mstore\n    /* \"#utility.yul\":833:837   */\n  0x41\n    /* \"#utility.yul\":830:831   */\n  0x04\n    /* \"#utility.yul\":823:838   */\n  mstore\n    /* \"#utility.yul\":857:861   */\n  0x24\n    /* \"#utility.yul\":854:855   */\n  0x00\n    /* \"#utility.yul\":847:862   */\n  revert\n    /* \"#utility.yul\":874:1155   */\ntag_16:\n    /* \"#utility.yul\":957:984   */\n  tag_50\n    /* \"#utility.yul\":979:983   */\n  dup3\n    /* \"#utility.yul\":957:984   */\n  tag_14\n  jump\t// in\ntag_50:\n    /* \"#utility.yul\":949:955   */\n  dup2\n    /* \"#utility.yul\":945:985   */\n  add\n    /* \"#utility.yul\":1087:1093   */\n  dup2\n    /* \"#utility.yul\":1075:1085   */\n  dup2\n    /* \"#utility.yul\":1072:1094   */\n  lt\n    /* \"#utility.yul\":1051:1069   */\n  0xffffffffffffffff\n    /* \"#utility.yul\":1039:1049   */\n  dup3\n    /* \"#utility.yul\":1036:1070   */\n  gt\n    /* \"#utility.yul\":1033:1095   */\n  or\n    /* \"#utility.yul\":1030:1118   */\n  iszero\n  tag_51\n  jumpi\n    /* \"#utility.yul\":1098:1116   */\n  tag_52\n  tag_15\n  jump\t// in\ntag_52:\n    /* \"#utility.yul\":1030:1118   */\ntag_51:\n    /* \"#utility.yul\":1138:1148   */\n  dup1\n    /* \"#utility.yul\":1134:1136   */\n  0x40\n    /* \"#utility.yul\":1127:1149   */\n  mstore\n    /* \"#utility.yul\":917:1155   */\n  pop\n    /* \"#utility.yul\":874:1155   */\n  pop\n  pop\n  jump\t// out\n    /* \"#utility.yul\":1161:1290   */\ntag_17:\n    /* \"#utility.yul\":1195:1201   */\n  0x00\n    /* \"#utility.yul\":1222:1242   */\n  tag_54\n  tag_9\n  jump\t// in\ntag_54:\n    /* \"#utility.yul\":1212:1242   */\n  swap1\n  pop\n    /* \"#utility.yul\":1251:1284   */\n  tag_55\n    /* \"#utility.yul\":1279:1283   */\n  dup3\n    /* \"#utility.yul\":1271:1277   */\n  dup3\n    /* \"#utility.yul\":1251:1284   */\n  tag_16\n  jump\t// in\ntag_55:\n    /* \"#utility.yul\":1161:1290   */\n  swap2\n  swap1\n  pop\n  jump\t// out\n    /* \"#utility.yul\":1296:1604   */\ntag_18:\n    /* \"#utility.yul\":1358:1362   */\n  0x00\n    /* \"#utility.yul\":1448:1466   */\n  0xffffffffffffffff\n    /* \"#utility.yul\":1440:1446   */\n  dup3\n    /* \"#utility.yul\":1437:1467   */\n  gt\n    /* \"#utility.yul\":1434:1490   */\n  iszero\n  tag_57\n  jumpi\n    /* \"#utility.yul\":1470:1488   */\n  tag_58\n  tag_15\n  jump\t// in\ntag_58:\n    /* \"#utility.yul\":1434:1490   */\ntag_57:\n    /* \"#utility.yul\":1508:1537   */\n  tag_59\n    /* \"#utility.yul\":1530:1536   */\n  dup3\n    /* \"#utility.yul\":1508:1537   */\n  tag_14\n  jump\t// in\ntag_59:\n    /* \"#utility.yul\":1500:1537   */\n  swap1\n  pop\n    /* \"#utility.yul\":1592:1596   */\n  0x20\n    /* \"#utility.yul\":1586:1590   */\n  dup2\n    /* \"#utility.yul\":1582:1597   */\n  add\n    /* \"#utility.yul\":1574:1597   */\n  swap1\n  pop\n    /* \"#utility.yul\":1296:1604   */\n  swap2\n  swap1\n  pop\n  jump\t// out\n    /* \"#utility.yul\":1610:1917   */\ntag_19:\n    /* \"#utility.yul\":1678:1679   */\n  0x00\n    /* \"#utility.yul\":1688:1801   */\ntag_61:\n    /* \"#utility.yul\":1702:1708   */\n  dup4\n    /* \"#utility.yul\":1699:1700   */\n  dup2\n    /* \"#utility.yul\":1696:1709   */\n  lt\n    /* \"#utility.yul\":1688:1801   */\n  iszero\n  tag_63\n  jumpi\n    /* \"#utility.yul\":1787:1788   */\n  dup1\n    /* \"#utility.yul\":1782:1785   */\n  dup3\n    /* \"#utility.yul\":1778:1789   */\n  add\n    /* \"#utility.yul\":1772:1790   */\n  mload\n    /* \"#utility.yul\":1768:1769   */\n  dup2\n    /* \"#utility.yul\":1763:1766   */\n  dup5\n    /* \"#utility.yul\":1759:1770   */\n  add\n    /* \"#utility.yul\":1752:1791   */\n  mstore\n    /* \"#utility.yul\":1724:1726   */\n  0x20\n    /* \"#utility.yul\":1721:1722   */\n  dup2\n    /* \"#utility.yul\":1717:1727   */\n  add\n    /* \"#utility.yul\":1712:1727   */\n  swap1\n  pop\n    /* \"#utility.yul\":1688:1801   */\n  jump(tag_61)\ntag_63:\n    /* \"#utility.yul\":1819:1825   */\n  dup4\n    /* \"#utility.yul\":1816:1817   */\n  dup2\n    /* \"#utility.yul\":1813:1826   */\n  gt\n    /* \"#utility.yul\":1810:1911   */\n  iszero\n  tag_64\n  jumpi\n    /* \"#utility.yul\":1899:1900   */\n  0x00\n    /* \"#utility.yul\":1890:1896   */\n  dup5\n    /* \"#utility.yul\":1885:1888   */\n  dup5\n    /* \"#utility.yul\":1881:1897   */\n  add\n    /* \"#utility.yul\":1874:1901   */\n  mstore\n    /* \"#utility.yul\":1810:1911   */\ntag_64:\n    /* \"#utility.yul\":1659:1917   */\n  pop\n    /* \"#utility.yul\":1610:1917   */\n  pop\n  pop\n  pop\n  jump\t// out\n    /* \"#utility.yul\":1923:2344   */\ntag_20:\n    /* \"#utility.yul\":2012:2017   */\n  0x00\n    /* \"#utility.yul\":2037:2103   */\n  tag_66\n    /* \"#utility.yul\":2053:2102   */\n  tag_67\n    /* \"#utility.yul\":2095:2101   */\n  dup5\n    /* \"#utility.yul\":2053:2102   */\n  tag_18\n  jump\t// in\ntag_67:\n    /* \"#utility.yul\":2037:2103   */\n  tag_17\n  jump\t// in\ntag_66:\n    /* \"#utility.yul\":2028:2103   */\n  swap1\n  pop\n    /* \"#utility.yul\":2126:2132   */\n  dup3\n    /* \"#utility.yul\":2119:2124   */\n  dup2\n    /* \"#utility.yul\":2112:2133   */\n  mstore\n    /* \"#utility.yul\":2164:2168   */\n  0x20\n    /* \"#utility.yul\":2157:2162   */\n  dup2\n    /* \"#utility.yul\":2153:2169   */\n  add\n    /* \"#utility.yul\":2202:2205   */\n  dup5\n    /* \"#utility.yul\":2193:2199   */\n  dup5\n    /* \"#utility.yul\":2188:2191   */\n  dup5\n    /* \"#utility.yul\":2184:2200   */\n  add\n    /* \"#utility.yul\":2181:2206   */\n  gt\n    /* \"#utility.yul\":2178:2290   */\n  iszero\n  tag_68\n  jumpi\n    /* \"#utility.yul\":2209:2288   */\n  tag_69\n  tag_13\n  jump\t// in\ntag_69:\n    /* \"#utility.yul\":2178:2290   */\ntag_68:\n    /* \"#utility.yul\":2299:2338   */\n  tag_70\n    /* \"#utility.yul\":2331:2337   */\n  dup5\n    /* \"#utility.yul\":2326:2329   */\n  dup3\n    /* \"#utility.yul\":2321:2324   */\n  dup6\n    /* \"#utility.yul\":2299:2338   */\n  tag_19\n  jump\t// in\ntag_70:\n    /* \"#utility.yul\":2018:2344   */\n  pop\n    /* \"#utility.yul\":1923:2344   */\n  swap4\n  swap3\n  pop\n  pop\n  pop\n  jump\t// out\n    /* \"#utility.yul\":2364:2719   */\ntag_21:\n    /* \"#utility.yul\":2431:2436   */\n  0x00\n    /* \"#utility.yul\":2480:2483   */\n  dup3\n    /* \"#utility.yul\":2473:2477   */\n  0x1f\n    /* \"#utility.yul\":2465:2471   */\n  dup4\n    /* \"#utility.yul\":2461:2478   */\n  add\n    /* \"#utility.yul\":2457:2484   */\n  slt\n    /* \"#utility.yul\":2447:2569   */\n  tag_72\n  jumpi\n    /* \"#utility.yul\":2488:2567   */\n  tag_73\n  tag_12\n  jump\t// in\ntag_73:\n    /* \"#utility.yul\":2447:2569   */\ntag_72:\n    /* \"#utility.yul\":2598:2604   */\n  dup2\n    /* \"#utility.yul\":2592:2605   */\n  mload\n    /* \"#utility.yul\":2623:2713   */\n  tag_74\n    /* \"#utility.yul\":2709:2712   */\n  dup5\n    /* \"#utility.yul\":2701:2707   */\n  dup3\n    /* \"#utility.yul\":2694:2698   */\n  0x20\n    /* \"#utility.yul\":2686:2692   */\n  dup7\n    /* \"#utility.yul\":2682:2699   */\n  add\n    /* \"#utility.yul\":2623:2713   */\n  tag_20\n  jump\t// in\ntag_74:\n    /* \"#utility.yul\":2614:2713   */\n  swap2\n  pop\n    /* \"#utility.yul\":2437:2719   */\n  pop\n    /* \"#utility.yul\":2364:2719   */\n  swap3\n  swap2\n  pop\n  pop\n  jump\t// out\n    /* \"#utility.yul\":2725:3249   */\ntag_3:\n    /* \"#utility.yul\":2805:2811   */\n  0x00\n    /* \"#utility.yul\":2854:2856   */\n  0x20\n    /* \"#utility.yul\":2842:2851   */\n  dup3\n    /* \"#utility.yul\":2833:2840   */\n  dup5\n    /* \"#utility.yul\":2829:2852   */\n  sub\n    /* \"#utility.yul\":2825:2857   */\n  slt\n    /* \"#utility.yul\":2822:2941   */\n  iszero\n  tag_76\n  jumpi\n    /* \"#utility.yul\":2860:2939   */\n  tag_77\n  tag_10\n  jump\t// in\ntag_77:\n    /* \"#utility.yul\":2822:2941   */\ntag_76:\n    /* \"#utility.yul\":3001:3002   */\n  0x00\n    /* \"#utility.yul\":2990:2999   */\n  dup3\n    /* \"#utility.yul\":2986:3003   */\n  add\n    /* \"#utility.yul\":2980:3004   */\n  mload\n    /* \"#utility.yul\":3031:3049   */\n  0xffffffffffffffff\n    /* \"#utility.yul\":3023:3029   */\n  dup2\n    /* \"#utility.yul\":3020:3050   */\n  gt\n    /* \"#utility.yul\":3017:3134   */\n  iszero\n  tag_78\n  jumpi\n    /* \"#utility.yul\":3053:3132   */\n  tag_79\n  tag_11\n  jump\t// in\ntag_79:\n    /* \"#utility.yul\":3017:3134   */\ntag_78:\n    /* \"#utility.yul\":3158:3232   */\n  tag_80\n    /* \"#utility.yul\":3224:3231   */\n  dup5\n    /* \"#utility.yul\":3215:3221   */\n  dup3\n    /* \"#utility.yul\":3204:3213   */\n  dup6\n    /* \"#utility.yul\":3200:3222   */\n  add\n    /* \"#utility.yul\":3158:3232   */\n  tag_21\n  jump\t// in\ntag_80:\n    /* \"#utility.yul\":3148:3232   */\n  swap2\n  pop\n    /* \"#utility.yul\":2951:3242   */\n  pop\n    /* \"#utility.yul\":2725:3249   */\n  swap3\n  swap2\n  pop\n  pop\n  jump\t// out\n    /* \"#utility.yul\":3255:3354   */\ntag_22:\n    /* \"#utility.yul\":3307:3313   */\n  0x00\n    /* \"#utility.yul\":3341:3346   */\n  dup2\n    /* \"#utility.yul\":3335:3347   */\n  mload\n    /* \"#utility.yul\":3325:3347   */\n  swap1\n  pop\n    /* \"#utility.yul\":3255:3354   */\n  swap2\n  swap1\n  pop\n  jump\t// out\n    /* \"#utility.yul\":3360:3540   */\ntag_23:\n    /* \"#utility.yul\":3408:3485   */\n  0x4e487b7100000000000000000000000000000000000000000000000000000000\n    /* \"#utility.yul\":3405:3406   */\n  0x00\n    /* \"#utility.yul\":3398:3486   */\n  mstore\n    /* \"#utility.yul\":3505:3509   */\n  0x22\n    /* \"#utility.yul\":3502:3503   */\n  0x04\n    /* \"#utility.yul\":3495:3510   */\n  mstore\n    /* \"#utility.yul\":3529:3533   */\n  0x24\n    /* \"#utility.yul\":3526:3527   */\n  0x00\n    /* \"#utility.yul\":3519:3534   */\n  revert\n    /* \"#utility.yul\":3546:3866   */\ntag_24:\n    /* \"#utility.yul\":3590:3596   */\n  0x00\n    /* \"#utility.yul\":3627:3628   */\n  0x02\n    /* \"#utility.yul\":3621:3625   */\n  dup3\n    /* \"#utility.yul\":3617:3629   */\n  div\n    /* \"#utility.yul\":3607:3629   */\n  swap1\n  pop\n    /* \"#utility.yul\":3674:3675   */\n  0x01\n    /* \"#utility.yul\":3668:3672   */\n  dup3\n    /* \"#utility.yul\":3664:3676   */\n  and\n    /* \"#utility.yul\":3695:3713   */\n  dup1\n    /* \"#utility.yul\":3685:3766   */\n  tag_84\n  jumpi\n    /* \"#utility.yul\":3751:3755   */\n  0x7f\n    /* \"#utility.yul\":3743:3749   */\n  dup3\n    /* \"#utility.yul\":3739:3756   */\n  and\n    /* \"#utility.yul\":3729:3756   */\n  swap2\n  pop\n    /* \"#utility.yul\":3685:3766   */\ntag_84:\n    /* \"#utility.yul\":3813:3815   */\n  0x20\n    /* \"#utility.yul\":3805:3811   */\n  dup3\n    /* \"#utility.yul\":3802:3816   */\n  lt\n    /* \"#utility.yul\":3782:3800   */\n  dup2\n    /* \"#utility.yul\":3779:3817   */\n  sub\n    /* \"#utility.yul\":3776:3860   */\n  tag_85\n  jumpi\n    /* \"#utility.yul\":3832:3850   */\n  tag_86\n  tag_23\n  jump\t// in\ntag_86:\n    /* \"#utility.yul\":3776:3860   */\ntag_85:\n    /* \"#utility.yul\":3597:3866   */\n  pop\n    /* \"#utility.yul\":3546:3866   */\n  swap2\n  swap1\n  pop\n  jump\t// out\n    /* \"#utility.yul\":3872:4013   */\ntag_25:\n    /* \"#utility.yul\":3921:3925   */\n  0x00\n    /* \"#utility.yul\":3944:3947   */\n  dup2\n    /* \"#utility.yul\":3936:3947   */\n  swap1\n  pop\n    /* \"#utility.yul\":3967:3970   */\n  dup2\n    /* \"#utility.yul\":3964:3965   */\n  0x00\n    /* \"#utility.yul\":3957:3971   */\n  mstore\n    /* \"#utility.yul\":4001:4005   */\n  0x20\n    /* \"#utility.yul\":3998:3999   */\n  0x00\n    /* \"#utility.yul\":3988:4006   */\n  keccak256\n    /* \"#utility.yul\":3980:4006   */\n  swap1\n  pop\n    /* \"#utility.yul\":3872:4013   */\n  swap2\n  swap1\n  pop\n  jump\t// out\n    /* \"#utility.yul\":4019:4112   */\ntag_26:\n    /* \"#utility.yul\":4056:4062   */\n  0x00\n    /* \"#utility.yul\":4103:4105   */\n  0x20\n    /* \"#utility.yul\":4098:4100   */\n  0x1f\n    /* \"#utility.yul\":4091:4096   */\n  dup4\n    /* \"#utility.yul\":4087:4101   */\n  add\n    /* \"#utility.yul\":4083:4106   */\n  div\n    /* \"#utility.yul\":4073:4106   */\n  swap1\n  pop\n    /* \"#utility.yul\":4019:4112   */\n  swap2\n  swap1\n  pop\n  jump\t// out\n    /* \"#utility.yul\":4118:4225   */\ntag_27:\n    /* \"#utility.yul\":4162:4170   */\n  0x00\n    /* \"#utility.yul\":4212:4217   */\n  dup3\n    /* \"#utility.yul\":4206:4210   */\n  dup3\n    /* \"#utility.yul\":4202:4218   */\n  shl\n    /* \"#utility.yul\":4181:4218   */\n  swap1\n  pop\n    /* \"#utility.yul\":4118:4225   */\n  swap3\n  swap2\n  pop\n  pop\n  jump\t// out\n    /* \"#utility.yul\":4231:4624   */\ntag_28:\n    /* \"#utility.yul\":4300:4306   */\n  0x00\n    /* \"#utility.yul\":4350:4351   */\n  0x08\n    /* \"#utility.yul\":4338:4348   */\n  dup4\n    /* \"#utility.yul\":4334:4352   */\n  mul\n    /* \"#utility.yul\":4373:4470   */\n  tag_91\n    /* \"#utility.yul\":4403:4469   */\n  0xffffffffffffffffffffffffffffffffffffffffffffffffffffffffffffffff\n    /* \"#utility.yul\":4392:4401   */\n  dup3\n    /* \"#utility.yul\":4373:4470   */\n  tag_27\n  jump\t// in\ntag_91:\n    /* \"#utility.yul\":4491:4530   */\n  tag_92\n    /* \"#utility.yul\":4521:4529   */\n  dup7\n    /* \"#utility.yul\":4510:4519   */\n  dup4\n    /* \"#utility.yul\":4491:4530   */\n  tag_27\n  jump\t// in\ntag_92:\n    /* \"#utility.yul\":4479:4530   */\n  swap6\n  pop\n    /* \"#utility.yul\":4563:4567   */\n  dup1\n    /* \"#utility.yul\":4559:4568   */\n  not\n    /* \"#utility.yul\":4552:4557   */\n  dup5\n    /* \"#utility.yul\":4548:4569   */\n  and\n    /* \"#utility.yul\":4539:4569   */\n  swap4\n  pop\n    /* \"#utility.yul\":4612:4616   */\n  dup1\n    /* \"#utility.yul\":4602:4610   */\n  dup7\n    /* \"#utility.yul\":4598:4617   */\n  and\n    /* \"#utility.yul\":4591:4596   */\n  dup5\n    /* \"#utility.yul\":4588:4618   */\n  or\n    /* \"#utility.yul\":4578:4618   */\n  swap3\n  pop\n    /* \"#utility.yul\":4307:4624   */\n  pop\n  pop\n    /* \"#utility.yul\":4231:4624   */\n  swap4\n  swap3\n  pop\n  pop\n  pop\n  jump\t// out\n    /* \"#utility.yul\":4630:4707   */\ntag_29:\n    /* \"#utility.yul\":4667:4674   */\n  0x00\n    /* \"#utility.yul\":4696:4701   */\n  dup2\n    /* \"#utility.yul\":4685:4701   */\n  swap1\n  pop\n    /* \"#utility.yul\":4630:4707   */\n  swap2\n  swap1\n  pop\n  jump\t// out\n    /* \"#utility.yul\":4713:4773   */\ntag_30:\n    /* \"#utility.yul\":4741:4744   */\n  0x00\n    /* \"#utility.yul\":4762:4767   */\n  dup2\n    /* \"#utility.yul\":4755:4767   */\n  swap1\n  pop\n    /* \"#utility.yul\":4713:4773   */\n  swap2\n  swap1\n  pop\n  jump\t// out\n    /* \"#utility.yul\":4779:4921   */\ntag_31:\n    /* \"#utility.yul\":4829:4838   */\n  0x00\n    /* \"#utility.yul\":4862:4915   */\n  tag_96\n    /* \"#utility.yul\":4880:4914   */\n  tag_97\n    /* \"#utility.yul\":4889:4913   */\n  tag_98\n    /* \"#utility.yul\":4907:4912   */\n  dup5\n    /* \"#utility.yul\":4889:4913   */\n  tag_29\n  jump\t// in\ntag_98:\n    /* \"#utility.yul\":4880:4914   */\n  tag_30\n  jump\t// in\ntag_97:\n    /* \"#utility.yul\":4862:4915   */\n  tag_29\n  jump\t// in\ntag_96:\n    /* \"#utility.yul\":4849:4915   */\n  swap1\n  pop\n    /* \"#utility.yul\":4779:4921   */\n  swap2\n  swap1\n  pop\n  jump\t// out\n    /* \"#utility.yul\":4927:5002   */\ntag_32:\n    /* \"#utility.yul\":4970:4973   */\n  0x00\n    /* \"#utility.yul\":4991:4996   */\n  dup2\n    /* \"#utility.yul\":4984:4996   */\n  swap1\n  pop\n    /* \"#utility.yul\":4927:5002   */\n  swap2\n  swap1\n  pop\n  jump\t// out\n    /* \"#utility.yul\":5008:5277   */\ntag_33:\n    /* \"#utility.yul\":5118:5157   */\n  tag_101\n    /* \"#utility.yul\":5149:5156   */\n  dup4\n    /* \"#utility.yul\":5118:5157   */\n  tag_31\n  jump\t// in\ntag_101:\n    /* \"#utility.yul\":5179:5270   */\n  tag_102\n    /* \"#utility.yul\":5228:5269   */\n  tag_103\n    /* \"#utility.yul\":5252:5268   */\n  dup3\n    /* \"#utility.yul\":5228:5269   */\n  tag_32\n  jump\t// in\ntag_103:\n    /* \"#utility.yul\":5220:5226   */\n  dup5\n    /* \"#utility.yul\":5213:5217   */\n  dup5\n    /* \"#utility.yul\":5207:5218   */\n  sload\n    /* \"#utility.yul\":5179:5270   */\n  tag_28\n  jump\t// in\ntag_102:\n    /* \"#utility.yul\":5173:5177   */\n  dup3\n    /* \"#utility.yul\":5166:5271   */\n  sstore\n    /* \"#utility.yul\":5084:5277   */\n  pop\n    /* \"#utility.yul\":5008:5277   */\n  pop\n  pop\n  pop\n  jump\t// out\n    /* \"#utility.yul\":5283:5356   */\ntag_34:\n    /* \"#utility.yul\":5328:5331   */\n  0x00\n    /* \"#utility.yul\":5283:5356   */\n  swap1\n  jump\t// out\n    /* \"#utility.yul\":5362:5551   */\ntag_35:\n    /* \"#utility.yul\":5439:5471   */\n  tag_106\n  tag_34\n  jump\t// in\ntag_106:\n    /* \"#utility.yul\":5480:5545   */\n  tag_107\n    /* \"#utility.yul\":5538:5544   */\n  dup2\n    /* \"#utility.yul\":5530:5536   */\n  dup5\n    /* \"#utility.yul\":5524:5528   */\n  dup5\n    /* \"#utility.yul\":5480:5545   */\n  tag_33\n  jump\t// in\ntag_107:\n    /* \"#utility.yul\":5415:5551   */\n  pop\n    /* \"#utility.yul\":5362:5551   */\n  pop\n  pop\n  jump\t// out\n    /* \"#utility.yul\":5557:5743   */\ntag_36:\n    /* \"#utility.yul\":5617:5737   */\ntag_109:\n    /* \"#utility.yul\":5634:5637   */\n  dup2\n    /* \"#utility.yul\":5627:5632   */\n  dup2\n    /* \"#utility.yul\":5624:5638   */\n  lt\n    /* \"#utility.yul\":5617:5737   */\n  iszero\n  tag_111\n  jumpi\n    /* \"#utility.yul\":5688:5727   */\n  tag_112\n    /* \"#utility.yul\":5725:5726   */\n  0x00\n    /* \"#utility.yul\":5718:5723   */\n  dup3\n    /* \"#utility.yul\":5688:5727   */\n  tag_35\n  jump\t// in\ntag_112:\n    /* \"#utility.yul\":5661:5662   */\n  0x01\n    /* \"#utility.yul\":5654:5659   */\n  dup2\n    /* \"#utility.yul\":5650:5663   */\n  add\n    /* \"#utility.yul\":5641:5663   */\n  swap1\n  pop\n    /* \"#utility.yul\":5617:5737   */\n  jump(tag_109)\ntag_111:\n    /* \"#utility.yul\":5557:5743   */\n  pop\n  pop\n  jump\t// out\n    /* \"#utility.yul\":5749:6292   */\ntag_37:\n    /* \"#utility.yul\":5850:5852   */\n  0x1f\n    /* \"#utility.yul\":5845:5848   */\n  dup3\n    /* \"#utility.yul\":5842:5853   */\n  gt\n    /* \"#utility.yul\":5839:6285   */\n  iszero\n  tag_114\n  jumpi\n    /* \"#utility.yul\":5884:5922   */\n  tag_115\n    /* \"#utility.yul\":5916:5921   */\n  dup2\n    /* \"#utility.yul\":5884:5922   */\n  tag_25\n  jump\t// in\ntag_115:\n    /* \"#utility.yul\":5968:5997   */\n  tag_116\n    /* \"#utility.yul\":5986:5996   */\n  dup5\n    /* \"#utility.yul\":5968:5997   */\n  tag_26\n  jump\t// in\ntag_116:\n    /* \"#utility.yul\":5958:5966   */\n  dup2\n    /* \"#utility.yul\":5954:5998   */\n  add\n    /* \"#utility.yul\":6151:6153   */\n  0x20\n    /* \"#utility.yul\":6139:6149   */\n  dup6\n    /* \"#utility.yul\":6136:6154   */\n  lt\n    /* \"#utility.yul\":6133:6182   */\n  iszero\n  tag_117\n  jumpi\n    /* \"#utility.yul\":6172:6180   */\n  dup2\n    /* \"#utility.yul\":6157:6180   */\n  swap1\n  pop\n    /* \"#utility.yul\":6133:6182   */\ntag_117:\n    /* \"#utility.yul\":6195:6275   */\n  tag_118\n    /* \"#utility.yul\":6251:6273   */\n  tag_119\n    /* \"#utility.yul\":6269:6272   */\n  dup6\n    /* \"#utility.yul\":6251:6273   */\n  tag_26\n  jump\t// in\ntag_119:\n    /* \"#utility.yul\":6241:6249   */\n  dup4\n    /* \"#utility.yul\":6237:6274   */\n  add\n    /* \"#utility.yul\":6224:6235   */\n  dup3\n    /* \"#utility.yul\":6195:6275   */\n  tag_36\n  jump\t// in\ntag_118:\n    /* \"#utility.yul\":5854:6285   */\n  pop\n  pop\n    /* \"#utility.yul\":5839:6285   */\ntag_114:\n    /* \"#utility.yul\":5749:6292   */\n  pop\n  pop\n  pop\n  jump\t// out\n    /* \"#utility.yul\":6298:6415   */\ntag_38:\n    /* \"#utility.yul\":6352:6360   */\n  0x00\n    /* \"#utility.yul\":6402:6407   */\n  dup3\n    /* \"#utility.yul\":6396:6400   */\n  dup3\n    /* \"#utility.yul\":6392:6408   */\n  shr\n    /* \"#utility.yul\":6371:6408   */\n  swap1\n  pop\n    /* \"#utility.yul\":6298:6415   */\n  swap3\n  swap2\n  pop\n  pop\n  jump\t// out\n    /* \"#utility.yul\":6421:6590   */\ntag_39:\n    /* \"#utility.yul\":6465:6471   */\n  0x00\n    /* \"#utility.yul\":6498:6549   */\n  tag_122\n    /* \"#utility.yul\":6546:6547   */\n  0x00\n    /* \"#utility.yul\":6542:6548   */\n  not\n    /* \"#utility.yul\":6534:6539   */\n  dup5\n    /* \"#utility.yul\":6531:6532   */\n  0x08\n    /* \"#utility.yul\":6527:6540   */\n  mul\n    /* \"#utility.yul\":6498:6549   */\n  tag_38\n  jump\t// in\ntag_122:\n    /* \"#utility.yul\":6494:6550   */\n  not\n    /* \"#utility.yul\":6579:6583   */\n  dup1\n    /* \"#utility.yul\":6573:6577   */\n  dup4\n    /* \"#utility.yul\":6569:6584   */\n  and\n    /* \"#utility.yul\":6559:6584   */\n  swap2\n  pop\n    /* \"#utility.yul\":6472:6590   */\n  pop\n    /* \"#utility.yul\":6421:6590   */\n  swap3\n  swap2\n  pop\n  pop\n  jump\t// out\n    /* \"#utility.yul\":6595:6890   */\ntag_40:\n    /* \"#utility.yul\":6671:6675   */\n  0x00\n    /* \"#utility.yul\":6817:6846   */\n  tag_124\n    /* \"#utility.yul\":6842:6845   */\n  dup4\n    /* \"#utility.yul\":6836:6840   */\n  dup4\n    /* \"#utility.yul\":6817:6846   */\n  tag_39\n  jump\t// in\ntag_124:\n    /* \"#utility.yul\":6809:6846   */\n  swap2\n  pop\n    /* \"#utility.yul\":6879:6882   */\n  dup3\n    /* \"#utility.yul\":6876:6877   */\n  0x02\n    /* \"#utility.yul\":6872:6883   */\n  mul\n    /* \"#utility.yul\":6866:6870   */\n  dup3\n    /* \"#utility.yul\":6863:6884   */\n  or\n    /* \"#utility.yul\":6855:6884   */\n  swap1\n  pop\n    /* \"#utility.yul\":6595:6890   */\n  swap3\n  swap2\n  pop\n  pop\n  jump\t// out\n    /* \"#utility.yul\":6895:8290   */\ntag_7:\n    /* \"#utility.yul\":7012:7049   */\n  tag_126\n    /* \"#utility.yul\":7045:7048   */\n  dup3\n    /* \"#utility.yul\":7012:7049   */\n  tag_22\n  jump\t// in\ntag_126:\n    /* \"#utility.yul\":7114:7132   */\n  0xffffffffffffffff\n    /* \"#utility.yul\":7106:7112   */\n  dup2\n    /* \"#utility.yul\":7103:7133   */\n  gt\n    /* \"#utility.yul\":7100:7156   */\n  iszero\n  tag_127\n  jumpi\n    /* \"#utility.yul\":7136:7154   */\n  tag_128\n  tag_15\n  jump\t// in\ntag_128:\n    /* \"#utility.yul\":7100:7156   */\ntag_127:\n    /* \"#utility.yul\":7180:7218   */\n  tag_129\n    /* \"#utility.yul\":7212:7216   */\n  dup3\n    /* \"#utility.yul\":7206:7217   */\n  sload\n    /* \"#utility.yul\":7180:7218   */\n  tag_24\n  jump\t// in\ntag_129:\n    /* \"#utility.yul\":7265:7332   */\n  tag_130\n    /* \"#utility.yul\":7325:7331   */\n  dup3\n    /* \"#utility.yul\":7317:7323   */\n  dup3\n    /* \"#utility.yul\":7311:7315   */\n  dup6\n    /* \"#utility.yul\":7265:7332   */\n  tag_37\n  jump\t// in\ntag_130:\n    /* \"#utility.yul\":7359:7360   */\n  0x00\n    /* \"#utility.yul\":7383:7387   */\n  0x20\n    /* \"#utility.yul\":7370:7387   */\n  swap1\n  pop\n    /* \"#utility.yul\":7415:7417   */\n  0x1f\n    /* \"#utility.yul\":7407:7413   */\n  dup4\n    /* \"#utility.yul\":7404:7418   */\n  gt\n    /* \"#utility.yul\":7432:7433   */\n  0x01\n    /* \"#utility.yul\":7427:8045   */\n  dup2\n  eq\n  tag_132\n  jumpi\n    /* \"#utility.yul\":8089:8090   */\n  0x00\n    /* \"#utility.yul\":8106:8112   */\n  dup5\n    /* \"#utility.yul\":8103:8180   */\n  iszero\n  tag_133\n  jumpi\n    /* \"#utility.yul\":8155:8164   */\n  dup3\n    /* \"#utility.yul\":8150:8153   */\n  dup8\n    /* \"#utility.yul\":8146:8165   */\n  add\n    /* \"#utility.yul\":8140:8166   */\n  mload\n    /* \"#utility.yul\":8131:8166   */\n  swap1\n  pop\n    /* \"#utility.yul\":8103:8180   */\ntag_133:\n    /* \"#utility.yul\":8206:8273   */\n  tag_134\n    /* \"#utility.yul\":8266:8272   */\n  dup6\n    /* \"#utility.yul\":8259:8264   */\n  dup3\n    /* \"#utility.yul\":8206:8273   */\n  tag_40\n  jump\t// in\ntag_134:\n    /* \"#utility.yul\":8200:8204   */\n  dup7\n    /* \"#utility.yul\":8193:8274   */\n  sstore\n    /* \"#utility.yul\":8062:8284   */\n  pop\n    /* \"#utility.yul\":7397:8284   */\n  jump(tag_131)\n    /* \"#utility.yul\":7427:8045   */\ntag_132:\n    /* \"#utility.yul\":7479:7483   */\n  0x1f\n    /* \"#utility.yul\":7475:7484   */\n  not\n    /* \"#utility.yul\":7467:7473   */\n  dup5\n    /* \"#utility.yul\":7463:7485   */\n  and\n    /* \"#utility.yul\":7513:7550   */\n  tag_135\n    /* \"#utility.yul\":7545:7549   */\n  dup7\n    /* \"#utility.yul\":7513:7550   */\n  tag_25\n  jump\t// in\ntag_135:\n    /* \"#utility.yul\":7572:7573   */\n  0x00\n    /* \"#utility.yul\":7586:7794   */\ntag_136:\n    /* \"#utility.yul\":7600:7607   */\n  dup3\n    /* \"#utility.yul\":7597:7598   */\n  dup2\n    /* \"#utility.yul\":7594:7608   */\n  lt\n    /* \"#utility.yul\":7586:7794   */\n  iszero\n  tag_138\n  jumpi\n    /* \"#utility.yul\":7679:7688   */\n  dup5\n    /* \"#utility.yul\":7674:7677   */\n  dup10\n    /* \"#utility.yul\":7670:7689   */\n  add\n    /* \"#utility.yul\":7664:7690   */\n  mload\n    /* \"#utility.yul\":7656:7662   */\n  dup3\n    /* \"#utility.yul\":7649:7691   */\n  sstore\n    /* \"#utility.yul\":7730:7731   */\n  0x01\n    /* \"#utility.yul\":7722:7728   */\n  dup3\n    /* \"#utility.yul\":7718:7732   */\n  add\n    /* \"#utility.yul\":7708:7732   */\n  swap2\n  pop\n    /* \"#utility.yul\":7777:7779   */\n  0x20\n    /* \"#utility.yul\":7766:7775   */\n  dup6\n    /* \"#utility.yul\":7762:7780   */\n  add\n    /* \"#utility.yul\":7749:7780   */\n  swap5\n  pop\n    /* \"#utility.yul\":7623:7627   */\n  0x20\n    /* \"#utility.yul\":7620:7621   */\n  dup2\n    /* \"#utility.yul\":7616:7628   */\n  add\n    /* \"#utility.yul\":7611:7628   */\n  swap1\n  pop\n    /* \"#utility.yul\":7586:7794   */\n  jump(tag_136)\ntag_138:\n    /* \"#utility.yul\":7822:7828   */\n  dup7\n    /* \"#utility.yul\":7813:7820   */\n  dup4\n    /* \"#utility.yul\":7810:7829   */\n  lt\n    /* \"#utility.yul\":7807:7986   */\n  iszero\n  tag_139\n  jumpi\n    /* \"#utility.yul\":7880:7889   */\n  dup5\n    /* \"#utility.yul\":7875:7878   */\n  dup10\n    /* \"#utility.yul\":7871:7890   */\n  add\n    /* \"#utility.yul\":7865:7891   */\n  mload\n    /* \"#utility.yul\":7923:7971   */\n  tag_140\n    /* \"#utility.yul\":7965:7969   */\n  0x1f\n    /* \"#utility.yul\":7957:7963   */\n  dup10\n    /* \"#utility.yul\":7953:7970   */\n  and\n    /* \"#utility.yul\":7942:7951   */\n  dup3\n    /* \"#utility.yul\":7923:7971   */\n  tag_39\n  jump\t// in\ntag_140:\n    /* \"#utility.yul\":7915:7921   */\n  dup4\n    /* \"#utility.yul\":7908:7972   */\n  sstore\n    /* \"#utility.yul\":7830:7986   */\n  pop\n    /* \"#utility.yul\":7807:7986   */\ntag_139:\n    /* \"#utility.yul\":8032:8033   */\n  0x01\n    /* \"#utility.yul\":8028:8029   */\n  0x02\n    /* \"#utility.yul\":8020:8026   */\n  dup9\n    /* \"#utility.yul\":8016:8030   */\n  mul\n    /* \"#utility.yul\":8012:8034   */\n  add\n    /* \"#utility.yul\":8006:8010   */\n  dup9\n    /* \"#utility.yul\":7999:8035   */\n  sstore\n    /* \"#utility.yul\":7434:8045   */\n  pop\n  pop\n  pop\n    /* \"#utility.yul\":7397:8284   */\ntag_131:\n  pop\n    /* \"#utility.yul\":6987:8290   */\n  pop\n  pop\n  pop\n    /* \"#utility.yul\":6895:8290   */\n  pop\n  pop\n  jump\t// out\n    /* \"contracts/promissory.sol\":57:5128  contract Promissory {... */\ntag_8:\n  dataSize(sub_0)\n  dup1\n  dataOffset(sub_0)\n  0x00\n  codecopy\n  0x00\n  return\nstop\n\nsub_0: assembly {\n        /* \"contracts/promissory.sol\":57:5128  contract Promissory {... */\n      mstore(0x40, 0x80)\n      jumpi(tag_1, lt(calldatasize, 0x04))\n      shr(0xe0, calldataload(0x00))\n      dup1\n      0x9fcb8099\n      gt\n      tag_13\n      jumpi\n      dup1\n      0x9fcb8099\n      eq\n      tag_8\n      jumpi\n      dup1\n      0xad6069e0\n      eq\n      tag_9\n      jumpi\n      dup1\n      0xc0933340\n      eq\n      tag_10\n      jumpi\n      dup1\n      0xcf804c84\n      eq\n      tag_11\n      jumpi\n      dup1\n      0xefe270ba\n      eq\n      tag_12\n      jumpi\n      jump(tag_2)\n    tag_13:\n      dup1\n      0x3ea8a717\n      eq\n      tag_3\n      jumpi\n      dup1\n      0x70a57fd3\n      eq\n      tag_4\n      jumpi\n      dup1\n      0x72f924ae\n      eq\n      tag_5\n      jumpi\n      dup1\n      0x76cdb03b\n      eq\n      tag_6\n      jumpi\n      dup1\n      0x9c115f65\n      eq\n      tag_7\n      jumpi\n      jump(tag_2)\n    tag_1:\n      jumpi(tag_2, calldatasize)\n      stop\n    tag_2:\n      0x00\n      dup1\n      revert\n        /* \"contracts/promissory.sol\":164:195  uint256 public dateOfAcceptance */\n    tag_3:\n      callvalue\n      dup1\n      iszero\n      tag_16\n      jumpi\n      0x00\n      dup1\n      revert\n    tag_16:\n      pop\n      tag_17\n      tag_18\n      jump\t// in\n    tag_17:\n      mload(0x40)\n      tag_19\n      swap2\n      swap1\n      tag_20\n      jump\t// in\n    tag_19:\n      mload(0x40)\n      dup1\n      swap2\n      sub\n      swap1\n      return\n        /* \"contracts/promissory.sol\":3405:3683  function payPromissory() public payable onlyDebtor needConsent { ... */\n    tag_4:\n      tag_21\n      tag_22\n      jump\t// in\n    tag_21:\n      stop\n        /* \"contracts/promissory.sol\":3933:4191  function setPaymentAccepted() public onlyHolder promissoryWasPaid {... */\n    tag_5:\n      callvalue\n      dup1\n      iszero\n      tag_23\n      jumpi\n      0x00\n      dup1\n      revert\n    tag_23:\n      pop\n      tag_24\n      tag_25\n      jump\t// in\n    tag_24:\n      stop\n        /* \"contracts/promissory.sol\":201:220  uint256 public bank */\n    tag_6:\n      callvalue\n      dup1\n      iszero\n      tag_26\n      jumpi\n      0x00\n      dup1\n      revert\n    tag_26:\n      pop\n      tag_27\n      tag_28\n      jump\t// in\n    tag_27:\n      mload(0x40)\n      tag_29\n      swap2\n      swap1\n      tag_20\n      jump\t// in\n    tag_29:\n      mload(0x40)\n      dup1\n      swap2\n      sub\n      swap1\n      return\n        /* \"contracts/promissory.sol\":1960:2537  function setPromissoryInfo(... */\n    tag_7:\n      callvalue\n      dup1\n      iszero\n      tag_30\n      jumpi\n      0x00\n      dup1\n      revert\n    tag_30:\n      pop\n      tag_31\n      0x04\n      dup1\n      calldatasize\n      sub\n      dup2\n      add\n      swap1\n      tag_32\n      swap2\n      swap1\n      tag_33\n      jump\t// in\n    tag_32:\n      tag_34\n      jump\t// in\n    tag_31:\n      stop\n        /* \"contracts/promissory.sol\":2943:3192  function setHolderConsent() public onlyHolder {... */\n    tag_8:\n      callvalue\n      dup1\n      iszero\n      tag_35\n      jumpi\n      0x00\n      dup1\n      revert\n    tag_35:\n      pop\n      tag_36\n      tag_37\n      jump\t// in\n    tag_36:\n      stop\n        /* \"contracts/promissory.sol\":123:158  bool public paymentAccepted = false */\n    tag_9:\n      callvalue\n      dup1\n      iszero\n      tag_38\n      jumpi\n      0x00\n      dup1\n      revert\n    tag_38:\n      pop\n      tag_39\n      tag_40\n      jump\t// in\n    tag_39:\n      mload(0x40)\n      tag_41\n      swap2\n      swap1\n      tag_42\n      jump\t// in\n    tag_41:\n      mload(0x40)\n      dup1\n      swap2\n      sub\n      swap1\n      return\n        /* \"contracts/promissory.sol\":83:117  bool public promissoryPaid = false */\n    tag_10:\n      callvalue\n      dup1\n      iszero\n      tag_43\n      jumpi\n      0x00\n      dup1\n      revert\n    tag_43:\n      pop\n      tag_44\n      tag_45\n      jump\t// in\n    tag_44:\n      mload(0x40)\n      tag_46\n      swap2\n      swap1\n      tag_42\n      jump\t// in\n    tag_46:\n      mload(0x40)\n      dup1\n      swap2\n      sub\n      swap1\n      return\n        /* \"contracts/promissory.sol\":4382:4491  function getPromissoryInfo() external view returns (PromissoryInfo memory) {... */\n    tag_11:\n      callvalue\n      dup1\n      iszero\n      tag_47\n      jumpi\n      0x00\n      dup1\n      revert\n    tag_47:\n      pop\n      tag_48\n      tag_49\n      jump\t// in\n    tag_48:\n      mload(0x40)\n      tag_50\n      swap2\n      swap1\n      tag_51\n      jump\t// in\n    tag_50:\n      mload(0x40)\n      dup1\n      swap2\n      sub\n      swap1\n      return\n        /* \"contracts/promissory.sol\":2687:2937  function setDebtorConsent() public onlyDebtor {... */\n    tag_12:\n      callvalue\n      dup1\n      iszero\n      tag_52\n      jumpi\n      0x00\n      dup1\n      revert\n    tag_52:\n      pop\n      tag_53\n      tag_54\n      jump\t// in\n    tag_53:\n      stop\n        /* \"contracts/promissory.sol\":164:195  uint256 public dateOfAcceptance */\n    tag_18:\n      sload(0x01)\n      dup2\n      jump\t// out\n        /* \"contracts/promissory.sol\":3405:3683  function payPromissory() public payable onlyDebtor needConsent { ... */\n    tag_22:\n        /* \"contracts/promissory.sol\":4743:4753  promissory */\n      0x03\n        /* \"contracts/promissory.sol\":4743:4760  promissory.debtor */\n      0x01\n      add\n      0x00\n      swap1\n      sload\n      swap1\n      0x0100\n      exp\n      swap1\n      div\n      0xffffffffffffffffffffffffffffffffffffffff\n      and\n        /* \"contracts/promissory.sol\":4729:4760  msg.sender == promissory.debtor */\n      0xffffffffffffffffffffffffffffffffffffffff\n      and\n        /* \"contracts/promissory.sol\":4729:4739  msg.sender */\n      caller\n        /* \"contracts/promissory.sol\":4729:4760  msg.sender == promissory.debtor */\n      0xffffffffffffffffffffffffffffffffffffffff\n      and\n      eq\n        /* \"contracts/promissory.sol\":4721:4790  require(msg.sender == promissory.debtor, \"Only the Debtor can this!\") */\n      tag_56\n      jumpi\n      mload(0x40)\n      0x08c379a000000000000000000000000000000000000000000000000000000000\n      dup2\n      mstore\n      0x04\n      add\n      tag_57\n      swap1\n      tag_58\n      jump\t// in\n    tag_57:\n      mload(0x40)\n      dup1\n      swap2\n      sub\n      swap1\n      revert\n    tag_56:\n        /* \"contracts/promissory.sol\":4886:4890  true */\n      0x01\n        /* \"contracts/promissory.sol\":4858:4890  promissory.debtorConsent == true */\n      iszero\n      iszero\n        /* \"contracts/promissory.sol\":4858:4868  promissory */\n      0x03\n        /* \"contracts/promissory.sol\":4858:4882  promissory.debtorConsent */\n      0x09\n      add\n      0x01\n      swap1\n      sload\n      swap1\n      0x0100\n      exp\n      swap1\n      div\n      0xff\n      and\n        /* \"contracts/promissory.sol\":4858:4890  promissory.debtorConsent == true */\n      iszero\n      iszero\n      eq\n        /* \"contracts/promissory.sol\":4858:4926  promissory.debtorConsent == true && promissory.holderConsent == true */\n      dup1\n      iszero\n      tag_60\n      jumpi\n      pop\n        /* \"contracts/promissory.sol\":4922:4926  true */\n      0x01\n        /* \"contracts/promissory.sol\":4894:4926  promissory.holderConsent == true */\n      iszero\n      iszero\n        /* \"contracts/promissory.sol\":4894:4904  promissory */\n      0x03\n        /* \"contracts/promissory.sol\":4894:4918  promissory.holderConsent */\n      0x09\n      add\n      0x00\n      swap1\n      sload\n      swap1\n      0x0100\n      exp\n      swap1\n      div\n      0xff\n      and\n        /* \"contracts/promissory.sol\":4894:4926  promissory.holderConsent == true */\n      iszero\n      iszero\n      eq\n        /* \"contracts/promissory.sol\":4858:4926  promissory.debtorConsent == true && promissory.holderConsent == true */\n    tag_60:\n        /* \"contracts/promissory.sol\":4850:4964  require(promissory.debtorConsent == true && promissory.holderConsent == true, \"Need conset for Holder and Debtor\") */\n      tag_61\n      jumpi\n      mload(0x40)\n      0x08c379a000000000000000000000000000000000000000000000000000000000\n      dup2\n      mstore\n      0x04\n      add\n      tag_62\n      swap1\n      tag_63\n      jump\t// in\n    tag_62:\n      mload(0x40)\n      dup1\n      swap2\n      sub\n      swap1\n      revert\n    tag_61:\n        /* \"contracts/promissory.sol\":3479:3501  address payable debtor */\n      0x00\n        /* \"contracts/promissory.sol\":3512:3522  promissory */\n      0x03\n        /* \"contracts/promissory.sol\":3512:3529  promissory.debtor */\n      0x01\n      add\n      0x00\n      swap1\n      sload\n      swap1\n      0x0100\n      exp\n      swap1\n      div\n      0xffffffffffffffffffffffffffffffffffffffff\n      and\n        /* \"contracts/promissory.sol\":3479:3530  address payable debtor = payable(promissory.debtor) */\n      swap1\n      pop\n        /* \"contracts/promissory.sol\":3541:3553  bool success */\n      0x00\n        /* \"contracts/promissory.sol\":3559:3565  debtor */\n      dup2\n        /* \"contracts/promissory.sol\":3559:3570  debtor.call */\n      0xffffffffffffffffffffffffffffffffffffffff\n      and\n        /* \"contracts/promissory.sol\":3578:3588  promissory */\n      0x03\n        /* \"contracts/promissory.sol\":3578:3605  promissory.promissoryAmount */\n      0x04\n      add\n      sload\n        /* \"contracts/promissory.sol\":3559:3610  debtor.call{value: promissory.promissoryAmount}(\"\") */\n      mload(0x40)\n      tag_65\n      swap1\n      tag_66\n      jump\t// in\n    tag_65:\n      0x00\n      mload(0x40)\n      dup1\n      dup4\n      sub\n      dup2\n      dup6\n      dup8\n      gas\n      call\n      swap3\n      pop\n      pop\n      pop\n      returndatasize\n      dup1\n      0x00\n      dup2\n      eq\n      tag_69\n      jumpi\n      mload(0x40)\n      swap2\n      pop\n      and(add(returndatasize, 0x3f), not(0x1f))\n      dup3\n      add\n      0x40\n      mstore\n      returndatasize\n      dup3\n      mstore\n      returndatasize\n      0x00\n      0x20\n      dup5\n      add\n      returndatacopy\n      jump(tag_68)\n    tag_69:\n      0x60\n      swap2\n      pop\n    tag_68:\n      pop\n        /* \"contracts/promissory.sol\":3540:3610  (bool success, ) = debtor.call{value: promissory.promissoryAmount}(\"\") */\n      pop\n      swap1\n      pop\n        /* \"contracts/promissory.sol\":3628:3635  success */\n      dup1\n        /* \"contracts/promissory.sol\":3620:3636  require(success) */\n      tag_70\n      jumpi\n      0x00\n      dup1\n      revert\n    tag_70:\n        /* \"contracts/promissory.sol\":3672:3676  true */\n      0x01\n        /* \"contracts/promissory.sol\":3655:3669  promissoryPaid */\n      0x00\n      dup1\n        /* \"contracts/promissory.sol\":3655:3676  promissoryPaid = true */\n      0x0100\n      exp\n      dup2\n      sload\n      dup2\n      0xff\n      mul\n      not\n      and\n      swap1\n      dup4\n      iszero\n      iszero\n      mul\n      or\n      swap1\n      sstore\n      pop\n        /* \"contracts/promissory.sol\":3468:3683  { ... */\n      pop\n      pop\n        /* \"contracts/promissory.sol\":3405:3683  function payPromissory() public payable onlyDebtor needConsent { ... */\n      jump\t// out\n        /* \"contracts/promissory.sol\":3933:4191  function setPaymentAccepted() public onlyHolder promissoryWasPaid {... */\n    tag_25:\n        /* \"contracts/promissory.sol\":4618:4628  promissory */\n      0x03\n        /* \"contracts/promissory.sol\":4618:4635  promissory.holder */\n      0x00\n      add\n      0x00\n      swap1\n      sload\n      swap1\n      0x0100\n      exp\n      swap1\n      div\n      0xffffffffffffffffffffffffffffffffffffffff\n      and\n        /* \"contracts/promissory.sol\":4604:4635  msg.sender == promissory.holder */\n      0xffffffffffffffffffffffffffffffffffffffff\n      and\n        /* \"contracts/promissory.sol\":4604:4614  msg.sender */\n      caller\n        /* \"contracts/promissory.sol\":4604:4635  msg.sender == promissory.holder */\n      0xffffffffffffffffffffffffffffffffffffffff\n      and\n      eq\n        /* \"contracts/promissory.sol\":4596:4665  require(msg.sender == promissory.holder, \"Only the Holder can this!\") */\n      tag_72\n      jumpi\n      mload(0x40)\n      0x08c379a000000000000000000000000000000000000000000000000000000000\n      dup2\n      mstore\n      0x04\n      add\n      tag_73\n      swap1\n      tag_74\n      jump\t// in\n    tag_73:\n      mload(0x40)\n      dup1\n      swap2\n      sub\n      swap1\n      revert\n    tag_72:\n        /* \"contracts/promissory.sol\":5053:5057  true */\n      0x01\n        /* \"contracts/promissory.sol\":5035:5057  promissoryPaid == true */\n      iszero\n      iszero\n        /* \"contracts/promissory.sol\":5035:5049  promissoryPaid */\n      0x00\n      dup1\n      sload\n      swap1\n      0x0100\n      exp\n      swap1\n      div\n      0xff\n      and\n        /* \"contracts/promissory.sol\":5035:5057  promissoryPaid == true */\n      iszero\n      iszero\n      eq\n        /* \"contracts/promissory.sol\":5027:5108  require(promissoryPaid == true, \"Payment must be made before withdrawing funds!\") */\n      tag_76\n      jumpi\n      mload(0x40)\n      0x08c379a000000000000000000000000000000000000000000000000000000000\n      dup2\n      mstore\n      0x04\n      add\n      tag_77\n      swap1\n      tag_78\n      jump\t// in\n    tag_77:\n      mload(0x40)\n      dup1\n      swap2\n      sub\n      swap1\n      revert\n    tag_76:\n        /* \"contracts/promissory.sol\":4035:4039  true */\n      0x01\n        /* \"contracts/promissory.sol\":4017:4039  promissoryPaid == true */\n      iszero\n      iszero\n        /* \"contracts/promissory.sol\":4017:4031  promissoryPaid */\n      0x00\n      dup1\n      sload\n      swap1\n      0x0100\n      exp\n      swap1\n      div\n      0xff\n      and\n        /* \"contracts/promissory.sol\":4017:4039  promissoryPaid == true */\n      iszero\n      iszero\n      eq\n        /* \"contracts/promissory.sol\":4009:4078  require(promissoryPaid == true, \"You must pay the amount promissory\") */\n      tag_80\n      jumpi\n      mload(0x40)\n      0x08c379a000000000000000000000000000000000000000000000000000000000\n      dup2\n      mstore\n      0x04\n      add\n      tag_81\n      swap1\n      tag_82\n      jump\t// in\n    tag_81:\n      mload(0x40)\n      dup1\n      swap2\n      sub\n      swap1\n      revert\n    tag_80:\n        /* \"contracts/promissory.sol\":4106:4110  true */\n      0x01\n        /* \"contracts/promissory.sol\":4088:4103  paymentAccepted */\n      0x00\n      0x01\n        /* \"contracts/promissory.sol\":4088:4110  paymentAccepted = true */\n      0x0100\n      exp\n      dup2\n      sload\n      dup2\n      0xff\n      mul\n      not\n      and\n      swap1\n      dup4\n      iszero\n      iszero\n      mul\n      or\n      swap1\n      sstore\n      pop\n        /* \"contracts/promissory.sol\":4145:4160  block.timestamp */\n      timestamp\n        /* \"contracts/promissory.sol\":4120:4130  promissory */\n      0x03\n        /* \"contracts/promissory.sol\":4120:4142  promissory.dateOfClose */\n      0x06\n      add\n        /* \"contracts/promissory.sol\":4120:4160  promissory.dateOfClose = block.timestamp */\n      dup2\n      swap1\n      sstore\n      pop\n        /* \"contracts/promissory.sol\":4170:4184  killContract() */\n      tag_83\n        /* \"contracts/promissory.sol\":4170:4182  killContract */\n      tag_84\n        /* \"contracts/promissory.sol\":4170:4184  killContract() */\n      jump\t// in\n    tag_83:\n        /* \"contracts/promissory.sol\":3933:4191  function setPaymentAccepted() public onlyHolder promissoryWasPaid {... */\n      jump\t// out\n        /* \"contracts/promissory.sol\":201:220  uint256 public bank */\n    tag_28:\n      sload(0x02)\n      dup2\n      jump\t// out\n        /* \"contracts/promissory.sol\":1960:2537  function setPromissoryInfo(... */\n    tag_34:\n        /* \"contracts/promissory.sol\":2198:2208  promissory */\n      0x03\n        /* \"contracts/promissory.sol\":2198:2215  promissory.holder */\n      0x00\n      add\n      0x00\n      swap1\n      sload\n      swap1\n      0x0100\n      exp\n      swap1\n      div\n      0xffffffffffffffffffffffffffffffffffffffff\n      and\n        /* \"contracts/promissory.sol\":2187:2215  _debtor != promissory.holder */\n      0xffffffffffffffffffffffffffffffffffffffff\n      and\n        /* \"contracts/promissory.sol\":2187:2194  _debtor */\n      dup6\n        /* \"contracts/promissory.sol\":2187:2215  _debtor != promissory.holder */\n      0xffffffffffffffffffffffffffffffffffffffff\n      and\n      sub\n        /* \"contracts/promissory.sol\":2179:2263  require(_debtor != promissory.holder, \"Debtor and Holder must be different peoples\") */\n      tag_86\n      jumpi\n      mload(0x40)\n      0x08c379a000000000000000000000000000000000000000000000000000000000\n      dup2\n      mstore\n      0x04\n      add\n      tag_87\n      swap1\n      tag_88\n      jump\t// in\n    tag_87:\n      mload(0x40)\n      dup1\n      swap2\n      sub\n      swap1\n      revert\n    tag_86:\n        /* \"contracts/promissory.sol\":2297:2304  _debtor */\n      dup5\n        /* \"contracts/promissory.sol\":2277:2287  promissory */\n      0x03\n        /* \"contracts/promissory.sol\":2277:2294  promissory.debtor */\n      0x01\n      add\n      0x00\n        /* \"contracts/promissory.sol\":2277:2304  promissory.debtor = _debtor */\n      0x0100\n      exp\n      dup2\n      sload\n      dup2\n      0xffffffffffffffffffffffffffffffffffffffff\n      mul\n      not\n      and\n      swap1\n      dup4\n      0xffffffffffffffffffffffffffffffffffffffff\n      and\n      mul\n      or\n      swap1\n      sstore\n      pop\n        /* \"contracts/promissory.sol\":2342:2353  _debtorName */\n      dup4\n        /* \"contracts/promissory.sol\":2318:2328  promissory */\n      0x03\n        /* \"contracts/promissory.sol\":2318:2339  promissory.debtorName */\n      dup1\n      add\n        /* \"contracts/promissory.sol\":2318:2353  promissory.debtorName = _debtorName */\n      swap1\n      dup2\n      tag_89\n      swap2\n      swap1\n      tag_90\n      jump\t// in\n    tag_89:\n      pop\n        /* \"contracts/promissory.sol\":2397:2414  _promissoryAmount */\n      dup3\n        /* \"contracts/promissory.sol\":2367:2377  promissory */\n      0x03\n        /* \"contracts/promissory.sol\":2367:2394  promissory.promissoryAmount */\n      0x04\n      add\n        /* \"contracts/promissory.sol\":2367:2414  promissory.promissoryAmount = _promissoryAmount */\n      dup2\n      swap1\n      sstore\n      pop\n        /* \"contracts/promissory.sol\":2460:2479  _dateOfRegistration */\n      dup2\n        /* \"contracts/promissory.sol\":2428:2438  promissory */\n      0x03\n        /* \"contracts/promissory.sol\":2428:2457  promissory.dateOfRegistration */\n      0x05\n      add\n        /* \"contracts/promissory.sol\":2428:2479  promissory.dateOfRegistration = _dateOfRegistration */\n      dup2\n      swap1\n      sstore\n      pop\n        /* \"contracts/promissory.sol\":2518:2530  _dateOfClose */\n      dup1\n        /* \"contracts/promissory.sol\":2493:2503  promissory */\n      0x03\n        /* \"contracts/promissory.sol\":2493:2515  promissory.dateOfClose */\n      0x06\n      add\n        /* \"contracts/promissory.sol\":2493:2530  promissory.dateOfClose = _dateOfClose */\n      dup2\n      swap1\n      sstore\n      pop\n        /* \"contracts/promissory.sol\":1960:2537  function setPromissoryInfo(... */\n      pop\n      pop\n      pop\n      pop\n      pop\n      jump\t// out\n        /* \"contracts/promissory.sol\":2943:3192  function setHolderConsent() public onlyHolder {... */\n    tag_37:\n        /* \"contracts/promissory.sol\":4618:4628  promissory */\n      0x03\n        /* \"contracts/promissory.sol\":4618:4635  promissory.holder */\n      0x00\n      add\n      0x00\n      swap1\n      sload\n      swap1\n      0x0100\n      exp\n      swap1\n      div\n      0xffffffffffffffffffffffffffffffffffffffff\n      and\n        /* \"contracts/promissory.sol\":4604:4635  msg.sender == promissory.holder */\n      0xffffffffffffffffffffffffffffffffffffffff\n      and\n        /* \"contracts/promissory.sol\":4604:4614  msg.sender */\n      caller\n        /* \"contracts/promissory.sol\":4604:4635  msg.sender == promissory.holder */\n      0xffffffffffffffffffffffffffffffffffffffff\n      and\n      eq\n        /* \"contracts/promissory.sol\":4596:4665  require(msg.sender == promissory.holder, \"Only the Holder can this!\") */\n      tag_92\n      jumpi\n      mload(0x40)\n      0x08c379a000000000000000000000000000000000000000000000000000000000\n      dup2\n      mstore\n      0x04\n      add\n      tag_93\n      swap1\n      tag_74\n      jump\t// in\n    tag_93:\n      mload(0x40)\n      dup1\n      swap2\n      sub\n      swap1\n      revert\n    tag_92:\n        /* \"contracts/promissory.sol\":3026:3030  true */\n      0x01\n        /* \"contracts/promissory.sol\":2999:3009  promissory */\n      0x03\n        /* \"contracts/promissory.sol\":2999:3023  promissory.holderConsent */\n      0x09\n      add\n      0x00\n        /* \"contracts/promissory.sol\":2999:3030  promissory.holderConsent = true */\n      0x0100\n      exp\n      dup2\n      sload\n      dup2\n      0xff\n      mul\n      not\n      and\n      swap1\n      dup4\n      iszero\n      iszero\n      mul\n      or\n      swap1\n      sstore\n      pop\n        /* \"contracts/promissory.sol\":3073:3088  block.timestamp */\n      timestamp\n        /* \"contracts/promissory.sol\":3040:3050  promissory */\n      0x03\n        /* \"contracts/promissory.sol\":3040:3070  promissory.dateOfHolderConsent */\n      0x07\n      add\n        /* \"contracts/promissory.sol\":3040:3088  promissory.dateOfHolderConsent = block.timestamp */\n      dup2\n      swap1\n      sstore\n      pop\n        /* \"contracts/promissory.sol\":3130:3134  true */\n      0x01\n        /* \"contracts/promissory.sol\":3102:3134  promissory.debtorConsent == true */\n      iszero\n      iszero\n        /* \"contracts/promissory.sol\":3102:3112  promissory */\n      0x03\n        /* \"contracts/promissory.sol\":3102:3126  promissory.debtorConsent */\n      0x09\n      add\n      0x01\n      swap1\n      sload\n      swap1\n      0x0100\n      exp\n      swap1\n      pop\n      pop\n        /* \"contracts/promissory.sol\":3102:3134  promissory.debtorConsent == true */\n      pop\n        /* \"contracts/promissory.sol\":2943:3192  function setHolderConsent() public onlyHolder {... */\n      jump\t// out\n        /* \"contracts/promissory.sol\":123:158  bool public paymentAccepted = false */\n    tag_40:\n      0x00\n      0x01\n      swap1\n      sload\n      swap1\n      0x0100\n      exp\n      swap1\n      div\n      0xff\n      and\n      dup2\n      jump\t// out\n        /* \"contracts/promissory.sol\":83:117  bool public promissoryPaid = false */\n    tag_45:\n      0x00\n      dup1\n      sload\n      swap1\n      0x0100\n      exp\n      swap1\n      div\n      0xff\n      and\n      dup2\n      jump\t// out\n        /* \"contracts/promissory.sol\":4382:4491  function getPromissoryInfo() external view returns (PromissoryInfo memory) {... */\n    tag_49:\n        /* \"contracts/promissory.sol\":4434:4455  PromissoryInfo memory */\n      tag_96\n      tag_97\n      jump\t// in\n    tag_96:\n        /* \"contracts/promissory.sol\":4474:4484  promissory */\n      0x03\n        /* \"contracts/promissory.sol\":4467:4484  return promissory */\n      mload(0x40)\n      dup1\n      0x0160\n      add\n      0x40\n      mstore\n      swap1\n      dup2\n      0x00\n      dup3\n      add\n      0x00\n      swap1\n      sload\n      swap1\n      0x0100\n      exp\n      swap1\n      div\n      0xffffffffffffffffffffffffffffffffffffffff\n      and\n      0xffffffffffffffffffffffffffffffffffffffff\n      and\n      0xffffffffffffffffffffffffffffffffffffffff\n      and\n      dup2\n      mstore\n      0x20\n      add\n      0x01\n      dup3\n      add\n      0x00\n      swap1\n      sload\n      swap1\n      0x0100\n      exp\n      swap1\n      div\n      0xffffffffffffffffffffffffffffffffffffffff\n      and\n      0xffffffffffffffffffffffffffffffffffffffff\n      and\n      0xffffffffffffffffffffffffffffffffffffffff\n      and\n      dup2\n      mstore\n      0x20\n      add\n      0x02\n      dup3\n      add\n      dup1\n      sload\n      tag_99\n      swap1\n      tag_100\n      jump\t// in\n    tag_99:\n      dup1\n      0x1f\n      add\n      0x20\n      dup1\n      swap2\n      div\n      mul\n      0x20\n      add\n      mload(0x40)\n      swap1\n      dup2\n      add\n      0x40\n      mstore\n      dup1\n      swap3\n      swap2\n      swap1\n      dup2\n      dup2\n      mstore\n      0x20\n      add\n      dup3\n      dup1\n      sload\n      tag_101\n      swap1\n      tag_100\n      jump\t// in\n    tag_101:\n      dup1\n      iszero\n      tag_102\n      jumpi\n      dup1\n      0x1f\n      lt\n      tag_103\n      jumpi\n      0x0100\n      dup1\n      dup4\n      sload\n      div\n      mul\n      dup4\n      mstore\n      swap2\n      0x20\n      add\n      swap2\n      jump(tag_102)\n    tag_103:\n      dup3\n      add\n      swap2\n      swap1\n      0x00\n      mstore\n      keccak256(0x00, 0x20)\n      swap1\n    tag_104:\n      dup2\n      sload\n      dup2\n      mstore\n      swap1\n      0x01\n      add\n      swap1\n      0x20\n      add\n      dup1\n      dup4\n      gt\n      tag_104\n      jumpi\n      dup3\n      swap1\n      sub\n      0x1f\n      and\n      dup3\n      add\n      swap2\n    tag_102:\n      pop\n      pop\n      pop\n      pop\n      pop\n      dup2\n      mstore\n      0x20\n      add\n      0x03\n      dup3\n      add\n      dup1\n      sload\n      tag_105\n      swap1\n      tag_100\n      jump\t// in\n    tag_105:\n      dup1\n      0x1f\n      add\n      0x20\n      dup1\n      swap2\n      div\n      mul\n      0x20\n      add\n      mload(0x40)\n      swap1\n      dup2\n      add\n      0x40\n      mstore\n      dup1\n      swap3\n      swap2\n      swap1\n      dup2\n      dup2\n      mstore\n      0x20\n      add\n      dup3\n      dup1\n      sload\n      tag_106\n      swap1\n      tag_100\n      jump\t// in\n    tag_106:\n      dup1\n      iszero\n      tag_107\n      jumpi\n      dup1\n      0x1f\n      lt\n      tag_108\n      jumpi\n      0x0100\n      dup1\n      dup4\n      sload\n      div\n      mul\n      dup4\n      mstore\n      swap2\n      0x20\n      add\n      swap2\n      jump(tag_107)\n    tag_108:\n      dup3\n      add\n      swap2\n      swap1\n      0x00\n      mstore\n      keccak256(0x00, 0x20)\n      swap1\n    tag_109:\n      dup2\n      sload\n      dup2\n      mstore\n      swap1\n      0x01\n      add\n      swap1\n      0x20\n      add\n      dup1\n      dup4\n      gt\n      tag_109\n      jumpi\n      dup3\n      swap1\n      sub\n      0x1f\n      and\n      dup3\n      add\n      swap2\n    tag_107:\n      pop\n      pop\n      pop\n      pop\n      pop\n      dup2\n      mstore\n      0x20\n      add\n      0x04\n      dup3\n      add\n      sload\n      dup2\n      mstore\n      0x20\n      add\n      0x05\n      dup3\n      add\n      sload\n      dup2\n      mstore\n      0x20\n      add\n      0x06\n      dup3\n      add\n      sload\n      dup2\n      mstore\n      0x20\n      add\n      0x07\n      dup3\n      add\n      sload\n      dup2\n      mstore\n      0x20\n      add\n      0x08\n      dup3\n      add\n      sload\n      dup2\n      mstore\n      0x20\n      add\n      0x09\n      dup3\n      add\n      0x00\n      swap1\n      sload\n      swap1\n      0x0100\n      exp\n      swap1\n      div\n      0xff\n      and\n      iszero\n      iszero\n      iszero\n      iszero\n      dup2\n      mstore\n      0x20\n      add\n      0x09\n      dup3\n      add\n      0x01\n      swap1\n      sload\n      swap1\n      0x0100\n      exp\n      swap1\n      div\n      0xff\n      and\n      iszero\n      iszero\n      iszero\n      iszero\n      dup2\n      mstore\n      pop\n      pop\n      swap1\n      pop\n        /* \"contracts/promissory.sol\":4382:4491  function getPromissoryInfo() external view returns (PromissoryInfo memory) {... */\n      swap1\n      jump\t// out\n        /* \"contracts/promissory.sol\":2687:2937  function setDebtorConsent() public onlyDebtor {... */\n    tag_54:\n        /* \"contracts/promissory.sol\":4743:4753  promissory */\n      0x03\n        /* \"contracts/promissory.sol\":4743:4760  promissory.debtor */\n      0x01\n      add\n      0x00\n      swap1\n      sload\n      swap1\n      0x0100\n      exp\n      swap1\n      div\n      0xffffffffffffffffffffffffffffffffffffffff\n      and\n        /* \"contracts/promissory.sol\":4729:4760  msg.sender == promissory.debtor */\n      0xffffffffffffffffffffffffffffffffffffffff\n      and\n        /* \"contracts/promissory.sol\":4729:4739  msg.sender */\n      caller\n        /* \"contracts/promissory.sol\":4729:4760  msg.sender == promissory.debtor */\n      0xffffffffffffffffffffffffffffffffffffffff\n      and\n      eq\n        /* \"contracts/promissory.sol\":4721:4790  require(msg.sender == promissory.debtor, \"Only the Debtor can this!\") */\n      tag_111\n      jumpi\n      mload(0x40)\n      0x08c379a000000000000000000000000000000000000000000000000000000000\n      dup2\n      mstore\n      0x04\n      add\n      tag_112\n      swap1\n      tag_58\n      jump\t// in\n    tag_112:\n      mload(0x40)\n      dup1\n      swap2\n      sub\n      swap1\n      revert\n    tag_111:\n        /* \"contracts/promissory.sol\":2770:2774  true */\n      0x01\n        /* \"contracts/promissory.sol\":2743:2753  promissory */\n      0x03\n        /* \"contracts/promissory.sol\":2743:2767  promissory.debtorConsent */\n      0x09\n      add\n      0x01\n        /* \"contracts/promissory.sol\":2743:2774  promissory.debtorConsent = true */\n      0x0100\n      exp\n      dup2\n      sload\n      dup2\n      0xff\n      mul\n      not\n      and\n      swap1\n      dup4\n      iszero\n      iszero\n      mul\n      or\n      swap1\n      sstore\n      pop\n        /* \"contracts/promissory.sol\":2817:2832  block.timestamp */\n      timestamp\n        /* \"contracts/promissory.sol\":2784:2794  promissory */\n      0x03\n        /* \"contracts/promissory.sol\":2784:2814  promissory.dateOfDebtorConsent */\n      0x08\n      add\n        /* \"contracts/promissory.sol\":2784:2832  promissory.dateOfDebtorConsent = block.timestamp */\n      dup2\n      swap1\n      sstore\n      pop\n        /* \"contracts/promissory.sol\":2874:2878  true */\n      0x01\n        /* \"contracts/promissory.sol\":2846:2878  promissory.holderConsent == true */\n      iszero\n      iszero\n        /* \"contracts/promissory.sol\":2846:2856  promissory */\n      0x03\n        /* \"contracts/promissory.sol\":2846:2870  promissory.holderConsent */\n      0x09\n      add\n      0x00\n      swap1\n      sload\n      swap1\n      0x0100\n      exp\n      swap1\n      pop\n      pop\n        /* \"contracts/promissory.sol\":2846:2878  promissory.holderConsent == true */\n      pop\n        /* \"contracts/promissory.sol\":2687:2937  function setDebtorConsent() public onlyDebtor {... */\n      jump\t// out\n        /* \"contracts/promissory.sol\":4284:4376  function killContract() internal onlyHolder {... */\n    tag_84:\n        /* \"contracts/promissory.sol\":4618:4628  promissory */\n      0x03\n        /* \"contracts/promissory.sol\":4618:4635  promissory.holder */\n      0x00\n      add\n      0x00\n      swap1\n      sload\n      swap1\n      0x0100\n      exp\n      swap1\n      div\n      0xffffffffffffffffffffffffffffffffffffffff\n      and\n        /* \"contracts/promissory.sol\":4604:4635  msg.sender == promissory.holder */\n      0xffffffffffffffffffffffffffffffffffffffff\n      and\n        /* \"contracts/promissory.sol\":4604:4614  msg.sender */\n      caller\n        /* \"contracts/promissory.sol\":4604:4635  msg.sender == promissory.holder */\n      0xffffffffffffffffffffffffffffffffffffffff\n      and\n      eq\n        /* \"contracts/promissory.sol\":4596:4665  require(msg.sender == promissory.holder, \"Only the Holder can this!\") */\n      tag_116\n      jumpi\n      mload(0x40)\n      0x08c379a000000000000000000000000000000000000000000000000000000000\n      dup2\n      mstore\n      0x04\n      add\n      tag_117\n      swap1\n      tag_74\n      jump\t// in\n    tag_117:\n      mload(0x40)\n      dup1\n      swap2\n      sub\n      swap1\n      revert\n    tag_116:\n        /* \"contracts/promissory.sol\":4351:4361  promissory */\n      0x03\n        /* \"contracts/promissory.sol\":4351:4368  promissory.holder */\n      0x00\n      add\n      0x00\n      swap1\n      sload\n      swap1\n      0x0100\n      exp\n      swap1\n      div\n      0xffffffffffffffffffffffffffffffffffffffff\n      and\n        /* \"contracts/promissory.sol\":4338:4369  selfdestruct(promissory.holder) */\n      0xffffffffffffffffffffffffffffffffffffffff\n      and\n      selfdestruct\n    tag_97:\n      mload(0x40)\n      dup1\n      0x0160\n      add\n      0x40\n      mstore\n      dup1\n      and(0xffffffffffffffffffffffffffffffffffffffff, 0x00)\n      dup2\n      mstore\n      0x20\n      add\n      and(0xffffffffffffffffffffffffffffffffffffffff, 0x00)\n      dup2\n      mstore\n      0x20\n      add\n      0x60\n      dup2\n      mstore\n      0x20\n      add\n      0x60\n      dup2\n      mstore\n      0x20\n      add\n      0x00\n      dup2\n      mstore\n      0x20\n      add\n      0x00\n      dup2\n      mstore\n      0x20\n      add\n      0x00\n      dup2\n      mstore\n      0x20\n      add\n      0x00\n      dup2\n      mstore\n      0x20\n      add\n      0x00\n      dup2\n      mstore\n      0x20\n      add\n      iszero(iszero(0x00))\n      dup2\n      mstore\n      0x20\n      add\n      iszero(iszero(0x00))\n      dup2\n      mstore\n      pop\n      swap1\n      jump\t// out\n        /* \"#utility.yul\":7:84   */\n    tag_119:\n        /* \"#utility.yul\":44:51   */\n      0x00\n        /* \"#utility.yul\":73:78   */\n      dup2\n        /* \"#utility.yul\":62:78   */\n      swap1\n      pop\n        /* \"#utility.yul\":7:84   */\n      swap2\n      swap1\n      pop\n      jump\t// out\n        /* \"#utility.yul\":90:208   */\n    tag_120:\n        /* \"#utility.yul\":177:201   */\n      tag_187\n        /* \"#utility.yul\":195:200   */\n      dup2\n        /* \"#utility.yul\":177:201   */\n      tag_119\n      jump\t// in\n    tag_187:\n        /* \"#utility.yul\":172:175   */\n      dup3\n        /* \"#utility.yul\":165:202   */\n      mstore\n        /* \"#utility.yul\":90:208   */\n      pop\n      pop\n      jump\t// out\n        /* \"#utility.yul\":214:436   */\n    tag_20:\n        /* \"#utility.yul\":307:311   */\n      0x00\n        /* \"#utility.yul\":345:347   */\n      0x20\n        /* \"#utility.yul\":334:343   */\n      dup3\n        /* \"#utility.yul\":330:348   */\n      add\n        /* \"#utility.yul\":322:348   */\n      swap1\n      pop\n        /* \"#utility.yul\":358:429   */\n      tag_189\n        /* \"#utility.yul\":426:427   */\n      0x00\n        /* \"#utility.yul\":415:424   */\n      dup4\n        /* \"#utility.yul\":411:428   */\n      add\n        /* \"#utility.yul\":402:408   */\n      dup5\n        /* \"#utility.yul\":358:429   */\n      tag_120\n      jump\t// in\n    tag_189:\n        /* \"#utility.yul\":214:436   */\n      swap3\n      swap2\n      pop\n      pop\n      jump\t// out\n        /* \"#utility.yul\":442:517   */\n    tag_121:\n        /* \"#utility.yul\":475:481   */\n      0x00\n        /* \"#utility.yul\":508:510   */\n      0x40\n        /* \"#utility.yul\":502:511   */\n      mload\n        /* \"#utility.yul\":492:511   */\n      swap1\n      pop\n        /* \"#utility.yul\":442:517   */\n      swap1\n      jump\t// out\n        /* \"#utility.yul\":523:640   */\n    tag_122:\n        /* \"#utility.yul\":632:633   */\n      0x00\n        /* \"#utility.yul\":629:630   */\n      dup1\n        /* \"#utility.yul\":622:634   */\n      revert\n        /* \"#utility.yul\":646:763   */\n    tag_123:\n        /* \"#utility.yul\":755:756   */\n      0x00\n        /* \"#utility.yul\":752:753   */\n      dup1\n        /* \"#utility.yul\":745:757   */\n      revert\n        /* \"#utility.yul\":769:895   */\n    tag_124:\n        /* \"#utility.yul\":806:813   */\n      0x00\n        /* \"#utility.yul\":846:888   */\n      0xffffffffffffffffffffffffffffffffffffffff\n        /* \"#utility.yul\":839:844   */\n      dup3\n        /* \"#utility.yul\":835:889   */\n      and\n        /* \"#utility.yul\":824:889   */\n      swap1\n      pop\n        /* \"#utility.yul\":769:895   */\n      swap2\n      swap1\n      pop\n      jump\t// out\n        /* \"#utility.yul\":901:1005   */\n    tag_125:\n        /* \"#utility.yul\":946:953   */\n      0x00\n        /* \"#utility.yul\":975:999   */\n      tag_195\n        /* \"#utility.yul\":993:998   */\n      dup3\n        /* \"#utility.yul\":975:999   */\n      tag_124\n      jump\t// in\n    tag_195:\n        /* \"#utility.yul\":964:999   */\n      swap1\n      pop\n        /* \"#utility.yul\":901:1005   */\n      swap2\n      swap1\n      pop\n      jump\t// out\n        /* \"#utility.yul\":1011:1149   */\n    tag_126:\n        /* \"#utility.yul\":1092:1124   */\n      tag_197\n        /* \"#utility.yul\":1118:1123   */\n      dup2\n        /* \"#utility.yul\":1092:1124   */\n      tag_125\n      jump\t// in\n    tag_197:\n        /* \"#utility.yul\":1085:1090   */\n      dup2\n        /* \"#utility.yul\":1082:1125   */\n      eq\n        /* \"#utility.yul\":1072:1143   */\n      tag_198\n      jumpi\n        /* \"#utility.yul\":1139:1140   */\n      0x00\n        /* \"#utility.yul\":1136:1137   */\n      dup1\n        /* \"#utility.yul\":1129:1141   */\n      revert\n        /* \"#utility.yul\":1072:1143   */\n    tag_198:\n        /* \"#utility.yul\":1011:1149   */\n      pop\n      jump\t// out\n        /* \"#utility.yul\":1155:1310   */\n    tag_127:\n        /* \"#utility.yul\":1209:1214   */\n      0x00\n        /* \"#utility.yul\":1247:1253   */\n      dup2\n        /* \"#utility.yul\":1234:1254   */\n      calldataload\n        /* \"#utility.yul\":1225:1254   */\n      swap1\n      pop\n        /* \"#utility.yul\":1263:1304   */\n      tag_200\n        /* \"#utility.yul\":1298:1303   */\n      dup2\n        /* \"#utility.yul\":1263:1304   */\n      tag_126\n      jump\t// in\n    tag_200:\n        /* \"#utility.yul\":1155:1310   */\n      swap3\n      swap2\n      pop\n      pop\n      jump\t// out\n        /* \"#utility.yul\":1316:1433   */\n    tag_128:\n        /* \"#utility.yul\":1425:1426   */\n      0x00\n        /* \"#utility.yul\":1422:1423   */\n      dup1\n        /* \"#utility.yul\":1415:1427   */\n      revert\n        /* \"#utility.yul\":1439:1556   */\n    tag_129:\n        /* \"#utility.yul\":1548:1549   */\n      0x00\n        /* \"#utility.yul\":1545:1546   */\n      dup1\n        /* \"#utility.yul\":1538:1550   */\n      revert\n        /* \"#utility.yul\":1562:1664   */\n    tag_130:\n        /* \"#utility.yul\":1603:1609   */\n      0x00\n        /* \"#utility.yul\":1654:1656   */\n      0x1f\n        /* \"#utility.yul\":1650:1657   */\n      not\n        /* \"#utility.yul\":1645:1647   */\n      0x1f\n        /* \"#utility.yul\":1638:1643   */\n      dup4\n        /* \"#utility.yul\":1634:1648   */\n      add\n        /* \"#utility.yul\":1630:1658   */\n      and\n        /* \"#utility.yul\":1620:1658   */\n      swap1\n      pop\n        /* \"#utility.yul\":1562:1664   */\n      swap2\n      swap1\n      pop\n      jump\t// out\n        /* \"#utility.yul\":1670:1850   */\n    tag_131:\n        /* \"#utility.yul\":1718:1795   */\n      0x4e487b7100000000000000000000000000000000000000000000000000000000\n        /* \"#utility.yul\":1715:1716   */\n      0x00\n        /* \"#utility.yul\":1708:1796   */\n      mstore\n        /* \"#utility.yul\":1815:1819   */\n      0x41\n        /* \"#utility.yul\":1812:1813   */\n      0x04\n        /* \"#utility.yul\":1805:1820   */\n      mstore\n        /* \"#utility.yul\":1839:1843   */\n      0x24\n        /* \"#utility.yul\":1836:1837   */\n      0x00\n        /* \"#utility.yul\":1829:1844   */\n      revert\n        /* \"#utility.yul\":1856:2137   */\n    tag_132:\n        /* \"#utility.yul\":1939:1966   */\n      tag_206\n        /* \"#utility.yul\":1961:1965   */\n      dup3\n        /* \"#utility.yul\":1939:1966   */\n      tag_130\n      jump\t// in\n    tag_206:\n        /* \"#utility.yul\":1931:1937   */\n      dup2\n        /* \"#utility.yul\":1927:1967   */\n      add\n        /* \"#utility.yul\":2069:2075   */\n      dup2\n        /* \"#utility.yul\":2057:2067   */\n      dup2\n        /* \"#utility.yul\":2054:2076   */\n      lt\n        /* \"#utility.yul\":2033:2051   */\n      0xffffffffffffffff\n        /* \"#utility.yul\":2021:2031   */\n      dup3\n        /* \"#utility.yul\":2018:2052   */\n      gt\n        /* \"#utility.yul\":2015:2077   */\n      or\n        /* \"#utility.yul\":2012:2100   */\n      iszero\n      tag_207\n      jumpi\n        /* \"#utility.yul\":2080:2098   */\n      tag_208\n      tag_131\n      jump\t// in\n    tag_208:\n        /* \"#utility.yul\":2012:2100   */\n    tag_207:\n        /* \"#utility.yul\":2120:2130   */\n      dup1\n        /* \"#utility.yul\":2116:2118   */\n      0x40\n        /* \"#utility.yul\":2109:2131   */\n      mstore\n        /* \"#utility.yul\":1899:2137   */\n      pop\n        /* \"#utility.yul\":1856:2137   */\n      pop\n      pop\n      jump\t// out\n        /* \"#utility.yul\":2143:2272   */\n    tag_133:\n        /* \"#utility.yul\":2177:2183   */\n      0x00\n        /* \"#utility.yul\":2204:2224   */\n      tag_210\n      tag_121\n      jump\t// in\n    tag_210:\n        /* \"#utility.yul\":2194:2224   */\n      swap1\n      pop\n        /* \"#utility.yul\":2233:2266   */\n      tag_211\n        /* \"#utility.yul\":2261:2265   */\n      dup3\n        /* \"#utility.yul\":2253:2259   */\n      dup3\n        /* \"#utility.yul\":2233:2266   */\n      tag_132\n      jump\t// in\n    tag_211:\n        /* \"#utility.yul\":2143:2272   */\n      swap2\n      swap1\n      pop\n      jump\t// out\n        /* \"#utility.yul\":2278:2586   */\n    tag_134:\n        /* \"#utility.yul\":2340:2344   */\n      0x00\n        /* \"#utility.yul\":2430:2448   */\n      0xffffffffffffffff\n        /* \"#utility.yul\":2422:2428   */\n      dup3\n        /* \"#utility.yul\":2419:2449   */\n      gt\n        /* \"#utility.yul\":2416:2472   */\n      iszero\n      tag_213\n      jumpi\n        /* \"#utility.yul\":2452:2470   */\n      tag_214\n      tag_131\n      jump\t// in\n    tag_214:\n        /* \"#utility.yul\":2416:2472   */\n    tag_213:\n        /* \"#utility.yul\":2490:2519   */\n      tag_215\n        /* \"#utility.yul\":2512:2518   */\n      dup3\n        /* \"#utility.yul\":2490:2519   */\n      tag_130\n      jump\t// in\n    tag_215:\n        /* \"#utility.yul\":2482:2519   */\n      swap1\n      pop\n        /* \"#utility.yul\":2574:2578   */\n      0x20\n        /* \"#utility.yul\":2568:2572   */\n      dup2\n        /* \"#utility.yul\":2564:2579   */\n      add\n        /* \"#utility.yul\":2556:2579   */\n      swap1\n      pop\n        /* \"#utility.yul\":2278:2586   */\n      swap2\n      swap1\n      pop\n      jump\t// out\n        /* \"#utility.yul\":2592:2746   */\n    tag_135:\n        /* \"#utility.yul\":2676:2682   */\n      dup3\n        /* \"#utility.yul\":2671:2674   */\n      dup2\n        /* \"#utility.yul\":2666:2669   */\n      dup4\n        /* \"#utility.yul\":2653:2683   */\n      calldatacopy\n        /* \"#utility.yul\":2738:2739   */\n      0x00\n        /* \"#utility.yul\":2729:2735   */\n      dup4\n        /* \"#utility.yul\":2724:2727   */\n      dup4\n        /* \"#utility.yul\":2720:2736   */\n      add\n        /* \"#utility.yul\":2713:2740   */\n      mstore\n        /* \"#utility.yul\":2592:2746   */\n      pop\n      pop\n      pop\n      jump\t// out\n        /* \"#utility.yul\":2752:3164   */\n    tag_136:\n        /* \"#utility.yul\":2830:2835   */\n      0x00\n        /* \"#utility.yul\":2855:2921   */\n      tag_218\n        /* \"#utility.yul\":2871:2920   */\n      tag_219\n        /* \"#utility.yul\":2913:2919   */\n      dup5\n        /* \"#utility.yul\":2871:2920   */\n      tag_134\n      jump\t// in\n    tag_219:\n        /* \"#utility.yul\":2855:2921   */\n      tag_133\n      jump\t// in\n    tag_218:\n        /* \"#utility.yul\":2846:2921   */\n      swap1\n      pop\n        /* \"#utility.yul\":2944:2950   */\n      dup3\n        /* \"#utility.yul\":2937:2942   */\n      dup2\n        /* \"#utility.yul\":2930:2951   */\n      mstore\n        /* \"#utility.yul\":2982:2986   */\n      0x20\n        /* \"#utility.yul\":2975:2980   */\n      dup2\n        /* \"#utility.yul\":2971:2987   */\n      add\n        /* \"#utility.yul\":3020:3023   */\n      dup5\n        /* \"#utility.yul\":3011:3017   */\n      dup5\n        /* \"#utility.yul\":3006:3009   */\n      dup5\n        /* \"#utility.yul\":3002:3018   */\n      add\n        /* \"#utility.yul\":2999:3024   */\n      gt\n        /* \"#utility.yul\":2996:3108   */\n      iszero\n      tag_220\n      jumpi\n        /* \"#utility.yul\":3027:3106   */\n      tag_221\n      tag_129\n      jump\t// in\n    tag_221:\n        /* \"#utility.yul\":2996:3108   */\n    tag_220:\n        /* \"#utility.yul\":3117:3158   */\n      tag_222\n        /* \"#utility.yul\":3151:3157   */\n      dup5\n        /* \"#utility.yul\":3146:3149   */\n      dup3\n        /* \"#utility.yul\":3141:3144   */\n      dup6\n        /* \"#utility.yul\":3117:3158   */\n      tag_135\n      jump\t// in\n    tag_222:\n        /* \"#utility.yul\":2836:3164   */\n      pop\n        /* \"#utility.yul\":2752:3164   */\n      swap4\n      swap3\n      pop\n      pop\n      pop\n      jump\t// out\n        /* \"#utility.yul\":3184:3524   */\n    tag_137:\n        /* \"#utility.yul\":3240:3245   */\n      0x00\n        /* \"#utility.yul\":3289:3292   */\n      dup3\n        /* \"#utility.yul\":3282:3286   */\n      0x1f\n        /* \"#utility.yul\":3274:3280   */\n      dup4\n        /* \"#utility.yul\":3270:3287   */\n      add\n        /* \"#utility.yul\":3266:3293   */\n      slt\n        /* \"#utility.yul\":3256:3378   */\n      tag_224\n      jumpi\n        /* \"#utility.yul\":3297:3376   */\n      tag_225\n      tag_128\n      jump\t// in\n    tag_225:\n        /* \"#utility.yul\":3256:3378   */\n    tag_224:\n        /* \"#utility.yul\":3414:3420   */\n      dup2\n        /* \"#utility.yul\":3401:3421   */\n      calldataload\n        /* \"#utility.yul\":3439:3518   */\n      tag_226\n        /* \"#utility.yul\":3514:3517   */\n      dup5\n        /* \"#utility.yul\":3506:3512   */\n      dup3\n        /* \"#utility.yul\":3499:3503   */\n      0x20\n        /* \"#utility.yul\":3491:3497   */\n      dup7\n        /* \"#utility.yul\":3487:3504   */\n      add\n        /* \"#utility.yul\":3439:3518   */\n      tag_136\n      jump\t// in\n    tag_226:\n        /* \"#utility.yul\":3430:3518   */\n      swap2\n      pop\n        /* \"#utility.yul\":3246:3524   */\n      pop\n        /* \"#utility.yul\":3184:3524   */\n      swap3\n      swap2\n      pop\n      pop\n      jump\t// out\n        /* \"#utility.yul\":3530:3652   */\n    tag_138:\n        /* \"#utility.yul\":3603:3627   */\n      tag_228\n        /* \"#utility.yul\":3621:3626   */\n      dup2\n        /* \"#utility.yul\":3603:3627   */\n      tag_119\n      jump\t// in\n    tag_228:\n        /* \"#utility.yul\":3596:3601   */\n      dup2\n        /* \"#utility.yul\":3593:3628   */\n      eq\n        /* \"#utility.yul\":3583:3646   */\n      tag_229\n      jumpi\n        /* \"#utility.yul\":3642:3643   */\n      0x00\n        /* \"#utility.yul\":3639:3640   */\n      dup1\n        /* \"#utility.yul\":3632:3644   */\n      revert\n        /* \"#utility.yul\":3583:3646   */\n    tag_229:\n        /* \"#utility.yul\":3530:3652   */\n      pop\n      jump\t// out\n        /* \"#utility.yul\":3658:3797   */\n    tag_139:\n        /* \"#utility.yul\":3704:3709   */\n      0x00\n        /* \"#utility.yul\":3742:3748   */\n      dup2\n        /* \"#utility.yul\":3729:3749   */\n      calldataload\n        /* \"#utility.yul\":3720:3749   */\n      swap1\n      pop\n        /* \"#utility.yul\":3758:3791   */\n      tag_231\n        /* \"#utility.yul\":3785:3790   */\n      dup2\n        /* \"#utility.yul\":3758:3791   */\n      tag_138\n      jump\t// in\n    tag_231:\n        /* \"#utility.yul\":3658:3797   */\n      swap3\n      swap2\n      pop\n      pop\n      jump\t// out\n        /* \"#utility.yul\":3803:4910   */\n    tag_33:\n        /* \"#utility.yul\":3916:3922   */\n      0x00\n        /* \"#utility.yul\":3924:3930   */\n      dup1\n        /* \"#utility.yul\":3932:3938   */\n      0x00\n        /* \"#utility.yul\":3940:3946   */\n      dup1\n        /* \"#utility.yul\":3948:3954   */\n      0x00\n        /* \"#utility.yul\":3997:4000   */\n      0xa0\n        /* \"#utility.yul\":3985:3994   */\n      dup7\n        /* \"#utility.yul\":3976:3983   */\n      dup9\n        /* \"#utility.yul\":3972:3995   */\n      sub\n        /* \"#utility.yul\":3968:4001   */\n      slt\n        /* \"#utility.yul\":3965:4085   */\n      iszero\n      tag_233\n      jumpi\n        /* \"#utility.yul\":4004:4083   */\n      tag_234\n      tag_122\n      jump\t// in\n    tag_234:\n        /* \"#utility.yul\":3965:4085   */\n    tag_233:\n        /* \"#utility.yul\":4124:4125   */\n      0x00\n        /* \"#utility.yul\":4149:4210   */\n      tag_235\n        /* \"#utility.yul\":4202:4209   */\n      dup9\n        /* \"#utility.yul\":4193:4199   */\n      dup3\n        /* \"#utility.yul\":4182:4191   */\n      dup10\n        /* \"#utility.yul\":4178:4200   */\n      add\n        /* \"#utility.yul\":4149:4210   */\n      tag_127\n      jump\t// in\n    tag_235:\n        /* \"#utility.yul\":4139:4210   */\n      swap6\n      pop\n        /* \"#utility.yul\":4095:4220   */\n      pop\n        /* \"#utility.yul\":4287:4289   */\n      0x20\n        /* \"#utility.yul\":4276:4285   */\n      dup7\n        /* \"#utility.yul\":4272:4290   */\n      add\n        /* \"#utility.yul\":4259:4291   */\n      calldataload\n        /* \"#utility.yul\":4318:4336   */\n      0xffffffffffffffff\n        /* \"#utility.yul\":4310:4316   */\n      dup2\n        /* \"#utility.yul\":4307:4337   */\n      gt\n        /* \"#utility.yul\":4304:4421   */\n      iszero\n      tag_236\n      jumpi\n        /* \"#utility.yul\":4340:4419   */\n      tag_237\n      tag_123\n      jump\t// in\n    tag_237:\n        /* \"#utility.yul\":4304:4421   */\n    tag_236:\n        /* \"#utility.yul\":4445:4508   */\n      tag_238\n        /* \"#utility.yul\":4500:4507   */\n      dup9\n        /* \"#utility.yul\":4491:4497   */\n      dup3\n        /* \"#utility.yul\":4480:4489   */\n      dup10\n        /* \"#utility.yul\":4476:4498   */\n      add\n        /* \"#utility.yul\":4445:4508   */\n      tag_137\n      jump\t// in\n    tag_238:\n        /* \"#utility.yul\":4435:4508   */\n      swap5\n      pop\n        /* \"#utility.yul\":4230:4518   */\n      pop\n        /* \"#utility.yul\":4557:4559   */\n      0x40\n        /* \"#utility.yul\":4583:4636   */\n      tag_239\n        /* \"#utility.yul\":4628:4635   */\n      dup9\n        /* \"#utility.yul\":4619:4625   */\n      dup3\n        /* \"#utility.yul\":4608:4617   */\n      dup10\n        /* \"#utility.yul\":4604:4626   */\n      add\n        /* \"#utility.yul\":4583:4636   */\n      tag_139\n      jump\t// in\n    tag_239:\n        /* \"#utility.yul\":4573:4636   */\n      swap4\n      pop\n        /* \"#utility.yul\":4528:4646   */\n      pop\n        /* \"#utility.yul\":4685:4687   */\n      0x60\n        /* \"#utility.yul\":4711:4764   */\n      tag_240\n        /* \"#utility.yul\":4756:4763   */\n      dup9\n        /* \"#utility.yul\":4747:4753   */\n      dup3\n        /* \"#utility.yul\":4736:4745   */\n      dup10\n        /* \"#utility.yul\":4732:4754   */\n      add\n        /* \"#utility.yul\":4711:4764   */\n      tag_139\n      jump\t// in\n    tag_240:\n        /* \"#utility.yul\":4701:4764   */\n      swap3\n      pop\n        /* \"#utility.yul\":4656:4774   */\n      pop\n        /* \"#utility.yul\":4813:4816   */\n      0x80\n        /* \"#utility.yul\":4840:4893   */\n      tag_241\n        /* \"#utility.yul\":4885:4892   */\n      dup9\n        /* \"#utility.yul\":4876:4882   */\n      dup3\n        /* \"#utility.yul\":4865:4874   */\n      dup10\n        /* \"#utility.yul\":4861:4883   */\n      add\n        /* \"#utility.yul\":4840:4893   */\n      tag_139\n      jump\t// in\n    tag_241:\n        /* \"#utility.yul\":4830:4893   */\n      swap2\n      pop\n        /* \"#utility.yul\":4784:4903   */\n      pop\n        /* \"#utility.yul\":3803:4910   */\n      swap3\n      swap6\n      pop\n      swap3\n      swap6\n      swap1\n      swap4\n      pop\n      jump\t// out\n        /* \"#utility.yul\":4916:5006   */\n    tag_140:\n        /* \"#utility.yul\":4950:4957   */\n      0x00\n        /* \"#utility.yul\":4993:4998   */\n      dup2\n        /* \"#utility.yul\":4986:4999   */\n      iszero\n        /* \"#utility.yul\":4979:5000   */\n      iszero\n        /* \"#utility.yul\":4968:5000   */\n      swap1\n      pop\n        /* \"#utility.yul\":4916:5006   */\n      swap2\n      swap1\n      pop\n      jump\t// out\n        /* \"#utility.yul\":5012:5121   */\n    tag_141:\n        /* \"#utility.yul\":5093:5114   */\n      tag_244\n        /* \"#utility.yul\":5108:5113   */\n      dup2\n        /* \"#utility.yul\":5093:5114   */\n      tag_140\n      jump\t// in\n    tag_244:\n        /* \"#utility.yul\":5088:5091   */\n      dup3\n        /* \"#utility.yul\":5081:5115   */\n      mstore\n        /* \"#utility.yul\":5012:5121   */\n      pop\n      pop\n      jump\t// out\n        /* \"#utility.yul\":5127:5337   */\n    tag_42:\n        /* \"#utility.yul\":5214:5218   */\n      0x00\n        /* \"#utility.yul\":5252:5254   */\n      0x20\n        /* \"#utility.yul\":5241:5250   */\n      dup3\n        /* \"#utility.yul\":5237:5255   */\n      add\n        /* \"#utility.yul\":5229:5255   */\n      swap1\n      pop\n        /* \"#utility.yul\":5265:5330   */\n      tag_246\n        /* \"#utility.yul\":5327:5328   */\n      0x00\n        /* \"#utility.yul\":5316:5325   */\n      dup4\n        /* \"#utility.yul\":5312:5329   */\n      add\n        /* \"#utility.yul\":5303:5309   */\n      dup5\n        /* \"#utility.yul\":5265:5330   */\n      tag_141\n      jump\t// in\n    tag_246:\n        /* \"#utility.yul\":5127:5337   */\n      swap3\n      swap2\n      pop\n      pop\n      jump\t// out\n        /* \"#utility.yul\":5343:5475   */\n    tag_142:\n        /* \"#utility.yul\":5436:5468   */\n      tag_248\n        /* \"#utility.yul\":5462:5467   */\n      dup2\n        /* \"#utility.yul\":5436:5468   */\n      tag_125\n      jump\t// in\n    tag_248:\n        /* \"#utility.yul\":5431:5434   */\n      dup3\n        /* \"#utility.yul\":5424:5469   */\n      mstore\n        /* \"#utility.yul\":5343:5475   */\n      pop\n      pop\n      jump\t// out\n        /* \"#utility.yul\":5481:5577   */\n    tag_143:\n        /* \"#utility.yul\":5518:5525   */\n      0x00\n        /* \"#utility.yul\":5547:5571   */\n      tag_250\n        /* \"#utility.yul\":5565:5570   */\n      dup3\n        /* \"#utility.yul\":5547:5571   */\n      tag_124\n      jump\t// in\n    tag_250:\n        /* \"#utility.yul\":5536:5571   */\n      swap1\n      pop\n        /* \"#utility.yul\":5481:5577   */\n      swap2\n      swap1\n      pop\n      jump\t// out\n        /* \"#utility.yul\":5583:5691   */\n    tag_144:\n        /* \"#utility.yul\":5660:5684   */\n      tag_252\n        /* \"#utility.yul\":5678:5683   */\n      dup2\n        /* \"#utility.yul\":5660:5684   */\n      tag_143\n      jump\t// in\n    tag_252:\n        /* \"#utility.yul\":5655:5658   */\n      dup3\n        /* \"#utility.yul\":5648:5685   */\n      mstore\n        /* \"#utility.yul\":5583:5691   */\n      pop\n      pop\n      jump\t// out\n        /* \"#utility.yul\":5697:5796   */\n    tag_145:\n        /* \"#utility.yul\":5749:5755   */\n      0x00\n        /* \"#utility.yul\":5783:5788   */\n      dup2\n        /* \"#utility.yul\":5777:5789   */\n      mload\n        /* \"#utility.yul\":5767:5789   */\n      swap1\n      pop\n        /* \"#utility.yul\":5697:5796   */\n      swap2\n      swap1\n      pop\n      jump\t// out\n        /* \"#utility.yul\":5802:5961   */\n    tag_146:\n        /* \"#utility.yul\":5876:5887   */\n      0x00\n        /* \"#utility.yul\":5910:5916   */\n      dup3\n        /* \"#utility.yul\":5905:5908   */\n      dup3\n        /* \"#utility.yul\":5898:5917   */\n      mstore\n        /* \"#utility.yul\":5950:5954   */\n      0x20\n        /* \"#utility.yul\":5945:5948   */\n      dup3\n        /* \"#utility.yul\":5941:5955   */\n      add\n        /* \"#utility.yul\":5926:5955   */\n      swap1\n      pop\n        /* \"#utility.yul\":5802:5961   */\n      swap3\n      swap2\n      pop\n      pop\n      jump\t// out\n        /* \"#utility.yul\":5967:6274   */\n    tag_147:\n        /* \"#utility.yul\":6035:6036   */\n      0x00\n        /* \"#utility.yul\":6045:6158   */\n    tag_256:\n        /* \"#utility.yul\":6059:6065   */\n      dup4\n        /* \"#utility.yul\":6056:6057   */\n      dup2\n        /* \"#utility.yul\":6053:6066   */\n      lt\n        /* \"#utility.yul\":6045:6158   */\n      iszero\n      tag_258\n      jumpi\n        /* \"#utility.yul\":6144:6145   */\n      dup1\n        /* \"#utility.yul\":6139:6142   */\n      dup3\n        /* \"#utility.yul\":6135:6146   */\n      add\n        /* \"#utility.yul\":6129:6147   */\n      mload\n        /* \"#utility.yul\":6125:6126   */\n      dup2\n        /* \"#utility.yul\":6120:6123   */\n      dup5\n        /* \"#utility.yul\":6116:6127   */\n      add\n        /* \"#utility.yul\":6109:6148   */\n      mstore\n        /* \"#utility.yul\":6081:6083   */\n      0x20\n        /* \"#utility.yul\":6078:6079   */\n      dup2\n        /* \"#utility.yul\":6074:6084   */\n      add\n        /* \"#utility.yul\":6069:6084   */\n      swap1\n      pop\n        /* \"#utility.yul\":6045:6158   */\n      jump(tag_256)\n    tag_258:\n        /* \"#utility.yul\":6176:6182   */\n      dup4\n        /* \"#utility.yul\":6173:6174   */\n      dup2\n        /* \"#utility.yul\":6170:6183   */\n      gt\n        /* \"#utility.yul\":6167:6268   */\n      iszero\n      tag_259\n      jumpi\n        /* \"#utility.yul\":6256:6257   */\n      0x00\n        /* \"#utility.yul\":6247:6253   */\n      dup5\n        /* \"#utility.yul\":6242:6245   */\n      dup5\n        /* \"#utility.yul\":6238:6254   */\n      add\n        /* \"#utility.yul\":6231:6258   */\n      mstore\n        /* \"#utility.yul\":6167:6268   */\n    tag_259:\n        /* \"#utility.yul\":6016:6274   */\n      pop\n        /* \"#utility.yul\":5967:6274   */\n      pop\n      pop\n      pop\n      jump\t// out\n        /* \"#utility.yul\":6280:6624   */\n    tag_148:\n        /* \"#utility.yul\":6358:6361   */\n      0x00\n        /* \"#utility.yul\":6386:6425   */\n      tag_261\n        /* \"#utility.yul\":6419:6424   */\n      dup3\n        /* \"#utility.yul\":6386:6425   */\n      tag_145\n      jump\t// in\n    tag_261:\n        /* \"#utility.yul\":6441:6502   */\n      tag_262\n        /* \"#utility.yul\":6495:6501   */\n      dup2\n        /* \"#utility.yul\":6490:6493   */\n      dup6\n        /* \"#utility.yul\":6441:6502   */\n      tag_146\n      jump\t// in\n    tag_262:\n        /* \"#utility.yul\":6434:6502   */\n      swap4\n      pop\n        /* \"#utility.yul\":6511:6563   */\n      tag_263\n        /* \"#utility.yul\":6556:6562   */\n      dup2\n        /* \"#utility.yul\":6551:6554   */\n      dup6\n        /* \"#utility.yul\":6544:6548   */\n      0x20\n        /* \"#utility.yul\":6537:6542   */\n      dup7\n        /* \"#utility.yul\":6533:6549   */\n      add\n        /* \"#utility.yul\":6511:6563   */\n      tag_147\n      jump\t// in\n    tag_263:\n        /* \"#utility.yul\":6588:6617   */\n      tag_264\n        /* \"#utility.yul\":6610:6616   */\n      dup2\n        /* \"#utility.yul\":6588:6617   */\n      tag_130\n      jump\t// in\n    tag_264:\n        /* \"#utility.yul\":6583:6586   */\n      dup5\n        /* \"#utility.yul\":6579:6618   */\n      add\n        /* \"#utility.yul\":6572:6618   */\n      swap2\n      pop\n        /* \"#utility.yul\":6362:6624   */\n      pop\n        /* \"#utility.yul\":6280:6624   */\n      swap3\n      swap2\n      pop\n      pop\n      jump\t// out\n        /* \"#utility.yul\":6630:6738   */\n    tag_149:\n        /* \"#utility.yul\":6707:6731   */\n      tag_266\n        /* \"#utility.yul\":6725:6730   */\n      dup2\n        /* \"#utility.yul\":6707:6731   */\n      tag_119\n      jump\t// in\n    tag_266:\n        /* \"#utility.yul\":6702:6705   */\n      dup3\n        /* \"#utility.yul\":6695:6732   */\n      mstore\n        /* \"#utility.yul\":6630:6738   */\n      pop\n      pop\n      jump\t// out\n        /* \"#utility.yul\":6744:6843   */\n    tag_150:\n        /* \"#utility.yul\":6815:6836   */\n      tag_268\n        /* \"#utility.yul\":6830:6835   */\n      dup2\n        /* \"#utility.yul\":6815:6836   */\n      tag_140\n      jump\t// in\n    tag_268:\n        /* \"#utility.yul\":6810:6813   */\n      dup3\n        /* \"#utility.yul\":6803:6837   */\n      mstore\n        /* \"#utility.yul\":6744:6843   */\n      pop\n      pop\n      jump\t// out\n        /* \"#utility.yul\":6925:9293   */\n    tag_151:\n        /* \"#utility.yul\":7054:7057   */\n      0x00\n        /* \"#utility.yul\":7090:7096   */\n      0x0160\n        /* \"#utility.yul\":7085:7088   */\n      dup4\n        /* \"#utility.yul\":7081:7097   */\n      add\n        /* \"#utility.yul\":7181:7185   */\n      0x00\n        /* \"#utility.yul\":7174:7179   */\n      dup4\n        /* \"#utility.yul\":7170:7186   */\n      add\n        /* \"#utility.yul\":7164:7187   */\n      mload\n        /* \"#utility.yul\":7200:7279   */\n      tag_270\n        /* \"#utility.yul\":7273:7277   */\n      0x00\n        /* \"#utility.yul\":7268:7271   */\n      dup7\n        /* \"#utility.yul\":7264:7278   */\n      add\n        /* \"#utility.yul\":7250:7262   */\n      dup3\n        /* \"#utility.yul\":7200:7279   */\n      tag_142\n      jump\t// in\n    tag_270:\n        /* \"#utility.yul\":7107:7289   */\n      pop\n        /* \"#utility.yul\":7373:7377   */\n      0x20\n        /* \"#utility.yul\":7366:7371   */\n      dup4\n        /* \"#utility.yul\":7362:7378   */\n      add\n        /* \"#utility.yul\":7356:7379   */\n      mload\n        /* \"#utility.yul\":7392:7455   */\n      tag_271\n        /* \"#utility.yul\":7449:7453   */\n      0x20\n        /* \"#utility.yul\":7444:7447   */\n      dup7\n        /* \"#utility.yul\":7440:7454   */\n      add\n        /* \"#utility.yul\":7426:7438   */\n      dup3\n        /* \"#utility.yul\":7392:7455   */\n      tag_144\n      jump\t// in\n    tag_271:\n        /* \"#utility.yul\":7299:7465   */\n      pop\n        /* \"#utility.yul\":7553:7557   */\n      0x40\n        /* \"#utility.yul\":7546:7551   */\n      dup4\n        /* \"#utility.yul\":7542:7558   */\n      add\n        /* \"#utility.yul\":7536:7559   */\n      mload\n        /* \"#utility.yul\":7606:7609   */\n      dup5\n        /* \"#utility.yul\":7600:7604   */\n      dup3\n        /* \"#utility.yul\":7596:7610   */\n      sub\n        /* \"#utility.yul\":7589:7593   */\n      0x40\n        /* \"#utility.yul\":7584:7587   */\n      dup7\n        /* \"#utility.yul\":7580:7594   */\n      add\n        /* \"#utility.yul\":7573:7611   */\n      mstore\n        /* \"#utility.yul\":7632:7705   */\n      tag_272\n        /* \"#utility.yul\":7700:7704   */\n      dup3\n        /* \"#utility.yul\":7686:7698   */\n      dup3\n        /* \"#utility.yul\":7632:7705   */\n      tag_148\n      jump\t// in\n    tag_272:\n        /* \"#utility.yul\":7624:7705   */\n      swap2\n      pop\n        /* \"#utility.yul\":7475:7716   */\n      pop\n        /* \"#utility.yul\":7804:7808   */\n      0x60\n        /* \"#utility.yul\":7797:7802   */\n      dup4\n        /* \"#utility.yul\":7793:7809   */\n      add\n        /* \"#utility.yul\":7787:7810   */\n      mload\n        /* \"#utility.yul\":7857:7860   */\n      dup5\n        /* \"#utility.yul\":7851:7855   */\n      dup3\n        /* \"#utility.yul\":7847:7861   */\n      sub\n        /* \"#utility.yul\":7840:7844   */\n      0x60\n        /* \"#utility.yul\":7835:7838   */\n      dup7\n        /* \"#utility.yul\":7831:7845   */\n      add\n        /* \"#utility.yul\":7824:7862   */\n      mstore\n        /* \"#utility.yul\":7883:7956   */\n      tag_273\n        /* \"#utility.yul\":7951:7955   */\n      dup3\n        /* \"#utility.yul\":7937:7949   */\n      dup3\n        /* \"#utility.yul\":7883:7956   */\n      tag_148\n      jump\t// in\n    tag_273:\n        /* \"#utility.yul\":7875:7956   */\n      swap2\n      pop\n        /* \"#utility.yul\":7726:7967   */\n      pop\n        /* \"#utility.yul\":8061:8065   */\n      0x80\n        /* \"#utility.yul\":8054:8059   */\n      dup4\n        /* \"#utility.yul\":8050:8066   */\n      add\n        /* \"#utility.yul\":8044:8067   */\n      mload\n        /* \"#utility.yul\":8080:8143   */\n      tag_274\n        /* \"#utility.yul\":8137:8141   */\n      0x80\n        /* \"#utility.yul\":8132:8135   */\n      dup7\n        /* \"#utility.yul\":8128:8142   */\n      add\n        /* \"#utility.yul\":8114:8126   */\n      dup3\n        /* \"#utility.yul\":8080:8143   */\n      tag_149\n      jump\t// in\n    tag_274:\n        /* \"#utility.yul\":7977:8153   */\n      pop\n        /* \"#utility.yul\":8249:8253   */\n      0xa0\n        /* \"#utility.yul\":8242:8247   */\n      dup4\n        /* \"#utility.yul\":8238:8254   */\n      add\n        /* \"#utility.yul\":8232:8255   */\n      mload\n        /* \"#utility.yul\":8268:8331   */\n      tag_275\n        /* \"#utility.yul\":8325:8329   */\n      0xa0\n        /* \"#utility.yul\":8320:8323   */\n      dup7\n        /* \"#utility.yul\":8316:8330   */\n      add\n        /* \"#utility.yul\":8302:8314   */\n      dup3\n        /* \"#utility.yul\":8268:8331   */\n      tag_149\n      jump\t// in\n    tag_275:\n        /* \"#utility.yul\":8163:8341   */\n      pop\n        /* \"#utility.yul\":8430:8434   */\n      0xc0\n        /* \"#utility.yul\":8423:8428   */\n      dup4\n        /* \"#utility.yul\":8419:8435   */\n      add\n        /* \"#utility.yul\":8413:8436   */\n      mload\n        /* \"#utility.yul\":8449:8512   */\n      tag_276\n        /* \"#utility.yul\":8506:8510   */\n      0xc0\n        /* \"#utility.yul\":8501:8504   */\n      dup7\n        /* \"#utility.yul\":8497:8511   */\n      add\n        /* \"#utility.yul\":8483:8495   */\n      dup3\n        /* \"#utility.yul\":8449:8512   */\n      tag_149\n      jump\t// in\n    tag_276:\n        /* \"#utility.yul\":8351:8522   */\n      pop\n        /* \"#utility.yul\":8619:8623   */\n      0xe0\n        /* \"#utility.yul\":8612:8617   */\n      dup4\n        /* \"#utility.yul\":8608:8624   */\n      add\n        /* \"#utility.yul\":8602:8625   */\n      mload\n        /* \"#utility.yul\":8638:8701   */\n      tag_277\n        /* \"#utility.yul\":8695:8699   */\n      0xe0\n        /* \"#utility.yul\":8690:8693   */\n      dup7\n        /* \"#utility.yul\":8686:8700   */\n      add\n        /* \"#utility.yul\":8672:8684   */\n      dup3\n        /* \"#utility.yul\":8638:8701   */\n      tag_149\n      jump\t// in\n    tag_277:\n        /* \"#utility.yul\":8532:8711   */\n      pop\n        /* \"#utility.yul\":8808:8814   */\n      0x0100\n        /* \"#utility.yul\":8801:8806   */\n      dup4\n        /* \"#utility.yul\":8797:8815   */\n      add\n        /* \"#utility.yul\":8791:8816   */\n      mload\n        /* \"#utility.yul\":8829:8894   */\n      tag_278\n        /* \"#utility.yul\":8886:8892   */\n      0x0100\n        /* \"#utility.yul\":8881:8884   */\n      dup7\n        /* \"#utility.yul\":8877:8893   */\n      add\n        /* \"#utility.yul\":8863:8875   */\n      dup3\n        /* \"#utility.yul\":8829:8894   */\n      tag_149\n      jump\t// in\n    tag_278:\n        /* \"#utility.yul\":8721:8904   */\n      pop\n        /* \"#utility.yul\":8995:9001   */\n      0x0120\n        /* \"#utility.yul\":8988:8993   */\n      dup4\n        /* \"#utility.yul\":8984:9002   */\n      add\n        /* \"#utility.yul\":8978:9003   */\n      mload\n        /* \"#utility.yul\":9016:9075   */\n      tag_279\n        /* \"#utility.yul\":9067:9073   */\n      0x0120\n        /* \"#utility.yul\":9062:9065   */\n      dup7\n        /* \"#utility.yul\":9058:9074   */\n      add\n        /* \"#utility.yul\":9044:9056   */\n      dup3\n        /* \"#utility.yul\":9016:9075   */\n      tag_150\n      jump\t// in\n    tag_279:\n        /* \"#utility.yul\":8914:9085   */\n      pop\n        /* \"#utility.yul\":9176:9182   */\n      0x0140\n        /* \"#utility.yul\":9169:9174   */\n      dup4\n        /* \"#utility.yul\":9165:9183   */\n      add\n        /* \"#utility.yul\":9159:9184   */\n      mload\n        /* \"#utility.yul\":9197:9256   */\n      tag_280\n        /* \"#utility.yul\":9248:9254   */\n      0x0140\n        /* \"#utility.yul\":9243:9246   */\n      dup7\n        /* \"#utility.yul\":9239:9255   */\n      add\n        /* \"#utility.yul\":9225:9237   */\n      dup3\n        /* \"#utility.yul\":9197:9256   */\n      tag_150\n      jump\t// in\n    tag_280:\n        /* \"#utility.yul\":9095:9266   */\n      pop\n        /* \"#utility.yul\":9283:9287   */\n      dup1\n        /* \"#utility.yul\":9276:9287   */\n      swap2\n      pop\n        /* \"#utility.yul\":7059:9293   */\n      pop\n        /* \"#utility.yul\":6925:9293   */\n      swap3\n      swap2\n      pop\n      pop\n      jump\t// out\n        /* \"#utility.yul\":9299:9692   */\n    tag_51:\n        /* \"#utility.yul\":9452:9456   */\n      0x00\n        /* \"#utility.yul\":9490:9492   */\n      0x20\n        /* \"#utility.yul\":9479:9488   */\n      dup3\n        /* \"#utility.yul\":9475:9493   */\n      add\n        /* \"#utility.yul\":9467:9493   */\n      swap1\n      pop\n        /* \"#utility.yul\":9539:9548   */\n      dup2\n        /* \"#utility.yul\":9533:9537   */\n      dup2\n        /* \"#utility.yul\":9529:9549   */\n      sub\n        /* \"#utility.yul\":9525:9526   */\n      0x00\n        /* \"#utility.yul\":9514:9523   */\n      dup4\n        /* \"#utility.yul\":9510:9527   */\n      add\n        /* \"#utility.yul\":9503:9550   */\n      mstore\n        /* \"#utility.yul\":9567:9685   */\n      tag_282\n        /* \"#utility.yul\":9680:9684   */\n      dup2\n        /* \"#utility.yul\":9671:9677   */\n      dup5\n        /* \"#utility.yul\":9567:9685   */\n      tag_151\n      jump\t// in\n    tag_282:\n        /* \"#utility.yul\":9559:9685   */\n      swap1\n      pop\n        /* \"#utility.yul\":9299:9692   */\n      swap3\n      swap2\n      pop\n      pop\n      jump\t// out\n        /* \"#utility.yul\":9698:9867   */\n    tag_152:\n        /* \"#utility.yul\":9782:9793   */\n      0x00\n        /* \"#utility.yul\":9816:9822   */\n      dup3\n        /* \"#utility.yul\":9811:9814   */\n      dup3\n        /* \"#utility.yul\":9804:9823   */\n      mstore\n        /* \"#utility.yul\":9856:9860   */\n      0x20\n        /* \"#utility.yul\":9851:9854   */\n      dup3\n        /* \"#utility.yul\":9847:9861   */\n      add\n        /* \"#utility.yul\":9832:9861   */\n      swap1\n      pop\n        /* \"#utility.yul\":9698:9867   */\n      swap3\n      swap2\n      pop\n      pop\n      jump\t// out\n        /* \"#utility.yul\":9873:10048   */\n    tag_153:\n        /* \"#utility.yul\":10013:10040   */\n      0x4f6e6c792074686520446562746f722063616e20746869732100000000000000\n        /* \"#utility.yul\":10009:10010   */\n      0x00\n        /* \"#utility.yul\":10001:10007   */\n      dup3\n        /* \"#utility.yul\":9997:10011   */\n      add\n        /* \"#utility.yul\":9990:10041   */\n      mstore\n        /* \"#utility.yul\":9873:10048   */\n      pop\n      jump\t// out\n        /* \"#utility.yul\":10054:10420   */\n    tag_154:\n        /* \"#utility.yul\":10196:10199   */\n      0x00\n        /* \"#utility.yul\":10217:10284   */\n      tag_286\n        /* \"#utility.yul\":10281:10283   */\n      0x19\n        /* \"#utility.yul\":10276:10279   */\n      dup4\n        /* \"#utility.yul\":10217:10284   */\n      tag_152\n      jump\t// in\n    tag_286:\n        /* \"#utility.yul\":10210:10284   */\n      swap2\n      pop\n        /* \"#utility.yul\":10293:10386   */\n      tag_287\n        /* \"#utility.yul\":10382:10385   */\n      dup3\n        /* \"#utility.yul\":10293:10386   */\n      tag_153\n      jump\t// in\n    tag_287:\n        /* \"#utility.yul\":10411:10413   */\n      0x20\n        /* \"#utility.yul\":10406:10409   */\n      dup3\n        /* \"#utility.yul\":10402:10414   */\n      add\n        /* \"#utility.yul\":10395:10414   */\n      swap1\n      pop\n        /* \"#utility.yul\":10054:10420   */\n      swap2\n      swap1\n      pop\n      jump\t// out\n        /* \"#utility.yul\":10426:10845   */\n    tag_58:\n        /* \"#utility.yul\":10592:10596   */\n      0x00\n        /* \"#utility.yul\":10630:10632   */\n      0x20\n        /* \"#utility.yul\":10619:10628   */\n      dup3\n        /* \"#utility.yul\":10615:10633   */\n      add\n        /* \"#utility.yul\":10607:10633   */\n      swap1\n      pop\n        /* \"#utility.yul\":10679:10688   */\n      dup2\n        /* \"#utility.yul\":10673:10677   */\n      dup2\n        /* \"#utility.yul\":10669:10689   */\n      sub\n        /* \"#utility.yul\":10665:10666   */\n      0x00\n        /* \"#utility.yul\":10654:10663   */\n      dup4\n        /* \"#utility.yul\":10650:10667   */\n      add\n        /* \"#utility.yul\":10643:10690   */\n      mstore\n        /* \"#utility.yul\":10707:10838   */\n      tag_289\n        /* \"#utility.yul\":10833:10837   */\n      dup2\n        /* \"#utility.yul\":10707:10838   */\n      tag_154\n      jump\t// in\n    tag_289:\n        /* \"#utility.yul\":10699:10838   */\n      swap1\n      pop\n        /* \"#utility.yul\":10426:10845   */\n      swap2\n      swap1\n      pop\n      jump\t// out\n        /* \"#utility.yul\":10851:11071   */\n    tag_155:\n        /* \"#utility.yul\":10991:11025   */\n      0x4e65656420636f6e73657420666f7220486f6c64657220616e6420446562746f\n        /* \"#utility.yul\":10987:10988   */\n      0x00\n        /* \"#utility.yul\":10979:10985   */\n      dup3\n        /* \"#utility.yul\":10975:10989   */\n      add\n        /* \"#utility.yul\":10968:11026   */\n      mstore\n        /* \"#utility.yul\":11060:11063   */\n      0x7200000000000000000000000000000000000000000000000000000000000000\n        /* \"#utility.yul\":11055:11057   */\n      0x20\n        /* \"#utility.yul\":11047:11053   */\n      dup3\n        /* \"#utility.yul\":11043:11058   */\n      add\n        /* \"#utility.yul\":11036:11064   */\n      mstore\n        /* \"#utility.yul\":10851:11071   */\n      pop\n      jump\t// out\n        /* \"#utility.yul\":11077:11443   */\n    tag_156:\n        /* \"#utility.yul\":11219:11222   */\n      0x00\n        /* \"#utility.yul\":11240:11307   */\n      tag_292\n        /* \"#utility.yul\":11304:11306   */\n      0x21\n        /* \"#utility.yul\":11299:11302   */\n      dup4\n        /* \"#utility.yul\":11240:11307   */\n      tag_152\n      jump\t// in\n    tag_292:\n        /* \"#utility.yul\":11233:11307   */\n      swap2\n      pop\n        /* \"#utility.yul\":11316:11409   */\n      tag_293\n        /* \"#utility.yul\":11405:11408   */\n      dup3\n        /* \"#utility.yul\":11316:11409   */\n      tag_155\n      jump\t// in\n    tag_293:\n        /* \"#utility.yul\":11434:11436   */\n      0x40\n        /* \"#utility.yul\":11429:11432   */\n      dup3\n        /* \"#utility.yul\":11425:11437   */\n      add\n        /* \"#utility.yul\":11418:11437   */\n      swap1\n      pop\n        /* \"#utility.yul\":11077:11443   */\n      swap2\n      swap1\n      pop\n      jump\t// out\n        /* \"#utility.yul\":11449:11868   */\n    tag_63:\n        /* \"#utility.yul\":11615:11619   */\n      0x00\n        /* \"#utility.yul\":11653:11655   */\n      0x20\n        /* \"#utility.yul\":11642:11651   */\n      dup3\n        /* \"#utility.yul\":11638:11656   */\n      add\n        /* \"#utility.yul\":11630:11656   */\n      swap1\n      pop\n        /* \"#utility.yul\":11702:11711   */\n      dup2\n        /* \"#utility.yul\":11696:11700   */\n      dup2\n        /* \"#utility.yul\":11692:11712   */\n      sub\n        /* \"#utility.yul\":11688:11689   */\n      0x00\n        /* \"#utility.yul\":11677:11686   */\n      dup4\n        /* \"#utility.yul\":11673:11690   */\n      add\n        /* \"#utility.yul\":11666:11713   */\n      mstore\n        /* \"#utility.yul\":11730:11861   */\n      tag_295\n        /* \"#utility.yul\":11856:11860   */\n      dup2\n        /* \"#utility.yul\":11730:11861   */\n      tag_156\n      jump\t// in\n    tag_295:\n        /* \"#utility.yul\":11722:11861   */\n      swap1\n      pop\n        /* \"#utility.yul\":11449:11868   */\n      swap2\n      swap1\n      pop\n      jump\t// out\n        /* \"#utility.yul\":11874:12021   */\n    tag_157:\n        /* \"#utility.yul\":11975:11986   */\n      0x00\n        /* \"#utility.yul\":12012:12015   */\n      dup2\n        /* \"#utility.yul\":11997:12015   */\n      swap1\n      pop\n        /* \"#utility.yul\":11874:12021   */\n      swap3\n      swap2\n      pop\n      pop\n      jump\t// out\n        /* \"#utility.yul\":12027:12141   */\n    tag_158:\n      pop\n      jump\t// out\n        /* \"#utility.yul\":12147:12545   */\n    tag_159:\n        /* \"#utility.yul\":12306:12309   */\n      0x00\n        /* \"#utility.yul\":12327:12410   */\n      tag_299\n        /* \"#utility.yul\":12408:12409   */\n      0x00\n        /* \"#utility.yul\":12403:12406   */\n      dup4\n        /* \"#utility.yul\":12327:12410   */\n      tag_157\n      jump\t// in\n    tag_299:\n        /* \"#utility.yul\":12320:12410   */\n      swap2\n      pop\n        /* \"#utility.yul\":12419:12512   */\n      tag_300\n        /* \"#utility.yul\":12508:12511   */\n      dup3\n        /* \"#utility.yul\":12419:12512   */\n      tag_158\n      jump\t// in\n    tag_300:\n        /* \"#utility.yul\":12537:12538   */\n      0x00\n        /* \"#utility.yul\":12532:12535   */\n      dup3\n        /* \"#utility.yul\":12528:12539   */\n      add\n        /* \"#utility.yul\":12521:12539   */\n      swap1\n      pop\n        /* \"#utility.yul\":12147:12545   */\n      swap2\n      swap1\n      pop\n      jump\t// out\n        /* \"#utility.yul\":12551:12930   */\n    tag_66:\n        /* \"#utility.yul\":12735:12738   */\n      0x00\n        /* \"#utility.yul\":12757:12904   */\n      tag_302\n        /* \"#utility.yul\":12900:12903   */\n      dup3\n        /* \"#utility.yul\":12757:12904   */\n      tag_159\n      jump\t// in\n    tag_302:\n        /* \"#utility.yul\":12750:12904   */\n      swap2\n      pop\n        /* \"#utility.yul\":12921:12924   */\n      dup2\n        /* \"#utility.yul\":12914:12924   */\n      swap1\n      pop\n        /* \"#utility.yul\":12551:12930   */\n      swap2\n      swap1\n      pop\n      jump\t// out\n        /* \"#utility.yul\":12936:13111   */\n    tag_160:\n        /* \"#utility.yul\":13076:13103   */\n      0x4f6e6c792074686520486f6c6465722063616e20746869732100000000000000\n        /* \"#utility.yul\":13072:13073   */\n      0x00\n        /* \"#utility.yul\":13064:13070   */\n      dup3\n        /* \"#utility.yul\":13060:13074   */\n      add\n        /* \"#utility.yul\":13053:13104   */\n      mstore\n        /* \"#utility.yul\":12936:13111   */\n      pop\n      jump\t// out\n        /* \"#utility.yul\":13117:13483   */\n    tag_161:\n        /* \"#utility.yul\":13259:13262   */\n      0x00\n        /* \"#utility.yul\":13280:13347   */\n      tag_305\n        /* \"#utility.yul\":13344:13346   */\n      0x19\n        /* \"#utility.yul\":13339:13342   */\n      dup4\n        /* \"#utility.yul\":13280:13347   */\n      tag_152\n      jump\t// in\n    tag_305:\n        /* \"#utility.yul\":13273:13347   */\n      swap2\n      pop\n        /* \"#utility.yul\":13356:13449   */\n      tag_306\n        /* \"#utility.yul\":13445:13448   */\n      dup3\n        /* \"#utility.yul\":13356:13449   */\n      tag_160\n      jump\t// in\n    tag_306:\n        /* \"#utility.yul\":13474:13476   */\n      0x20\n        /* \"#utility.yul\":13469:13472   */\n      dup3\n        /* \"#utility.yul\":13465:13477   */\n      add\n        /* \"#utility.yul\":13458:13477   */\n      swap1\n      pop\n        /* \"#utility.yul\":13117:13483   */\n      swap2\n      swap1\n      pop\n      jump\t// out\n        /* \"#utility.yul\":13489:13908   */\n    tag_74:\n        /* \"#utility.yul\":13655:13659   */\n      0x00\n        /* \"#utility.yul\":13693:13695   */\n      0x20\n        /* \"#utility.yul\":13682:13691   */\n      dup3\n        /* \"#utility.yul\":13678:13696   */\n      add\n        /* \"#utility.yul\":13670:13696   */\n      swap1\n      pop\n        /* \"#utility.yul\":13742:13751   */\n      dup2\n        /* \"#utility.yul\":13736:13740   */\n      dup2\n        /* \"#utility.yul\":13732:13752   */\n      sub\n        /* \"#utility.yul\":13728:13729   */\n      0x00\n        /* \"#utility.yul\":13717:13726   */\n      dup4\n        /* \"#utility.yul\":13713:13730   */\n      add\n        /* \"#utility.yul\":13706:13753   */\n      mstore\n        /* \"#utility.yul\":13770:13901   */\n      tag_308\n        /* \"#utility.yul\":13896:13900   */\n      dup2\n        /* \"#utility.yul\":13770:13901   */\n      tag_161\n      jump\t// in\n    tag_308:\n        /* \"#utility.yul\":13762:13901   */\n      swap1\n      pop\n        /* \"#utility.yul\":13489:13908   */\n      swap2\n      swap1\n      pop\n      jump\t// out\n        /* \"#utility.yul\":13914:14147   */\n    tag_162:\n        /* \"#utility.yul\":14054:14088   */\n      0x5061796d656e74206d757374206265206d616465206265666f72652077697468\n        /* \"#utility.yul\":14050:14051   */\n      0x00\n        /* \"#utility.yul\":14042:14048   */\n      dup3\n        /* \"#utility.yul\":14038:14052   */\n      add\n        /* \"#utility.yul\":14031:14089   */\n      mstore\n        /* \"#utility.yul\":14123:14139   */\n      0x64726177696e672066756e647321000000000000000000000000000000000000\n        /* \"#utility.yul\":14118:14120   */\n      0x20\n        /* \"#utility.yul\":14110:14116   */\n      dup3\n        /* \"#utility.yul\":14106:14121   */\n      add\n        /* \"#utility.yul\":14099:14140   */\n      mstore\n        /* \"#utility.yul\":13914:14147   */\n      pop\n      jump\t// out\n        /* \"#utility.yul\":14153:14519   */\n    tag_163:\n        /* \"#utility.yul\":14295:14298   */\n      0x00\n        /* \"#utility.yul\":14316:14383   */\n      tag_311\n        /* \"#utility.yul\":14380:14382   */\n      0x2e\n        /* \"#utility.yul\":14375:14378   */\n      dup4\n        /* \"#utility.yul\":14316:14383   */\n      tag_152\n      jump\t// in\n    tag_311:\n        /* \"#utility.yul\":14309:14383   */\n      swap2\n      pop\n        /* \"#utility.yul\":14392:14485   */\n      tag_312\n        /* \"#utility.yul\":14481:14484   */\n      dup3\n        /* \"#utility.yul\":14392:14485   */\n      tag_162\n      jump\t// in\n    tag_312:\n        /* \"#utility.yul\":14510:14512   */\n      0x40\n        /* \"#utility.yul\":14505:14508   */\n      dup3\n        /* \"#utility.yul\":14501:14513   */\n      add\n        /* \"#utility.yul\":14494:14513   */\n      swap1\n      pop\n        /* \"#utility.yul\":14153:14519   */\n      swap2\n      swap1\n      pop\n      jump\t// out\n        /* \"#utility.yul\":14525:14944   */\n    tag_78:\n        /* \"#utility.yul\":14691:14695   */\n      0x00\n        /* \"#utility.yul\":14729:14731   */\n      0x20\n        /* \"#utility.yul\":14718:14727   */\n      dup3\n        /* \"#utility.yul\":14714:14732   */\n      add\n        /* \"#utility.yul\":14706:14732   */\n      swap1\n      pop\n        /* \"#utility.yul\":14778:14787   */\n      dup2\n        /* \"#utility.yul\":14772:14776   */\n      dup2\n        /* \"#utility.yul\":14768:14788   */\n      sub\n        /* \"#utility.yul\":14764:14765   */\n      0x00\n        /* \"#utility.yul\":14753:14762   */\n      dup4\n        /* \"#utility.yul\":14749:14766   */\n      add\n        /* \"#utility.yul\":14742:14789   */\n      mstore\n        /* \"#utility.yul\":14806:14937   */\n      tag_314\n        /* \"#utility.yul\":14932:14936   */\n      dup2\n        /* \"#utility.yul\":14806:14937   */\n      tag_163\n      jump\t// in\n    tag_314:\n        /* \"#utility.yul\":14798:14937   */\n      swap1\n      pop\n        /* \"#utility.yul\":14525:14944   */\n      swap2\n      swap1\n      pop\n      jump\t// out\n        /* \"#utility.yul\":14950:15171   */\n    tag_164:\n        /* \"#utility.yul\":15090:15124   */\n      0x596f75206d757374207061792074686520616d6f756e742070726f6d6973736f\n        /* \"#utility.yul\":15086:15087   */\n      0x00\n        /* \"#utility.yul\":15078:15084   */\n      dup3\n        /* \"#utility.yul\":15074:15088   */\n      add\n        /* \"#utility.yul\":15067:15125   */\n      mstore\n        /* \"#utility.yul\":15159:15163   */\n      0x7279000000000000000000000000000000000000000000000000000000000000\n        /* \"#utility.yul\":15154:15156   */\n      0x20\n        /* \"#utility.yul\":15146:15152   */\n      dup3\n        /* \"#utility.yul\":15142:15157   */\n      add\n        /* \"#utility.yul\":15135:15164   */\n      mstore\n        /* \"#utility.yul\":14950:15171   */\n      pop\n      jump\t// out\n        /* \"#utility.yul\":15177:15543   */\n    tag_165:\n        /* \"#utility.yul\":15319:15322   */\n      0x00\n        /* \"#utility.yul\":15340:15407   */\n      tag_317\n        /* \"#utility.yul\":15404:15406   */\n      0x22\n        /* \"#utility.yul\":15399:15402   */\n      dup4\n        /* \"#utility.yul\":15340:15407   */\n      tag_152\n      jump\t// in\n    tag_317:\n        /* \"#utility.yul\":15333:15407   */\n      swap2\n      pop\n        /* \"#utility.yul\":15416:15509   */\n      tag_318\n        /* \"#utility.yul\":15505:15508   */\n      dup3\n        /* \"#utility.yul\":15416:15509   */\n      tag_164\n      jump\t// in\n    tag_318:\n        /* \"#utility.yul\":15534:15536   */\n      0x40\n        /* \"#utility.yul\":15529:15532   */\n      dup3\n        /* \"#utility.yul\":15525:15537   */\n      add\n        /* \"#utility.yul\":15518:15537   */\n      swap1\n      pop\n        /* \"#utility.yul\":15177:15543   */\n      swap2\n      swap1\n      pop\n      jump\t// out\n        /* \"#utility.yul\":15549:15968   */\n    tag_82:\n        /* \"#utility.yul\":15715:15719   */\n      0x00\n        /* \"#utility.yul\":15753:15755   */\n      0x20\n        /* \"#utility.yul\":15742:15751   */\n      dup3\n        /* \"#utility.yul\":15738:15756   */\n      add\n        /* \"#utility.yul\":15730:15756   */\n      swap1\n      pop\n        /* \"#utility.yul\":15802:15811   */\n      dup2\n        /* \"#utility.yul\":15796:15800   */\n      dup2\n        /* \"#utility.yul\":15792:15812   */\n      sub\n        /* \"#utility.yul\":15788:15789   */\n      0x00\n        /* \"#utility.yul\":15777:15786   */\n      dup4\n        /* \"#utility.yul\":15773:15790   */\n      add\n        /* \"#utility.yul\":15766:15813   */\n      mstore\n        /* \"#utility.yul\":15830:15961   */\n      tag_320\n        /* \"#utility.yul\":15956:15960   */\n      dup2\n        /* \"#utility.yul\":15830:15961   */\n      tag_165\n      jump\t// in\n    tag_320:\n        /* \"#utility.yul\":15822:15961   */\n      swap1\n      pop\n        /* \"#utility.yul\":15549:15968   */\n      swap2\n      swap1\n      pop\n      jump\t// out\n        /* \"#utility.yul\":15974:16204   */\n    tag_166:\n        /* \"#utility.yul\":16114:16148   */\n      0x446562746f7220616e6420486f6c646572206d75737420626520646966666572\n        /* \"#utility.yul\":16110:16111   */\n      0x00\n        /* \"#utility.yul\":16102:16108   */\n      dup3\n        /* \"#utility.yul\":16098:16112   */\n      add\n        /* \"#utility.yul\":16091:16149   */\n      mstore\n        /* \"#utility.yul\":16183:16196   */\n      0x656e742070656f706c6573000000000000000000000000000000000000000000\n        /* \"#utility.yul\":16178:16180   */\n      0x20\n        /* \"#utility.yul\":16170:16176   */\n      dup3\n        /* \"#utility.yul\":16166:16181   */\n      add\n        /* \"#utility.yul\":16159:16197   */\n      mstore\n        /* \"#utility.yul\":15974:16204   */\n      pop\n      jump\t// out\n        /* \"#utility.yul\":16210:16576   */\n    tag_167:\n        /* \"#utility.yul\":16352:16355   */\n      0x00\n        /* \"#utility.yul\":16373:16440   */\n      tag_323\n        /* \"#utility.yul\":16437:16439   */\n      0x2b\n        /* \"#utility.yul\":16432:16435   */\n      dup4\n        /* \"#utility.yul\":16373:16440   */\n      tag_152\n      jump\t// in\n    tag_323:\n        /* \"#utility.yul\":16366:16440   */\n      swap2\n      pop\n        /* \"#utility.yul\":16449:16542   */\n      tag_324\n        /* \"#utility.yul\":16538:16541   */\n      dup3\n        /* \"#utility.yul\":16449:16542   */\n      tag_166\n      jump\t// in\n    tag_324:\n        /* \"#utility.yul\":16567:16569   */\n      0x40\n        /* \"#utility.yul\":16562:16565   */\n      dup3\n        /* \"#utility.yul\":16558:16570   */\n      add\n        /* \"#utility.yul\":16551:16570   */\n      swap1\n      pop\n        /* \"#utility.yul\":16210:16576   */\n      swap2\n      swap1\n      pop\n      jump\t// out\n        /* \"#utility.yul\":16582:17001   */\n    tag_88:\n        /* \"#utility.yul\":16748:16752   */\n      0x00\n        /* \"#utility.yul\":16786:16788   */\n      0x20\n        /* \"#utility.yul\":16775:16784   */\n      dup3\n        /* \"#utility.yul\":16771:16789   */\n      add\n        /* \"#utility.yul\":16763:16789   */\n      swap1\n      pop\n        /* \"#utility.yul\":16835:16844   */\n      dup2\n        /* \"#utility.yul\":16829:16833   */\n      dup2\n        /* \"#utility.yul\":16825:16845   */\n      sub\n        /* \"#utility.yul\":16821:16822   */\n      0x00\n        /* \"#utility.yul\":16810:16819   */\n      dup4\n        /* \"#utility.yul\":16806:16823   */\n      add\n        /* \"#utility.yul\":16799:16846   */\n      mstore\n        /* \"#utility.yul\":16863:16994   */\n      tag_326\n        /* \"#utility.yul\":16989:16993   */\n      dup2\n        /* \"#utility.yul\":16863:16994   */\n      tag_167\n      jump\t// in\n    tag_326:\n        /* \"#utility.yul\":16855:16994   */\n      swap1\n      pop\n        /* \"#utility.yul\":16582:17001   */\n      swap2\n      swap1\n      pop\n      jump\t// out\n        /* \"#utility.yul\":17007:17187   */\n    tag_168:\n        /* \"#utility.yul\":17055:17132   */\n      0x4e487b7100000000000000000000000000000000000000000000000000000000\n        /* \"#utility.yul\":17052:17053   */\n      0x00\n        /* \"#utility.yul\":17045:17133   */\n      mstore\n        /* \"#utility.yul\":17152:17156   */\n      0x22\n        /* \"#utility.yul\":17149:17150   */\n      0x04\n        /* \"#utility.yul\":17142:17157   */\n      mstore\n        /* \"#utility.yul\":17176:17180   */\n      0x24\n        /* \"#utility.yul\":17173:17174   */\n      0x00\n        /* \"#utility.yul\":17166:17181   */\n      revert\n        /* \"#utility.yul\":17193:17513   */\n    tag_100:\n        /* \"#utility.yul\":17237:17243   */\n      0x00\n        /* \"#utility.yul\":17274:17275   */\n      0x02\n        /* \"#utility.yul\":17268:17272   */\n      dup3\n        /* \"#utility.yul\":17264:17276   */\n      div\n        /* \"#utility.yul\":17254:17276   */\n      swap1\n      pop\n        /* \"#utility.yul\":17321:17322   */\n      0x01\n        /* \"#utility.yul\":17315:17319   */\n      dup3\n        /* \"#utility.yul\":17311:17323   */\n      and\n        /* \"#utility.yul\":17342:17360   */\n      dup1\n        /* \"#utility.yul\":17332:17413   */\n      tag_329\n      jumpi\n        /* \"#utility.yul\":17398:17402   */\n      0x7f\n        /* \"#utility.yul\":17390:17396   */\n      dup3\n        /* \"#utility.yul\":17386:17403   */\n      and\n        /* \"#utility.yul\":17376:17403   */\n      swap2\n      pop\n        /* \"#utility.yul\":17332:17413   */\n    tag_329:\n        /* \"#utility.yul\":17460:17462   */\n      0x20\n        /* \"#utility.yul\":17452:17458   */\n      dup3\n        /* \"#utility.yul\":17449:17463   */\n      lt\n        /* \"#utility.yul\":17429:17447   */\n      dup2\n        /* \"#utility.yul\":17426:17464   */\n      sub\n        /* \"#utility.yul\":17423:17507   */\n      tag_330\n      jumpi\n        /* \"#utility.yul\":17479:17497   */\n      tag_331\n      tag_168\n      jump\t// in\n    tag_331:\n        /* \"#utility.yul\":17423:17507   */\n    tag_330:\n        /* \"#utility.yul\":17244:17513   */\n      pop\n        /* \"#utility.yul\":17193:17513   */\n      swap2\n      swap1\n      pop\n      jump\t// out\n        /* \"#utility.yul\":17519:17660   */\n    tag_169:\n        /* \"#utility.yul\":17568:17572   */\n      0x00\n        /* \"#utility.yul\":17591:17594   */\n      dup2\n        /* \"#utility.yul\":17583:17594   */\n      swap1\n      pop\n        /* \"#utility.yul\":17614:17617   */\n      dup2\n        /* \"#utility.yul\":17611:17612   */\n      0x00\n        /* \"#utility.yul\":17604:17618   */\n      mstore\n        /* \"#utility.yul\":17648:17652   */\n      0x20\n        /* \"#utility.yul\":17645:17646   */\n      0x00\n        /* \"#utility.yul\":17635:17653   */\n      keccak256\n        /* \"#utility.yul\":17627:17653   */\n      swap1\n      pop\n        /* \"#utility.yul\":17519:17660   */\n      swap2\n      swap1\n      pop\n      jump\t// out\n        /* \"#utility.yul\":17666:17759   */\n    tag_170:\n        /* \"#utility.yul\":17703:17709   */\n      0x00\n        /* \"#utility.yul\":17750:17752   */\n      0x20\n        /* \"#utility.yul\":17745:17747   */\n      0x1f\n        /* \"#utility.yul\":17738:17743   */\n      dup4\n        /* \"#utility.yul\":17734:17748   */\n      add\n        /* \"#utility.yul\":17730:17753   */\n      div\n        /* \"#utility.yul\":17720:17753   */\n      swap1\n      pop\n        /* \"#utility.yul\":17666:17759   */\n      swap2\n      swap1\n      pop\n      jump\t// out\n        /* \"#utility.yul\":17765:17872   */\n    tag_171:\n        /* \"#utility.yul\":17809:17817   */\n      0x00\n        /* \"#utility.yul\":17859:17864   */\n      dup3\n        /* \"#utility.yul\":17853:17857   */\n      dup3\n        /* \"#utility.yul\":17849:17865   */\n      shl\n        /* \"#utility.yul\":17828:17865   */\n      swap1\n      pop\n        /* \"#utility.yul\":17765:17872   */\n      swap3\n      swap2\n      pop\n      pop\n      jump\t// out\n        /* \"#utility.yul\":17878:18271   */\n    tag_172:\n        /* \"#utility.yul\":17947:17953   */\n      0x00\n        /* \"#utility.yul\":17997:17998   */\n      0x08\n        /* \"#utility.yul\":17985:17995   */\n      dup4\n        /* \"#utility.yul\":17981:17999   */\n      mul\n        /* \"#utility.yul\":18020:18117   */\n      tag_336\n        /* \"#utility.yul\":18050:18116   */\n      0xffffffffffffffffffffffffffffffffffffffffffffffffffffffffffffffff\n        /* \"#utility.yul\":18039:18048   */\n      dup3\n        /* \"#utility.yul\":18020:18117   */\n      tag_171\n      jump\t// in\n    tag_336:\n        /* \"#utility.yul\":18138:18177   */\n      tag_337\n        /* \"#utility.yul\":18168:18176   */\n      dup7\n        /* \"#utility.yul\":18157:18166   */\n      dup4\n        /* \"#utility.yul\":18138:18177   */\n      tag_171\n      jump\t// in\n    tag_337:\n        /* \"#utility.yul\":18126:18177   */\n      swap6\n      pop\n        /* \"#utility.yul\":18210:18214   */\n      dup1\n        /* \"#utility.yul\":18206:18215   */\n      not\n        /* \"#utility.yul\":18199:18204   */\n      dup5\n        /* \"#utility.yul\":18195:18216   */\n      and\n        /* \"#utility.yul\":18186:18216   */\n      swap4\n      pop\n        /* \"#utility.yul\":18259:18263   */\n      dup1\n        /* \"#utility.yul\":18249:18257   */\n      dup7\n        /* \"#utility.yul\":18245:18264   */\n      and\n        /* \"#utility.yul\":18238:18243   */\n      dup5\n        /* \"#utility.yul\":18235:18265   */\n      or\n        /* \"#utility.yul\":18225:18265   */\n      swap3\n      pop\n        /* \"#utility.yul\":17954:18271   */\n      pop\n      pop\n        /* \"#utility.yul\":17878:18271   */\n      swap4\n      swap3\n      pop\n      pop\n      pop\n      jump\t// out\n        /* \"#utility.yul\":18277:18337   */\n    tag_173:\n        /* \"#utility.yul\":18305:18308   */\n      0x00\n        /* \"#utility.yul\":18326:18331   */\n      dup2\n        /* \"#utility.yul\":18319:18331   */\n      swap1\n      pop\n        /* \"#utility.yul\":18277:18337   */\n      swap2\n      swap1\n      pop\n      jump\t// out\n        /* \"#utility.yul\":18343:18485   */\n    tag_174:\n        /* \"#utility.yul\":18393:18402   */\n      0x00\n        /* \"#utility.yul\":18426:18479   */\n      tag_340\n        /* \"#utility.yul\":18444:18478   */\n      tag_341\n        /* \"#utility.yul\":18453:18477   */\n      tag_342\n        /* \"#utility.yul\":18471:18476   */\n      dup5\n        /* \"#utility.yul\":18453:18477   */\n      tag_119\n      jump\t// in\n    tag_342:\n        /* \"#utility.yul\":18444:18478   */\n      tag_173\n      jump\t// in\n    tag_341:\n        /* \"#utility.yul\":18426:18479   */\n      tag_119\n      jump\t// in\n    tag_340:\n        /* \"#utility.yul\":18413:18479   */\n      swap1\n      pop\n        /* \"#utility.yul\":18343:18485   */\n      swap2\n      swap1\n      pop\n      jump\t// out\n        /* \"#utility.yul\":18491:18566   */\n    tag_175:\n        /* \"#utility.yul\":18534:18537   */\n      0x00\n        /* \"#utility.yul\":18555:18560   */\n      dup2\n        /* \"#utility.yul\":18548:18560   */\n      swap1\n      pop\n        /* \"#utility.yul\":18491:18566   */\n      swap2\n      swap1\n      pop\n      jump\t// out\n        /* \"#utility.yul\":18572:18841   */\n    tag_176:\n        /* \"#utility.yul\":18682:18721   */\n      tag_345\n        /* \"#utility.yul\":18713:18720   */\n      dup4\n        /* \"#utility.yul\":18682:18721   */\n      tag_174\n      jump\t// in\n    tag_345:\n        /* \"#utility.yul\":18743:18834   */\n      tag_346\n        /* \"#utility.yul\":18792:18833   */\n      tag_347\n        /* \"#utility.yul\":18816:18832   */\n      dup3\n        /* \"#utility.yul\":18792:18833   */\n      tag_175\n      jump\t// in\n    tag_347:\n        /* \"#utility.yul\":18784:18790   */\n      dup5\n        /* \"#utility.yul\":18777:18781   */\n      dup5\n        /* \"#utility.yul\":18771:18782   */\n      sload\n        /* \"#utility.yul\":18743:18834   */\n      tag_172\n      jump\t// in\n    tag_346:\n        /* \"#utility.yul\":18737:18741   */\n      dup3\n        /* \"#utility.yul\":18730:18835   */\n      sstore\n        /* \"#utility.yul\":18648:18841   */\n      pop\n        /* \"#utility.yul\":18572:18841   */\n      pop\n      pop\n      pop\n      jump\t// out\n        /* \"#utility.yul\":18847:18920   */\n    tag_177:\n        /* \"#utility.yul\":18892:18895   */\n      0x00\n        /* \"#utility.yul\":18847:18920   */\n      swap1\n      jump\t// out\n        /* \"#utility.yul\":18926:19115   */\n    tag_178:\n        /* \"#utility.yul\":19003:19035   */\n      tag_350\n      tag_177\n      jump\t// in\n    tag_350:\n        /* \"#utility.yul\":19044:19109   */\n      tag_351\n        /* \"#utility.yul\":19102:19108   */\n      dup2\n        /* \"#utility.yul\":19094:19100   */\n      dup5\n        /* \"#utility.yul\":19088:19092   */\n      dup5\n        /* \"#utility.yul\":19044:19109   */\n      tag_176\n      jump\t// in\n    tag_351:\n        /* \"#utility.yul\":18979:19115   */\n      pop\n        /* \"#utility.yul\":18926:19115   */\n      pop\n      pop\n      jump\t// out\n        /* \"#utility.yul\":19121:19307   */\n    tag_179:\n        /* \"#utility.yul\":19181:19301   */\n    tag_353:\n        /* \"#utility.yul\":19198:19201   */\n      dup2\n        /* \"#utility.yul\":19191:19196   */\n      dup2\n        /* \"#utility.yul\":19188:19202   */\n      lt\n        /* \"#utility.yul\":19181:19301   */\n      iszero\n      tag_355\n      jumpi\n        /* \"#utility.yul\":19252:19291   */\n      tag_356\n        /* \"#utility.yul\":19289:19290   */\n      0x00\n        /* \"#utility.yul\":19282:19287   */\n      dup3\n        /* \"#utility.yul\":19252:19291   */\n      tag_178\n      jump\t// in\n    tag_356:\n        /* \"#utility.yul\":19225:19226   */\n      0x01\n        /* \"#utility.yul\":19218:19223   */\n      dup2\n        /* \"#utility.yul\":19214:19227   */\n      add\n        /* \"#utility.yul\":19205:19227   */\n      swap1\n      pop\n        /* \"#utility.yul\":19181:19301   */\n      jump(tag_353)\n    tag_355:\n        /* \"#utility.yul\":19121:19307   */\n      pop\n      pop\n      jump\t// out\n        /* \"#utility.yul\":19313:19856   */\n    tag_180:\n        /* \"#utility.yul\":19414:19416   */\n      0x1f\n        /* \"#utility.yul\":19409:19412   */\n      dup3\n        /* \"#utility.yul\":19406:19417   */\n      gt\n        /* \"#utility.yul\":19403:19849   */\n      iszero\n      tag_358\n      jumpi\n        /* \"#utility.yul\":19448:19486   */\n      tag_359\n        /* \"#utility.yul\":19480:19485   */\n      dup2\n        /* \"#utility.yul\":19448:19486   */\n      tag_169\n      jump\t// in\n    tag_359:\n        /* \"#utility.yul\":19532:19561   */\n      tag_360\n        /* \"#utility.yul\":19550:19560   */\n      dup5\n        /* \"#utility.yul\":19532:19561   */\n      tag_170\n      jump\t// in\n    tag_360:\n        /* \"#utility.yul\":19522:19530   */\n      dup2\n        /* \"#utility.yul\":19518:19562   */\n      add\n        /* \"#utility.yul\":19715:19717   */\n      0x20\n        /* \"#utility.yul\":19703:19713   */\n      dup6\n        /* \"#utility.yul\":19700:19718   */\n      lt\n        /* \"#utility.yul\":19697:19746   */\n      iszero\n      tag_361\n      jumpi\n        /* \"#utility.yul\":19736:19744   */\n      dup2\n        /* \"#utility.yul\":19721:19744   */\n      swap1\n      pop\n        /* \"#utility.yul\":19697:19746   */\n    tag_361:\n        /* \"#utility.yul\":19759:19839   */\n      tag_362\n        /* \"#utility.yul\":19815:19837   */\n      tag_363\n        /* \"#utility.yul\":19833:19836   */\n      dup6\n        /* \"#utility.yul\":19815:19837   */\n      tag_170\n      jump\t// in\n    tag_363:\n        /* \"#utility.yul\":19805:19813   */\n      dup4\n        /* \"#utility.yul\":19801:19838   */\n      add\n        /* \"#utility.yul\":19788:19799   */\n      dup3\n        /* \"#utility.yul\":19759:19839   */\n      tag_179\n      jump\t// in\n    tag_362:\n        /* \"#utility.yul\":19418:19849   */\n      pop\n      pop\n        /* \"#utility.yul\":19403:19849   */\n    tag_358:\n        /* \"#utility.yul\":19313:19856   */\n      pop\n      pop\n      pop\n      jump\t// out\n        /* \"#utility.yul\":19862:19979   */\n    tag_181:\n        /* \"#utility.yul\":19916:19924   */\n      0x00\n        /* \"#utility.yul\":19966:19971   */\n      dup3\n        /* \"#utility.yul\":19960:19964   */\n      dup3\n        /* \"#utility.yul\":19956:19972   */\n      shr\n        /* \"#utility.yul\":19935:19972   */\n      swap1\n      pop\n        /* \"#utility.yul\":19862:19979   */\n      swap3\n      swap2\n      pop\n      pop\n      jump\t// out\n        /* \"#utility.yul\":19985:20154   */\n    tag_182:\n        /* \"#utility.yul\":20029:20035   */\n      0x00\n        /* \"#utility.yul\":20062:20113   */\n      tag_366\n        /* \"#utility.yul\":20110:20111   */\n      0x00\n        /* \"#utility.yul\":20106:20112   */\n      not\n        /* \"#utility.yul\":20098:20103   */\n      dup5\n        /* \"#utility.yul\":20095:20096   */\n      0x08\n        /* \"#utility.yul\":20091:20104   */\n      mul\n        /* \"#utility.yul\":20062:20113   */\n      tag_181\n      jump\t// in\n    tag_366:\n        /* \"#utility.yul\":20058:20114   */\n      not\n        /* \"#utility.yul\":20143:20147   */\n      dup1\n        /* \"#utility.yul\":20137:20141   */\n      dup4\n        /* \"#utility.yul\":20133:20148   */\n      and\n        /* \"#utility.yul\":20123:20148   */\n      swap2\n      pop\n        /* \"#utility.yul\":20036:20154   */\n      pop\n        /* \"#utility.yul\":19985:20154   */\n      swap3\n      swap2\n      pop\n      pop\n      jump\t// out\n        /* \"#utility.yul\":20159:20454   */\n    tag_183:\n        /* \"#utility.yul\":20235:20239   */\n      0x00\n        /* \"#utility.yul\":20381:20410   */\n      tag_368\n        /* \"#utility.yul\":20406:20409   */\n      dup4\n        /* \"#utility.yul\":20400:20404   */\n      dup4\n        /* \"#utility.yul\":20381:20410   */\n      tag_182\n      jump\t// in\n    tag_368:\n        /* \"#utility.yul\":20373:20410   */\n      swap2\n      pop\n        /* \"#utility.yul\":20443:20446   */\n      dup3\n        /* \"#utility.yul\":20440:20441   */\n      0x02\n        /* \"#utility.yul\":20436:20447   */\n      mul\n        /* \"#utility.yul\":20430:20434   */\n      dup3\n        /* \"#utility.yul\":20427:20448   */\n      or\n        /* \"#utility.yul\":20419:20448   */\n      swap1\n      pop\n        /* \"#utility.yul\":20159:20454   */\n      swap3\n      swap2\n      pop\n      pop\n      jump\t// out\n        /* \"#utility.yul\":20459:21854   */\n    tag_90:\n        /* \"#utility.yul\":20576:20613   */\n      tag_370\n        /* \"#utility.yul\":20609:20612   */\n      dup3\n        /* \"#utility.yul\":20576:20613   */\n      tag_145\n      jump\t// in\n    tag_370:\n        /* \"#utility.yul\":20678:20696   */\n      0xffffffffffffffff\n        /* \"#utility.yul\":20670:20676   */\n      dup2\n        /* \"#utility.yul\":20667:20697   */\n      gt\n        /* \"#utility.yul\":20664:20720   */\n      iszero\n      tag_371\n      jumpi\n        /* \"#utility.yul\":20700:20718   */\n      tag_372\n      tag_131\n      jump\t// in\n    tag_372:\n        /* \"#utility.yul\":20664:20720   */\n    tag_371:\n        /* \"#utility.yul\":20744:20782   */\n      tag_373\n        /* \"#utility.yul\":20776:20780   */\n      dup3\n        /* \"#utility.yul\":20770:20781   */\n      sload\n        /* \"#utility.yul\":20744:20782   */\n      tag_100\n      jump\t// in\n    tag_373:\n        /* \"#utility.yul\":20829:20896   */\n      tag_374\n        /* \"#utility.yul\":20889:20895   */\n      dup3\n        /* \"#utility.yul\":20881:20887   */\n      dup3\n        /* \"#utility.yul\":20875:20879   */\n      dup6\n        /* \"#utility.yul\":20829:20896   */\n      tag_180\n      jump\t// in\n    tag_374:\n        /* \"#utility.yul\":20923:20924   */\n      0x00\n        /* \"#utility.yul\":20947:20951   */\n      0x20\n        /* \"#utility.yul\":20934:20951   */\n      swap1\n      pop\n        /* \"#utility.yul\":20979:20981   */\n      0x1f\n        /* \"#utility.yul\":20971:20977   */\n      dup4\n        /* \"#utility.yul\":20968:20982   */\n      gt\n        /* \"#utility.yul\":20996:20997   */\n      0x01\n        /* \"#utility.yul\":20991:21609   */\n      dup2\n      eq\n      tag_376\n      jumpi\n        /* \"#utility.yul\":21653:21654   */\n      0x00\n        /* \"#utility.yul\":21670:21676   */\n      dup5\n        /* \"#utility.yul\":21667:21744   */\n      iszero\n      tag_377\n      jumpi\n        /* \"#utility.yul\":21719:21728   */\n      dup3\n        /* \"#utility.yul\":21714:21717   */\n      dup8\n        /* \"#utility.yul\":21710:21729   */\n      add\n        /* \"#utility.yul\":21704:21730   */\n      mload\n        /* \"#utility.yul\":21695:21730   */\n      swap1\n      pop\n        /* \"#utility.yul\":21667:21744   */\n    tag_377:\n        /* \"#utility.yul\":21770:21837   */\n      tag_378\n        /* \"#utility.yul\":21830:21836   */\n      dup6\n        /* \"#utility.yul\":21823:21828   */\n      dup3\n        /* \"#utility.yul\":21770:21837   */\n      tag_183\n      jump\t// in\n    tag_378:\n        /* \"#utility.yul\":21764:21768   */\n      dup7\n        /* \"#utility.yul\":21757:21838   */\n      sstore\n        /* \"#utility.yul\":21626:21848   */\n      pop\n        /* \"#utility.yul\":20961:21848   */\n      jump(tag_375)\n        /* \"#utility.yul\":20991:21609   */\n    tag_376:\n        /* \"#utility.yul\":21043:21047   */\n      0x1f\n        /* \"#utility.yul\":21039:21048   */\n      not\n        /* \"#utility.yul\":21031:21037   */\n      dup5\n        /* \"#utility.yul\":21027:21049   */\n      and\n        /* \"#utility.yul\":21077:21114   */\n      tag_379\n        /* \"#utility.yul\":21109:21113   */\n      dup7\n        /* \"#utility.yul\":21077:21114   */\n      tag_169\n      jump\t// in\n    tag_379:\n        /* \"#utility.yul\":21136:21137   */\n      0x00\n        /* \"#utility.yul\":21150:21358   */\n    tag_380:\n        /* \"#utility.yul\":21164:21171   */\n      dup3\n        /* \"#utility.yul\":21161:21162   */\n      dup2\n        /* \"#utility.yul\":21158:21172   */\n      lt\n        /* \"#utility.yul\":21150:21358   */\n      iszero\n      tag_382\n      jumpi\n        /* \"#utility.yul\":21243:21252   */\n      dup5\n        /* \"#utility.yul\":21238:21241   */\n      dup10\n        /* \"#utility.yul\":21234:21253   */\n      add\n        /* \"#utility.yul\":21228:21254   */\n      mload\n        /* \"#utility.yul\":21220:21226   */\n      dup3\n        /* \"#utility.yul\":21213:21255   */\n      sstore\n        /* \"#utility.yul\":21294:21295   */\n      0x01\n        /* \"#utility.yul\":21286:21292   */\n      dup3\n        /* \"#utility.yul\":21282:21296   */\n      add\n        /* \"#utility.yul\":21272:21296   */\n      swap2\n      pop\n        /* \"#utility.yul\":21341:21343   */\n      0x20\n        /* \"#utility.yul\":21330:21339   */\n      dup6\n        /* \"#utility.yul\":21326:21344   */\n      add\n        /* \"#utility.yul\":21313:21344   */\n      swap5\n      pop\n        /* \"#utility.yul\":21187:21191   */\n      0x20\n        /* \"#utility.yul\":21184:21185   */\n      dup2\n        /* \"#utility.yul\":21180:21192   */\n      add\n        /* \"#utility.yul\":21175:21192   */\n      swap1\n      pop\n        /* \"#utility.yul\":21150:21358   */\n      jump(tag_380)\n    tag_382:\n        /* \"#utility.yul\":21386:21392   */\n      dup7\n        /* \"#utility.yul\":21377:21384   */\n      dup4\n        /* \"#utility.yul\":21374:21393   */\n      lt\n        /* \"#utility.yul\":21371:21550   */\n      iszero\n      tag_383\n      jumpi\n        /* \"#utility.yul\":21444:21453   */\n      dup5\n        /* \"#utility.yul\":21439:21442   */\n      dup10\n        /* \"#utility.yul\":21435:21454   */\n      add\n        /* \"#utility.yul\":21429:21455   */\n      mload\n        /* \"#utility.yul\":21487:21535   */\n      tag_384\n        /* \"#utility.yul\":21529:21533   */\n      0x1f\n        /* \"#utility.yul\":21521:21527   */\n      dup10\n        /* \"#utility.yul\":21517:21534   */\n      and\n        /* \"#utility.yul\":21506:21515   */\n      dup3\n        /* \"#utility.yul\":21487:21535   */\n      tag_182\n      jump\t// in\n    tag_384:\n        /* \"#utility.yul\":21479:21485   */\n      dup4\n        /* \"#utility.yul\":21472:21536   */\n      sstore\n        /* \"#utility.yul\":21394:21550   */\n      pop\n        /* \"#utility.yul\":21371:21550   */\n    tag_383:\n        /* \"#utility.yul\":21596:21597   */\n      0x01\n        /* \"#utility.yul\":21592:21593   */\n      0x02\n        /* \"#utility.yul\":21584:21590   */\n      dup9\n        /* \"#utility.yul\":21580:21594   */\n      mul\n        /* \"#utility.yul\":21576:21598   */\n      add\n        /* \"#utility.yul\":21570:21574   */\n      dup9\n        /* \"#utility.yul\":21563:21599   */\n      sstore\n        /* \"#utility.yul\":20998:21609   */\n      pop\n      pop\n      pop\n        /* \"#utility.yul\":20961:21848   */\n    tag_375:\n      pop\n        /* \"#utility.yul\":20551:21854   */\n      pop\n      pop\n      pop\n        /* \"#utility.yul\":20459:21854   */\n      pop\n      pop\n      jump\t// out\n\n    auxdata: 0xa2646970667358221220166ecd7e4be21cb2c3373b6dce92414432e2743187c9ec31ed31a82f5160ebcb64736f6c634300080f0033\n}\n",
				"bytecode": {
					"linkReferences": {},
					"object": "608060405260008060006101000a81548160ff02191690831515021790555060008060016101000a81548160ff0219169083151502179055503480156200004557600080fd5b5060405162001d1638038062001d1683398181016040528101906200006b919062000268565b33600360000160006101000a81548173ffffffffffffffffffffffffffffffffffffffff021916908373ffffffffffffffffffffffffffffffffffffffff1602179055508060036002019081620000c3919062000504565b5050620005eb565b6000604051905090565b600080fd5b600080fd5b600080fd5b600080fd5b6000601f19601f8301169050919050565b7f4e487b7100000000000000000000000000000000000000000000000000000000600052604160045260246000fd5b6200013482620000e9565b810181811067ffffffffffffffff82111715620001565762000155620000fa565b5b80604052505050565b60006200016b620000cb565b905062000179828262000129565b919050565b600067ffffffffffffffff8211156200019c576200019b620000fa565b5b620001a782620000e9565b9050602081019050919050565b60005b83811015620001d4578082015181840152602081019050620001b7565b83811115620001e4576000848401525b50505050565b600062000201620001fb846200017e565b6200015f565b90508281526020810184848401111562000220576200021f620000e4565b5b6200022d848285620001b4565b509392505050565b600082601f8301126200024d576200024c620000df565b5b81516200025f848260208601620001ea565b91505092915050565b600060208284031215620002815762000280620000d5565b5b600082015167ffffffffffffffff811115620002a257620002a1620000da565b5b620002b08482850162000235565b91505092915050565b600081519050919050565b7f4e487b7100000000000000000000000000000000000000000000000000000000600052602260045260246000fd5b600060028204905060018216806200030c57607f821691505b602082108103620003225762000321620002c4565b5b50919050565b60008190508160005260206000209050919050565b60006020601f8301049050919050565b600082821b905092915050565b6000600883026200038c7fffffffffffffffffffffffffffffffffffffffffffffffffffffffffffffffff826200034d565b6200039886836200034d565b95508019841693508086168417925050509392505050565b6000819050919050565b6000819050919050565b6000620003e5620003df620003d984620003b0565b620003ba565b620003b0565b9050919050565b6000819050919050565b6200040183620003c4565b620004196200041082620003ec565b8484546200035a565b825550505050565b600090565b6200043062000421565b6200043d818484620003f6565b505050565b5b8181101562000465576200045960008262000426565b60018101905062000443565b5050565b601f821115620004b4576200047e8162000328565b62000489846200033d565b8101602085101562000499578190505b620004b1620004a8856200033d565b83018262000442565b50505b505050565b600082821c905092915050565b6000620004d960001984600802620004b9565b1980831691505092915050565b6000620004f48383620004c6565b9150826002028217905092915050565b6200050f82620002b9565b67ffffffffffffffff8111156200052b576200052a620000fa565b5b620005378254620002f3565b6200054482828562000469565b600060209050601f8311600181146200057c576000841562000567578287015190505b620005738582620004e6565b865550620005e3565b601f1984166200058c8662000328565b60005b82811015620005b6578489015182556001820191506020850194506020810190506200058f565b86831015620005d65784890151620005d2601f891682620004c6565b8355505b6001600288020188555050505b505050505050565b61171b80620005fb6000396000f3fe6080604052600436106100955760003560e01c80639fcb8099116100595780639fcb809914610141578063ad6069e014610158578063c093334014610183578063cf804c84146101ae578063efe270ba146101d95761009c565b80633ea8a717146100a157806370a57fd3146100cc57806372f924ae146100d657806376cdb03b146100ed5780639c115f65146101185761009c565b3661009c57005b600080fd5b3480156100ad57600080fd5b506100b66101f0565b6040516100c39190610bd6565b60405180910390f35b6100d46101f6565b005b3480156100e257600080fd5b506100eb6103c7565b005b3480156100f957600080fd5b50610102610531565b60405161010f9190610bd6565b60405180910390f35b34801561012457600080fd5b5061013f600480360381019061013a9190610dd5565b610537565b005b34801561014d57600080fd5b50610156610645565b005b34801561016457600080fd5b5061016d610718565b60405161017a9190610e87565b60405180910390f35b34801561018f57600080fd5b5061019861072b565b6040516101a59190610e87565b60405180910390f35b3480156101ba57600080fd5b506101c361073c565b6040516101d0919061106e565b60405180910390f35b3480156101e557600080fd5b506101ee61098f565b005b60015481565b600360010160009054906101000a900473ffffffffffffffffffffffffffffffffffffffff1673ffffffffffffffffffffffffffffffffffffffff163373ffffffffffffffffffffffffffffffffffffffff1614610289576040517f08c379a0000000000000000000000000000000000000000000000000000000008152600401610280906110ed565b60405180910390fd5b60011515600360090160019054906101000a900460ff1615151480156102c5575060011515600360090160009054906101000a900460ff161515145b610304576040517f08c379a00000000000000000000000000000000000000000000000000000000081526004016102fb9061117f565b60405180910390fd5b6000600360010160009054906101000a900473ffffffffffffffffffffffffffffffffffffffff16905060008173ffffffffffffffffffffffffffffffffffffffff16600360040154604051610359906111d0565b60006040518083038185875af1925050503d8060008114610396576040519150601f19603f3d011682016040523d82523d6000602084013e61039b565b606091505b50509050806103a957600080fd5b60016000806101000a81548160ff0219169083151502179055505050565b600360000160009054906101000a900473ffffffffffffffffffffffffffffffffffffffff1673ffffffffffffffffffffffffffffffffffffffff163373ffffffffffffffffffffffffffffffffffffffff161461045a576040517f08c379a000000000000000000000000000000000000000000000000000000000815260040161045190611231565b60405180910390fd5b6001151560008054906101000a900460ff161515146104ae576040517f08c379a00000000000000000000000000000000000000000000000000000000081526004016104a5906112c3565b60405180910390fd5b6001151560008054906101000a900460ff16151514610502576040517f08c379a00000000000000000000000000000000000000000000000000000000081526004016104f990611355565b60405180910390fd5b6001600060016101000a81548160ff0219169083151502179055504260036006018190555061052f610a62565b565b60025481565b600360000160009054906101000a900473ffffffffffffffffffffffffffffffffffffffff1673ffffffffffffffffffffffffffffffffffffffff168573ffffffffffffffffffffffffffffffffffffffff16036105ca576040517f08c379a00000000000000000000000000000000000000000000000000000000081526004016105c1906113e7565b60405180910390fd5b84600360010160006101000a81548173ffffffffffffffffffffffffffffffffffffffff021916908373ffffffffffffffffffffffffffffffffffffffff1602179055508360038001908161061f9190611613565b508260036004018190555081600360050181905550806003600601819055505050505050565b600360000160009054906101000a900473ffffffffffffffffffffffffffffffffffffffff1673ffffffffffffffffffffffffffffffffffffffff163373ffffffffffffffffffffffffffffffffffffffff16146106d8576040517f08c379a00000000000000000000000000000000000000000000000000000000081526004016106cf90611231565b60405180910390fd5b6001600360090160006101000a81548160ff0219169083151502179055504260036007018190555060011515600360090160019054906101000a90505050565b600060019054906101000a900460ff1681565b60008054906101000a900460ff1681565b610744610b33565b6003604051806101600160405290816000820160009054906101000a900473ffffffffffffffffffffffffffffffffffffffff1673ffffffffffffffffffffffffffffffffffffffff1673ffffffffffffffffffffffffffffffffffffffff1681526020016001820160009054906101000a900473ffffffffffffffffffffffffffffffffffffffff1673ffffffffffffffffffffffffffffffffffffffff1673ffffffffffffffffffffffffffffffffffffffff16815260200160028201805461080e90611436565b80601f016020809104026020016040519081016040528092919081815260200182805461083a90611436565b80156108875780601f1061085c57610100808354040283529160200191610887565b820191906000526020600020905b81548152906001019060200180831161086a57829003601f168201915b505050505081526020016003820180546108a090611436565b80601f01602080910402602001604051908101604052809291908181526020018280546108cc90611436565b80156109195780601f106108ee57610100808354040283529160200191610919565b820191906000526020600020905b8154815290600101906020018083116108fc57829003601f168201915b5050505050815260200160048201548152602001600582015481526020016006820154815260200160078201548152602001600882015481526020016009820160009054906101000a900460ff161515151581526020016009820160019054906101000a900460ff161515151581525050905090565b600360010160009054906101000a900473ffffffffffffffffffffffffffffffffffffffff1673ffffffffffffffffffffffffffffffffffffffff163373ffffffffffffffffffffffffffffffffffffffff1614610a22576040517f08c379a0000000000000000000000000000000000000000000000000000000008152600401610a19906110ed565b60405180910390fd5b6001600360090160016101000a81548160ff0219169083151502179055504260036008018190555060011515600360090160009054906101000a90505050565b600360000160009054906101000a900473ffffffffffffffffffffffffffffffffffffffff1673ffffffffffffffffffffffffffffffffffffffff163373ffffffffffffffffffffffffffffffffffffffff1614610af5576040517f08c379a0000000000000000000000000000000000000000000000000000000008152600401610aec90611231565b60405180910390fd5b600360000160009054906101000a900473ffffffffffffffffffffffffffffffffffffffff1673ffffffffffffffffffffffffffffffffffffffff16ff5b604051806101600160405280600073ffffffffffffffffffffffffffffffffffffffff168152602001600073ffffffffffffffffffffffffffffffffffffffff168152602001606081526020016060815260200160008152602001600081526020016000815260200160008152602001600081526020016000151581526020016000151581525090565b6000819050919050565b610bd081610bbd565b82525050565b6000602082019050610beb6000830184610bc7565b92915050565b6000604051905090565b600080fd5b600080fd5b600073ffffffffffffffffffffffffffffffffffffffff82169050919050565b6000610c3082610c05565b9050919050565b610c4081610c25565b8114610c4b57600080fd5b50565b600081359050610c5d81610c37565b92915050565b600080fd5b600080fd5b6000601f19601f8301169050919050565b7f4e487b7100000000000000000000000000000000000000000000000000000000600052604160045260246000fd5b610cb682610c6d565b810181811067ffffffffffffffff82111715610cd557610cd4610c7e565b5b80604052505050565b6000610ce8610bf1565b9050610cf48282610cad565b919050565b600067ffffffffffffffff821115610d1457610d13610c7e565b5b610d1d82610c6d565b9050602081019050919050565b82818337600083830152505050565b6000610d4c610d4784610cf9565b610cde565b905082815260208101848484011115610d6857610d67610c68565b5b610d73848285610d2a565b509392505050565b600082601f830112610d9057610d8f610c63565b5b8135610da0848260208601610d39565b91505092915050565b610db281610bbd565b8114610dbd57600080fd5b50565b600081359050610dcf81610da9565b92915050565b600080600080600060a08688031215610df157610df0610bfb565b5b6000610dff88828901610c4e565b955050602086013567ffffffffffffffff811115610e2057610e1f610c00565b5b610e2c88828901610d7b565b9450506040610e3d88828901610dc0565b9350506060610e4e88828901610dc0565b9250506080610e5f88828901610dc0565b9150509295509295909350565b60008115159050919050565b610e8181610e6c565b82525050565b6000602082019050610e9c6000830184610e78565b92915050565b610eab81610c25565b82525050565b6000610ebc82610c05565b9050919050565b610ecc81610eb1565b82525050565b600081519050919050565b600082825260208201905092915050565b60005b83811015610f0c578082015181840152602081019050610ef1565b83811115610f1b576000848401525b50505050565b6000610f2c82610ed2565b610f368185610edd565b9350610f46818560208601610eee565b610f4f81610c6d565b840191505092915050565b610f6381610bbd565b82525050565b610f7281610e6c565b82525050565b600061016083016000830151610f916000860182610ea2565b506020830151610fa46020860182610ec3565b5060408301518482036040860152610fbc8282610f21565b91505060608301518482036060860152610fd68282610f21565b9150506080830151610feb6080860182610f5a565b5060a0830151610ffe60a0860182610f5a565b5060c083015161101160c0860182610f5a565b5060e083015161102460e0860182610f5a565b50610100830151611039610100860182610f5a565b5061012083015161104e610120860182610f69565b50610140830151611063610140860182610f69565b508091505092915050565b600060208201905081810360008301526110888184610f78565b905092915050565b600082825260208201905092915050565b7f4f6e6c792074686520446562746f722063616e20746869732100000000000000600082015250565b60006110d7601983611090565b91506110e2826110a1565b602082019050919050565b60006020820190508181036000830152611106816110ca565b9050919050565b7f4e65656420636f6e73657420666f7220486f6c64657220616e6420446562746f60008201527f7200000000000000000000000000000000000000000000000000000000000000602082015250565b6000611169602183611090565b91506111748261110d565b604082019050919050565b600060208201905081810360008301526111988161115c565b9050919050565b600081905092915050565b50565b60006111ba60008361119f565b91506111c5826111aa565b600082019050919050565b60006111db826111ad565b9150819050919050565b7f4f6e6c792074686520486f6c6465722063616e20746869732100000000000000600082015250565b600061121b601983611090565b9150611226826111e5565b602082019050919050565b6000602082019050818103600083015261124a8161120e565b9050919050565b7f5061796d656e74206d757374206265206d616465206265666f7265207769746860008201527f64726177696e672066756e647321000000000000000000000000000000000000602082015250565b60006112ad602e83611090565b91506112b882611251565b604082019050919050565b600060208201905081810360008301526112dc816112a0565b9050919050565b7f596f75206d757374207061792074686520616d6f756e742070726f6d6973736f60008201527f7279000000000000000000000000000000000000000000000000000000000000602082015250565b600061133f602283611090565b915061134a826112e3565b604082019050919050565b6000602082019050818103600083015261136e81611332565b9050919050565b7f446562746f7220616e6420486f6c646572206d7573742062652064696666657260008201527f656e742070656f706c6573000000000000000000000000000000000000000000602082015250565b60006113d1602b83611090565b91506113dc82611375565b604082019050919050565b60006020820190508181036000830152611400816113c4565b9050919050565b7f4e487b7100000000000000000000000000000000000000000000000000000000600052602260045260246000fd5b6000600282049050600182168061144e57607f821691505b60208210810361146157611460611407565b5b50919050565b60008190508160005260206000209050919050565b60006020601f8301049050919050565b600082821b905092915050565b6000600883026114c97fffffffffffffffffffffffffffffffffffffffffffffffffffffffffffffffff8261148c565b6114d3868361148c565b95508019841693508086168417925050509392505050565b6000819050919050565b600061151061150b61150684610bbd565b6114eb565b610bbd565b9050919050565b6000819050919050565b61152a836114f5565b61153e61153682611517565b848454611499565b825550505050565b600090565b611553611546565b61155e818484611521565b505050565b5b818110156115825761157760008261154b565b600181019050611564565b5050565b601f8211156115c75761159881611467565b6115a18461147c565b810160208510156115b0578190505b6115c46115bc8561147c565b830182611563565b50505b505050565b600082821c905092915050565b60006115ea600019846008026115cc565b1980831691505092915050565b600061160383836115d9565b9150826002028217905092915050565b61161c82610ed2565b67ffffffffffffffff81111561163557611634610c7e565b5b61163f8254611436565b61164a828285611586565b600060209050601f83116001811461167d576000841561166b578287015190505b61167585826115f7565b8655506116dd565b601f19841661168b86611467565b60005b828110156116b35784890151825560018201915060208501945060208101905061168e565b868310156116d057848901516116cc601f8916826115d9565b8355505b6001600288020188555050505b50505050505056fea2646970667358221220166ecd7e4be21cb2c3373b6dce92414432e2743187c9ec31ed31a82f5160ebcb64736f6c634300080f0033",
					"opcodes": "PUSH1 0x80 PUSH1 0x40 MSTORE PUSH1 0x0 DUP1 PUSH1 0x0 PUSH2 0x100 EXP DUP2 SLOAD DUP2 PUSH1 0xFF MUL NOT AND SWAP1 DUP4 ISZERO ISZERO MUL OR SWAP1 SSTORE POP PUSH1 0x0 DUP1 PUSH1 0x1 PUSH2 0x100 EXP DUP2 SLOAD DUP2 PUSH1 0xFF MUL NOT AND SWAP1 DUP4 ISZERO ISZERO MUL OR SWAP1 SSTORE POP CALLVALUE DUP1 ISZERO PUSH3 0x45 JUMPI PUSH1 0x0 DUP1 REVERT JUMPDEST POP PUSH1 0x40 MLOAD PUSH3 0x1D16 CODESIZE SUB DUP1 PUSH3 0x1D16 DUP4 CODECOPY DUP2 DUP2 ADD PUSH1 0x40 MSTORE DUP2 ADD SWAP1 PUSH3 0x6B SWAP2 SWAP1 PUSH3 0x268 JUMP JUMPDEST CALLER PUSH1 0x3 PUSH1 0x0 ADD PUSH1 0x0 PUSH2 0x100 EXP DUP2 SLOAD DUP2 PUSH20 0xFFFFFFFFFFFFFFFFFFFFFFFFFFFFFFFFFFFFFFFF MUL NOT AND SWAP1 DUP4 PUSH20 0xFFFFFFFFFFFFFFFFFFFFFFFFFFFFFFFFFFFFFFFF AND MUL OR SWAP1 SSTORE POP DUP1 PUSH1 0x3 PUSH1 0x2 ADD SWAP1 DUP2 PUSH3 0xC3 SWAP2 SWAP1 PUSH3 0x504 JUMP JUMPDEST POP POP PUSH3 0x5EB JUMP JUMPDEST PUSH1 0x0 PUSH1 0x40 MLOAD SWAP1 POP SWAP1 JUMP JUMPDEST PUSH1 0x0 DUP1 REVERT JUMPDEST PUSH1 0x0 DUP1 REVERT JUMPDEST PUSH1 0x0 DUP1 REVERT JUMPDEST PUSH1 0x0 DUP1 REVERT JUMPDEST PUSH1 0x0 PUSH1 0x1F NOT PUSH1 0x1F DUP4 ADD AND SWAP1 POP SWAP2 SWAP1 POP JUMP JUMPDEST PUSH32 0x4E487B7100000000000000000000000000000000000000000000000000000000 PUSH1 0x0 MSTORE PUSH1 0x41 PUSH1 0x4 MSTORE PUSH1 0x24 PUSH1 0x0 REVERT JUMPDEST PUSH3 0x134 DUP3 PUSH3 0xE9 JUMP JUMPDEST DUP2 ADD DUP2 DUP2 LT PUSH8 0xFFFFFFFFFFFFFFFF DUP3 GT OR ISZERO PUSH3 0x156 JUMPI PUSH3 0x155 PUSH3 0xFA JUMP JUMPDEST JUMPDEST DUP1 PUSH1 0x40 MSTORE POP POP POP JUMP JUMPDEST PUSH1 0x0 PUSH3 0x16B PUSH3 0xCB JUMP JUMPDEST SWAP1 POP PUSH3 0x179 DUP3 DUP3 PUSH3 0x129 JUMP JUMPDEST SWAP2 SWAP1 POP JUMP JUMPDEST PUSH1 0x0 PUSH8 0xFFFFFFFFFFFFFFFF DUP3 GT ISZERO PUSH3 0x19C JUMPI PUSH3 0x19B PUSH3 0xFA JUMP JUMPDEST JUMPDEST PUSH3 0x1A7 DUP3 PUSH3 0xE9 JUMP JUMPDEST SWAP1 POP PUSH1 0x20 DUP2 ADD SWAP1 POP SWAP2 SWAP1 POP JUMP JUMPDEST PUSH1 0x0 JUMPDEST DUP4 DUP2 LT ISZERO PUSH3 0x1D4 JUMPI DUP1 DUP3 ADD MLOAD DUP2 DUP5 ADD MSTORE PUSH1 0x20 DUP2 ADD SWAP1 POP PUSH3 0x1B7 JUMP JUMPDEST DUP4 DUP2 GT ISZERO PUSH3 0x1E4 JUMPI PUSH1 0x0 DUP5 DUP5 ADD MSTORE JUMPDEST POP POP POP POP JUMP JUMPDEST PUSH1 0x0 PUSH3 0x201 PUSH3 0x1FB DUP5 PUSH3 0x17E JUMP JUMPDEST PUSH3 0x15F JUMP JUMPDEST SWAP1 POP DUP3 DUP2 MSTORE PUSH1 0x20 DUP2 ADD DUP5 DUP5 DUP5 ADD GT ISZERO PUSH3 0x220 JUMPI PUSH3 0x21F PUSH3 0xE4 JUMP JUMPDEST JUMPDEST PUSH3 0x22D DUP5 DUP3 DUP6 PUSH3 0x1B4 JUMP JUMPDEST POP SWAP4 SWAP3 POP POP POP JUMP JUMPDEST PUSH1 0x0 DUP3 PUSH1 0x1F DUP4 ADD SLT PUSH3 0x24D JUMPI PUSH3 0x24C PUSH3 0xDF JUMP JUMPDEST JUMPDEST DUP2 MLOAD PUSH3 0x25F DUP5 DUP3 PUSH1 0x20 DUP7 ADD PUSH3 0x1EA JUMP JUMPDEST SWAP2 POP POP SWAP3 SWAP2 POP POP JUMP JUMPDEST PUSH1 0x0 PUSH1 0x20 DUP3 DUP5 SUB SLT ISZERO PUSH3 0x281 JUMPI PUSH3 0x280 PUSH3 0xD5 JUMP JUMPDEST JUMPDEST PUSH1 0x0 DUP3 ADD MLOAD PUSH8 0xFFFFFFFFFFFFFFFF DUP2 GT ISZERO PUSH3 0x2A2 JUMPI PUSH3 0x2A1 PUSH3 0xDA JUMP JUMPDEST JUMPDEST PUSH3 0x2B0 DUP5 DUP3 DUP6 ADD PUSH3 0x235 JUMP JUMPDEST SWAP2 POP POP SWAP3 SWAP2 POP POP JUMP JUMPDEST PUSH1 0x0 DUP2 MLOAD SWAP1 POP SWAP2 SWAP1 POP JUMP JUMPDEST PUSH32 0x4E487B7100000000000000000000000000000000000000000000000000000000 PUSH1 0x0 MSTORE PUSH1 0x22 PUSH1 0x4 MSTORE PUSH1 0x24 PUSH1 0x0 REVERT JUMPDEST PUSH1 0x0 PUSH1 0x2 DUP3 DIV SWAP1 POP PUSH1 0x1 DUP3 AND DUP1 PUSH3 0x30C JUMPI PUSH1 0x7F DUP3 AND SWAP2 POP JUMPDEST PUSH1 0x20 DUP3 LT DUP2 SUB PUSH3 0x322 JUMPI PUSH3 0x321 PUSH3 0x2C4 JUMP JUMPDEST JUMPDEST POP SWAP2 SWAP1 POP JUMP JUMPDEST PUSH1 0x0 DUP2 SWAP1 POP DUP2 PUSH1 0x0 MSTORE PUSH1 0x20 PUSH1 0x0 KECCAK256 SWAP1 POP SWAP2 SWAP1 POP JUMP JUMPDEST PUSH1 0x0 PUSH1 0x20 PUSH1 0x1F DUP4 ADD DIV SWAP1 POP SWAP2 SWAP1 POP JUMP JUMPDEST PUSH1 0x0 DUP3 DUP3 SHL SWAP1 POP SWAP3 SWAP2 POP POP JUMP JUMPDEST PUSH1 0x0 PUSH1 0x8 DUP4 MUL PUSH3 0x38C PUSH32 0xFFFFFFFFFFFFFFFFFFFFFFFFFFFFFFFFFFFFFFFFFFFFFFFFFFFFFFFFFFFFFFFF DUP3 PUSH3 0x34D JUMP JUMPDEST PUSH3 0x398 DUP7 DUP4 PUSH3 0x34D JUMP JUMPDEST SWAP6 POP DUP1 NOT DUP5 AND SWAP4 POP DUP1 DUP7 AND DUP5 OR SWAP3 POP POP POP SWAP4 SWAP3 POP POP POP JUMP JUMPDEST PUSH1 0x0 DUP2 SWAP1 POP SWAP2 SWAP1 POP JUMP JUMPDEST PUSH1 0x0 DUP2 SWAP1 POP SWAP2 SWAP1 POP JUMP JUMPDEST PUSH1 0x0 PUSH3 0x3E5 PUSH3 0x3DF PUSH3 0x3D9 DUP5 PUSH3 0x3B0 JUMP JUMPDEST PUSH3 0x3BA JUMP JUMPDEST PUSH3 0x3B0 JUMP JUMPDEST SWAP1 POP SWAP2 SWAP1 POP JUMP JUMPDEST PUSH1 0x0 DUP2 SWAP1 POP SWAP2 SWAP1 POP JUMP JUMPDEST PUSH3 0x401 DUP4 PUSH3 0x3C4 JUMP JUMPDEST PUSH3 0x419 PUSH3 0x410 DUP3 PUSH3 0x3EC JUMP JUMPDEST DUP5 DUP5 SLOAD PUSH3 0x35A JUMP JUMPDEST DUP3 SSTORE POP POP POP POP JUMP JUMPDEST PUSH1 0x0 SWAP1 JUMP JUMPDEST PUSH3 0x430 PUSH3 0x421 JUMP JUMPDEST PUSH3 0x43D DUP2 DUP5 DUP5 PUSH3 0x3F6 JUMP JUMPDEST POP POP POP JUMP JUMPDEST JUMPDEST DUP2 DUP2 LT ISZERO PUSH3 0x465 JUMPI PUSH3 0x459 PUSH1 0x0 DUP3 PUSH3 0x426 JUMP JUMPDEST PUSH1 0x1 DUP2 ADD SWAP1 POP PUSH3 0x443 JUMP JUMPDEST POP POP JUMP JUMPDEST PUSH1 0x1F DUP3 GT ISZERO PUSH3 0x4B4 JUMPI PUSH3 0x47E DUP2 PUSH3 0x328 JUMP JUMPDEST PUSH3 0x489 DUP5 PUSH3 0x33D JUMP JUMPDEST DUP2 ADD PUSH1 0x20 DUP6 LT ISZERO PUSH3 0x499 JUMPI DUP2 SWAP1 POP JUMPDEST PUSH3 0x4B1 PUSH3 0x4A8 DUP6 PUSH3 0x33D JUMP JUMPDEST DUP4 ADD DUP3 PUSH3 0x442 JUMP JUMPDEST POP POP JUMPDEST POP POP POP JUMP JUMPDEST PUSH1 0x0 DUP3 DUP3 SHR SWAP1 POP SWAP3 SWAP2 POP POP JUMP JUMPDEST PUSH1 0x0 PUSH3 0x4D9 PUSH1 0x0 NOT DUP5 PUSH1 0x8 MUL PUSH3 0x4B9 JUMP JUMPDEST NOT DUP1 DUP4 AND SWAP2 POP POP SWAP3 SWAP2 POP POP JUMP JUMPDEST PUSH1 0x0 PUSH3 0x4F4 DUP4 DUP4 PUSH3 0x4C6 JUMP JUMPDEST SWAP2 POP DUP3 PUSH1 0x2 MUL DUP3 OR SWAP1 POP SWAP3 SWAP2 POP POP JUMP JUMPDEST PUSH3 0x50F DUP3 PUSH3 0x2B9 JUMP JUMPDEST PUSH8 0xFFFFFFFFFFFFFFFF DUP2 GT ISZERO PUSH3 0x52B JUMPI PUSH3 0x52A PUSH3 0xFA JUMP JUMPDEST JUMPDEST PUSH3 0x537 DUP3 SLOAD PUSH3 0x2F3 JUMP JUMPDEST PUSH3 0x544 DUP3 DUP3 DUP6 PUSH3 0x469 JUMP JUMPDEST PUSH1 0x0 PUSH1 0x20 SWAP1 POP PUSH1 0x1F DUP4 GT PUSH1 0x1 DUP2 EQ PUSH3 0x57C JUMPI PUSH1 0x0 DUP5 ISZERO PUSH3 0x567 JUMPI DUP3 DUP8 ADD MLOAD SWAP1 POP JUMPDEST PUSH3 0x573 DUP6 DUP3 PUSH3 0x4E6 JUMP JUMPDEST DUP7 SSTORE POP PUSH3 0x5E3 JUMP JUMPDEST PUSH1 0x1F NOT DUP5 AND PUSH3 0x58C DUP7 PUSH3 0x328 JUMP JUMPDEST PUSH1 0x0 JUMPDEST DUP3 DUP2 LT ISZERO PUSH3 0x5B6 JUMPI DUP5 DUP10 ADD MLOAD DUP3 SSTORE PUSH1 0x1 DUP3 ADD SWAP2 POP PUSH1 0x20 DUP6 ADD SWAP5 POP PUSH1 0x20 DUP2 ADD SWAP1 POP PUSH3 0x58F JUMP JUMPDEST DUP7 DUP4 LT ISZERO PUSH3 0x5D6 JUMPI DUP5 DUP10 ADD MLOAD PUSH3 0x5D2 PUSH1 0x1F DUP10 AND DUP3 PUSH3 0x4C6 JUMP JUMPDEST DUP4 SSTORE POP JUMPDEST PUSH1 0x1 PUSH1 0x2 DUP9 MUL ADD DUP9 SSTORE POP POP POP JUMPDEST POP POP POP POP POP POP JUMP JUMPDEST PUSH2 0x171B DUP1 PUSH3 0x5FB PUSH1 0x0 CODECOPY PUSH1 0x0 RETURN INVALID PUSH1 0x80 PUSH1 0x40 MSTORE PUSH1 0x4 CALLDATASIZE LT PUSH2 0x95 JUMPI PUSH1 0x0 CALLDATALOAD PUSH1 0xE0 SHR DUP1 PUSH4 0x9FCB8099 GT PUSH2 0x59 JUMPI DUP1 PUSH4 0x9FCB8099 EQ PUSH2 0x141 JUMPI DUP1 PUSH4 0xAD6069E0 EQ PUSH2 0x158 JUMPI DUP1 PUSH4 0xC0933340 EQ PUSH2 0x183 JUMPI DUP1 PUSH4 0xCF804C84 EQ PUSH2 0x1AE JUMPI DUP1 PUSH4 0xEFE270BA EQ PUSH2 0x1D9 JUMPI PUSH2 0x9C JUMP JUMPDEST DUP1 PUSH4 0x3EA8A717 EQ PUSH2 0xA1 JUMPI DUP1 PUSH4 0x70A57FD3 EQ PUSH2 0xCC JUMPI DUP1 PUSH4 0x72F924AE EQ PUSH2 0xD6 JUMPI DUP1 PUSH4 0x76CDB03B EQ PUSH2 0xED JUMPI DUP1 PUSH4 0x9C115F65 EQ PUSH2 0x118 JUMPI PUSH2 0x9C JUMP JUMPDEST CALLDATASIZE PUSH2 0x9C JUMPI STOP JUMPDEST PUSH1 0x0 DUP1 REVERT JUMPDEST CALLVALUE DUP1 ISZERO PUSH2 0xAD JUMPI PUSH1 0x0 DUP1 REVERT JUMPDEST POP PUSH2 0xB6 PUSH2 0x1F0 JUMP JUMPDEST PUSH1 0x40 MLOAD PUSH2 0xC3 SWAP2 SWAP1 PUSH2 0xBD6 JUMP JUMPDEST PUSH1 0x40 MLOAD DUP1 SWAP2 SUB SWAP1 RETURN JUMPDEST PUSH2 0xD4 PUSH2 0x1F6 JUMP JUMPDEST STOP JUMPDEST CALLVALUE DUP1 ISZERO PUSH2 0xE2 JUMPI PUSH1 0x0 DUP1 REVERT JUMPDEST POP PUSH2 0xEB PUSH2 0x3C7 JUMP JUMPDEST STOP JUMPDEST CALLVALUE DUP1 ISZERO PUSH2 0xF9 JUMPI PUSH1 0x0 DUP1 REVERT JUMPDEST POP PUSH2 0x102 PUSH2 0x531 JUMP JUMPDEST PUSH1 0x40 MLOAD PUSH2 0x10F SWAP2 SWAP1 PUSH2 0xBD6 JUMP JUMPDEST PUSH1 0x40 MLOAD DUP1 SWAP2 SUB SWAP1 RETURN JUMPDEST CALLVALUE DUP1 ISZERO PUSH2 0x124 JUMPI PUSH1 0x0 DUP1 REVERT JUMPDEST POP PUSH2 0x13F PUSH1 0x4 DUP1 CALLDATASIZE SUB DUP2 ADD SWAP1 PUSH2 0x13A SWAP2 SWAP1 PUSH2 0xDD5 JUMP JUMPDEST PUSH2 0x537 JUMP JUMPDEST STOP JUMPDEST CALLVALUE DUP1 ISZERO PUSH2 0x14D JUMPI PUSH1 0x0 DUP1 REVERT JUMPDEST POP PUSH2 0x156 PUSH2 0x645 JUMP JUMPDEST STOP JUMPDEST CALLVALUE DUP1 ISZERO PUSH2 0x164 JUMPI PUSH1 0x0 DUP1 REVERT JUMPDEST POP PUSH2 0x16D PUSH2 0x718 JUMP JUMPDEST PUSH1 0x40 MLOAD PUSH2 0x17A SWAP2 SWAP1 PUSH2 0xE87 JUMP JUMPDEST PUSH1 0x40 MLOAD DUP1 SWAP2 SUB SWAP1 RETURN JUMPDEST CALLVALUE DUP1 ISZERO PUSH2 0x18F JUMPI PUSH1 0x0 DUP1 REVERT JUMPDEST POP PUSH2 0x198 PUSH2 0x72B JUMP JUMPDEST PUSH1 0x40 MLOAD PUSH2 0x1A5 SWAP2 SWAP1 PUSH2 0xE87 JUMP JUMPDEST PUSH1 0x40 MLOAD DUP1 SWAP2 SUB SWAP1 RETURN JUMPDEST CALLVALUE DUP1 ISZERO PUSH2 0x1BA JUMPI PUSH1 0x0 DUP1 REVERT JUMPDEST POP PUSH2 0x1C3 PUSH2 0x73C JUMP JUMPDEST PUSH1 0x40 MLOAD PUSH2 0x1D0 SWAP2 SWAP1 PUSH2 0x106E JUMP JUMPDEST PUSH1 0x40 MLOAD DUP1 SWAP2 SUB SWAP1 RETURN JUMPDEST CALLVALUE DUP1 ISZERO PUSH2 0x1E5 JUMPI PUSH1 0x0 DUP1 REVERT JUMPDEST POP PUSH2 0x1EE PUSH2 0x98F JUMP JUMPDEST STOP JUMPDEST PUSH1 0x1 SLOAD DUP2 JUMP JUMPDEST PUSH1 0x3 PUSH1 0x1 ADD PUSH1 0x0 SWAP1 SLOAD SWAP1 PUSH2 0x100 EXP SWAP1 DIV PUSH20 0xFFFFFFFFFFFFFFFFFFFFFFFFFFFFFFFFFFFFFFFF AND PUSH20 0xFFFFFFFFFFFFFFFFFFFFFFFFFFFFFFFFFFFFFFFF AND CALLER PUSH20 0xFFFFFFFFFFFFFFFFFFFFFFFFFFFFFFFFFFFFFFFF AND EQ PUSH2 0x289 JUMPI PUSH1 0x40 MLOAD PUSH32 0x8C379A000000000000000000000000000000000000000000000000000000000 DUP2 MSTORE PUSH1 0x4 ADD PUSH2 0x280 SWAP1 PUSH2 0x10ED JUMP JUMPDEST PUSH1 0x40 MLOAD DUP1 SWAP2 SUB SWAP1 REVERT JUMPDEST PUSH1 0x1 ISZERO ISZERO PUSH1 0x3 PUSH1 0x9 ADD PUSH1 0x1 SWAP1 SLOAD SWAP1 PUSH2 0x100 EXP SWAP1 DIV PUSH1 0xFF AND ISZERO ISZERO EQ DUP1 ISZERO PUSH2 0x2C5 JUMPI POP PUSH1 0x1 ISZERO ISZERO PUSH1 0x3 PUSH1 0x9 ADD PUSH1 0x0 SWAP1 SLOAD SWAP1 PUSH2 0x100 EXP SWAP1 DIV PUSH1 0xFF AND ISZERO ISZERO EQ JUMPDEST PUSH2 0x304 JUMPI PUSH1 0x40 MLOAD PUSH32 0x8C379A000000000000000000000000000000000000000000000000000000000 DUP2 MSTORE PUSH1 0x4 ADD PUSH2 0x2FB SWAP1 PUSH2 0x117F JUMP JUMPDEST PUSH1 0x40 MLOAD DUP1 SWAP2 SUB SWAP1 REVERT JUMPDEST PUSH1 0x0 PUSH1 0x3 PUSH1 0x1 ADD PUSH1 0x0 SWAP1 SLOAD SWAP1 PUSH2 0x100 EXP SWAP1 DIV PUSH20 0xFFFFFFFFFFFFFFFFFFFFFFFFFFFFFFFFFFFFFFFF AND SWAP1 POP PUSH1 0x0 DUP2 PUSH20 0xFFFFFFFFFFFFFFFFFFFFFFFFFFFFFFFFFFFFFFFF AND PUSH1 0x3 PUSH1 0x4 ADD SLOAD PUSH1 0x40 MLOAD PUSH2 0x359 SWAP1 PUSH2 0x11D0 JUMP JUMPDEST PUSH1 0x0 PUSH1 0x40 MLOAD DUP1 DUP4 SUB DUP2 DUP6 DUP8 GAS CALL SWAP3 POP POP POP RETURNDATASIZE DUP1 PUSH1 0x0 DUP2 EQ PUSH2 0x396 JUMPI PUSH1 0x40 MLOAD SWAP2 POP PUSH1 0x1F NOT PUSH1 0x3F RETURNDATASIZE ADD AND DUP3 ADD PUSH1 0x40 MSTORE RETURNDATASIZE DUP3 MSTORE RETURNDATASIZE PUSH1 0x0 PUSH1 0x20 DUP5 ADD RETURNDATACOPY PUSH2 0x39B JUMP JUMPDEST PUSH1 0x60 SWAP2 POP JUMPDEST POP POP SWAP1 POP DUP1 PUSH2 0x3A9 JUMPI PUSH1 0x0 DUP1 REVERT JUMPDEST PUSH1 0x1 PUSH1 0x0 DUP1 PUSH2 0x100 EXP DUP2 SLOAD DUP2 PUSH1 0xFF MUL NOT AND SWAP1 DUP4 ISZERO ISZERO MUL OR SWAP1 SSTORE POP POP POP JUMP JUMPDEST PUSH1 0x3 PUSH1 0x0 ADD PUSH1 0x0 SWAP1 SLOAD SWAP1 PUSH2 0x100 EXP SWAP1 DIV PUSH20 0xFFFFFFFFFFFFFFFFFFFFFFFFFFFFFFFFFFFFFFFF AND PUSH20 0xFFFFFFFFFFFFFFFFFFFFFFFFFFFFFFFFFFFFFFFF AND CALLER PUSH20 0xFFFFFFFFFFFFFFFFFFFFFFFFFFFFFFFFFFFFFFFF AND EQ PUSH2 0x45A JUMPI PUSH1 0x40 MLOAD PUSH32 0x8C379A000000000000000000000000000000000000000000000000000000000 DUP2 MSTORE PUSH1 0x4 ADD PUSH2 0x451 SWAP1 PUSH2 0x1231 JUMP JUMPDEST PUSH1 0x40 MLOAD DUP1 SWAP2 SUB SWAP1 REVERT JUMPDEST PUSH1 0x1 ISZERO ISZERO PUSH1 0x0 DUP1 SLOAD SWAP1 PUSH2 0x100 EXP SWAP1 DIV PUSH1 0xFF AND ISZERO ISZERO EQ PUSH2 0x4AE JUMPI PUSH1 0x40 MLOAD PUSH32 0x8C379A000000000000000000000000000000000000000000000000000000000 DUP2 MSTORE PUSH1 0x4 ADD PUSH2 0x4A5 SWAP1 PUSH2 0x12C3 JUMP JUMPDEST PUSH1 0x40 MLOAD DUP1 SWAP2 SUB SWAP1 REVERT JUMPDEST PUSH1 0x1 ISZERO ISZERO PUSH1 0x0 DUP1 SLOAD SWAP1 PUSH2 0x100 EXP SWAP1 DIV PUSH1 0xFF AND ISZERO ISZERO EQ PUSH2 0x502 JUMPI PUSH1 0x40 MLOAD PUSH32 0x8C379A000000000000000000000000000000000000000000000000000000000 DUP2 MSTORE PUSH1 0x4 ADD PUSH2 0x4F9 SWAP1 PUSH2 0x1355 JUMP JUMPDEST PUSH1 0x40 MLOAD DUP1 SWAP2 SUB SWAP1 REVERT JUMPDEST PUSH1 0x1 PUSH1 0x0 PUSH1 0x1 PUSH2 0x100 EXP DUP2 SLOAD DUP2 PUSH1 0xFF MUL NOT AND SWAP1 DUP4 ISZERO ISZERO MUL OR SWAP1 SSTORE POP TIMESTAMP PUSH1 0x3 PUSH1 0x6 ADD DUP2 SWAP1 SSTORE POP PUSH2 0x52F PUSH2 0xA62 JUMP JUMPDEST JUMP JUMPDEST PUSH1 0x2 SLOAD DUP2 JUMP JUMPDEST PUSH1 0x3 PUSH1 0x0 ADD PUSH1 0x0 SWAP1 SLOAD SWAP1 PUSH2 0x100 EXP SWAP1 DIV PUSH20 0xFFFFFFFFFFFFFFFFFFFFFFFFFFFFFFFFFFFFFFFF AND PUSH20 0xFFFFFFFFFFFFFFFFFFFFFFFFFFFFFFFFFFFFFFFF AND DUP6 PUSH20 0xFFFFFFFFFFFFFFFFFFFFFFFFFFFFFFFFFFFFFFFF AND SUB PUSH2 0x5CA JUMPI PUSH1 0x40 MLOAD PUSH32 0x8C379A000000000000000000000000000000000000000000000000000000000 DUP2 MSTORE PUSH1 0x4 ADD PUSH2 0x5C1 SWAP1 PUSH2 0x13E7 JUMP JUMPDEST PUSH1 0x40 MLOAD DUP1 SWAP2 SUB SWAP1 REVERT JUMPDEST DUP5 PUSH1 0x3 PUSH1 0x1 ADD PUSH1 0x0 PUSH2 0x100 EXP DUP2 SLOAD DUP2 PUSH20 0xFFFFFFFFFFFFFFFFFFFFFFFFFFFFFFFFFFFFFFFF MUL NOT AND SWAP1 DUP4 PUSH20 0xFFFFFFFFFFFFFFFFFFFFFFFFFFFFFFFFFFFFFFFF AND MUL OR SWAP1 SSTORE POP DUP4 PUSH1 0x3 DUP1 ADD SWAP1 DUP2 PUSH2 0x61F SWAP2 SWAP1 PUSH2 0x1613 JUMP JUMPDEST POP DUP3 PUSH1 0x3 PUSH1 0x4 ADD DUP2 SWAP1 SSTORE POP DUP2 PUSH1 0x3 PUSH1 0x5 ADD DUP2 SWAP1 SSTORE POP DUP1 PUSH1 0x3 PUSH1 0x6 ADD DUP2 SWAP1 SSTORE POP POP POP POP POP POP JUMP JUMPDEST PUSH1 0x3 PUSH1 0x0 ADD PUSH1 0x0 SWAP1 SLOAD SWAP1 PUSH2 0x100 EXP SWAP1 DIV PUSH20 0xFFFFFFFFFFFFFFFFFFFFFFFFFFFFFFFFFFFFFFFF AND PUSH20 0xFFFFFFFFFFFFFFFFFFFFFFFFFFFFFFFFFFFFFFFF AND CALLER PUSH20 0xFFFFFFFFFFFFFFFFFFFFFFFFFFFFFFFFFFFFFFFF AND EQ PUSH2 0x6D8 JUMPI PUSH1 0x40 MLOAD PUSH32 0x8C379A000000000000000000000000000000000000000000000000000000000 DUP2 MSTORE PUSH1 0x4 ADD PUSH2 0x6CF SWAP1 PUSH2 0x1231 JUMP JUMPDEST PUSH1 0x40 MLOAD DUP1 SWAP2 SUB SWAP1 REVERT JUMPDEST PUSH1 0x1 PUSH1 0x3 PUSH1 0x9 ADD PUSH1 0x0 PUSH2 0x100 EXP DUP2 SLOAD DUP2 PUSH1 0xFF MUL NOT AND SWAP1 DUP4 ISZERO ISZERO MUL OR SWAP1 SSTORE POP TIMESTAMP PUSH1 0x3 PUSH1 0x7 ADD DUP2 SWAP1 SSTORE POP PUSH1 0x1 ISZERO ISZERO PUSH1 0x3 PUSH1 0x9 ADD PUSH1 0x1 SWAP1 SLOAD SWAP1 PUSH2 0x100 EXP SWAP1 POP POP POP JUMP JUMPDEST PUSH1 0x0 PUSH1 0x1 SWAP1 SLOAD SWAP1 PUSH2 0x100 EXP SWAP1 DIV PUSH1 0xFF AND DUP2 JUMP JUMPDEST PUSH1 0x0 DUP1 SLOAD SWAP1 PUSH2 0x100 EXP SWAP1 DIV PUSH1 0xFF AND DUP2 JUMP JUMPDEST PUSH2 0x744 PUSH2 0xB33 JUMP JUMPDEST PUSH1 0x3 PUSH1 0x40 MLOAD DUP1 PUSH2 0x160 ADD PUSH1 0x40 MSTORE SWAP1 DUP2 PUSH1 0x0 DUP3 ADD PUSH1 0x0 SWAP1 SLOAD SWAP1 PUSH2 0x100 EXP SWAP1 DIV PUSH20 0xFFFFFFFFFFFFFFFFFFFFFFFFFFFFFFFFFFFFFFFF AND PUSH20 0xFFFFFFFFFFFFFFFFFFFFFFFFFFFFFFFFFFFFFFFF AND PUSH20 0xFFFFFFFFFFFFFFFFFFFFFFFFFFFFFFFFFFFFFFFF AND DUP2 MSTORE PUSH1 0x20 ADD PUSH1 0x1 DUP3 ADD PUSH1 0x0 SWAP1 SLOAD SWAP1 PUSH2 0x100 EXP SWAP1 DIV PUSH20 0xFFFFFFFFFFFFFFFFFFFFFFFFFFFFFFFFFFFFFFFF AND PUSH20 0xFFFFFFFFFFFFFFFFFFFFFFFFFFFFFFFFFFFFFFFF AND PUSH20 0xFFFFFFFFFFFFFFFFFFFFFFFFFFFFFFFFFFFFFFFF AND DUP2 MSTORE PUSH1 0x20 ADD PUSH1 0x2 DUP3 ADD DUP1 SLOAD PUSH2 0x80E SWAP1 PUSH2 0x1436 JUMP JUMPDEST DUP1 PUSH1 0x1F ADD PUSH1 0x20 DUP1 SWAP2 DIV MUL PUSH1 0x20 ADD PUSH1 0x40 MLOAD SWAP1 DUP2 ADD PUSH1 0x40 MSTORE DUP1 SWAP3 SWAP2 SWAP1 DUP2 DUP2 MSTORE PUSH1 0x20 ADD DUP3 DUP1 SLOAD PUSH2 0x83A SWAP1 PUSH2 0x1436 JUMP JUMPDEST DUP1 ISZERO PUSH2 0x887 JUMPI DUP1 PUSH1 0x1F LT PUSH2 0x85C JUMPI PUSH2 0x100 DUP1 DUP4 SLOAD DIV MUL DUP4 MSTORE SWAP2 PUSH1 0x20 ADD SWAP2 PUSH2 0x887 JUMP JUMPDEST DUP3 ADD SWAP2 SWAP1 PUSH1 0x0 MSTORE PUSH1 0x20 PUSH1 0x0 KECCAK256 SWAP1 JUMPDEST DUP2 SLOAD DUP2 MSTORE SWAP1 PUSH1 0x1 ADD SWAP1 PUSH1 0x20 ADD DUP1 DUP4 GT PUSH2 0x86A JUMPI DUP3 SWAP1 SUB PUSH1 0x1F AND DUP3 ADD SWAP2 JUMPDEST POP POP POP POP POP DUP2 MSTORE PUSH1 0x20 ADD PUSH1 0x3 DUP3 ADD DUP1 SLOAD PUSH2 0x8A0 SWAP1 PUSH2 0x1436 JUMP JUMPDEST DUP1 PUSH1 0x1F ADD PUSH1 0x20 DUP1 SWAP2 DIV MUL PUSH1 0x20 ADD PUSH1 0x40 MLOAD SWAP1 DUP2 ADD PUSH1 0x40 MSTORE DUP1 SWAP3 SWAP2 SWAP1 DUP2 DUP2 MSTORE PUSH1 0x20 ADD DUP3 DUP1 SLOAD PUSH2 0x8CC SWAP1 PUSH2 0x1436 JUMP JUMPDEST DUP1 ISZERO PUSH2 0x919 JUMPI DUP1 PUSH1 0x1F LT PUSH2 0x8EE JUMPI PUSH2 0x100 DUP1 DUP4 SLOAD DIV MUL DUP4 MSTORE SWAP2 PUSH1 0x20 ADD SWAP2 PUSH2 0x919 JUMP JUMPDEST DUP3 ADD SWAP2 SWAP1 PUSH1 0x0 MSTORE PUSH1 0x20 PUSH1 0x0 KECCAK256 SWAP1 JUMPDEST DUP2 SLOAD DUP2 MSTORE SWAP1 PUSH1 0x1 ADD SWAP1 PUSH1 0x20 ADD DUP1 DUP4 GT PUSH2 0x8FC JUMPI DUP3 SWAP1 SUB PUSH1 0x1F AND DUP3 ADD SWAP2 JUMPDEST POP POP POP POP POP DUP2 MSTORE PUSH1 0x20 ADD PUSH1 0x4 DUP3 ADD SLOAD DUP2 MSTORE PUSH1 0x20 ADD PUSH1 0x5 DUP3 ADD SLOAD DUP2 MSTORE PUSH1 0x20 ADD PUSH1 0x6 DUP3 ADD SLOAD DUP2 MSTORE PUSH1 0x20 ADD PUSH1 0x7 DUP3 ADD SLOAD DUP2 MSTORE PUSH1 0x20 ADD PUSH1 0x8 DUP3 ADD SLOAD DUP2 MSTORE PUSH1 0x20 ADD PUSH1 0x9 DUP3 ADD PUSH1 0x0 SWAP1 SLOAD SWAP1 PUSH2 0x100 EXP SWAP1 DIV PUSH1 0xFF AND ISZERO ISZERO ISZERO ISZERO DUP2 MSTORE PUSH1 0x20 ADD PUSH1 0x9 DUP3 ADD PUSH1 0x1 SWAP1 SLOAD SWAP1 PUSH2 0x100 EXP SWAP1 DIV PUSH1 0xFF AND ISZERO ISZERO ISZERO ISZERO DUP2 MSTORE POP POP SWAP1 POP SWAP1 JUMP JUMPDEST PUSH1 0x3 PUSH1 0x1 ADD PUSH1 0x0 SWAP1 SLOAD SWAP1 PUSH2 0x100 EXP SWAP1 DIV PUSH20 0xFFFFFFFFFFFFFFFFFFFFFFFFFFFFFFFFFFFFFFFF AND PUSH20 0xFFFFFFFFFFFFFFFFFFFFFFFFFFFFFFFFFFFFFFFF AND CALLER PUSH20 0xFFFFFFFFFFFFFFFFFFFFFFFFFFFFFFFFFFFFFFFF AND EQ PUSH2 0xA22 JUMPI PUSH1 0x40 MLOAD PUSH32 0x8C379A000000000000000000000000000000000000000000000000000000000 DUP2 MSTORE PUSH1 0x4 ADD PUSH2 0xA19 SWAP1 PUSH2 0x10ED JUMP JUMPDEST PUSH1 0x40 MLOAD DUP1 SWAP2 SUB SWAP1 REVERT JUMPDEST PUSH1 0x1 PUSH1 0x3 PUSH1 0x9 ADD PUSH1 0x1 PUSH2 0x100 EXP DUP2 SLOAD DUP2 PUSH1 0xFF MUL NOT AND SWAP1 DUP4 ISZERO ISZERO MUL OR SWAP1 SSTORE POP TIMESTAMP PUSH1 0x3 PUSH1 0x8 ADD DUP2 SWAP1 SSTORE POP PUSH1 0x1 ISZERO ISZERO PUSH1 0x3 PUSH1 0x9 ADD PUSH1 0x0 SWAP1 SLOAD SWAP1 PUSH2 0x100 EXP SWAP1 POP POP POP JUMP JUMPDEST PUSH1 0x3 PUSH1 0x0 ADD PUSH1 0x0 SWAP1 SLOAD SWAP1 PUSH2 0x100 EXP SWAP1 DIV PUSH20 0xFFFFFFFFFFFFFFFFFFFFFFFFFFFFFFFFFFFFFFFF AND PUSH20 0xFFFFFFFFFFFFFFFFFFFFFFFFFFFFFFFFFFFFFFFF AND CALLER PUSH20 0xFFFFFFFFFFFFFFFFFFFFFFFFFFFFFFFFFFFFFFFF AND EQ PUSH2 0xAF5 JUMPI PUSH1 0x40 MLOAD PUSH32 0x8C379A000000000000000000000000000000000000000000000000000000000 DUP2 MSTORE PUSH1 0x4 ADD PUSH2 0xAEC SWAP1 PUSH2 0x1231 JUMP JUMPDEST PUSH1 0x40 MLOAD DUP1 SWAP2 SUB SWAP1 REVERT JUMPDEST PUSH1 0x3 PUSH1 0x0 ADD PUSH1 0x0 SWAP1 SLOAD SWAP1 PUSH2 0x100 EXP SWAP1 DIV PUSH20 0xFFFFFFFFFFFFFFFFFFFFFFFFFFFFFFFFFFFFFFFF AND PUSH20 0xFFFFFFFFFFFFFFFFFFFFFFFFFFFFFFFFFFFFFFFF AND SELFDESTRUCT JUMPDEST PUSH1 0x40 MLOAD DUP1 PUSH2 0x160 ADD PUSH1 0x40 MSTORE DUP1 PUSH1 0x0 PUSH20 0xFFFFFFFFFFFFFFFFFFFFFFFFFFFFFFFFFFFFFFFF AND DUP2 MSTORE PUSH1 0x20 ADD PUSH1 0x0 PUSH20 0xFFFFFFFFFFFFFFFFFFFFFFFFFFFFFFFFFFFFFFFF AND DUP2 MSTORE PUSH1 0x20 ADD PUSH1 0x60 DUP2 MSTORE PUSH1 0x20 ADD PUSH1 0x60 DUP2 MSTORE PUSH1 0x20 ADD PUSH1 0x0 DUP2 MSTORE PUSH1 0x20 ADD PUSH1 0x0 DUP2 MSTORE PUSH1 0x20 ADD PUSH1 0x0 DUP2 MSTORE PUSH1 0x20 ADD PUSH1 0x0 DUP2 MSTORE PUSH1 0x20 ADD PUSH1 0x0 DUP2 MSTORE PUSH1 0x20 ADD PUSH1 0x0 ISZERO ISZERO DUP2 MSTORE PUSH1 0x20 ADD PUSH1 0x0 ISZERO ISZERO DUP2 MSTORE POP SWAP1 JUMP JUMPDEST PUSH1 0x0 DUP2 SWAP1 POP SWAP2 SWAP1 POP JUMP JUMPDEST PUSH2 0xBD0 DUP2 PUSH2 0xBBD JUMP JUMPDEST DUP3 MSTORE POP POP JUMP JUMPDEST PUSH1 0x0 PUSH1 0x20 DUP3 ADD SWAP1 POP PUSH2 0xBEB PUSH1 0x0 DUP4 ADD DUP5 PUSH2 0xBC7 JUMP JUMPDEST SWAP3 SWAP2 POP POP JUMP JUMPDEST PUSH1 0x0 PUSH1 0x40 MLOAD SWAP1 POP SWAP1 JUMP JUMPDEST PUSH1 0x0 DUP1 REVERT JUMPDEST PUSH1 0x0 DUP1 REVERT JUMPDEST PUSH1 0x0 PUSH20 0xFFFFFFFFFFFFFFFFFFFFFFFFFFFFFFFFFFFFFFFF DUP3 AND SWAP1 POP SWAP2 SWAP1 POP JUMP JUMPDEST PUSH1 0x0 PUSH2 0xC30 DUP3 PUSH2 0xC05 JUMP JUMPDEST SWAP1 POP SWAP2 SWAP1 POP JUMP JUMPDEST PUSH2 0xC40 DUP2 PUSH2 0xC25 JUMP JUMPDEST DUP2 EQ PUSH2 0xC4B JUMPI PUSH1 0x0 DUP1 REVERT JUMPDEST POP JUMP JUMPDEST PUSH1 0x0 DUP2 CALLDATALOAD SWAP1 POP PUSH2 0xC5D DUP2 PUSH2 0xC37 JUMP JUMPDEST SWAP3 SWAP2 POP POP JUMP JUMPDEST PUSH1 0x0 DUP1 REVERT JUMPDEST PUSH1 0x0 DUP1 REVERT JUMPDEST PUSH1 0x0 PUSH1 0x1F NOT PUSH1 0x1F DUP4 ADD AND SWAP1 POP SWAP2 SWAP1 POP JUMP JUMPDEST PUSH32 0x4E487B7100000000000000000000000000000000000000000000000000000000 PUSH1 0x0 MSTORE PUSH1 0x41 PUSH1 0x4 MSTORE PUSH1 0x24 PUSH1 0x0 REVERT JUMPDEST PUSH2 0xCB6 DUP3 PUSH2 0xC6D JUMP JUMPDEST DUP2 ADD DUP2 DUP2 LT PUSH8 0xFFFFFFFFFFFFFFFF DUP3 GT OR ISZERO PUSH2 0xCD5 JUMPI PUSH2 0xCD4 PUSH2 0xC7E JUMP JUMPDEST JUMPDEST DUP1 PUSH1 0x40 MSTORE POP POP POP JUMP JUMPDEST PUSH1 0x0 PUSH2 0xCE8 PUSH2 0xBF1 JUMP JUMPDEST SWAP1 POP PUSH2 0xCF4 DUP3 DUP3 PUSH2 0xCAD JUMP JUMPDEST SWAP2 SWAP1 POP JUMP JUMPDEST PUSH1 0x0 PUSH8 0xFFFFFFFFFFFFFFFF DUP3 GT ISZERO PUSH2 0xD14 JUMPI PUSH2 0xD13 PUSH2 0xC7E JUMP JUMPDEST JUMPDEST PUSH2 0xD1D DUP3 PUSH2 0xC6D JUMP JUMPDEST SWAP1 POP PUSH1 0x20 DUP2 ADD SWAP1 POP SWAP2 SWAP1 POP JUMP JUMPDEST DUP3 DUP2 DUP4 CALLDATACOPY PUSH1 0x0 DUP4 DUP4 ADD MSTORE POP POP POP JUMP JUMPDEST PUSH1 0x0 PUSH2 0xD4C PUSH2 0xD47 DUP5 PUSH2 0xCF9 JUMP JUMPDEST PUSH2 0xCDE JUMP JUMPDEST SWAP1 POP DUP3 DUP2 MSTORE PUSH1 0x20 DUP2 ADD DUP5 DUP5 DUP5 ADD GT ISZERO PUSH2 0xD68 JUMPI PUSH2 0xD67 PUSH2 0xC68 JUMP JUMPDEST JUMPDEST PUSH2 0xD73 DUP5 DUP3 DUP6 PUSH2 0xD2A JUMP JUMPDEST POP SWAP4 SWAP3 POP POP POP JUMP JUMPDEST PUSH1 0x0 DUP3 PUSH1 0x1F DUP4 ADD SLT PUSH2 0xD90 JUMPI PUSH2 0xD8F PUSH2 0xC63 JUMP JUMPDEST JUMPDEST DUP2 CALLDATALOAD PUSH2 0xDA0 DUP5 DUP3 PUSH1 0x20 DUP7 ADD PUSH2 0xD39 JUMP JUMPDEST SWAP2 POP POP SWAP3 SWAP2 POP POP JUMP JUMPDEST PUSH2 0xDB2 DUP2 PUSH2 0xBBD JUMP JUMPDEST DUP2 EQ PUSH2 0xDBD JUMPI PUSH1 0x0 DUP1 REVERT JUMPDEST POP JUMP JUMPDEST PUSH1 0x0 DUP2 CALLDATALOAD SWAP1 POP PUSH2 0xDCF DUP2 PUSH2 0xDA9 JUMP JUMPDEST SWAP3 SWAP2 POP POP JUMP JUMPDEST PUSH1 0x0 DUP1 PUSH1 0x0 DUP1 PUSH1 0x0 PUSH1 0xA0 DUP7 DUP9 SUB SLT ISZERO PUSH2 0xDF1 JUMPI PUSH2 0xDF0 PUSH2 0xBFB JUMP JUMPDEST JUMPDEST PUSH1 0x0 PUSH2 0xDFF DUP9 DUP3 DUP10 ADD PUSH2 0xC4E JUMP JUMPDEST SWAP6 POP POP PUSH1 0x20 DUP7 ADD CALLDATALOAD PUSH8 0xFFFFFFFFFFFFFFFF DUP2 GT ISZERO PUSH2 0xE20 JUMPI PUSH2 0xE1F PUSH2 0xC00 JUMP JUMPDEST JUMPDEST PUSH2 0xE2C DUP9 DUP3 DUP10 ADD PUSH2 0xD7B JUMP JUMPDEST SWAP5 POP POP PUSH1 0x40 PUSH2 0xE3D DUP9 DUP3 DUP10 ADD PUSH2 0xDC0 JUMP JUMPDEST SWAP4 POP POP PUSH1 0x60 PUSH2 0xE4E DUP9 DUP3 DUP10 ADD PUSH2 0xDC0 JUMP JUMPDEST SWAP3 POP POP PUSH1 0x80 PUSH2 0xE5F DUP9 DUP3 DUP10 ADD PUSH2 0xDC0 JUMP JUMPDEST SWAP2 POP POP SWAP3 SWAP6 POP SWAP3 SWAP6 SWAP1 SWAP4 POP JUMP JUMPDEST PUSH1 0x0 DUP2 ISZERO ISZERO SWAP1 POP SWAP2 SWAP1 POP JUMP JUMPDEST PUSH2 0xE81 DUP2 PUSH2 0xE6C JUMP JUMPDEST DUP3 MSTORE POP POP JUMP JUMPDEST PUSH1 0x0 PUSH1 0x20 DUP3 ADD SWAP1 POP PUSH2 0xE9C PUSH1 0x0 DUP4 ADD DUP5 PUSH2 0xE78 JUMP JUMPDEST SWAP3 SWAP2 POP POP JUMP JUMPDEST PUSH2 0xEAB DUP2 PUSH2 0xC25 JUMP JUMPDEST DUP3 MSTORE POP POP JUMP JUMPDEST PUSH1 0x0 PUSH2 0xEBC DUP3 PUSH2 0xC05 JUMP JUMPDEST SWAP1 POP SWAP2 SWAP1 POP JUMP JUMPDEST PUSH2 0xECC DUP2 PUSH2 0xEB1 JUMP JUMPDEST DUP3 MSTORE POP POP JUMP JUMPDEST PUSH1 0x0 DUP2 MLOAD SWAP1 POP SWAP2 SWAP1 POP JUMP JUMPDEST PUSH1 0x0 DUP3 DUP3 MSTORE PUSH1 0x20 DUP3 ADD SWAP1 POP SWAP3 SWAP2 POP POP JUMP JUMPDEST PUSH1 0x0 JUMPDEST DUP4 DUP2 LT ISZERO PUSH2 0xF0C JUMPI DUP1 DUP3 ADD MLOAD DUP2 DUP5 ADD MSTORE PUSH1 0x20 DUP2 ADD SWAP1 POP PUSH2 0xEF1 JUMP JUMPDEST DUP4 DUP2 GT ISZERO PUSH2 0xF1B JUMPI PUSH1 0x0 DUP5 DUP5 ADD MSTORE JUMPDEST POP POP POP POP JUMP JUMPDEST PUSH1 0x0 PUSH2 0xF2C DUP3 PUSH2 0xED2 JUMP JUMPDEST PUSH2 0xF36 DUP2 DUP6 PUSH2 0xEDD JUMP JUMPDEST SWAP4 POP PUSH2 0xF46 DUP2 DUP6 PUSH1 0x20 DUP7 ADD PUSH2 0xEEE JUMP JUMPDEST PUSH2 0xF4F DUP2 PUSH2 0xC6D JUMP JUMPDEST DUP5 ADD SWAP2 POP POP SWAP3 SWAP2 POP POP JUMP JUMPDEST PUSH2 0xF63 DUP2 PUSH2 0xBBD JUMP JUMPDEST DUP3 MSTORE POP POP JUMP JUMPDEST PUSH2 0xF72 DUP2 PUSH2 0xE6C JUMP JUMPDEST DUP3 MSTORE POP POP JUMP JUMPDEST PUSH1 0x0 PUSH2 0x160 DUP4 ADD PUSH1 0x0 DUP4 ADD MLOAD PUSH2 0xF91 PUSH1 0x0 DUP7 ADD DUP3 PUSH2 0xEA2 JUMP JUMPDEST POP PUSH1 0x20 DUP4 ADD MLOAD PUSH2 0xFA4 PUSH1 0x20 DUP7 ADD DUP3 PUSH2 0xEC3 JUMP JUMPDEST POP PUSH1 0x40 DUP4 ADD MLOAD DUP5 DUP3 SUB PUSH1 0x40 DUP7 ADD MSTORE PUSH2 0xFBC DUP3 DUP3 PUSH2 0xF21 JUMP JUMPDEST SWAP2 POP POP PUSH1 0x60 DUP4 ADD MLOAD DUP5 DUP3 SUB PUSH1 0x60 DUP7 ADD MSTORE PUSH2 0xFD6 DUP3 DUP3 PUSH2 0xF21 JUMP JUMPDEST SWAP2 POP POP PUSH1 0x80 DUP4 ADD MLOAD PUSH2 0xFEB PUSH1 0x80 DUP7 ADD DUP3 PUSH2 0xF5A JUMP JUMPDEST POP PUSH1 0xA0 DUP4 ADD MLOAD PUSH2 0xFFE PUSH1 0xA0 DUP7 ADD DUP3 PUSH2 0xF5A JUMP JUMPDEST POP PUSH1 0xC0 DUP4 ADD MLOAD PUSH2 0x1011 PUSH1 0xC0 DUP7 ADD DUP3 PUSH2 0xF5A JUMP JUMPDEST POP PUSH1 0xE0 DUP4 ADD MLOAD PUSH2 0x1024 PUSH1 0xE0 DUP7 ADD DUP3 PUSH2 0xF5A JUMP JUMPDEST POP PUSH2 0x100 DUP4 ADD MLOAD PUSH2 0x1039 PUSH2 0x100 DUP7 ADD DUP3 PUSH2 0xF5A JUMP JUMPDEST POP PUSH2 0x120 DUP4 ADD MLOAD PUSH2 0x104E PUSH2 0x120 DUP7 ADD DUP3 PUSH2 0xF69 JUMP JUMPDEST POP PUSH2 0x140 DUP4 ADD MLOAD PUSH2 0x1063 PUSH2 0x140 DUP7 ADD DUP3 PUSH2 0xF69 JUMP JUMPDEST POP DUP1 SWAP2 POP POP SWAP3 SWAP2 POP POP JUMP JUMPDEST PUSH1 0x0 PUSH1 0x20 DUP3 ADD SWAP1 POP DUP2 DUP2 SUB PUSH1 0x0 DUP4 ADD MSTORE PUSH2 0x1088 DUP2 DUP5 PUSH2 0xF78 JUMP JUMPDEST SWAP1 POP SWAP3 SWAP2 POP POP JUMP JUMPDEST PUSH1 0x0 DUP3 DUP3 MSTORE PUSH1 0x20 DUP3 ADD SWAP1 POP SWAP3 SWAP2 POP POP JUMP JUMPDEST PUSH32 0x4F6E6C792074686520446562746F722063616E20746869732100000000000000 PUSH1 0x0 DUP3 ADD MSTORE POP JUMP JUMPDEST PUSH1 0x0 PUSH2 0x10D7 PUSH1 0x19 DUP4 PUSH2 0x1090 JUMP JUMPDEST SWAP2 POP PUSH2 0x10E2 DUP3 PUSH2 0x10A1 JUMP JUMPDEST PUSH1 0x20 DUP3 ADD SWAP1 POP SWAP2 SWAP1 POP JUMP JUMPDEST PUSH1 0x0 PUSH1 0x20 DUP3 ADD SWAP1 POP DUP2 DUP2 SUB PUSH1 0x0 DUP4 ADD MSTORE PUSH2 0x1106 DUP2 PUSH2 0x10CA JUMP JUMPDEST SWAP1 POP SWAP2 SWAP1 POP JUMP JUMPDEST PUSH32 0x4E65656420636F6E73657420666F7220486F6C64657220616E6420446562746F PUSH1 0x0 DUP3 ADD MSTORE PUSH32 0x7200000000000000000000000000000000000000000000000000000000000000 PUSH1 0x20 DUP3 ADD MSTORE POP JUMP JUMPDEST PUSH1 0x0 PUSH2 0x1169 PUSH1 0x21 DUP4 PUSH2 0x1090 JUMP JUMPDEST SWAP2 POP PUSH2 0x1174 DUP3 PUSH2 0x110D JUMP JUMPDEST PUSH1 0x40 DUP3 ADD SWAP1 POP SWAP2 SWAP1 POP JUMP JUMPDEST PUSH1 0x0 PUSH1 0x20 DUP3 ADD SWAP1 POP DUP2 DUP2 SUB PUSH1 0x0 DUP4 ADD MSTORE PUSH2 0x1198 DUP2 PUSH2 0x115C JUMP JUMPDEST SWAP1 POP SWAP2 SWAP1 POP JUMP JUMPDEST PUSH1 0x0 DUP2 SWAP1 POP SWAP3 SWAP2 POP POP JUMP JUMPDEST POP JUMP JUMPDEST PUSH1 0x0 PUSH2 0x11BA PUSH1 0x0 DUP4 PUSH2 0x119F JUMP JUMPDEST SWAP2 POP PUSH2 0x11C5 DUP3 PUSH2 0x11AA JUMP JUMPDEST PUSH1 0x0 DUP3 ADD SWAP1 POP SWAP2 SWAP1 POP JUMP JUMPDEST PUSH1 0x0 PUSH2 0x11DB DUP3 PUSH2 0x11AD JUMP JUMPDEST SWAP2 POP DUP2 SWAP1 POP SWAP2 SWAP1 POP JUMP JUMPDEST PUSH32 0x4F6E6C792074686520486F6C6465722063616E20746869732100000000000000 PUSH1 0x0 DUP3 ADD MSTORE POP JUMP JUMPDEST PUSH1 0x0 PUSH2 0x121B PUSH1 0x19 DUP4 PUSH2 0x1090 JUMP JUMPDEST SWAP2 POP PUSH2 0x1226 DUP3 PUSH2 0x11E5 JUMP JUMPDEST PUSH1 0x20 DUP3 ADD SWAP1 POP SWAP2 SWAP1 POP JUMP JUMPDEST PUSH1 0x0 PUSH1 0x20 DUP3 ADD SWAP1 POP DUP2 DUP2 SUB PUSH1 0x0 DUP4 ADD MSTORE PUSH2 0x124A DUP2 PUSH2 0x120E JUMP JUMPDEST SWAP1 POP SWAP2 SWAP1 POP JUMP JUMPDEST PUSH32 0x5061796D656E74206D757374206265206D616465206265666F72652077697468 PUSH1 0x0 DUP3 ADD MSTORE PUSH32 0x64726177696E672066756E647321000000000000000000000000000000000000 PUSH1 0x20 DUP3 ADD MSTORE POP JUMP JUMPDEST PUSH1 0x0 PUSH2 0x12AD PUSH1 0x2E DUP4 PUSH2 0x1090 JUMP JUMPDEST SWAP2 POP PUSH2 0x12B8 DUP3 PUSH2 0x1251 JUMP JUMPDEST PUSH1 0x40 DUP3 ADD SWAP1 POP SWAP2 SWAP1 POP JUMP JUMPDEST PUSH1 0x0 PUSH1 0x20 DUP3 ADD SWAP1 POP DUP2 DUP2 SUB PUSH1 0x0 DUP4 ADD MSTORE PUSH2 0x12DC DUP2 PUSH2 0x12A0 JUMP JUMPDEST SWAP1 POP SWAP2 SWAP1 POP JUMP JUMPDEST PUSH32 0x596F75206D757374207061792074686520616D6F756E742070726F6D6973736F PUSH1 0x0 DUP3 ADD MSTORE PUSH32 0x7279000000000000000000000000000000000000000000000000000000000000 PUSH1 0x20 DUP3 ADD MSTORE POP JUMP JUMPDEST PUSH1 0x0 PUSH2 0x133F PUSH1 0x22 DUP4 PUSH2 0x1090 JUMP JUMPDEST SWAP2 POP PUSH2 0x134A DUP3 PUSH2 0x12E3 JUMP JUMPDEST PUSH1 0x40 DUP3 ADD SWAP1 POP SWAP2 SWAP1 POP JUMP JUMPDEST PUSH1 0x0 PUSH1 0x20 DUP3 ADD SWAP1 POP DUP2 DUP2 SUB PUSH1 0x0 DUP4 ADD MSTORE PUSH2 0x136E DUP2 PUSH2 0x1332 JUMP JUMPDEST SWAP1 POP SWAP2 SWAP1 POP JUMP JUMPDEST PUSH32 0x446562746F7220616E6420486F6C646572206D75737420626520646966666572 PUSH1 0x0 DUP3 ADD MSTORE PUSH32 0x656E742070656F706C6573000000000000000000000000000000000000000000 PUSH1 0x20 DUP3 ADD MSTORE POP JUMP JUMPDEST PUSH1 0x0 PUSH2 0x13D1 PUSH1 0x2B DUP4 PUSH2 0x1090 JUMP JUMPDEST SWAP2 POP PUSH2 0x13DC DUP3 PUSH2 0x1375 JUMP JUMPDEST PUSH1 0x40 DUP3 ADD SWAP1 POP SWAP2 SWAP1 POP JUMP JUMPDEST PUSH1 0x0 PUSH1 0x20 DUP3 ADD SWAP1 POP DUP2 DUP2 SUB PUSH1 0x0 DUP4 ADD MSTORE PUSH2 0x1400 DUP2 PUSH2 0x13C4 JUMP JUMPDEST SWAP1 POP SWAP2 SWAP1 POP JUMP JUMPDEST PUSH32 0x4E487B7100000000000000000000000000000000000000000000000000000000 PUSH1 0x0 MSTORE PUSH1 0x22 PUSH1 0x4 MSTORE PUSH1 0x24 PUSH1 0x0 REVERT JUMPDEST PUSH1 0x0 PUSH1 0x2 DUP3 DIV SWAP1 POP PUSH1 0x1 DUP3 AND DUP1 PUSH2 0x144E JUMPI PUSH1 0x7F DUP3 AND SWAP2 POP JUMPDEST PUSH1 0x20 DUP3 LT DUP2 SUB PUSH2 0x1461 JUMPI PUSH2 0x1460 PUSH2 0x1407 JUMP JUMPDEST JUMPDEST POP SWAP2 SWAP1 POP JUMP JUMPDEST PUSH1 0x0 DUP2 SWAP1 POP DUP2 PUSH1 0x0 MSTORE PUSH1 0x20 PUSH1 0x0 KECCAK256 SWAP1 POP SWAP2 SWAP1 POP JUMP JUMPDEST PUSH1 0x0 PUSH1 0x20 PUSH1 0x1F DUP4 ADD DIV SWAP1 POP SWAP2 SWAP1 POP JUMP JUMPDEST PUSH1 0x0 DUP3 DUP3 SHL SWAP1 POP SWAP3 SWAP2 POP POP JUMP JUMPDEST PUSH1 0x0 PUSH1 0x8 DUP4 MUL PUSH2 0x14C9 PUSH32 0xFFFFFFFFFFFFFFFFFFFFFFFFFFFFFFFFFFFFFFFFFFFFFFFFFFFFFFFFFFFFFFFF DUP3 PUSH2 0x148C JUMP JUMPDEST PUSH2 0x14D3 DUP7 DUP4 PUSH2 0x148C JUMP JUMPDEST SWAP6 POP DUP1 NOT DUP5 AND SWAP4 POP DUP1 DUP7 AND DUP5 OR SWAP3 POP POP POP SWAP4 SWAP3 POP POP POP JUMP JUMPDEST PUSH1 0x0 DUP2 SWAP1 POP SWAP2 SWAP1 POP JUMP JUMPDEST PUSH1 0x0 PUSH2 0x1510 PUSH2 0x150B PUSH2 0x1506 DUP5 PUSH2 0xBBD JUMP JUMPDEST PUSH2 0x14EB JUMP JUMPDEST PUSH2 0xBBD JUMP JUMPDEST SWAP1 POP SWAP2 SWAP1 POP JUMP JUMPDEST PUSH1 0x0 DUP2 SWAP1 POP SWAP2 SWAP1 POP JUMP JUMPDEST PUSH2 0x152A DUP4 PUSH2 0x14F5 JUMP JUMPDEST PUSH2 0x153E PUSH2 0x1536 DUP3 PUSH2 0x1517 JUMP JUMPDEST DUP5 DUP5 SLOAD PUSH2 0x1499 JUMP JUMPDEST DUP3 SSTORE POP POP POP POP JUMP JUMPDEST PUSH1 0x0 SWAP1 JUMP JUMPDEST PUSH2 0x1553 PUSH2 0x1546 JUMP JUMPDEST PUSH2 0x155E DUP2 DUP5 DUP5 PUSH2 0x1521 JUMP JUMPDEST POP POP POP JUMP JUMPDEST JUMPDEST DUP2 DUP2 LT ISZERO PUSH2 0x1582 JUMPI PUSH2 0x1577 PUSH1 0x0 DUP3 PUSH2 0x154B JUMP JUMPDEST PUSH1 0x1 DUP2 ADD SWAP1 POP PUSH2 0x1564 JUMP JUMPDEST POP POP JUMP JUMPDEST PUSH1 0x1F DUP3 GT ISZERO PUSH2 0x15C7 JUMPI PUSH2 0x1598 DUP2 PUSH2 0x1467 JUMP JUMPDEST PUSH2 0x15A1 DUP5 PUSH2 0x147C JUMP JUMPDEST DUP2 ADD PUSH1 0x20 DUP6 LT ISZERO PUSH2 0x15B0 JUMPI DUP2 SWAP1 POP JUMPDEST PUSH2 0x15C4 PUSH2 0x15BC DUP6 PUSH2 0x147C JUMP JUMPDEST DUP4 ADD DUP3 PUSH2 0x1563 JUMP JUMPDEST POP POP JUMPDEST POP POP POP JUMP JUMPDEST PUSH1 0x0 DUP3 DUP3 SHR SWAP1 POP SWAP3 SWAP2 POP POP JUMP JUMPDEST PUSH1 0x0 PUSH2 0x15EA PUSH1 0x0 NOT DUP5 PUSH1 0x8 MUL PUSH2 0x15CC JUMP JUMPDEST NOT DUP1 DUP4 AND SWAP2 POP POP SWAP3 SWAP2 POP POP JUMP JUMPDEST PUSH1 0x0 PUSH2 0x1603 DUP4 DUP4 PUSH2 0x15D9 JUMP JUMPDEST SWAP2 POP DUP3 PUSH1 0x2 MUL DUP3 OR SWAP1 POP SWAP3 SWAP2 POP POP JUMP JUMPDEST PUSH2 0x161C DUP3 PUSH2 0xED2 JUMP JUMPDEST PUSH8 0xFFFFFFFFFFFFFFFF DUP2 GT ISZERO PUSH2 0x1635 JUMPI PUSH2 0x1634 PUSH2 0xC7E JUMP JUMPDEST JUMPDEST PUSH2 0x163F DUP3 SLOAD PUSH2 0x1436 JUMP JUMPDEST PUSH2 0x164A DUP3 DUP3 DUP6 PUSH2 0x1586 JUMP JUMPDEST PUSH1 0x0 PUSH1 0x20 SWAP1 POP PUSH1 0x1F DUP4 GT PUSH1 0x1 DUP2 EQ PUSH2 0x167D JUMPI PUSH1 0x0 DUP5 ISZERO PUSH2 0x166B JUMPI DUP3 DUP8 ADD MLOAD SWAP1 POP JUMPDEST PUSH2 0x1675 DUP6 DUP3 PUSH2 0x15F7 JUMP JUMPDEST DUP7 SSTORE POP PUSH2 0x16DD JUMP JUMPDEST PUSH1 0x1F NOT DUP5 AND PUSH2 0x168B DUP7 PUSH2 0x1467 JUMP JUMPDEST PUSH1 0x0 JUMPDEST DUP3 DUP2 LT ISZERO PUSH2 0x16B3 JUMPI DUP5 DUP10 ADD MLOAD DUP3 SSTORE PUSH1 0x1 DUP3 ADD SWAP2 POP PUSH1 0x20 DUP6 ADD SWAP5 POP PUSH1 0x20 DUP2 ADD SWAP1 POP PUSH2 0x168E JUMP JUMPDEST DUP7 DUP4 LT ISZERO PUSH2 0x16D0 JUMPI DUP5 DUP10 ADD MLOAD PUSH2 0x16CC PUSH1 0x1F DUP10 AND DUP3 PUSH2 0x15D9 JUMP JUMPDEST DUP4 SSTORE POP JUMPDEST PUSH1 0x1 PUSH1 0x2 DUP9 MUL ADD DUP9 SSTORE POP POP POP JUMPDEST POP POP POP POP POP POP JUMP INVALID LOG2 PUSH5 0x6970667358 0x22 SLT KECCAK256 AND PUSH15 0xCD7E4BE21CB2C3373B6DCE92414432 0xE2 PUSH21 0x3187C9EC31ED31A82F5160EBCB64736F6C63430008 0xF STOP CALLER "
				},
				"gasEstimates": {
					"creation": {
						"codeDepositCost": "1183000",
						"executionCost": "infinite",
						"totalCost": "infinite"
					},
					"external": {
						"bank()": "2496",
						"dateOfAcceptance()": "2430",
						"getPromissoryInfo()": "infinite",
						"payPromissory()": "infinite",
						"paymentAccepted()": "2543",
						"promissoryPaid()": "2512",
						"setDebtorConsent()": "50999",
						"setHolderConsent()": "50911",
						"setPaymentAccepted()": "85070",
						"setPromissoryInfo(address,string,uint256,uint256,uint256)": "infinite"
					},
					"internal": {
						"killContract()": "infinite",
						"setDateOfRegistration()": "infinite"
					}
				},
				"methodIdentifiers": {
					"bank()": "76cdb03b",
					"dateOfAcceptance()": "3ea8a717",
					"getPromissoryInfo()": "cf804c84",
					"payPromissory()": "70a57fd3",
					"paymentAccepted()": "ad6069e0",
					"promissoryPaid()": "c0933340",
					"setDebtorConsent()": "efe270ba",
					"setHolderConsent()": "9fcb8099",
					"setPaymentAccepted()": "72f924ae",
					"setPromissoryInfo(address,string,uint256,uint256,uint256)": "9c115f65"
				}
			},
			"storageLayout": {
				"storage": [
					{
						"astId": 4,
						"contract": "contracts/promissory.sol:Promissory",
						"label": "promissoryPaid",
						"offset": 0,
						"slot": "0",
						"type": "t_bool"
					},
					{
						"astId": 7,
						"contract": "contracts/promissory.sol:Promissory",
						"label": "paymentAccepted",
						"offset": 1,
						"slot": "0",
						"type": "t_bool"
					},
					{
						"astId": 9,
						"contract": "contracts/promissory.sol:Promissory",
						"label": "dateOfAcceptance",
						"offset": 0,
						"slot": "1",
						"type": "t_uint256"
					},
					{
						"astId": 11,
						"contract": "contracts/promissory.sol:Promissory",
						"label": "bank",
						"offset": 0,
						"slot": "2",
						"type": "t_uint256"
					},
					{
						"astId": 37,
						"contract": "contracts/promissory.sol:Promissory",
						"label": "promissory",
						"offset": 0,
						"slot": "3",
						"type": "t_struct(PromissoryInfo)34_storage"
					}
				],
				"types": {
					"t_address": {
						"encoding": "inplace",
						"label": "address",
						"numberOfBytes": "20"
					},
					"t_address_payable": {
						"encoding": "inplace",
						"label": "address payable",
						"numberOfBytes": "20"
					},
					"t_bool": {
						"encoding": "inplace",
						"label": "bool",
						"numberOfBytes": "1"
					},
					"t_string_storage": {
						"encoding": "bytes",
						"label": "string",
						"numberOfBytes": "32"
					},
					"t_struct(PromissoryInfo)34_storage": {
						"encoding": "inplace",
						"label": "struct Promissory.PromissoryInfo",
						"members": [
							{
								"astId": 13,
								"contract": "contracts/promissory.sol:Promissory",
								"label": "holder",
								"offset": 0,
								"slot": "0",
								"type": "t_address_payable"
							},
							{
								"astId": 15,
								"contract": "contracts/promissory.sol:Promissory",
								"label": "debtor",
								"offset": 0,
								"slot": "1",
								"type": "t_address"
							},
							{
								"astId": 17,
								"contract": "contracts/promissory.sol:Promissory",
								"label": "holderName",
								"offset": 0,
								"slot": "2",
								"type": "t_string_storage"
							},
							{
								"astId": 19,
								"contract": "contracts/promissory.sol:Promissory",
								"label": "debtorName",
								"offset": 0,
								"slot": "3",
								"type": "t_string_storage"
							},
							{
								"astId": 21,
								"contract": "contracts/promissory.sol:Promissory",
								"label": "promissoryAmount",
								"offset": 0,
								"slot": "4",
								"type": "t_uint256"
							},
							{
								"astId": 23,
								"contract": "contracts/promissory.sol:Promissory",
								"label": "dateOfRegistration",
								"offset": 0,
								"slot": "5",
								"type": "t_uint256"
							},
							{
								"astId": 25,
								"contract": "contracts/promissory.sol:Promissory",
								"label": "dateOfClose",
								"offset": 0,
								"slot": "6",
								"type": "t_uint256"
							},
							{
								"astId": 27,
								"contract": "contracts/promissory.sol:Promissory",
								"label": "dateOfHolderConsent",
								"offset": 0,
								"slot": "7",
								"type": "t_uint256"
							},
							{
								"astId": 29,
								"contract": "contracts/promissory.sol:Promissory",
								"label": "dateOfDebtorConsent",
								"offset": 0,
								"slot": "8",
								"type": "t_uint256"
							},
							{
								"astId": 31,
								"contract": "contracts/promissory.sol:Promissory",
								"label": "holderConsent",
								"offset": 0,
								"slot": "9",
								"type": "t_bool"
							},
							{
								"astId": 33,
								"contract": "contracts/promissory.sol:Promissory",
								"label": "debtorConsent",
								"offset": 1,
								"slot": "9",
								"type": "t_bool"
							}
						],
						"numberOfBytes": "320"
					},
					"t_uint256": {
						"encoding": "inplace",
						"label": "uint256",
						"numberOfBytes": "32"
					}
				}
			},
			"userdoc": {
				"kind": "user",
				"methods": {},
				"version": 1
			}
		}
	}
}