{
	"contracts/promissory.sol": {
		"Promissory": {
			"abi": [
				{
					"inputs": [
						{
							"internalType": "string",
							"name": "_holderName",
							"type": "string"
						}
					],
					"stateMutability": "nonpayable",
					"type": "constructor"
				},
				{
					"inputs": [],
					"name": "bank",
					"outputs": [
						{
							"internalType": "uint256",
							"name": "",
							"type": "uint256"
						}
					],
					"stateMutability": "view",
					"type": "function"
				},
				{
					"inputs": [],
					"name": "dateOfAcceptance",
					"outputs": [
						{
							"internalType": "uint256",
							"name": "",
							"type": "uint256"
						}
					],
					"stateMutability": "view",
					"type": "function"
				},
				{
					"inputs": [],
					"name": "getPromissoryInfo",
					"outputs": [
						{
							"components": [
								{
									"internalType": "address payable",
									"name": "holder",
									"type": "address"
								},
								{
									"internalType": "address",
									"name": "debtor",
									"type": "address"
								},
								{
									"internalType": "string",
									"name": "holderName",
									"type": "string"
								},
								{
									"internalType": "string",
									"name": "debtorName",
									"type": "string"
								},
								{
									"internalType": "uint8",
									"name": "promissoryCommission",
									"type": "uint8"
								},
								{
									"internalType": "uint256",
									"name": "promissoryAmount",
									"type": "uint256"
								},
								{
									"internalType": "uint256",
									"name": "dateOfRegistration",
									"type": "uint256"
								},
								{
									"internalType": "uint256",
									"name": "dateOfClose",
									"type": "uint256"
								},
								{
									"internalType": "uint256",
									"name": "dateOfHolderConsent",
									"type": "uint256"
								},
								{
									"internalType": "uint256",
									"name": "dateOfDebtorConsent",
									"type": "uint256"
								},
								{
									"internalType": "bool",
									"name": "holderConsent",
									"type": "bool"
								},
								{
									"internalType": "bool",
									"name": "debtorConsent",
									"type": "bool"
								}
							],
							"internalType": "struct Promissory.PromissoryInfo",
							"name": "",
							"type": "tuple"
						}
					],
					"stateMutability": "view",
					"type": "function"
				},
				{
					"inputs": [],
					"name": "payPromissory",
					"outputs": [],
					"stateMutability": "payable",
					"type": "function"
				},
				{
					"inputs": [],
					"name": "paymentAccepted",
					"outputs": [
						{
							"internalType": "bool",
							"name": "",
							"type": "bool"
						}
					],
					"stateMutability": "view",
					"type": "function"
				},
				{
					"inputs": [],
					"name": "promissoryPaid",
					"outputs": [
						{
							"internalType": "bool",
							"name": "",
							"type": "bool"
						}
					],
					"stateMutability": "view",
					"type": "function"
				},
				{
					"inputs": [],
					"name": "setDebtorConsent",
					"outputs": [],
					"stateMutability": "nonpayable",
					"type": "function"
				},
				{
					"inputs": [],
					"name": "setHolderConsent",
					"outputs": [],
					"stateMutability": "nonpayable",
					"type": "function"
				},
				{
					"inputs": [],
					"name": "setPaymentAccepted",
					"outputs": [],
					"stateMutability": "nonpayable",
					"type": "function"
				},
				{
					"inputs": [
						{
							"internalType": "address payable",
							"name": "_debtor",
							"type": "address"
						},
						{
							"internalType": "string",
							"name": "_debtorName",
							"type": "string"
						},
						{
							"internalType": "uint8",
							"name": "_promissoryCommission",
							"type": "uint8"
						},
						{
							"internalType": "uint256",
							"name": "_promissoryAmount",
							"type": "uint256"
						},
						{
							"internalType": "uint256",
							"name": "_dateOfRegistration",
							"type": "uint256"
						},
						{
							"internalType": "uint256",
							"name": "_dateOfClose",
							"type": "uint256"
						}
					],
					"name": "setPromissoryInfo",
					"outputs": [],
					"stateMutability": "nonpayable",
					"type": "function"
				},
				{
					"stateMutability": "payable",
					"type": "receive"
				}
			],
			"devdoc": {
				"kind": "dev",
				"methods": {},
				"version": 1
			},
			"evm": {
				"assembly": "    /* \"contracts/promissory.sol\":57:5175  contract Promissory {... */\n  mstore(0x40, 0x80)\n    /* \"contracts/promissory.sol\":112:117  false */\n  0x00\n    /* \"contracts/promissory.sol\":83:117  bool public promissoryPaid = false */\n  dup1\n  exp(0x0100, 0x00)\n  dup2\n  sload\n  dup2\n  0xff\n  mul\n  not\n  and\n  swap1\n  dup4\n  iszero\n  iszero\n  mul\n  or\n  swap1\n  sstore\n  pop\n    /* \"contracts/promissory.sol\":153:158  false */\n  0x00\n    /* \"contracts/promissory.sol\":123:158  bool public paymentAccepted = false */\n  dup1\n  exp(0x0100, 0x01)\n  dup2\n  sload\n  dup2\n  0xff\n  mul\n  not\n  and\n  swap1\n  dup4\n  iszero\n  iszero\n  mul\n  or\n  swap1\n  sstore\n  pop\n    /* \"contracts/promissory.sol\":1624:1764  constructor(string memory _holderName) {... */\n  callvalue\n  dup1\n  iszero\n  tag_1\n  jumpi\n  0x00\n  dup1\n  revert\ntag_1:\n  pop\n  mload(0x40)\n  sub(codesize, bytecodeSize)\n  dup1\n  bytecodeSize\n  dup4\n  codecopy\n  dup2\n  dup2\n  add\n  0x40\n  mstore\n  dup2\n  add\n  swap1\n  tag_2\n  swap2\n  swap1\n  tag_3\n  jump\t// in\ntag_2:\n    /* \"contracts/promissory.sol\":1701:1711  msg.sender */\n  caller\n    /* \"contracts/promissory.sol\":1673:1683  promissory */\n  0x03\n    /* \"contracts/promissory.sol\":1673:1690  promissory.holder */\n  0x00\n  add\n  0x00\n    /* \"contracts/promissory.sol\":1673:1712  promissory.holder = payable(msg.sender) */\n  0x0100\n  exp\n  dup2\n  sload\n  dup2\n  0xffffffffffffffffffffffffffffffffffffffff\n  mul\n  not\n  and\n  swap1\n  dup4\n  0xffffffffffffffffffffffffffffffffffffffff\n  and\n  mul\n  or\n  swap1\n  sstore\n  pop\n    /* \"contracts/promissory.sol\":1746:1757  _holderName */\n  dup1\n    /* \"contracts/promissory.sol\":1722:1732  promissory */\n  0x03\n    /* \"contracts/promissory.sol\":1722:1743  promissory.holderName */\n  0x02\n  add\n    /* \"contracts/promissory.sol\":1722:1757  promissory.holderName = _holderName */\n  swap1\n  dup2\n  tag_6\n  swap2\n  swap1\n  tag_7\n  jump\t// in\ntag_6:\n  pop\n    /* \"contracts/promissory.sol\":1624:1764  constructor(string memory _holderName) {... */\n  pop\n    /* \"contracts/promissory.sol\":57:5175  contract Promissory {... */\n  jump(tag_8)\n    /* \"#utility.yul\":7:82   */\ntag_9:\n    /* \"#utility.yul\":40:46   */\n  0x00\n    /* \"#utility.yul\":73:75   */\n  0x40\n    /* \"#utility.yul\":67:76   */\n  mload\n    /* \"#utility.yul\":57:76   */\n  swap1\n  pop\n    /* \"#utility.yul\":7:82   */\n  swap1\n  jump\t// out\n    /* \"#utility.yul\":88:205   */\ntag_10:\n    /* \"#utility.yul\":197:198   */\n  0x00\n    /* \"#utility.yul\":194:195   */\n  dup1\n    /* \"#utility.yul\":187:199   */\n  revert\n    /* \"#utility.yul\":211:328   */\ntag_11:\n    /* \"#utility.yul\":320:321   */\n  0x00\n    /* \"#utility.yul\":317:318   */\n  dup1\n    /* \"#utility.yul\":310:322   */\n  revert\n    /* \"#utility.yul\":334:451   */\ntag_12:\n    /* \"#utility.yul\":443:444   */\n  0x00\n    /* \"#utility.yul\":440:441   */\n  dup1\n    /* \"#utility.yul\":433:445   */\n  revert\n    /* \"#utility.yul\":457:574   */\ntag_13:\n    /* \"#utility.yul\":566:567   */\n  0x00\n    /* \"#utility.yul\":563:564   */\n  dup1\n    /* \"#utility.yul\":556:568   */\n  revert\n    /* \"#utility.yul\":580:682   */\ntag_14:\n    /* \"#utility.yul\":621:627   */\n  0x00\n    /* \"#utility.yul\":672:674   */\n  0x1f\n    /* \"#utility.yul\":668:675   */\n  not\n    /* \"#utility.yul\":663:665   */\n  0x1f\n    /* \"#utility.yul\":656:661   */\n  dup4\n    /* \"#utility.yul\":652:666   */\n  add\n    /* \"#utility.yul\":648:676   */\n  and\n    /* \"#utility.yul\":638:676   */\n  swap1\n  pop\n    /* \"#utility.yul\":580:682   */\n  swap2\n  swap1\n  pop\n  jump\t// out\n    /* \"#utility.yul\":688:868   */\ntag_15:\n    /* \"#utility.yul\":736:813   */\n  0x4e487b7100000000000000000000000000000000000000000000000000000000\n    /* \"#utility.yul\":733:734   */\n  0x00\n    /* \"#utility.yul\":726:814   */\n  mstore\n    /* \"#utility.yul\":833:837   */\n  0x41\n    /* \"#utility.yul\":830:831   */\n  0x04\n    /* \"#utility.yul\":823:838   */\n  mstore\n    /* \"#utility.yul\":857:861   */\n  0x24\n    /* \"#utility.yul\":854:855   */\n  0x00\n    /* \"#utility.yul\":847:862   */\n  revert\n    /* \"#utility.yul\":874:1155   */\ntag_16:\n    /* \"#utility.yul\":957:984   */\n  tag_50\n    /* \"#utility.yul\":979:983   */\n  dup3\n    /* \"#utility.yul\":957:984   */\n  tag_14\n  jump\t// in\ntag_50:\n    /* \"#utility.yul\":949:955   */\n  dup2\n    /* \"#utility.yul\":945:985   */\n  add\n    /* \"#utility.yul\":1087:1093   */\n  dup2\n    /* \"#utility.yul\":1075:1085   */\n  dup2\n    /* \"#utility.yul\":1072:1094   */\n  lt\n    /* \"#utility.yul\":1051:1069   */\n  0xffffffffffffffff\n    /* \"#utility.yul\":1039:1049   */\n  dup3\n    /* \"#utility.yul\":1036:1070   */\n  gt\n    /* \"#utility.yul\":1033:1095   */\n  or\n    /* \"#utility.yul\":1030:1118   */\n  iszero\n  tag_51\n  jumpi\n    /* \"#utility.yul\":1098:1116   */\n  tag_52\n  tag_15\n  jump\t// in\ntag_52:\n    /* \"#utility.yul\":1030:1118   */\ntag_51:\n    /* \"#utility.yul\":1138:1148   */\n  dup1\n    /* \"#utility.yul\":1134:1136   */\n  0x40\n    /* \"#utility.yul\":1127:1149   */\n  mstore\n    /* \"#utility.yul\":917:1155   */\n  pop\n    /* \"#utility.yul\":874:1155   */\n  pop\n  pop\n  jump\t// out\n    /* \"#utility.yul\":1161:1290   */\ntag_17:\n    /* \"#utility.yul\":1195:1201   */\n  0x00\n    /* \"#utility.yul\":1222:1242   */\n  tag_54\n  tag_9\n  jump\t// in\ntag_54:\n    /* \"#utility.yul\":1212:1242   */\n  swap1\n  pop\n    /* \"#utility.yul\":1251:1284   */\n  tag_55\n    /* \"#utility.yul\":1279:1283   */\n  dup3\n    /* \"#utility.yul\":1271:1277   */\n  dup3\n    /* \"#utility.yul\":1251:1284   */\n  tag_16\n  jump\t// in\ntag_55:\n    /* \"#utility.yul\":1161:1290   */\n  swap2\n  swap1\n  pop\n  jump\t// out\n    /* \"#utility.yul\":1296:1604   */\ntag_18:\n    /* \"#utility.yul\":1358:1362   */\n  0x00\n    /* \"#utility.yul\":1448:1466   */\n  0xffffffffffffffff\n    /* \"#utility.yul\":1440:1446   */\n  dup3\n    /* \"#utility.yul\":1437:1467   */\n  gt\n    /* \"#utility.yul\":1434:1490   */\n  iszero\n  tag_57\n  jumpi\n    /* \"#utility.yul\":1470:1488   */\n  tag_58\n  tag_15\n  jump\t// in\ntag_58:\n    /* \"#utility.yul\":1434:1490   */\ntag_57:\n    /* \"#utility.yul\":1508:1537   */\n  tag_59\n    /* \"#utility.yul\":1530:1536   */\n  dup3\n    /* \"#utility.yul\":1508:1537   */\n  tag_14\n  jump\t// in\ntag_59:\n    /* \"#utility.yul\":1500:1537   */\n  swap1\n  pop\n    /* \"#utility.yul\":1592:1596   */\n  0x20\n    /* \"#utility.yul\":1586:1590   */\n  dup2\n    /* \"#utility.yul\":1582:1597   */\n  add\n    /* \"#utility.yul\":1574:1597   */\n  swap1\n  pop\n    /* \"#utility.yul\":1296:1604   */\n  swap2\n  swap1\n  pop\n  jump\t// out\n    /* \"#utility.yul\":1610:1917   */\ntag_19:\n    /* \"#utility.yul\":1678:1679   */\n  0x00\n    /* \"#utility.yul\":1688:1801   */\ntag_61:\n    /* \"#utility.yul\":1702:1708   */\n  dup4\n    /* \"#utility.yul\":1699:1700   */\n  dup2\n    /* \"#utility.yul\":1696:1709   */\n  lt\n    /* \"#utility.yul\":1688:1801   */\n  iszero\n  tag_63\n  jumpi\n    /* \"#utility.yul\":1787:1788   */\n  dup1\n    /* \"#utility.yul\":1782:1785   */\n  dup3\n    /* \"#utility.yul\":1778:1789   */\n  add\n    /* \"#utility.yul\":1772:1790   */\n  mload\n    /* \"#utility.yul\":1768:1769   */\n  dup2\n    /* \"#utility.yul\":1763:1766   */\n  dup5\n    /* \"#utility.yul\":1759:1770   */\n  add\n    /* \"#utility.yul\":1752:1791   */\n  mstore\n    /* \"#utility.yul\":1724:1726   */\n  0x20\n    /* \"#utility.yul\":1721:1722   */\n  dup2\n    /* \"#utility.yul\":1717:1727   */\n  add\n    /* \"#utility.yul\":1712:1727   */\n  swap1\n  pop\n    /* \"#utility.yul\":1688:1801   */\n  jump(tag_61)\ntag_63:\n    /* \"#utility.yul\":1819:1825   */\n  dup4\n    /* \"#utility.yul\":1816:1817   */\n  dup2\n    /* \"#utility.yul\":1813:1826   */\n  gt\n    /* \"#utility.yul\":1810:1911   */\n  iszero\n  tag_64\n  jumpi\n    /* \"#utility.yul\":1899:1900   */\n  0x00\n    /* \"#utility.yul\":1890:1896   */\n  dup5\n    /* \"#utility.yul\":1885:1888   */\n  dup5\n    /* \"#utility.yul\":1881:1897   */\n  add\n    /* \"#utility.yul\":1874:1901   */\n  mstore\n    /* \"#utility.yul\":1810:1911   */\ntag_64:\n    /* \"#utility.yul\":1659:1917   */\n  pop\n    /* \"#utility.yul\":1610:1917   */\n  pop\n  pop\n  pop\n  jump\t// out\n    /* \"#utility.yul\":1923:2344   */\ntag_20:\n    /* \"#utility.yul\":2012:2017   */\n  0x00\n    /* \"#utility.yul\":2037:2103   */\n  tag_66\n    /* \"#utility.yul\":2053:2102   */\n  tag_67\n    /* \"#utility.yul\":2095:2101   */\n  dup5\n    /* \"#utility.yul\":2053:2102   */\n  tag_18\n  jump\t// in\ntag_67:\n    /* \"#utility.yul\":2037:2103   */\n  tag_17\n  jump\t// in\ntag_66:\n    /* \"#utility.yul\":2028:2103   */\n  swap1\n  pop\n    /* \"#utility.yul\":2126:2132   */\n  dup3\n    /* \"#utility.yul\":2119:2124   */\n  dup2\n    /* \"#utility.yul\":2112:2133   */\n  mstore\n    /* \"#utility.yul\":2164:2168   */\n  0x20\n    /* \"#utility.yul\":2157:2162   */\n  dup2\n    /* \"#utility.yul\":2153:2169   */\n  add\n    /* \"#utility.yul\":2202:2205   */\n  dup5\n    /* \"#utility.yul\":2193:2199   */\n  dup5\n    /* \"#utility.yul\":2188:2191   */\n  dup5\n    /* \"#utility.yul\":2184:2200   */\n  add\n    /* \"#utility.yul\":2181:2206   */\n  gt\n    /* \"#utility.yul\":2178:2290   */\n  iszero\n  tag_68\n  jumpi\n    /* \"#utility.yul\":2209:2288   */\n  tag_69\n  tag_13\n  jump\t// in\ntag_69:\n    /* \"#utility.yul\":2178:2290   */\ntag_68:\n    /* \"#utility.yul\":2299:2338   */\n  tag_70\n    /* \"#utility.yul\":2331:2337   */\n  dup5\n    /* \"#utility.yul\":2326:2329   */\n  dup3\n    /* \"#utility.yul\":2321:2324   */\n  dup6\n    /* \"#utility.yul\":2299:2338   */\n  tag_19\n  jump\t// in\ntag_70:\n    /* \"#utility.yul\":2018:2344   */\n  pop\n    /* \"#utility.yul\":1923:2344   */\n  swap4\n  swap3\n  pop\n  pop\n  pop\n  jump\t// out\n    /* \"#utility.yul\":2364:2719   */\ntag_21:\n    /* \"#utility.yul\":2431:2436   */\n  0x00\n    /* \"#utility.yul\":2480:2483   */\n  dup3\n    /* \"#utility.yul\":2473:2477   */\n  0x1f\n    /* \"#utility.yul\":2465:2471   */\n  dup4\n    /* \"#utility.yul\":2461:2478   */\n  add\n    /* \"#utility.yul\":2457:2484   */\n  slt\n    /* \"#utility.yul\":2447:2569   */\n  tag_72\n  jumpi\n    /* \"#utility.yul\":2488:2567   */\n  tag_73\n  tag_12\n  jump\t// in\ntag_73:\n    /* \"#utility.yul\":2447:2569   */\ntag_72:\n    /* \"#utility.yul\":2598:2604   */\n  dup2\n    /* \"#utility.yul\":2592:2605   */\n  mload\n    /* \"#utility.yul\":2623:2713   */\n  tag_74\n    /* \"#utility.yul\":2709:2712   */\n  dup5\n    /* \"#utility.yul\":2701:2707   */\n  dup3\n    /* \"#utility.yul\":2694:2698   */\n  0x20\n    /* \"#utility.yul\":2686:2692   */\n  dup7\n    /* \"#utility.yul\":2682:2699   */\n  add\n    /* \"#utility.yul\":2623:2713   */\n  tag_20\n  jump\t// in\ntag_74:\n    /* \"#utility.yul\":2614:2713   */\n  swap2\n  pop\n    /* \"#utility.yul\":2437:2719   */\n  pop\n    /* \"#utility.yul\":2364:2719   */\n  swap3\n  swap2\n  pop\n  pop\n  jump\t// out\n    /* \"#utility.yul\":2725:3249   */\ntag_3:\n    /* \"#utility.yul\":2805:2811   */\n  0x00\n    /* \"#utility.yul\":2854:2856   */\n  0x20\n    /* \"#utility.yul\":2842:2851   */\n  dup3\n    /* \"#utility.yul\":2833:2840   */\n  dup5\n    /* \"#utility.yul\":2829:2852   */\n  sub\n    /* \"#utility.yul\":2825:2857   */\n  slt\n    /* \"#utility.yul\":2822:2941   */\n  iszero\n  tag_76\n  jumpi\n    /* \"#utility.yul\":2860:2939   */\n  tag_77\n  tag_10\n  jump\t// in\ntag_77:\n    /* \"#utility.yul\":2822:2941   */\ntag_76:\n    /* \"#utility.yul\":3001:3002   */\n  0x00\n    /* \"#utility.yul\":2990:2999   */\n  dup3\n    /* \"#utility.yul\":2986:3003   */\n  add\n    /* \"#utility.yul\":2980:3004   */\n  mload\n    /* \"#utility.yul\":3031:3049   */\n  0xffffffffffffffff\n    /* \"#utility.yul\":3023:3029   */\n  dup2\n    /* \"#utility.yul\":3020:3050   */\n  gt\n    /* \"#utility.yul\":3017:3134   */\n  iszero\n  tag_78\n  jumpi\n    /* \"#utility.yul\":3053:3132   */\n  tag_79\n  tag_11\n  jump\t// in\ntag_79:\n    /* \"#utility.yul\":3017:3134   */\ntag_78:\n    /* \"#utility.yul\":3158:3232   */\n  tag_80\n    /* \"#utility.yul\":3224:3231   */\n  dup5\n    /* \"#utility.yul\":3215:3221   */\n  dup3\n    /* \"#utility.yul\":3204:3213   */\n  dup6\n    /* \"#utility.yul\":3200:3222   */\n  add\n    /* \"#utility.yul\":3158:3232   */\n  tag_21\n  jump\t// in\ntag_80:\n    /* \"#utility.yul\":3148:3232   */\n  swap2\n  pop\n    /* \"#utility.yul\":2951:3242   */\n  pop\n    /* \"#utility.yul\":2725:3249   */\n  swap3\n  swap2\n  pop\n  pop\n  jump\t// out\n    /* \"#utility.yul\":3255:3354   */\ntag_22:\n    /* \"#utility.yul\":3307:3313   */\n  0x00\n    /* \"#utility.yul\":3341:3346   */\n  dup2\n    /* \"#utility.yul\":3335:3347   */\n  mload\n    /* \"#utility.yul\":3325:3347   */\n  swap1\n  pop\n    /* \"#utility.yul\":3255:3354   */\n  swap2\n  swap1\n  pop\n  jump\t// out\n    /* \"#utility.yul\":3360:3540   */\ntag_23:\n    /* \"#utility.yul\":3408:3485   */\n  0x4e487b7100000000000000000000000000000000000000000000000000000000\n    /* \"#utility.yul\":3405:3406   */\n  0x00\n    /* \"#utility.yul\":3398:3486   */\n  mstore\n    /* \"#utility.yul\":3505:3509   */\n  0x22\n    /* \"#utility.yul\":3502:3503   */\n  0x04\n    /* \"#utility.yul\":3495:3510   */\n  mstore\n    /* \"#utility.yul\":3529:3533   */\n  0x24\n    /* \"#utility.yul\":3526:3527   */\n  0x00\n    /* \"#utility.yul\":3519:3534   */\n  revert\n    /* \"#utility.yul\":3546:3866   */\ntag_24:\n    /* \"#utility.yul\":3590:3596   */\n  0x00\n    /* \"#utility.yul\":3627:3628   */\n  0x02\n    /* \"#utility.yul\":3621:3625   */\n  dup3\n    /* \"#utility.yul\":3617:3629   */\n  div\n    /* \"#utility.yul\":3607:3629   */\n  swap1\n  pop\n    /* \"#utility.yul\":3674:3675   */\n  0x01\n    /* \"#utility.yul\":3668:3672   */\n  dup3\n    /* \"#utility.yul\":3664:3676   */\n  and\n    /* \"#utility.yul\":3695:3713   */\n  dup1\n    /* \"#utility.yul\":3685:3766   */\n  tag_84\n  jumpi\n    /* \"#utility.yul\":3751:3755   */\n  0x7f\n    /* \"#utility.yul\":3743:3749   */\n  dup3\n    /* \"#utility.yul\":3739:3756   */\n  and\n    /* \"#utility.yul\":3729:3756   */\n  swap2\n  pop\n    /* \"#utility.yul\":3685:3766   */\ntag_84:\n    /* \"#utility.yul\":3813:3815   */\n  0x20\n    /* \"#utility.yul\":3805:3811   */\n  dup3\n    /* \"#utility.yul\":3802:3816   */\n  lt\n    /* \"#utility.yul\":3782:3800   */\n  dup2\n    /* \"#utility.yul\":3779:3817   */\n  sub\n    /* \"#utility.yul\":3776:3860   */\n  tag_85\n  jumpi\n    /* \"#utility.yul\":3832:3850   */\n  tag_86\n  tag_23\n  jump\t// in\ntag_86:\n    /* \"#utility.yul\":3776:3860   */\ntag_85:\n    /* \"#utility.yul\":3597:3866   */\n  pop\n    /* \"#utility.yul\":3546:3866   */\n  swap2\n  swap1\n  pop\n  jump\t// out\n    /* \"#utility.yul\":3872:4013   */\ntag_25:\n    /* \"#utility.yul\":3921:3925   */\n  0x00\n    /* \"#utility.yul\":3944:3947   */\n  dup2\n    /* \"#utility.yul\":3936:3947   */\n  swap1\n  pop\n    /* \"#utility.yul\":3967:3970   */\n  dup2\n    /* \"#utility.yul\":3964:3965   */\n  0x00\n    /* \"#utility.yul\":3957:3971   */\n  mstore\n    /* \"#utility.yul\":4001:4005   */\n  0x20\n    /* \"#utility.yul\":3998:3999   */\n  0x00\n    /* \"#utility.yul\":3988:4006   */\n  keccak256\n    /* \"#utility.yul\":3980:4006   */\n  swap1\n  pop\n    /* \"#utility.yul\":3872:4013   */\n  swap2\n  swap1\n  pop\n  jump\t// out\n    /* \"#utility.yul\":4019:4112   */\ntag_26:\n    /* \"#utility.yul\":4056:4062   */\n  0x00\n    /* \"#utility.yul\":4103:4105   */\n  0x20\n    /* \"#utility.yul\":4098:4100   */\n  0x1f\n    /* \"#utility.yul\":4091:4096   */\n  dup4\n    /* \"#utility.yul\":4087:4101   */\n  add\n    /* \"#utility.yul\":4083:4106   */\n  div\n    /* \"#utility.yul\":4073:4106   */\n  swap1\n  pop\n    /* \"#utility.yul\":4019:4112   */\n  swap2\n  swap1\n  pop\n  jump\t// out\n    /* \"#utility.yul\":4118:4225   */\ntag_27:\n    /* \"#utility.yul\":4162:4170   */\n  0x00\n    /* \"#utility.yul\":4212:4217   */\n  dup3\n    /* \"#utility.yul\":4206:4210   */\n  dup3\n    /* \"#utility.yul\":4202:4218   */\n  shl\n    /* \"#utility.yul\":4181:4218   */\n  swap1\n  pop\n    /* \"#utility.yul\":4118:4225   */\n  swap3\n  swap2\n  pop\n  pop\n  jump\t// out\n    /* \"#utility.yul\":4231:4624   */\ntag_28:\n    /* \"#utility.yul\":4300:4306   */\n  0x00\n    /* \"#utility.yul\":4350:4351   */\n  0x08\n    /* \"#utility.yul\":4338:4348   */\n  dup4\n    /* \"#utility.yul\":4334:4352   */\n  mul\n    /* \"#utility.yul\":4373:4470   */\n  tag_91\n    /* \"#utility.yul\":4403:4469   */\n  0xffffffffffffffffffffffffffffffffffffffffffffffffffffffffffffffff\n    /* \"#utility.yul\":4392:4401   */\n  dup3\n    /* \"#utility.yul\":4373:4470   */\n  tag_27\n  jump\t// in\ntag_91:\n    /* \"#utility.yul\":4491:4530   */\n  tag_92\n    /* \"#utility.yul\":4521:4529   */\n  dup7\n    /* \"#utility.yul\":4510:4519   */\n  dup4\n    /* \"#utility.yul\":4491:4530   */\n  tag_27\n  jump\t// in\ntag_92:\n    /* \"#utility.yul\":4479:4530   */\n  swap6\n  pop\n    /* \"#utility.yul\":4563:4567   */\n  dup1\n    /* \"#utility.yul\":4559:4568   */\n  not\n    /* \"#utility.yul\":4552:4557   */\n  dup5\n    /* \"#utility.yul\":4548:4569   */\n  and\n    /* \"#utility.yul\":4539:4569   */\n  swap4\n  pop\n    /* \"#utility.yul\":4612:4616   */\n  dup1\n    /* \"#utility.yul\":4602:4610   */\n  dup7\n    /* \"#utility.yul\":4598:4617   */\n  and\n    /* \"#utility.yul\":4591:4596   */\n  dup5\n    /* \"#utility.yul\":4588:4618   */\n  or\n    /* \"#utility.yul\":4578:4618   */\n  swap3\n  pop\n    /* \"#utility.yul\":4307:4624   */\n  pop\n  pop\n    /* \"#utility.yul\":4231:4624   */\n  swap4\n  swap3\n  pop\n  pop\n  pop\n  jump\t// out\n    /* \"#utility.yul\":4630:4707   */\ntag_29:\n    /* \"#utility.yul\":4667:4674   */\n  0x00\n    /* \"#utility.yul\":4696:4701   */\n  dup2\n    /* \"#utility.yul\":4685:4701   */\n  swap1\n  pop\n    /* \"#utility.yul\":4630:4707   */\n  swap2\n  swap1\n  pop\n  jump\t// out\n    /* \"#utility.yul\":4713:4773   */\ntag_30:\n    /* \"#utility.yul\":4741:4744   */\n  0x00\n    /* \"#utility.yul\":4762:4767   */\n  dup2\n    /* \"#utility.yul\":4755:4767   */\n  swap1\n  pop\n    /* \"#utility.yul\":4713:4773   */\n  swap2\n  swap1\n  pop\n  jump\t// out\n    /* \"#utility.yul\":4779:4921   */\ntag_31:\n    /* \"#utility.yul\":4829:4838   */\n  0x00\n    /* \"#utility.yul\":4862:4915   */\n  tag_96\n    /* \"#utility.yul\":4880:4914   */\n  tag_97\n    /* \"#utility.yul\":4889:4913   */\n  tag_98\n    /* \"#utility.yul\":4907:4912   */\n  dup5\n    /* \"#utility.yul\":4889:4913   */\n  tag_29\n  jump\t// in\ntag_98:\n    /* \"#utility.yul\":4880:4914   */\n  tag_30\n  jump\t// in\ntag_97:\n    /* \"#utility.yul\":4862:4915   */\n  tag_29\n  jump\t// in\ntag_96:\n    /* \"#utility.yul\":4849:4915   */\n  swap1\n  pop\n    /* \"#utility.yul\":4779:4921   */\n  swap2\n  swap1\n  pop\n  jump\t// out\n    /* \"#utility.yul\":4927:5002   */\ntag_32:\n    /* \"#utility.yul\":4970:4973   */\n  0x00\n    /* \"#utility.yul\":4991:4996   */\n  dup2\n    /* \"#utility.yul\":4984:4996   */\n  swap1\n  pop\n    /* \"#utility.yul\":4927:5002   */\n  swap2\n  swap1\n  pop\n  jump\t// out\n    /* \"#utility.yul\":5008:5277   */\ntag_33:\n    /* \"#utility.yul\":5118:5157   */\n  tag_101\n    /* \"#utility.yul\":5149:5156   */\n  dup4\n    /* \"#utility.yul\":5118:5157   */\n  tag_31\n  jump\t// in\ntag_101:\n    /* \"#utility.yul\":5179:5270   */\n  tag_102\n    /* \"#utility.yul\":5228:5269   */\n  tag_103\n    /* \"#utility.yul\":5252:5268   */\n  dup3\n    /* \"#utility.yul\":5228:5269   */\n  tag_32\n  jump\t// in\ntag_103:\n    /* \"#utility.yul\":5220:5226   */\n  dup5\n    /* \"#utility.yul\":5213:5217   */\n  dup5\n    /* \"#utility.yul\":5207:5218   */\n  sload\n    /* \"#utility.yul\":5179:5270   */\n  tag_28\n  jump\t// in\ntag_102:\n    /* \"#utility.yul\":5173:5177   */\n  dup3\n    /* \"#utility.yul\":5166:5271   */\n  sstore\n    /* \"#utility.yul\":5084:5277   */\n  pop\n    /* \"#utility.yul\":5008:5277   */\n  pop\n  pop\n  pop\n  jump\t// out\n    /* \"#utility.yul\":5283:5356   */\ntag_34:\n    /* \"#utility.yul\":5328:5331   */\n  0x00\n    /* \"#utility.yul\":5283:5356   */\n  swap1\n  jump\t// out\n    /* \"#utility.yul\":5362:5551   */\ntag_35:\n    /* \"#utility.yul\":5439:5471   */\n  tag_106\n  tag_34\n  jump\t// in\ntag_106:\n    /* \"#utility.yul\":5480:5545   */\n  tag_107\n    /* \"#utility.yul\":5538:5544   */\n  dup2\n    /* \"#utility.yul\":5530:5536   */\n  dup5\n    /* \"#utility.yul\":5524:5528   */\n  dup5\n    /* \"#utility.yul\":5480:5545   */\n  tag_33\n  jump\t// in\ntag_107:\n    /* \"#utility.yul\":5415:5551   */\n  pop\n    /* \"#utility.yul\":5362:5551   */\n  pop\n  pop\n  jump\t// out\n    /* \"#utility.yul\":5557:5743   */\ntag_36:\n    /* \"#utility.yul\":5617:5737   */\ntag_109:\n    /* \"#utility.yul\":5634:5637   */\n  dup2\n    /* \"#utility.yul\":5627:5632   */\n  dup2\n    /* \"#utility.yul\":5624:5638   */\n  lt\n    /* \"#utility.yul\":5617:5737   */\n  iszero\n  tag_111\n  jumpi\n    /* \"#utility.yul\":5688:5727   */\n  tag_112\n    /* \"#utility.yul\":5725:5726   */\n  0x00\n    /* \"#utility.yul\":5718:5723   */\n  dup3\n    /* \"#utility.yul\":5688:5727   */\n  tag_35\n  jump\t// in\ntag_112:\n    /* \"#utility.yul\":5661:5662   */\n  0x01\n    /* \"#utility.yul\":5654:5659   */\n  dup2\n    /* \"#utility.yul\":5650:5663   */\n  add\n    /* \"#utility.yul\":5641:5663   */\n  swap1\n  pop\n    /* \"#utility.yul\":5617:5737   */\n  jump(tag_109)\ntag_111:\n    /* \"#utility.yul\":5557:5743   */\n  pop\n  pop\n  jump\t// out\n    /* \"#utility.yul\":5749:6292   */\ntag_37:\n    /* \"#utility.yul\":5850:5852   */\n  0x1f\n    /* \"#utility.yul\":5845:5848   */\n  dup3\n    /* \"#utility.yul\":5842:5853   */\n  gt\n    /* \"#utility.yul\":5839:6285   */\n  iszero\n  tag_114\n  jumpi\n    /* \"#utility.yul\":5884:5922   */\n  tag_115\n    /* \"#utility.yul\":5916:5921   */\n  dup2\n    /* \"#utility.yul\":5884:5922   */\n  tag_25\n  jump\t// in\ntag_115:\n    /* \"#utility.yul\":5968:5997   */\n  tag_116\n    /* \"#utility.yul\":5986:5996   */\n  dup5\n    /* \"#utility.yul\":5968:5997   */\n  tag_26\n  jump\t// in\ntag_116:\n    /* \"#utility.yul\":5958:5966   */\n  dup2\n    /* \"#utility.yul\":5954:5998   */\n  add\n    /* \"#utility.yul\":6151:6153   */\n  0x20\n    /* \"#utility.yul\":6139:6149   */\n  dup6\n    /* \"#utility.yul\":6136:6154   */\n  lt\n    /* \"#utility.yul\":6133:6182   */\n  iszero\n  tag_117\n  jumpi\n    /* \"#utility.yul\":6172:6180   */\n  dup2\n    /* \"#utility.yul\":6157:6180   */\n  swap1\n  pop\n    /* \"#utility.yul\":6133:6182   */\ntag_117:\n    /* \"#utility.yul\":6195:6275   */\n  tag_118\n    /* \"#utility.yul\":6251:6273   */\n  tag_119\n    /* \"#utility.yul\":6269:6272   */\n  dup6\n    /* \"#utility.yul\":6251:6273   */\n  tag_26\n  jump\t// in\ntag_119:\n    /* \"#utility.yul\":6241:6249   */\n  dup4\n    /* \"#utility.yul\":6237:6274   */\n  add\n    /* \"#utility.yul\":6224:6235   */\n  dup3\n    /* \"#utility.yul\":6195:6275   */\n  tag_36\n  jump\t// in\ntag_118:\n    /* \"#utility.yul\":5854:6285   */\n  pop\n  pop\n    /* \"#utility.yul\":5839:6285   */\ntag_114:\n    /* \"#utility.yul\":5749:6292   */\n  pop\n  pop\n  pop\n  jump\t// out\n    /* \"#utility.yul\":6298:6415   */\ntag_38:\n    /* \"#utility.yul\":6352:6360   */\n  0x00\n    /* \"#utility.yul\":6402:6407   */\n  dup3\n    /* \"#utility.yul\":6396:6400   */\n  dup3\n    /* \"#utility.yul\":6392:6408   */\n  shr\n    /* \"#utility.yul\":6371:6408   */\n  swap1\n  pop\n    /* \"#utility.yul\":6298:6415   */\n  swap3\n  swap2\n  pop\n  pop\n  jump\t// out\n    /* \"#utility.yul\":6421:6590   */\ntag_39:\n    /* \"#utility.yul\":6465:6471   */\n  0x00\n    /* \"#utility.yul\":6498:6549   */\n  tag_122\n    /* \"#utility.yul\":6546:6547   */\n  0x00\n    /* \"#utility.yul\":6542:6548   */\n  not\n    /* \"#utility.yul\":6534:6539   */\n  dup5\n    /* \"#utility.yul\":6531:6532   */\n  0x08\n    /* \"#utility.yul\":6527:6540   */\n  mul\n    /* \"#utility.yul\":6498:6549   */\n  tag_38\n  jump\t// in\ntag_122:\n    /* \"#utility.yul\":6494:6550   */\n  not\n    /* \"#utility.yul\":6579:6583   */\n  dup1\n    /* \"#utility.yul\":6573:6577   */\n  dup4\n    /* \"#utility.yul\":6569:6584   */\n  and\n    /* \"#utility.yul\":6559:6584   */\n  swap2\n  pop\n    /* \"#utility.yul\":6472:6590   */\n  pop\n    /* \"#utility.yul\":6421:6590   */\n  swap3\n  swap2\n  pop\n  pop\n  jump\t// out\n    /* \"#utility.yul\":6595:6890   */\ntag_40:\n    /* \"#utility.yul\":6671:6675   */\n  0x00\n    /* \"#utility.yul\":6817:6846   */\n  tag_124\n    /* \"#utility.yul\":6842:6845   */\n  dup4\n    /* \"#utility.yul\":6836:6840   */\n  dup4\n    /* \"#utility.yul\":6817:6846   */\n  tag_39\n  jump\t// in\ntag_124:\n    /* \"#utility.yul\":6809:6846   */\n  swap2\n  pop\n    /* \"#utility.yul\":6879:6882   */\n  dup3\n    /* \"#utility.yul\":6876:6877   */\n  0x02\n    /* \"#utility.yul\":6872:6883   */\n  mul\n    /* \"#utility.yul\":6866:6870   */\n  dup3\n    /* \"#utility.yul\":6863:6884   */\n  or\n    /* \"#utility.yul\":6855:6884   */\n  swap1\n  pop\n    /* \"#utility.yul\":6595:6890   */\n  swap3\n  swap2\n  pop\n  pop\n  jump\t// out\n    /* \"#utility.yul\":6895:8290   */\ntag_7:\n    /* \"#utility.yul\":7012:7049   */\n  tag_126\n    /* \"#utility.yul\":7045:7048   */\n  dup3\n    /* \"#utility.yul\":7012:7049   */\n  tag_22\n  jump\t// in\ntag_126:\n    /* \"#utility.yul\":7114:7132   */\n  0xffffffffffffffff\n    /* \"#utility.yul\":7106:7112   */\n  dup2\n    /* \"#utility.yul\":7103:7133   */\n  gt\n    /* \"#utility.yul\":7100:7156   */\n  iszero\n  tag_127\n  jumpi\n    /* \"#utility.yul\":7136:7154   */\n  tag_128\n  tag_15\n  jump\t// in\ntag_128:\n    /* \"#utility.yul\":7100:7156   */\ntag_127:\n    /* \"#utility.yul\":7180:7218   */\n  tag_129\n    /* \"#utility.yul\":7212:7216   */\n  dup3\n    /* \"#utility.yul\":7206:7217   */\n  sload\n    /* \"#utility.yul\":7180:7218   */\n  tag_24\n  jump\t// in\ntag_129:\n    /* \"#utility.yul\":7265:7332   */\n  tag_130\n    /* \"#utility.yul\":7325:7331   */\n  dup3\n    /* \"#utility.yul\":7317:7323   */\n  dup3\n    /* \"#utility.yul\":7311:7315   */\n  dup6\n    /* \"#utility.yul\":7265:7332   */\n  tag_37\n  jump\t// in\ntag_130:\n    /* \"#utility.yul\":7359:7360   */\n  0x00\n    /* \"#utility.yul\":7383:7387   */\n  0x20\n    /* \"#utility.yul\":7370:7387   */\n  swap1\n  pop\n    /* \"#utility.yul\":7415:7417   */\n  0x1f\n    /* \"#utility.yul\":7407:7413   */\n  dup4\n    /* \"#utility.yul\":7404:7418   */\n  gt\n    /* \"#utility.yul\":7432:7433   */\n  0x01\n    /* \"#utility.yul\":7427:8045   */\n  dup2\n  eq\n  tag_132\n  jumpi\n    /* \"#utility.yul\":8089:8090   */\n  0x00\n    /* \"#utility.yul\":8106:8112   */\n  dup5\n    /* \"#utility.yul\":8103:8180   */\n  iszero\n  tag_133\n  jumpi\n    /* \"#utility.yul\":8155:8164   */\n  dup3\n    /* \"#utility.yul\":8150:8153   */\n  dup8\n    /* \"#utility.yul\":8146:8165   */\n  add\n    /* \"#utility.yul\":8140:8166   */\n  mload\n    /* \"#utility.yul\":8131:8166   */\n  swap1\n  pop\n    /* \"#utility.yul\":8103:8180   */\ntag_133:\n    /* \"#utility.yul\":8206:8273   */\n  tag_134\n    /* \"#utility.yul\":8266:8272   */\n  dup6\n    /* \"#utility.yul\":8259:8264   */\n  dup3\n    /* \"#utility.yul\":8206:8273   */\n  tag_40\n  jump\t// in\ntag_134:\n    /* \"#utility.yul\":8200:8204   */\n  dup7\n    /* \"#utility.yul\":8193:8274   */\n  sstore\n    /* \"#utility.yul\":8062:8284   */\n  pop\n    /* \"#utility.yul\":7397:8284   */\n  jump(tag_131)\n    /* \"#utility.yul\":7427:8045   */\ntag_132:\n    /* \"#utility.yul\":7479:7483   */\n  0x1f\n    /* \"#utility.yul\":7475:7484   */\n  not\n    /* \"#utility.yul\":7467:7473   */\n  dup5\n    /* \"#utility.yul\":7463:7485   */\n  and\n    /* \"#utility.yul\":7513:7550   */\n  tag_135\n    /* \"#utility.yul\":7545:7549   */\n  dup7\n    /* \"#utility.yul\":7513:7550   */\n  tag_25\n  jump\t// in\ntag_135:\n    /* \"#utility.yul\":7572:7573   */\n  0x00\n    /* \"#utility.yul\":7586:7794   */\ntag_136:\n    /* \"#utility.yul\":7600:7607   */\n  dup3\n    /* \"#utility.yul\":7597:7598   */\n  dup2\n    /* \"#utility.yul\":7594:7608   */\n  lt\n    /* \"#utility.yul\":7586:7794   */\n  iszero\n  tag_138\n  jumpi\n    /* \"#utility.yul\":7679:7688   */\n  dup5\n    /* \"#utility.yul\":7674:7677   */\n  dup10\n    /* \"#utility.yul\":7670:7689   */\n  add\n    /* \"#utility.yul\":7664:7690   */\n  mload\n    /* \"#utility.yul\":7656:7662   */\n  dup3\n    /* \"#utility.yul\":7649:7691   */\n  sstore\n    /* \"#utility.yul\":7730:7731   */\n  0x01\n    /* \"#utility.yul\":7722:7728   */\n  dup3\n    /* \"#utility.yul\":7718:7732   */\n  add\n    /* \"#utility.yul\":7708:7732   */\n  swap2\n  pop\n    /* \"#utility.yul\":7777:7779   */\n  0x20\n    /* \"#utility.yul\":7766:7775   */\n  dup6\n    /* \"#utility.yul\":7762:7780   */\n  add\n    /* \"#utility.yul\":7749:7780   */\n  swap5\n  pop\n    /* \"#utility.yul\":7623:7627   */\n  0x20\n    /* \"#utility.yul\":7620:7621   */\n  dup2\n    /* \"#utility.yul\":7616:7628   */\n  add\n    /* \"#utility.yul\":7611:7628   */\n  swap1\n  pop\n    /* \"#utility.yul\":7586:7794   */\n  jump(tag_136)\ntag_138:\n    /* \"#utility.yul\":7822:7828   */\n  dup7\n    /* \"#utility.yul\":7813:7820   */\n  dup4\n    /* \"#utility.yul\":7810:7829   */\n  lt\n    /* \"#utility.yul\":7807:7986   */\n  iszero\n  tag_139\n  jumpi\n    /* \"#utility.yul\":7880:7889   */\n  dup5\n    /* \"#utility.yul\":7875:7878   */\n  dup10\n    /* \"#utility.yul\":7871:7890   */\n  add\n    /* \"#utility.yul\":7865:7891   */\n  mload\n    /* \"#utility.yul\":7923:7971   */\n  tag_140\n    /* \"#utility.yul\":7965:7969   */\n  0x1f\n    /* \"#utility.yul\":7957:7963   */\n  dup10\n    /* \"#utility.yul\":7953:7970   */\n  and\n    /* \"#utility.yul\":7942:7951   */\n  dup3\n    /* \"#utility.yul\":7923:7971   */\n  tag_39\n  jump\t// in\ntag_140:\n    /* \"#utility.yul\":7915:7921   */\n  dup4\n    /* \"#utility.yul\":7908:7972   */\n  sstore\n    /* \"#utility.yul\":7830:7986   */\n  pop\n    /* \"#utility.yul\":7807:7986   */\ntag_139:\n    /* \"#utility.yul\":8032:8033   */\n  0x01\n    /* \"#utility.yul\":8028:8029   */\n  0x02\n    /* \"#utility.yul\":8020:8026   */\n  dup9\n    /* \"#utility.yul\":8016:8030   */\n  mul\n    /* \"#utility.yul\":8012:8034   */\n  add\n    /* \"#utility.yul\":8006:8010   */\n  dup9\n    /* \"#utility.yul\":7999:8035   */\n  sstore\n    /* \"#utility.yul\":7434:8045   */\n  pop\n  pop\n  pop\n    /* \"#utility.yul\":7397:8284   */\ntag_131:\n  pop\n    /* \"#utility.yul\":6987:8290   */\n  pop\n  pop\n  pop\n    /* \"#utility.yul\":6895:8290   */\n  pop\n  pop\n  jump\t// out\n    /* \"contracts/promissory.sol\":57:5175  contract Promissory {... */\ntag_8:\n  dataSize(sub_0)\n  dup1\n  dataOffset(sub_0)\n  0x00\n  codecopy\n  0x00\n  return\nstop\n\nsub_0: assembly {\n        /* \"contracts/promissory.sol\":57:5175  contract Promissory {... */\n      mstore(0x40, 0x80)\n      jumpi(tag_1, lt(calldatasize, 0x04))\n      shr(0xe0, calldataload(0x00))\n      dup1\n      0xad6069e0\n      gt\n      tag_13\n      jumpi\n      dup1\n      0xad6069e0\n      eq\n      tag_8\n      jumpi\n      dup1\n      0xb8a6d870\n      eq\n      tag_9\n      jumpi\n      dup1\n      0xc0933340\n      eq\n      tag_10\n      jumpi\n      dup1\n      0xcf804c84\n      eq\n      tag_11\n      jumpi\n      dup1\n      0xefe270ba\n      eq\n      tag_12\n      jumpi\n      jump(tag_2)\n    tag_13:\n      dup1\n      0x3ea8a717\n      eq\n      tag_3\n      jumpi\n      dup1\n      0x70a57fd3\n      eq\n      tag_4\n      jumpi\n      dup1\n      0x72f924ae\n      eq\n      tag_5\n      jumpi\n      dup1\n      0x76cdb03b\n      eq\n      tag_6\n      jumpi\n      dup1\n      0x9fcb8099\n      eq\n      tag_7\n      jumpi\n      jump(tag_2)\n    tag_1:\n      jumpi(tag_2, calldatasize)\n      stop\n    tag_2:\n      0x00\n      dup1\n      revert\n        /* \"contracts/promissory.sol\":164:195  uint256 public dateOfAcceptance */\n    tag_3:\n      callvalue\n      dup1\n      iszero\n      tag_16\n      jumpi\n      0x00\n      dup1\n      revert\n    tag_16:\n      pop\n      tag_17\n      tag_18\n      jump\t// in\n    tag_17:\n      mload(0x40)\n      tag_19\n      swap2\n      swap1\n      tag_20\n      jump\t// in\n    tag_19:\n      mload(0x40)\n      dup1\n      swap2\n      sub\n      swap1\n      return\n        /* \"contracts/promissory.sol\":3452:3730  function payPromissory() public payable onlyDebtor needConsent { ... */\n    tag_4:\n      tag_21\n      tag_22\n      jump\t// in\n    tag_21:\n      stop\n        /* \"contracts/promissory.sol\":3980:4238  function setPaymentAccepted() public onlyHolder promissoryWasPaid {... */\n    tag_5:\n      callvalue\n      dup1\n      iszero\n      tag_23\n      jumpi\n      0x00\n      dup1\n      revert\n    tag_23:\n      pop\n      tag_24\n      tag_25\n      jump\t// in\n    tag_24:\n      stop\n        /* \"contracts/promissory.sol\":201:220  uint256 public bank */\n    tag_6:\n      callvalue\n      dup1\n      iszero\n      tag_26\n      jumpi\n      0x00\n      dup1\n      revert\n    tag_26:\n      pop\n      tag_27\n      tag_28\n      jump\t// in\n    tag_27:\n      mload(0x40)\n      tag_29\n      swap2\n      swap1\n      tag_20\n      jump\t// in\n    tag_29:\n      mload(0x40)\n      dup1\n      swap2\n      sub\n      swap1\n      return\n        /* \"contracts/promissory.sol\":2990:3239  function setHolderConsent() public onlyHolder {... */\n    tag_7:\n      callvalue\n      dup1\n      iszero\n      tag_30\n      jumpi\n      0x00\n      dup1\n      revert\n    tag_30:\n      pop\n      tag_31\n      tag_32\n      jump\t// in\n    tag_31:\n      stop\n        /* \"contracts/promissory.sol\":123:158  bool public paymentAccepted = false */\n    tag_8:\n      callvalue\n      dup1\n      iszero\n      tag_33\n      jumpi\n      0x00\n      dup1\n      revert\n    tag_33:\n      pop\n      tag_34\n      tag_35\n      jump\t// in\n    tag_34:\n      mload(0x40)\n      tag_36\n      swap2\n      swap1\n      tag_37\n      jump\t// in\n    tag_36:\n      mload(0x40)\n      dup1\n      swap2\n      sub\n      swap1\n      return\n        /* \"contracts/promissory.sol\":1839:2584  function setPromissoryInfo(... */\n    tag_9:\n      callvalue\n      dup1\n      iszero\n      tag_38\n      jumpi\n      0x00\n      dup1\n      revert\n    tag_38:\n      pop\n      tag_39\n      0x04\n      dup1\n      calldatasize\n      sub\n      dup2\n      add\n      swap1\n      tag_40\n      swap2\n      swap1\n      tag_41\n      jump\t// in\n    tag_40:\n      tag_42\n      jump\t// in\n    tag_39:\n      stop\n        /* \"contracts/promissory.sol\":83:117  bool public promissoryPaid = false */\n    tag_10:\n      callvalue\n      dup1\n      iszero\n      tag_43\n      jumpi\n      0x00\n      dup1\n      revert\n    tag_43:\n      pop\n      tag_44\n      tag_45\n      jump\t// in\n    tag_44:\n      mload(0x40)\n      tag_46\n      swap2\n      swap1\n      tag_37\n      jump\t// in\n    tag_46:\n      mload(0x40)\n      dup1\n      swap2\n      sub\n      swap1\n      return\n        /* \"contracts/promissory.sol\":4429:4538  function getPromissoryInfo() external view returns (PromissoryInfo memory) {... */\n    tag_11:\n      callvalue\n      dup1\n      iszero\n      tag_47\n      jumpi\n      0x00\n      dup1\n      revert\n    tag_47:\n      pop\n      tag_48\n      tag_49\n      jump\t// in\n    tag_48:\n      mload(0x40)\n      tag_50\n      swap2\n      swap1\n      tag_51\n      jump\t// in\n    tag_50:\n      mload(0x40)\n      dup1\n      swap2\n      sub\n      swap1\n      return\n        /* \"contracts/promissory.sol\":2734:2984  function setDebtorConsent() public onlyDebtor {... */\n    tag_12:\n      callvalue\n      dup1\n      iszero\n      tag_52\n      jumpi\n      0x00\n      dup1\n      revert\n    tag_52:\n      pop\n      tag_53\n      tag_54\n      jump\t// in\n    tag_53:\n      stop\n        /* \"contracts/promissory.sol\":164:195  uint256 public dateOfAcceptance */\n    tag_18:\n      sload(0x01)\n      dup2\n      jump\t// out\n        /* \"contracts/promissory.sol\":3452:3730  function payPromissory() public payable onlyDebtor needConsent { ... */\n    tag_22:\n        /* \"contracts/promissory.sol\":4790:4800  promissory */\n      0x03\n        /* \"contracts/promissory.sol\":4790:4807  promissory.debtor */\n      0x01\n      add\n      0x00\n      swap1\n      sload\n      swap1\n      0x0100\n      exp\n      swap1\n      div\n      0xffffffffffffffffffffffffffffffffffffffff\n      and\n        /* \"contracts/promissory.sol\":4776:4807  msg.sender == promissory.debtor */\n      0xffffffffffffffffffffffffffffffffffffffff\n      and\n        /* \"contracts/promissory.sol\":4776:4786  msg.sender */\n      caller\n        /* \"contracts/promissory.sol\":4776:4807  msg.sender == promissory.debtor */\n      0xffffffffffffffffffffffffffffffffffffffff\n      and\n      eq\n        /* \"contracts/promissory.sol\":4768:4837  require(msg.sender == promissory.debtor, \"Only the Debtor can this!\") */\n      tag_56\n      jumpi\n      mload(0x40)\n      0x08c379a000000000000000000000000000000000000000000000000000000000\n      dup2\n      mstore\n      0x04\n      add\n      tag_57\n      swap1\n      tag_58\n      jump\t// in\n    tag_57:\n      mload(0x40)\n      dup1\n      swap2\n      sub\n      swap1\n      revert\n    tag_56:\n        /* \"contracts/promissory.sol\":4933:4937  true */\n      0x01\n        /* \"contracts/promissory.sol\":4905:4937  promissory.debtorConsent == true */\n      iszero\n      iszero\n        /* \"contracts/promissory.sol\":4905:4915  promissory */\n      0x03\n        /* \"contracts/promissory.sol\":4905:4929  promissory.debtorConsent */\n      0x0a\n      add\n      0x01\n      swap1\n      sload\n      swap1\n      0x0100\n      exp\n      swap1\n      div\n      0xff\n      and\n        /* \"contracts/promissory.sol\":4905:4937  promissory.debtorConsent == true */\n      iszero\n      iszero\n      eq\n        /* \"contracts/promissory.sol\":4905:4973  promissory.debtorConsent == true && promissory.holderConsent == true */\n      dup1\n      iszero\n      tag_60\n      jumpi\n      pop\n        /* \"contracts/promissory.sol\":4969:4973  true */\n      0x01\n        /* \"contracts/promissory.sol\":4941:4973  promissory.holderConsent == true */\n      iszero\n      iszero\n        /* \"contracts/promissory.sol\":4941:4951  promissory */\n      0x03\n        /* \"contracts/promissory.sol\":4941:4965  promissory.holderConsent */\n      0x0a\n      add\n      0x00\n      swap1\n      sload\n      swap1\n      0x0100\n      exp\n      swap1\n      div\n      0xff\n      and\n        /* \"contracts/promissory.sol\":4941:4973  promissory.holderConsent == true */\n      iszero\n      iszero\n      eq\n        /* \"contracts/promissory.sol\":4905:4973  promissory.debtorConsent == true && promissory.holderConsent == true */\n    tag_60:\n        /* \"contracts/promissory.sol\":4897:5011  require(promissory.debtorConsent == true && promissory.holderConsent == true, \"Need conset for Holder and Debtor\") */\n      tag_61\n      jumpi\n      mload(0x40)\n      0x08c379a000000000000000000000000000000000000000000000000000000000\n      dup2\n      mstore\n      0x04\n      add\n      tag_62\n      swap1\n      tag_63\n      jump\t// in\n    tag_62:\n      mload(0x40)\n      dup1\n      swap2\n      sub\n      swap1\n      revert\n    tag_61:\n        /* \"contracts/promissory.sol\":3526:3548  address payable debtor */\n      0x00\n        /* \"contracts/promissory.sol\":3559:3569  promissory */\n      0x03\n        /* \"contracts/promissory.sol\":3559:3576  promissory.debtor */\n      0x01\n      add\n      0x00\n      swap1\n      sload\n      swap1\n      0x0100\n      exp\n      swap1\n      div\n      0xffffffffffffffffffffffffffffffffffffffff\n      and\n        /* \"contracts/promissory.sol\":3526:3577  address payable debtor = payable(promissory.debtor) */\n      swap1\n      pop\n        /* \"contracts/promissory.sol\":3588:3600  bool success */\n      0x00\n        /* \"contracts/promissory.sol\":3606:3612  debtor */\n      dup2\n        /* \"contracts/promissory.sol\":3606:3617  debtor.call */\n      0xffffffffffffffffffffffffffffffffffffffff\n      and\n        /* \"contracts/promissory.sol\":3625:3635  promissory */\n      0x03\n        /* \"contracts/promissory.sol\":3625:3652  promissory.promissoryAmount */\n      0x05\n      add\n      sload\n        /* \"contracts/promissory.sol\":3606:3657  debtor.call{value: promissory.promissoryAmount}(\"\") */\n      mload(0x40)\n      tag_65\n      swap1\n      tag_66\n      jump\t// in\n    tag_65:\n      0x00\n      mload(0x40)\n      dup1\n      dup4\n      sub\n      dup2\n      dup6\n      dup8\n      gas\n      call\n      swap3\n      pop\n      pop\n      pop\n      returndatasize\n      dup1\n      0x00\n      dup2\n      eq\n      tag_69\n      jumpi\n      mload(0x40)\n      swap2\n      pop\n      and(add(returndatasize, 0x3f), not(0x1f))\n      dup3\n      add\n      0x40\n      mstore\n      returndatasize\n      dup3\n      mstore\n      returndatasize\n      0x00\n      0x20\n      dup5\n      add\n      returndatacopy\n      jump(tag_68)\n    tag_69:\n      0x60\n      swap2\n      pop\n    tag_68:\n      pop\n        /* \"contracts/promissory.sol\":3587:3657  (bool success, ) = debtor.call{value: promissory.promissoryAmount}(\"\") */\n      pop\n      swap1\n      pop\n        /* \"contracts/promissory.sol\":3675:3682  success */\n      dup1\n        /* \"contracts/promissory.sol\":3667:3683  require(success) */\n      tag_70\n      jumpi\n      0x00\n      dup1\n      revert\n    tag_70:\n        /* \"contracts/promissory.sol\":3719:3723  true */\n      0x01\n        /* \"contracts/promissory.sol\":3702:3716  promissoryPaid */\n      0x00\n      dup1\n        /* \"contracts/promissory.sol\":3702:3723  promissoryPaid = true */\n      0x0100\n      exp\n      dup2\n      sload\n      dup2\n      0xff\n      mul\n      not\n      and\n      swap1\n      dup4\n      iszero\n      iszero\n      mul\n      or\n      swap1\n      sstore\n      pop\n        /* \"contracts/promissory.sol\":3515:3730  { ... */\n      pop\n      pop\n        /* \"contracts/promissory.sol\":3452:3730  function payPromissory() public payable onlyDebtor needConsent { ... */\n      jump\t// out\n        /* \"contracts/promissory.sol\":3980:4238  function setPaymentAccepted() public onlyHolder promissoryWasPaid {... */\n    tag_25:\n        /* \"contracts/promissory.sol\":4665:4675  promissory */\n      0x03\n        /* \"contracts/promissory.sol\":4665:4682  promissory.holder */\n      0x00\n      add\n      0x00\n      swap1\n      sload\n      swap1\n      0x0100\n      exp\n      swap1\n      div\n      0xffffffffffffffffffffffffffffffffffffffff\n      and\n        /* \"contracts/promissory.sol\":4651:4682  msg.sender == promissory.holder */\n      0xffffffffffffffffffffffffffffffffffffffff\n      and\n        /* \"contracts/promissory.sol\":4651:4661  msg.sender */\n      caller\n        /* \"contracts/promissory.sol\":4651:4682  msg.sender == promissory.holder */\n      0xffffffffffffffffffffffffffffffffffffffff\n      and\n      eq\n        /* \"contracts/promissory.sol\":4643:4712  require(msg.sender == promissory.holder, \"Only the Holder can this!\") */\n      tag_72\n      jumpi\n      mload(0x40)\n      0x08c379a000000000000000000000000000000000000000000000000000000000\n      dup2\n      mstore\n      0x04\n      add\n      tag_73\n      swap1\n      tag_74\n      jump\t// in\n    tag_73:\n      mload(0x40)\n      dup1\n      swap2\n      sub\n      swap1\n      revert\n    tag_72:\n        /* \"contracts/promissory.sol\":5100:5104  true */\n      0x01\n        /* \"contracts/promissory.sol\":5082:5104  promissoryPaid == true */\n      iszero\n      iszero\n        /* \"contracts/promissory.sol\":5082:5096  promissoryPaid */\n      0x00\n      dup1\n      sload\n      swap1\n      0x0100\n      exp\n      swap1\n      div\n      0xff\n      and\n        /* \"contracts/promissory.sol\":5082:5104  promissoryPaid == true */\n      iszero\n      iszero\n      eq\n        /* \"contracts/promissory.sol\":5074:5155  require(promissoryPaid == true, \"Payment must be made before withdrawing funds!\") */\n      tag_76\n      jumpi\n      mload(0x40)\n      0x08c379a000000000000000000000000000000000000000000000000000000000\n      dup2\n      mstore\n      0x04\n      add\n      tag_77\n      swap1\n      tag_78\n      jump\t// in\n    tag_77:\n      mload(0x40)\n      dup1\n      swap2\n      sub\n      swap1\n      revert\n    tag_76:\n        /* \"contracts/promissory.sol\":4082:4086  true */\n      0x01\n        /* \"contracts/promissory.sol\":4064:4086  promissoryPaid == true */\n      iszero\n      iszero\n        /* \"contracts/promissory.sol\":4064:4078  promissoryPaid */\n      0x00\n      dup1\n      sload\n      swap1\n      0x0100\n      exp\n      swap1\n      div\n      0xff\n      and\n        /* \"contracts/promissory.sol\":4064:4086  promissoryPaid == true */\n      iszero\n      iszero\n      eq\n        /* \"contracts/promissory.sol\":4056:4125  require(promissoryPaid == true, \"You must pay the amount promissory\") */\n      tag_80\n      jumpi\n      mload(0x40)\n      0x08c379a000000000000000000000000000000000000000000000000000000000\n      dup2\n      mstore\n      0x04\n      add\n      tag_81\n      swap1\n      tag_82\n      jump\t// in\n    tag_81:\n      mload(0x40)\n      dup1\n      swap2\n      sub\n      swap1\n      revert\n    tag_80:\n        /* \"contracts/promissory.sol\":4153:4157  true */\n      0x01\n        /* \"contracts/promissory.sol\":4135:4150  paymentAccepted */\n      0x00\n      0x01\n        /* \"contracts/promissory.sol\":4135:4157  paymentAccepted = true */\n      0x0100\n      exp\n      dup2\n      sload\n      dup2\n      0xff\n      mul\n      not\n      and\n      swap1\n      dup4\n      iszero\n      iszero\n      mul\n      or\n      swap1\n      sstore\n      pop\n        /* \"contracts/promissory.sol\":4192:4207  block.timestamp */\n      timestamp\n        /* \"contracts/promissory.sol\":4167:4177  promissory */\n      0x03\n        /* \"contracts/promissory.sol\":4167:4189  promissory.dateOfClose */\n      0x07\n      add\n        /* \"contracts/promissory.sol\":4167:4207  promissory.dateOfClose = block.timestamp */\n      dup2\n      swap1\n      sstore\n      pop\n        /* \"contracts/promissory.sol\":4217:4231  killContract() */\n      tag_83\n        /* \"contracts/promissory.sol\":4217:4229  killContract */\n      tag_84\n        /* \"contracts/promissory.sol\":4217:4231  killContract() */\n      jump\t// in\n    tag_83:\n        /* \"contracts/promissory.sol\":3980:4238  function setPaymentAccepted() public onlyHolder promissoryWasPaid {... */\n      jump\t// out\n        /* \"contracts/promissory.sol\":201:220  uint256 public bank */\n    tag_28:\n      sload(0x02)\n      dup2\n      jump\t// out\n        /* \"contracts/promissory.sol\":2990:3239  function setHolderConsent() public onlyHolder {... */\n    tag_32:\n        /* \"contracts/promissory.sol\":4665:4675  promissory */\n      0x03\n        /* \"contracts/promissory.sol\":4665:4682  promissory.holder */\n      0x00\n      add\n      0x00\n      swap1\n      sload\n      swap1\n      0x0100\n      exp\n      swap1\n      div\n      0xffffffffffffffffffffffffffffffffffffffff\n      and\n        /* \"contracts/promissory.sol\":4651:4682  msg.sender == promissory.holder */\n      0xffffffffffffffffffffffffffffffffffffffff\n      and\n        /* \"contracts/promissory.sol\":4651:4661  msg.sender */\n      caller\n        /* \"contracts/promissory.sol\":4651:4682  msg.sender == promissory.holder */\n      0xffffffffffffffffffffffffffffffffffffffff\n      and\n      eq\n        /* \"contracts/promissory.sol\":4643:4712  require(msg.sender == promissory.holder, \"Only the Holder can this!\") */\n      tag_86\n      jumpi\n      mload(0x40)\n      0x08c379a000000000000000000000000000000000000000000000000000000000\n      dup2\n      mstore\n      0x04\n      add\n      tag_87\n      swap1\n      tag_74\n      jump\t// in\n    tag_87:\n      mload(0x40)\n      dup1\n      swap2\n      sub\n      swap1\n      revert\n    tag_86:\n        /* \"contracts/promissory.sol\":3073:3077  true */\n      0x01\n        /* \"contracts/promissory.sol\":3046:3056  promissory */\n      0x03\n        /* \"contracts/promissory.sol\":3046:3070  promissory.holderConsent */\n      0x0a\n      add\n      0x00\n        /* \"contracts/promissory.sol\":3046:3077  promissory.holderConsent = true */\n      0x0100\n      exp\n      dup2\n      sload\n      dup2\n      0xff\n      mul\n      not\n      and\n      swap1\n      dup4\n      iszero\n      iszero\n      mul\n      or\n      swap1\n      sstore\n      pop\n        /* \"contracts/promissory.sol\":3120:3135  block.timestamp */\n      timestamp\n        /* \"contracts/promissory.sol\":3087:3097  promissory */\n      0x03\n        /* \"contracts/promissory.sol\":3087:3117  promissory.dateOfHolderConsent */\n      0x08\n      add\n        /* \"contracts/promissory.sol\":3087:3135  promissory.dateOfHolderConsent = block.timestamp */\n      dup2\n      swap1\n      sstore\n      pop\n        /* \"contracts/promissory.sol\":3177:3181  true */\n      0x01\n        /* \"contracts/promissory.sol\":3149:3181  promissory.debtorConsent == true */\n      iszero\n      iszero\n        /* \"contracts/promissory.sol\":3149:3159  promissory */\n      0x03\n        /* \"contracts/promissory.sol\":3149:3173  promissory.debtorConsent */\n      0x0a\n      add\n      0x01\n      swap1\n      sload\n      swap1\n      0x0100\n      exp\n      swap1\n      pop\n      pop\n        /* \"contracts/promissory.sol\":3149:3181  promissory.debtorConsent == true */\n      pop\n        /* \"contracts/promissory.sol\":2990:3239  function setHolderConsent() public onlyHolder {... */\n      jump\t// out\n        /* \"contracts/promissory.sol\":123:158  bool public paymentAccepted = false */\n    tag_35:\n      0x00\n      0x01\n      swap1\n      sload\n      swap1\n      0x0100\n      exp\n      swap1\n      div\n      0xff\n      and\n      dup2\n      jump\t// out\n        /* \"contracts/promissory.sol\":1839:2584  function setPromissoryInfo(... */\n    tag_42:\n        /* \"contracts/promissory.sol\":2114:2124  promissory */\n      0x03\n        /* \"contracts/promissory.sol\":2114:2131  promissory.holder */\n      0x00\n      add\n      0x00\n      swap1\n      sload\n      swap1\n      0x0100\n      exp\n      swap1\n      div\n      0xffffffffffffffffffffffffffffffffffffffff\n      and\n        /* \"contracts/promissory.sol\":2103:2131  _debtor != promissory.holder */\n      0xffffffffffffffffffffffffffffffffffffffff\n      and\n        /* \"contracts/promissory.sol\":2103:2110  _debtor */\n      dup7\n        /* \"contracts/promissory.sol\":2103:2131  _debtor != promissory.holder */\n      0xffffffffffffffffffffffffffffffffffffffff\n      and\n      sub\n        /* \"contracts/promissory.sol\":2095:2179  require(_debtor != promissory.holder, \"Debtor and Holder must be different peoples\") */\n      tag_91\n      jumpi\n      mload(0x40)\n      0x08c379a000000000000000000000000000000000000000000000000000000000\n      dup2\n      mstore\n      0x04\n      add\n      tag_92\n      swap1\n      tag_93\n      jump\t// in\n    tag_92:\n      mload(0x40)\n      dup1\n      swap2\n      sub\n      swap1\n      revert\n    tag_91:\n        /* \"contracts/promissory.sol\":2213:2220  _debtor */\n      dup6\n        /* \"contracts/promissory.sol\":2193:2203  promissory */\n      0x03\n        /* \"contracts/promissory.sol\":2193:2210  promissory.debtor */\n      0x01\n      add\n      0x00\n        /* \"contracts/promissory.sol\":2193:2220  promissory.debtor = _debtor */\n      0x0100\n      exp\n      dup2\n      sload\n      dup2\n      0xffffffffffffffffffffffffffffffffffffffff\n      mul\n      not\n      and\n      swap1\n      dup4\n      0xffffffffffffffffffffffffffffffffffffffff\n      and\n      mul\n      or\n      swap1\n      sstore\n      pop\n        /* \"contracts/promissory.sol\":2258:2269  _debtorName */\n      dup5\n        /* \"contracts/promissory.sol\":2234:2244  promissory */\n      0x03\n        /* \"contracts/promissory.sol\":2234:2255  promissory.debtorName */\n      dup1\n      add\n        /* \"contracts/promissory.sol\":2234:2269  promissory.debtorName = _debtorName */\n      swap1\n      dup2\n      tag_94\n      swap2\n      swap1\n      tag_95\n      jump\t// in\n    tag_94:\n      pop\n        /* \"contracts/promissory.sol\":2317:2338  _promissoryCommission */\n      dup4\n        /* \"contracts/promissory.sol\":2283:2293  promissory */\n      0x03\n        /* \"contracts/promissory.sol\":2283:2314  promissory.promissoryCommission */\n      0x04\n      add\n      0x00\n        /* \"contracts/promissory.sol\":2283:2338  promissory.promissoryCommission = _promissoryCommission */\n      0x0100\n      exp\n      dup2\n      sload\n      dup2\n      0xff\n      mul\n      not\n      and\n      swap1\n      dup4\n      0xff\n      and\n      mul\n      or\n      swap1\n      sstore\n      pop\n        /* \"contracts/promissory.sol\":2430:2440  promissory */\n      0x03\n        /* \"contracts/promissory.sol\":2430:2461  promissory.promissoryCommission */\n      0x04\n      add\n      0x00\n      swap1\n      sload\n      swap1\n      0x0100\n      exp\n      swap1\n      div\n      0xff\n      and\n        /* \"contracts/promissory.sol\":2402:2461  (_promissoryAmount / 100) * promissory.promissoryCommission */\n      0xff\n      and\n        /* \"contracts/promissory.sol\":2423:2426  100 */\n      0x64\n        /* \"contracts/promissory.sol\":2403:2420  _promissoryAmount */\n      dup5\n        /* \"contracts/promissory.sol\":2403:2426  _promissoryAmount / 100 */\n      tag_96\n      swap2\n      swap1\n      tag_97\n      jump\t// in\n    tag_96:\n        /* \"contracts/promissory.sol\":2402:2461  (_promissoryAmount / 100) * promissory.promissoryCommission */\n      tag_98\n      swap2\n      swap1\n      tag_99\n      jump\t// in\n    tag_98:\n        /* \"contracts/promissory.sol\":2382:2399  _promissoryAmount */\n      dup4\n        /* \"contracts/promissory.sol\":2382:2461  _promissoryAmount + (_promissoryAmount / 100) * promissory.promissoryCommission */\n      tag_100\n      swap2\n      swap1\n      tag_101\n      jump\t// in\n    tag_100:\n        /* \"contracts/promissory.sol\":2352:2362  promissory */\n      0x03\n        /* \"contracts/promissory.sol\":2352:2379  promissory.promissoryAmount */\n      0x05\n      add\n        /* \"contracts/promissory.sol\":2352:2461  promissory.promissoryAmount = _promissoryAmount + (_promissoryAmount / 100) * promissory.promissoryCommission */\n      dup2\n      swap1\n      sstore\n      pop\n        /* \"contracts/promissory.sol\":2507:2526  _dateOfRegistration */\n      dup2\n        /* \"contracts/promissory.sol\":2475:2485  promissory */\n      0x03\n        /* \"contracts/promissory.sol\":2475:2504  promissory.dateOfRegistration */\n      0x06\n      add\n        /* \"contracts/promissory.sol\":2475:2526  promissory.dateOfRegistration = _dateOfRegistration */\n      dup2\n      swap1\n      sstore\n      pop\n        /* \"contracts/promissory.sol\":2565:2577  _dateOfClose */\n      dup1\n        /* \"contracts/promissory.sol\":2540:2550  promissory */\n      0x03\n        /* \"contracts/promissory.sol\":2540:2562  promissory.dateOfClose */\n      0x07\n      add\n        /* \"contracts/promissory.sol\":2540:2577  promissory.dateOfClose = _dateOfClose */\n      dup2\n      swap1\n      sstore\n      pop\n        /* \"contracts/promissory.sol\":1839:2584  function setPromissoryInfo(... */\n      pop\n      pop\n      pop\n      pop\n      pop\n      pop\n      jump\t// out\n        /* \"contracts/promissory.sol\":83:117  bool public promissoryPaid = false */\n    tag_45:\n      0x00\n      dup1\n      sload\n      swap1\n      0x0100\n      exp\n      swap1\n      div\n      0xff\n      and\n      dup2\n      jump\t// out\n        /* \"contracts/promissory.sol\":4429:4538  function getPromissoryInfo() external view returns (PromissoryInfo memory) {... */\n    tag_49:\n        /* \"contracts/promissory.sol\":4481:4502  PromissoryInfo memory */\n      tag_102\n      tag_103\n      jump\t// in\n    tag_102:\n        /* \"contracts/promissory.sol\":4521:4531  promissory */\n      0x03\n        /* \"contracts/promissory.sol\":4514:4531  return promissory */\n      mload(0x40)\n      dup1\n      0x0180\n      add\n      0x40\n      mstore\n      swap1\n      dup2\n      0x00\n      dup3\n      add\n      0x00\n      swap1\n      sload\n      swap1\n      0x0100\n      exp\n      swap1\n      div\n      0xffffffffffffffffffffffffffffffffffffffff\n      and\n      0xffffffffffffffffffffffffffffffffffffffff\n      and\n      0xffffffffffffffffffffffffffffffffffffffff\n      and\n      dup2\n      mstore\n      0x20\n      add\n      0x01\n      dup3\n      add\n      0x00\n      swap1\n      sload\n      swap1\n      0x0100\n      exp\n      swap1\n      div\n      0xffffffffffffffffffffffffffffffffffffffff\n      and\n      0xffffffffffffffffffffffffffffffffffffffff\n      and\n      0xffffffffffffffffffffffffffffffffffffffff\n      and\n      dup2\n      mstore\n      0x20\n      add\n      0x02\n      dup3\n      add\n      dup1\n      sload\n      tag_105\n      swap1\n      tag_106\n      jump\t// in\n    tag_105:\n      dup1\n      0x1f\n      add\n      0x20\n      dup1\n      swap2\n      div\n      mul\n      0x20\n      add\n      mload(0x40)\n      swap1\n      dup2\n      add\n      0x40\n      mstore\n      dup1\n      swap3\n      swap2\n      swap1\n      dup2\n      dup2\n      mstore\n      0x20\n      add\n      dup3\n      dup1\n      sload\n      tag_107\n      swap1\n      tag_106\n      jump\t// in\n    tag_107:\n      dup1\n      iszero\n      tag_108\n      jumpi\n      dup1\n      0x1f\n      lt\n      tag_109\n      jumpi\n      0x0100\n      dup1\n      dup4\n      sload\n      div\n      mul\n      dup4\n      mstore\n      swap2\n      0x20\n      add\n      swap2\n      jump(tag_108)\n    tag_109:\n      dup3\n      add\n      swap2\n      swap1\n      0x00\n      mstore\n      keccak256(0x00, 0x20)\n      swap1\n    tag_110:\n      dup2\n      sload\n      dup2\n      mstore\n      swap1\n      0x01\n      add\n      swap1\n      0x20\n      add\n      dup1\n      dup4\n      gt\n      tag_110\n      jumpi\n      dup3\n      swap1\n      sub\n      0x1f\n      and\n      dup3\n      add\n      swap2\n    tag_108:\n      pop\n      pop\n      pop\n      pop\n      pop\n      dup2\n      mstore\n      0x20\n      add\n      0x03\n      dup3\n      add\n      dup1\n      sload\n      tag_111\n      swap1\n      tag_106\n      jump\t// in\n    tag_111:\n      dup1\n      0x1f\n      add\n      0x20\n      dup1\n      swap2\n      div\n      mul\n      0x20\n      add\n      mload(0x40)\n      swap1\n      dup2\n      add\n      0x40\n      mstore\n      dup1\n      swap3\n      swap2\n      swap1\n      dup2\n      dup2\n      mstore\n      0x20\n      add\n      dup3\n      dup1\n      sload\n      tag_112\n      swap1\n      tag_106\n      jump\t// in\n    tag_112:\n      dup1\n      iszero\n      tag_113\n      jumpi\n      dup1\n      0x1f\n      lt\n      tag_114\n      jumpi\n      0x0100\n      dup1\n      dup4\n      sload\n      div\n      mul\n      dup4\n      mstore\n      swap2\n      0x20\n      add\n      swap2\n      jump(tag_113)\n    tag_114:\n      dup3\n      add\n      swap2\n      swap1\n      0x00\n      mstore\n      keccak256(0x00, 0x20)\n      swap1\n    tag_115:\n      dup2\n      sload\n      dup2\n      mstore\n      swap1\n      0x01\n      add\n      swap1\n      0x20\n      add\n      dup1\n      dup4\n      gt\n      tag_115\n      jumpi\n      dup3\n      swap1\n      sub\n      0x1f\n      and\n      dup3\n      add\n      swap2\n    tag_113:\n      pop\n      pop\n      pop\n      pop\n      pop\n      dup2\n      mstore\n      0x20\n      add\n      0x04\n      dup3\n      add\n      0x00\n      swap1\n      sload\n      swap1\n      0x0100\n      exp\n      swap1\n      div\n      0xff\n      and\n      0xff\n      and\n      0xff\n      and\n      dup2\n      mstore\n      0x20\n      add\n      0x05\n      dup3\n      add\n      sload\n      dup2\n      mstore\n      0x20\n      add\n      0x06\n      dup3\n      add\n      sload\n      dup2\n      mstore\n      0x20\n      add\n      0x07\n      dup3\n      add\n      sload\n      dup2\n      mstore\n      0x20\n      add\n      0x08\n      dup3\n      add\n      sload\n      dup2\n      mstore\n      0x20\n      add\n      0x09\n      dup3\n      add\n      sload\n      dup2\n      mstore\n      0x20\n      add\n      0x0a\n      dup3\n      add\n      0x00\n      swap1\n      sload\n      swap1\n      0x0100\n      exp\n      swap1\n      div\n      0xff\n      and\n      iszero\n      iszero\n      iszero\n      iszero\n      dup2\n      mstore\n      0x20\n      add\n      0x0a\n      dup3\n      add\n      0x01\n      swap1\n      sload\n      swap1\n      0x0100\n      exp\n      swap1\n      div\n      0xff\n      and\n      iszero\n      iszero\n      iszero\n      iszero\n      dup2\n      mstore\n      pop\n      pop\n      swap1\n      pop\n        /* \"contracts/promissory.sol\":4429:4538  function getPromissoryInfo() external view returns (PromissoryInfo memory) {... */\n      swap1\n      jump\t// out\n        /* \"contracts/promissory.sol\":2734:2984  function setDebtorConsent() public onlyDebtor {... */\n    tag_54:\n        /* \"contracts/promissory.sol\":4790:4800  promissory */\n      0x03\n        /* \"contracts/promissory.sol\":4790:4807  promissory.debtor */\n      0x01\n      add\n      0x00\n      swap1\n      sload\n      swap1\n      0x0100\n      exp\n      swap1\n      div\n      0xffffffffffffffffffffffffffffffffffffffff\n      and\n        /* \"contracts/promissory.sol\":4776:4807  msg.sender == promissory.debtor */\n      0xffffffffffffffffffffffffffffffffffffffff\n      and\n        /* \"contracts/promissory.sol\":4776:4786  msg.sender */\n      caller\n        /* \"contracts/promissory.sol\":4776:4807  msg.sender == promissory.debtor */\n      0xffffffffffffffffffffffffffffffffffffffff\n      and\n      eq\n        /* \"contracts/promissory.sol\":4768:4837  require(msg.sender == promissory.debtor, \"Only the Debtor can this!\") */\n      tag_117\n      jumpi\n      mload(0x40)\n      0x08c379a000000000000000000000000000000000000000000000000000000000\n      dup2\n      mstore\n      0x04\n      add\n      tag_118\n      swap1\n      tag_58\n      jump\t// in\n    tag_118:\n      mload(0x40)\n      dup1\n      swap2\n      sub\n      swap1\n      revert\n    tag_117:\n        /* \"contracts/promissory.sol\":2817:2821  true */\n      0x01\n        /* \"contracts/promissory.sol\":2790:2800  promissory */\n      0x03\n        /* \"contracts/promissory.sol\":2790:2814  promissory.debtorConsent */\n      0x0a\n      add\n      0x01\n        /* \"contracts/promissory.sol\":2790:2821  promissory.debtorConsent = true */\n      0x0100\n      exp\n      dup2\n      sload\n      dup2\n      0xff\n      mul\n      not\n      and\n      swap1\n      dup4\n      iszero\n      iszero\n      mul\n      or\n      swap1\n      sstore\n      pop\n        /* \"contracts/promissory.sol\":2864:2879  block.timestamp */\n      timestamp\n        /* \"contracts/promissory.sol\":2831:2841  promissory */\n      0x03\n        /* \"contracts/promissory.sol\":2831:2861  promissory.dateOfDebtorConsent */\n      0x09\n      add\n        /* \"contracts/promissory.sol\":2831:2879  promissory.dateOfDebtorConsent = block.timestamp */\n      dup2\n      swap1\n      sstore\n      pop\n        /* \"contracts/promissory.sol\":2921:2925  true */\n      0x01\n        /* \"contracts/promissory.sol\":2893:2925  promissory.holderConsent == true */\n      iszero\n      iszero\n        /* \"contracts/promissory.sol\":2893:2903  promissory */\n      0x03\n        /* \"contracts/promissory.sol\":2893:2917  promissory.holderConsent */\n      0x0a\n      add\n      0x00\n      swap1\n      sload\n      swap1\n      0x0100\n      exp\n      swap1\n      pop\n      pop\n        /* \"contracts/promissory.sol\":2893:2925  promissory.holderConsent == true */\n      pop\n        /* \"contracts/promissory.sol\":2734:2984  function setDebtorConsent() public onlyDebtor {... */\n      jump\t// out\n        /* \"contracts/promissory.sol\":4331:4423  function killContract() internal onlyHolder {... */\n    tag_84:\n        /* \"contracts/promissory.sol\":4665:4675  promissory */\n      0x03\n        /* \"contracts/promissory.sol\":4665:4682  promissory.holder */\n      0x00\n      add\n      0x00\n      swap1\n      sload\n      swap1\n      0x0100\n      exp\n      swap1\n      div\n      0xffffffffffffffffffffffffffffffffffffffff\n      and\n        /* \"contracts/promissory.sol\":4651:4682  msg.sender == promissory.holder */\n      0xffffffffffffffffffffffffffffffffffffffff\n      and\n        /* \"contracts/promissory.sol\":4651:4661  msg.sender */\n      caller\n        /* \"contracts/promissory.sol\":4651:4682  msg.sender == promissory.holder */\n      0xffffffffffffffffffffffffffffffffffffffff\n      and\n      eq\n        /* \"contracts/promissory.sol\":4643:4712  require(msg.sender == promissory.holder, \"Only the Holder can this!\") */\n      tag_122\n      jumpi\n      mload(0x40)\n      0x08c379a000000000000000000000000000000000000000000000000000000000\n      dup2\n      mstore\n      0x04\n      add\n      tag_123\n      swap1\n      tag_74\n      jump\t// in\n    tag_123:\n      mload(0x40)\n      dup1\n      swap2\n      sub\n      swap1\n      revert\n    tag_122:\n        /* \"contracts/promissory.sol\":4398:4408  promissory */\n      0x03\n        /* \"contracts/promissory.sol\":4398:4415  promissory.holder */\n      0x00\n      add\n      0x00\n      swap1\n      sload\n      swap1\n      0x0100\n      exp\n      swap1\n      div\n      0xffffffffffffffffffffffffffffffffffffffff\n      and\n        /* \"contracts/promissory.sol\":4385:4416  selfdestruct(promissory.holder) */\n      0xffffffffffffffffffffffffffffffffffffffff\n      and\n      selfdestruct\n    tag_103:\n      mload(0x40)\n      dup1\n      0x0180\n      add\n      0x40\n      mstore\n      dup1\n      and(0xffffffffffffffffffffffffffffffffffffffff, 0x00)\n      dup2\n      mstore\n      0x20\n      add\n      and(0xffffffffffffffffffffffffffffffffffffffff, 0x00)\n      dup2\n      mstore\n      0x20\n      add\n      0x60\n      dup2\n      mstore\n      0x20\n      add\n      0x60\n      dup2\n      mstore\n      0x20\n      add\n      and(0xff, 0x00)\n      dup2\n      mstore\n      0x20\n      add\n      0x00\n      dup2\n      mstore\n      0x20\n      add\n      0x00\n      dup2\n      mstore\n      0x20\n      add\n      0x00\n      dup2\n      mstore\n      0x20\n      add\n      0x00\n      dup2\n      mstore\n      0x20\n      add\n      0x00\n      dup2\n      mstore\n      0x20\n      add\n      iszero(iszero(0x00))\n      dup2\n      mstore\n      0x20\n      add\n      iszero(iszero(0x00))\n      dup2\n      mstore\n      pop\n      swap1\n      jump\t// out\n        /* \"#utility.yul\":7:84   */\n    tag_125:\n        /* \"#utility.yul\":44:51   */\n      0x00\n        /* \"#utility.yul\":73:78   */\n      dup2\n        /* \"#utility.yul\":62:78   */\n      swap1\n      pop\n        /* \"#utility.yul\":7:84   */\n      swap2\n      swap1\n      pop\n      jump\t// out\n        /* \"#utility.yul\":90:208   */\n    tag_126:\n        /* \"#utility.yul\":177:201   */\n      tag_199\n        /* \"#utility.yul\":195:200   */\n      dup2\n        /* \"#utility.yul\":177:201   */\n      tag_125\n      jump\t// in\n    tag_199:\n        /* \"#utility.yul\":172:175   */\n      dup3\n        /* \"#utility.yul\":165:202   */\n      mstore\n        /* \"#utility.yul\":90:208   */\n      pop\n      pop\n      jump\t// out\n        /* \"#utility.yul\":214:436   */\n    tag_20:\n        /* \"#utility.yul\":307:311   */\n      0x00\n        /* \"#utility.yul\":345:347   */\n      0x20\n        /* \"#utility.yul\":334:343   */\n      dup3\n        /* \"#utility.yul\":330:348   */\n      add\n        /* \"#utility.yul\":322:348   */\n      swap1\n      pop\n        /* \"#utility.yul\":358:429   */\n      tag_201\n        /* \"#utility.yul\":426:427   */\n      0x00\n        /* \"#utility.yul\":415:424   */\n      dup4\n        /* \"#utility.yul\":411:428   */\n      add\n        /* \"#utility.yul\":402:408   */\n      dup5\n        /* \"#utility.yul\":358:429   */\n      tag_126\n      jump\t// in\n    tag_201:\n        /* \"#utility.yul\":214:436   */\n      swap3\n      swap2\n      pop\n      pop\n      jump\t// out\n        /* \"#utility.yul\":442:532   */\n    tag_127:\n        /* \"#utility.yul\":476:483   */\n      0x00\n        /* \"#utility.yul\":519:524   */\n      dup2\n        /* \"#utility.yul\":512:525   */\n      iszero\n        /* \"#utility.yul\":505:526   */\n      iszero\n        /* \"#utility.yul\":494:526   */\n      swap1\n      pop\n        /* \"#utility.yul\":442:532   */\n      swap2\n      swap1\n      pop\n      jump\t// out\n        /* \"#utility.yul\":538:647   */\n    tag_128:\n        /* \"#utility.yul\":619:640   */\n      tag_204\n        /* \"#utility.yul\":634:639   */\n      dup2\n        /* \"#utility.yul\":619:640   */\n      tag_127\n      jump\t// in\n    tag_204:\n        /* \"#utility.yul\":614:617   */\n      dup3\n        /* \"#utility.yul\":607:641   */\n      mstore\n        /* \"#utility.yul\":538:647   */\n      pop\n      pop\n      jump\t// out\n        /* \"#utility.yul\":653:863   */\n    tag_37:\n        /* \"#utility.yul\":740:744   */\n      0x00\n        /* \"#utility.yul\":778:780   */\n      0x20\n        /* \"#utility.yul\":767:776   */\n      dup3\n        /* \"#utility.yul\":763:781   */\n      add\n        /* \"#utility.yul\":755:781   */\n      swap1\n      pop\n        /* \"#utility.yul\":791:856   */\n      tag_206\n        /* \"#utility.yul\":853:854   */\n      0x00\n        /* \"#utility.yul\":842:851   */\n      dup4\n        /* \"#utility.yul\":838:855   */\n      add\n        /* \"#utility.yul\":829:835   */\n      dup5\n        /* \"#utility.yul\":791:856   */\n      tag_128\n      jump\t// in\n    tag_206:\n        /* \"#utility.yul\":653:863   */\n      swap3\n      swap2\n      pop\n      pop\n      jump\t// out\n        /* \"#utility.yul\":869:944   */\n    tag_129:\n        /* \"#utility.yul\":902:908   */\n      0x00\n        /* \"#utility.yul\":935:937   */\n      0x40\n        /* \"#utility.yul\":929:938   */\n      mload\n        /* \"#utility.yul\":919:938   */\n      swap1\n      pop\n        /* \"#utility.yul\":869:944   */\n      swap1\n      jump\t// out\n        /* \"#utility.yul\":950:1067   */\n    tag_130:\n        /* \"#utility.yul\":1059:1060   */\n      0x00\n        /* \"#utility.yul\":1056:1057   */\n      dup1\n        /* \"#utility.yul\":1049:1061   */\n      revert\n        /* \"#utility.yul\":1073:1190   */\n    tag_131:\n        /* \"#utility.yul\":1182:1183   */\n      0x00\n        /* \"#utility.yul\":1179:1180   */\n      dup1\n        /* \"#utility.yul\":1172:1184   */\n      revert\n        /* \"#utility.yul\":1196:1322   */\n    tag_132:\n        /* \"#utility.yul\":1233:1240   */\n      0x00\n        /* \"#utility.yul\":1273:1315   */\n      0xffffffffffffffffffffffffffffffffffffffff\n        /* \"#utility.yul\":1266:1271   */\n      dup3\n        /* \"#utility.yul\":1262:1316   */\n      and\n        /* \"#utility.yul\":1251:1316   */\n      swap1\n      pop\n        /* \"#utility.yul\":1196:1322   */\n      swap2\n      swap1\n      pop\n      jump\t// out\n        /* \"#utility.yul\":1328:1432   */\n    tag_133:\n        /* \"#utility.yul\":1373:1380   */\n      0x00\n        /* \"#utility.yul\":1402:1426   */\n      tag_212\n        /* \"#utility.yul\":1420:1425   */\n      dup3\n        /* \"#utility.yul\":1402:1426   */\n      tag_132\n      jump\t// in\n    tag_212:\n        /* \"#utility.yul\":1391:1426   */\n      swap1\n      pop\n        /* \"#utility.yul\":1328:1432   */\n      swap2\n      swap1\n      pop\n      jump\t// out\n        /* \"#utility.yul\":1438:1576   */\n    tag_134:\n        /* \"#utility.yul\":1519:1551   */\n      tag_214\n        /* \"#utility.yul\":1545:1550   */\n      dup2\n        /* \"#utility.yul\":1519:1551   */\n      tag_133\n      jump\t// in\n    tag_214:\n        /* \"#utility.yul\":1512:1517   */\n      dup2\n        /* \"#utility.yul\":1509:1552   */\n      eq\n        /* \"#utility.yul\":1499:1570   */\n      tag_215\n      jumpi\n        /* \"#utility.yul\":1566:1567   */\n      0x00\n        /* \"#utility.yul\":1563:1564   */\n      dup1\n        /* \"#utility.yul\":1556:1568   */\n      revert\n        /* \"#utility.yul\":1499:1570   */\n    tag_215:\n        /* \"#utility.yul\":1438:1576   */\n      pop\n      jump\t// out\n        /* \"#utility.yul\":1582:1737   */\n    tag_135:\n        /* \"#utility.yul\":1636:1641   */\n      0x00\n        /* \"#utility.yul\":1674:1680   */\n      dup2\n        /* \"#utility.yul\":1661:1681   */\n      calldataload\n        /* \"#utility.yul\":1652:1681   */\n      swap1\n      pop\n        /* \"#utility.yul\":1690:1731   */\n      tag_217\n        /* \"#utility.yul\":1725:1730   */\n      dup2\n        /* \"#utility.yul\":1690:1731   */\n      tag_134\n      jump\t// in\n    tag_217:\n        /* \"#utility.yul\":1582:1737   */\n      swap3\n      swap2\n      pop\n      pop\n      jump\t// out\n        /* \"#utility.yul\":1743:1860   */\n    tag_136:\n        /* \"#utility.yul\":1852:1853   */\n      0x00\n        /* \"#utility.yul\":1849:1850   */\n      dup1\n        /* \"#utility.yul\":1842:1854   */\n      revert\n        /* \"#utility.yul\":1866:1983   */\n    tag_137:\n        /* \"#utility.yul\":1975:1976   */\n      0x00\n        /* \"#utility.yul\":1972:1973   */\n      dup1\n        /* \"#utility.yul\":1965:1977   */\n      revert\n        /* \"#utility.yul\":1989:2091   */\n    tag_138:\n        /* \"#utility.yul\":2030:2036   */\n      0x00\n        /* \"#utility.yul\":2081:2083   */\n      0x1f\n        /* \"#utility.yul\":2077:2084   */\n      not\n        /* \"#utility.yul\":2072:2074   */\n      0x1f\n        /* \"#utility.yul\":2065:2070   */\n      dup4\n        /* \"#utility.yul\":2061:2075   */\n      add\n        /* \"#utility.yul\":2057:2085   */\n      and\n        /* \"#utility.yul\":2047:2085   */\n      swap1\n      pop\n        /* \"#utility.yul\":1989:2091   */\n      swap2\n      swap1\n      pop\n      jump\t// out\n        /* \"#utility.yul\":2097:2277   */\n    tag_139:\n        /* \"#utility.yul\":2145:2222   */\n      0x4e487b7100000000000000000000000000000000000000000000000000000000\n        /* \"#utility.yul\":2142:2143   */\n      0x00\n        /* \"#utility.yul\":2135:2223   */\n      mstore\n        /* \"#utility.yul\":2242:2246   */\n      0x41\n        /* \"#utility.yul\":2239:2240   */\n      0x04\n        /* \"#utility.yul\":2232:2247   */\n      mstore\n        /* \"#utility.yul\":2266:2270   */\n      0x24\n        /* \"#utility.yul\":2263:2264   */\n      0x00\n        /* \"#utility.yul\":2256:2271   */\n      revert\n        /* \"#utility.yul\":2283:2564   */\n    tag_140:\n        /* \"#utility.yul\":2366:2393   */\n      tag_223\n        /* \"#utility.yul\":2388:2392   */\n      dup3\n        /* \"#utility.yul\":2366:2393   */\n      tag_138\n      jump\t// in\n    tag_223:\n        /* \"#utility.yul\":2358:2364   */\n      dup2\n        /* \"#utility.yul\":2354:2394   */\n      add\n        /* \"#utility.yul\":2496:2502   */\n      dup2\n        /* \"#utility.yul\":2484:2494   */\n      dup2\n        /* \"#utility.yul\":2481:2503   */\n      lt\n        /* \"#utility.yul\":2460:2478   */\n      0xffffffffffffffff\n        /* \"#utility.yul\":2448:2458   */\n      dup3\n        /* \"#utility.yul\":2445:2479   */\n      gt\n        /* \"#utility.yul\":2442:2504   */\n      or\n        /* \"#utility.yul\":2439:2527   */\n      iszero\n      tag_224\n      jumpi\n        /* \"#utility.yul\":2507:2525   */\n      tag_225\n      tag_139\n      jump\t// in\n    tag_225:\n        /* \"#utility.yul\":2439:2527   */\n    tag_224:\n        /* \"#utility.yul\":2547:2557   */\n      dup1\n        /* \"#utility.yul\":2543:2545   */\n      0x40\n        /* \"#utility.yul\":2536:2558   */\n      mstore\n        /* \"#utility.yul\":2326:2564   */\n      pop\n        /* \"#utility.yul\":2283:2564   */\n      pop\n      pop\n      jump\t// out\n        /* \"#utility.yul\":2570:2699   */\n    tag_141:\n        /* \"#utility.yul\":2604:2610   */\n      0x00\n        /* \"#utility.yul\":2631:2651   */\n      tag_227\n      tag_129\n      jump\t// in\n    tag_227:\n        /* \"#utility.yul\":2621:2651   */\n      swap1\n      pop\n        /* \"#utility.yul\":2660:2693   */\n      tag_228\n        /* \"#utility.yul\":2688:2692   */\n      dup3\n        /* \"#utility.yul\":2680:2686   */\n      dup3\n        /* \"#utility.yul\":2660:2693   */\n      tag_140\n      jump\t// in\n    tag_228:\n        /* \"#utility.yul\":2570:2699   */\n      swap2\n      swap1\n      pop\n      jump\t// out\n        /* \"#utility.yul\":2705:3013   */\n    tag_142:\n        /* \"#utility.yul\":2767:2771   */\n      0x00\n        /* \"#utility.yul\":2857:2875   */\n      0xffffffffffffffff\n        /* \"#utility.yul\":2849:2855   */\n      dup3\n        /* \"#utility.yul\":2846:2876   */\n      gt\n        /* \"#utility.yul\":2843:2899   */\n      iszero\n      tag_230\n      jumpi\n        /* \"#utility.yul\":2879:2897   */\n      tag_231\n      tag_139\n      jump\t// in\n    tag_231:\n        /* \"#utility.yul\":2843:2899   */\n    tag_230:\n        /* \"#utility.yul\":2917:2946   */\n      tag_232\n        /* \"#utility.yul\":2939:2945   */\n      dup3\n        /* \"#utility.yul\":2917:2946   */\n      tag_138\n      jump\t// in\n    tag_232:\n        /* \"#utility.yul\":2909:2946   */\n      swap1\n      pop\n        /* \"#utility.yul\":3001:3005   */\n      0x20\n        /* \"#utility.yul\":2995:2999   */\n      dup2\n        /* \"#utility.yul\":2991:3006   */\n      add\n        /* \"#utility.yul\":2983:3006   */\n      swap1\n      pop\n        /* \"#utility.yul\":2705:3013   */\n      swap2\n      swap1\n      pop\n      jump\t// out\n        /* \"#utility.yul\":3019:3173   */\n    tag_143:\n        /* \"#utility.yul\":3103:3109   */\n      dup3\n        /* \"#utility.yul\":3098:3101   */\n      dup2\n        /* \"#utility.yul\":3093:3096   */\n      dup4\n        /* \"#utility.yul\":3080:3110   */\n      calldatacopy\n        /* \"#utility.yul\":3165:3166   */\n      0x00\n        /* \"#utility.yul\":3156:3162   */\n      dup4\n        /* \"#utility.yul\":3151:3154   */\n      dup4\n        /* \"#utility.yul\":3147:3163   */\n      add\n        /* \"#utility.yul\":3140:3167   */\n      mstore\n        /* \"#utility.yul\":3019:3173   */\n      pop\n      pop\n      pop\n      jump\t// out\n        /* \"#utility.yul\":3179:3591   */\n    tag_144:\n        /* \"#utility.yul\":3257:3262   */\n      0x00\n        /* \"#utility.yul\":3282:3348   */\n      tag_235\n        /* \"#utility.yul\":3298:3347   */\n      tag_236\n        /* \"#utility.yul\":3340:3346   */\n      dup5\n        /* \"#utility.yul\":3298:3347   */\n      tag_142\n      jump\t// in\n    tag_236:\n        /* \"#utility.yul\":3282:3348   */\n      tag_141\n      jump\t// in\n    tag_235:\n        /* \"#utility.yul\":3273:3348   */\n      swap1\n      pop\n        /* \"#utility.yul\":3371:3377   */\n      dup3\n        /* \"#utility.yul\":3364:3369   */\n      dup2\n        /* \"#utility.yul\":3357:3378   */\n      mstore\n        /* \"#utility.yul\":3409:3413   */\n      0x20\n        /* \"#utility.yul\":3402:3407   */\n      dup2\n        /* \"#utility.yul\":3398:3414   */\n      add\n        /* \"#utility.yul\":3447:3450   */\n      dup5\n        /* \"#utility.yul\":3438:3444   */\n      dup5\n        /* \"#utility.yul\":3433:3436   */\n      dup5\n        /* \"#utility.yul\":3429:3445   */\n      add\n        /* \"#utility.yul\":3426:3451   */\n      gt\n        /* \"#utility.yul\":3423:3535   */\n      iszero\n      tag_237\n      jumpi\n        /* \"#utility.yul\":3454:3533   */\n      tag_238\n      tag_137\n      jump\t// in\n    tag_238:\n        /* \"#utility.yul\":3423:3535   */\n    tag_237:\n        /* \"#utility.yul\":3544:3585   */\n      tag_239\n        /* \"#utility.yul\":3578:3584   */\n      dup5\n        /* \"#utility.yul\":3573:3576   */\n      dup3\n        /* \"#utility.yul\":3568:3571   */\n      dup6\n        /* \"#utility.yul\":3544:3585   */\n      tag_143\n      jump\t// in\n    tag_239:\n        /* \"#utility.yul\":3263:3591   */\n      pop\n        /* \"#utility.yul\":3179:3591   */\n      swap4\n      swap3\n      pop\n      pop\n      pop\n      jump\t// out\n        /* \"#utility.yul\":3611:3951   */\n    tag_145:\n        /* \"#utility.yul\":3667:3672   */\n      0x00\n        /* \"#utility.yul\":3716:3719   */\n      dup3\n        /* \"#utility.yul\":3709:3713   */\n      0x1f\n        /* \"#utility.yul\":3701:3707   */\n      dup4\n        /* \"#utility.yul\":3697:3714   */\n      add\n        /* \"#utility.yul\":3693:3720   */\n      slt\n        /* \"#utility.yul\":3683:3805   */\n      tag_241\n      jumpi\n        /* \"#utility.yul\":3724:3803   */\n      tag_242\n      tag_136\n      jump\t// in\n    tag_242:\n        /* \"#utility.yul\":3683:3805   */\n    tag_241:\n        /* \"#utility.yul\":3841:3847   */\n      dup2\n        /* \"#utility.yul\":3828:3848   */\n      calldataload\n        /* \"#utility.yul\":3866:3945   */\n      tag_243\n        /* \"#utility.yul\":3941:3944   */\n      dup5\n        /* \"#utility.yul\":3933:3939   */\n      dup3\n        /* \"#utility.yul\":3926:3930   */\n      0x20\n        /* \"#utility.yul\":3918:3924   */\n      dup7\n        /* \"#utility.yul\":3914:3931   */\n      add\n        /* \"#utility.yul\":3866:3945   */\n      tag_144\n      jump\t// in\n    tag_243:\n        /* \"#utility.yul\":3857:3945   */\n      swap2\n      pop\n        /* \"#utility.yul\":3673:3951   */\n      pop\n        /* \"#utility.yul\":3611:3951   */\n      swap3\n      swap2\n      pop\n      pop\n      jump\t// out\n        /* \"#utility.yul\":3957:4043   */\n    tag_146:\n        /* \"#utility.yul\":3992:3999   */\n      0x00\n        /* \"#utility.yul\":4032:4036   */\n      0xff\n        /* \"#utility.yul\":4025:4030   */\n      dup3\n        /* \"#utility.yul\":4021:4037   */\n      and\n        /* \"#utility.yul\":4010:4037   */\n      swap1\n      pop\n        /* \"#utility.yul\":3957:4043   */\n      swap2\n      swap1\n      pop\n      jump\t// out\n        /* \"#utility.yul\":4049:4167   */\n    tag_147:\n        /* \"#utility.yul\":4120:4142   */\n      tag_246\n        /* \"#utility.yul\":4136:4141   */\n      dup2\n        /* \"#utility.yul\":4120:4142   */\n      tag_146\n      jump\t// in\n    tag_246:\n        /* \"#utility.yul\":4113:4118   */\n      dup2\n        /* \"#utility.yul\":4110:4143   */\n      eq\n        /* \"#utility.yul\":4100:4161   */\n      tag_247\n      jumpi\n        /* \"#utility.yul\":4157:4158   */\n      0x00\n        /* \"#utility.yul\":4154:4155   */\n      dup1\n        /* \"#utility.yul\":4147:4159   */\n      revert\n        /* \"#utility.yul\":4100:4161   */\n    tag_247:\n        /* \"#utility.yul\":4049:4167   */\n      pop\n      jump\t// out\n        /* \"#utility.yul\":4173:4308   */\n    tag_148:\n        /* \"#utility.yul\":4217:4222   */\n      0x00\n        /* \"#utility.yul\":4255:4261   */\n      dup2\n        /* \"#utility.yul\":4242:4262   */\n      calldataload\n        /* \"#utility.yul\":4233:4262   */\n      swap1\n      pop\n        /* \"#utility.yul\":4271:4302   */\n      tag_249\n        /* \"#utility.yul\":4296:4301   */\n      dup2\n        /* \"#utility.yul\":4271:4302   */\n      tag_147\n      jump\t// in\n    tag_249:\n        /* \"#utility.yul\":4173:4308   */\n      swap3\n      swap2\n      pop\n      pop\n      jump\t// out\n        /* \"#utility.yul\":4314:4436   */\n    tag_149:\n        /* \"#utility.yul\":4387:4411   */\n      tag_251\n        /* \"#utility.yul\":4405:4410   */\n      dup2\n        /* \"#utility.yul\":4387:4411   */\n      tag_125\n      jump\t// in\n    tag_251:\n        /* \"#utility.yul\":4380:4385   */\n      dup2\n        /* \"#utility.yul\":4377:4412   */\n      eq\n        /* \"#utility.yul\":4367:4430   */\n      tag_252\n      jumpi\n        /* \"#utility.yul\":4426:4427   */\n      0x00\n        /* \"#utility.yul\":4423:4424   */\n      dup1\n        /* \"#utility.yul\":4416:4428   */\n      revert\n        /* \"#utility.yul\":4367:4430   */\n    tag_252:\n        /* \"#utility.yul\":4314:4436   */\n      pop\n      jump\t// out\n        /* \"#utility.yul\":4442:4581   */\n    tag_150:\n        /* \"#utility.yul\":4488:4493   */\n      0x00\n        /* \"#utility.yul\":4526:4532   */\n      dup2\n        /* \"#utility.yul\":4513:4533   */\n      calldataload\n        /* \"#utility.yul\":4504:4533   */\n      swap1\n      pop\n        /* \"#utility.yul\":4542:4575   */\n      tag_254\n        /* \"#utility.yul\":4569:4574   */\n      dup2\n        /* \"#utility.yul\":4542:4575   */\n      tag_149\n      jump\t// in\n    tag_254:\n        /* \"#utility.yul\":4442:4581   */\n      swap3\n      swap2\n      pop\n      pop\n      jump\t// out\n        /* \"#utility.yul\":4587:5836   */\n    tag_41:\n        /* \"#utility.yul\":4707:4713   */\n      0x00\n        /* \"#utility.yul\":4715:4721   */\n      dup1\n        /* \"#utility.yul\":4723:4729   */\n      0x00\n        /* \"#utility.yul\":4731:4737   */\n      dup1\n        /* \"#utility.yul\":4739:4745   */\n      0x00\n        /* \"#utility.yul\":4747:4753   */\n      dup1\n        /* \"#utility.yul\":4796:4799   */\n      0xc0\n        /* \"#utility.yul\":4784:4793   */\n      dup8\n        /* \"#utility.yul\":4775:4782   */\n      dup10\n        /* \"#utility.yul\":4771:4794   */\n      sub\n        /* \"#utility.yul\":4767:4800   */\n      slt\n        /* \"#utility.yul\":4764:4884   */\n      iszero\n      tag_256\n      jumpi\n        /* \"#utility.yul\":4803:4882   */\n      tag_257\n      tag_130\n      jump\t// in\n    tag_257:\n        /* \"#utility.yul\":4764:4884   */\n    tag_256:\n        /* \"#utility.yul\":4923:4924   */\n      0x00\n        /* \"#utility.yul\":4948:5009   */\n      tag_258\n        /* \"#utility.yul\":5001:5008   */\n      dup10\n        /* \"#utility.yul\":4992:4998   */\n      dup3\n        /* \"#utility.yul\":4981:4990   */\n      dup11\n        /* \"#utility.yul\":4977:4999   */\n      add\n        /* \"#utility.yul\":4948:5009   */\n      tag_135\n      jump\t// in\n    tag_258:\n        /* \"#utility.yul\":4938:5009   */\n      swap7\n      pop\n        /* \"#utility.yul\":4894:5019   */\n      pop\n        /* \"#utility.yul\":5086:5088   */\n      0x20\n        /* \"#utility.yul\":5075:5084   */\n      dup8\n        /* \"#utility.yul\":5071:5089   */\n      add\n        /* \"#utility.yul\":5058:5090   */\n      calldataload\n        /* \"#utility.yul\":5117:5135   */\n      0xffffffffffffffff\n        /* \"#utility.yul\":5109:5115   */\n      dup2\n        /* \"#utility.yul\":5106:5136   */\n      gt\n        /* \"#utility.yul\":5103:5220   */\n      iszero\n      tag_259\n      jumpi\n        /* \"#utility.yul\":5139:5218   */\n      tag_260\n      tag_131\n      jump\t// in\n    tag_260:\n        /* \"#utility.yul\":5103:5220   */\n    tag_259:\n        /* \"#utility.yul\":5244:5307   */\n      tag_261\n        /* \"#utility.yul\":5299:5306   */\n      dup10\n        /* \"#utility.yul\":5290:5296   */\n      dup3\n        /* \"#utility.yul\":5279:5288   */\n      dup11\n        /* \"#utility.yul\":5275:5297   */\n      add\n        /* \"#utility.yul\":5244:5307   */\n      tag_145\n      jump\t// in\n    tag_261:\n        /* \"#utility.yul\":5234:5307   */\n      swap6\n      pop\n        /* \"#utility.yul\":5029:5317   */\n      pop\n        /* \"#utility.yul\":5356:5358   */\n      0x40\n        /* \"#utility.yul\":5382:5433   */\n      tag_262\n        /* \"#utility.yul\":5425:5432   */\n      dup10\n        /* \"#utility.yul\":5416:5422   */\n      dup3\n        /* \"#utility.yul\":5405:5414   */\n      dup11\n        /* \"#utility.yul\":5401:5423   */\n      add\n        /* \"#utility.yul\":5382:5433   */\n      tag_148\n      jump\t// in\n    tag_262:\n        /* \"#utility.yul\":5372:5433   */\n      swap5\n      pop\n        /* \"#utility.yul\":5327:5443   */\n      pop\n        /* \"#utility.yul\":5482:5484   */\n      0x60\n        /* \"#utility.yul\":5508:5561   */\n      tag_263\n        /* \"#utility.yul\":5553:5560   */\n      dup10\n        /* \"#utility.yul\":5544:5550   */\n      dup3\n        /* \"#utility.yul\":5533:5542   */\n      dup11\n        /* \"#utility.yul\":5529:5551   */\n      add\n        /* \"#utility.yul\":5508:5561   */\n      tag_150\n      jump\t// in\n    tag_263:\n        /* \"#utility.yul\":5498:5561   */\n      swap4\n      pop\n        /* \"#utility.yul\":5453:5571   */\n      pop\n        /* \"#utility.yul\":5610:5613   */\n      0x80\n        /* \"#utility.yul\":5637:5690   */\n      tag_264\n        /* \"#utility.yul\":5682:5689   */\n      dup10\n        /* \"#utility.yul\":5673:5679   */\n      dup3\n        /* \"#utility.yul\":5662:5671   */\n      dup11\n        /* \"#utility.yul\":5658:5680   */\n      add\n        /* \"#utility.yul\":5637:5690   */\n      tag_150\n      jump\t// in\n    tag_264:\n        /* \"#utility.yul\":5627:5690   */\n      swap3\n      pop\n        /* \"#utility.yul\":5581:5700   */\n      pop\n        /* \"#utility.yul\":5739:5742   */\n      0xa0\n        /* \"#utility.yul\":5766:5819   */\n      tag_265\n        /* \"#utility.yul\":5811:5818   */\n      dup10\n        /* \"#utility.yul\":5802:5808   */\n      dup3\n        /* \"#utility.yul\":5791:5800   */\n      dup11\n        /* \"#utility.yul\":5787:5809   */\n      add\n        /* \"#utility.yul\":5766:5819   */\n      tag_150\n      jump\t// in\n    tag_265:\n        /* \"#utility.yul\":5756:5819   */\n      swap2\n      pop\n        /* \"#utility.yul\":5710:5829   */\n      pop\n        /* \"#utility.yul\":4587:5836   */\n      swap3\n      swap6\n      pop\n      swap3\n      swap6\n      pop\n      swap3\n      swap6\n      jump\t// out\n        /* \"#utility.yul\":5842:5974   */\n    tag_151:\n        /* \"#utility.yul\":5935:5967   */\n      tag_267\n        /* \"#utility.yul\":5961:5966   */\n      dup2\n        /* \"#utility.yul\":5935:5967   */\n      tag_133\n      jump\t// in\n    tag_267:\n        /* \"#utility.yul\":5930:5933   */\n      dup3\n        /* \"#utility.yul\":5923:5968   */\n      mstore\n        /* \"#utility.yul\":5842:5974   */\n      pop\n      pop\n      jump\t// out\n        /* \"#utility.yul\":5980:6076   */\n    tag_152:\n        /* \"#utility.yul\":6017:6024   */\n      0x00\n        /* \"#utility.yul\":6046:6070   */\n      tag_269\n        /* \"#utility.yul\":6064:6069   */\n      dup3\n        /* \"#utility.yul\":6046:6070   */\n      tag_132\n      jump\t// in\n    tag_269:\n        /* \"#utility.yul\":6035:6070   */\n      swap1\n      pop\n        /* \"#utility.yul\":5980:6076   */\n      swap2\n      swap1\n      pop\n      jump\t// out\n        /* \"#utility.yul\":6082:6190   */\n    tag_153:\n        /* \"#utility.yul\":6159:6183   */\n      tag_271\n        /* \"#utility.yul\":6177:6182   */\n      dup2\n        /* \"#utility.yul\":6159:6183   */\n      tag_152\n      jump\t// in\n    tag_271:\n        /* \"#utility.yul\":6154:6157   */\n      dup3\n        /* \"#utility.yul\":6147:6184   */\n      mstore\n        /* \"#utility.yul\":6082:6190   */\n      pop\n      pop\n      jump\t// out\n        /* \"#utility.yul\":6196:6295   */\n    tag_154:\n        /* \"#utility.yul\":6248:6254   */\n      0x00\n        /* \"#utility.yul\":6282:6287   */\n      dup2\n        /* \"#utility.yul\":6276:6288   */\n      mload\n        /* \"#utility.yul\":6266:6288   */\n      swap1\n      pop\n        /* \"#utility.yul\":6196:6295   */\n      swap2\n      swap1\n      pop\n      jump\t// out\n        /* \"#utility.yul\":6301:6460   */\n    tag_155:\n        /* \"#utility.yul\":6375:6386   */\n      0x00\n        /* \"#utility.yul\":6409:6415   */\n      dup3\n        /* \"#utility.yul\":6404:6407   */\n      dup3\n        /* \"#utility.yul\":6397:6416   */\n      mstore\n        /* \"#utility.yul\":6449:6453   */\n      0x20\n        /* \"#utility.yul\":6444:6447   */\n      dup3\n        /* \"#utility.yul\":6440:6454   */\n      add\n        /* \"#utility.yul\":6425:6454   */\n      swap1\n      pop\n        /* \"#utility.yul\":6301:6460   */\n      swap3\n      swap2\n      pop\n      pop\n      jump\t// out\n        /* \"#utility.yul\":6466:6773   */\n    tag_156:\n        /* \"#utility.yul\":6534:6535   */\n      0x00\n        /* \"#utility.yul\":6544:6657   */\n    tag_275:\n        /* \"#utility.yul\":6558:6564   */\n      dup4\n        /* \"#utility.yul\":6555:6556   */\n      dup2\n        /* \"#utility.yul\":6552:6565   */\n      lt\n        /* \"#utility.yul\":6544:6657   */\n      iszero\n      tag_277\n      jumpi\n        /* \"#utility.yul\":6643:6644   */\n      dup1\n        /* \"#utility.yul\":6638:6641   */\n      dup3\n        /* \"#utility.yul\":6634:6645   */\n      add\n        /* \"#utility.yul\":6628:6646   */\n      mload\n        /* \"#utility.yul\":6624:6625   */\n      dup2\n        /* \"#utility.yul\":6619:6622   */\n      dup5\n        /* \"#utility.yul\":6615:6626   */\n      add\n        /* \"#utility.yul\":6608:6647   */\n      mstore\n        /* \"#utility.yul\":6580:6582   */\n      0x20\n        /* \"#utility.yul\":6577:6578   */\n      dup2\n        /* \"#utility.yul\":6573:6583   */\n      add\n        /* \"#utility.yul\":6568:6583   */\n      swap1\n      pop\n        /* \"#utility.yul\":6544:6657   */\n      jump(tag_275)\n    tag_277:\n        /* \"#utility.yul\":6675:6681   */\n      dup4\n        /* \"#utility.yul\":6672:6673   */\n      dup2\n        /* \"#utility.yul\":6669:6682   */\n      gt\n        /* \"#utility.yul\":6666:6767   */\n      iszero\n      tag_278\n      jumpi\n        /* \"#utility.yul\":6755:6756   */\n      0x00\n        /* \"#utility.yul\":6746:6752   */\n      dup5\n        /* \"#utility.yul\":6741:6744   */\n      dup5\n        /* \"#utility.yul\":6737:6753   */\n      add\n        /* \"#utility.yul\":6730:6757   */\n      mstore\n        /* \"#utility.yul\":6666:6767   */\n    tag_278:\n        /* \"#utility.yul\":6515:6773   */\n      pop\n        /* \"#utility.yul\":6466:6773   */\n      pop\n      pop\n      pop\n      jump\t// out\n        /* \"#utility.yul\":6779:7123   */\n    tag_157:\n        /* \"#utility.yul\":6857:6860   */\n      0x00\n        /* \"#utility.yul\":6885:6924   */\n      tag_280\n        /* \"#utility.yul\":6918:6923   */\n      dup3\n        /* \"#utility.yul\":6885:6924   */\n      tag_154\n      jump\t// in\n    tag_280:\n        /* \"#utility.yul\":6940:7001   */\n      tag_281\n        /* \"#utility.yul\":6994:7000   */\n      dup2\n        /* \"#utility.yul\":6989:6992   */\n      dup6\n        /* \"#utility.yul\":6940:7001   */\n      tag_155\n      jump\t// in\n    tag_281:\n        /* \"#utility.yul\":6933:7001   */\n      swap4\n      pop\n        /* \"#utility.yul\":7010:7062   */\n      tag_282\n        /* \"#utility.yul\":7055:7061   */\n      dup2\n        /* \"#utility.yul\":7050:7053   */\n      dup6\n        /* \"#utility.yul\":7043:7047   */\n      0x20\n        /* \"#utility.yul\":7036:7041   */\n      dup7\n        /* \"#utility.yul\":7032:7048   */\n      add\n        /* \"#utility.yul\":7010:7062   */\n      tag_156\n      jump\t// in\n    tag_282:\n        /* \"#utility.yul\":7087:7116   */\n      tag_283\n        /* \"#utility.yul\":7109:7115   */\n      dup2\n        /* \"#utility.yul\":7087:7116   */\n      tag_138\n      jump\t// in\n    tag_283:\n        /* \"#utility.yul\":7082:7085   */\n      dup5\n        /* \"#utility.yul\":7078:7117   */\n      add\n        /* \"#utility.yul\":7071:7117   */\n      swap2\n      pop\n        /* \"#utility.yul\":6861:7123   */\n      pop\n        /* \"#utility.yul\":6779:7123   */\n      swap3\n      swap2\n      pop\n      pop\n      jump\t// out\n        /* \"#utility.yul\":7129:7231   */\n    tag_158:\n        /* \"#utility.yul\":7202:7224   */\n      tag_285\n        /* \"#utility.yul\":7218:7223   */\n      dup2\n        /* \"#utility.yul\":7202:7224   */\n      tag_146\n      jump\t// in\n    tag_285:\n        /* \"#utility.yul\":7197:7200   */\n      dup3\n        /* \"#utility.yul\":7190:7225   */\n      mstore\n        /* \"#utility.yul\":7129:7231   */\n      pop\n      pop\n      jump\t// out\n        /* \"#utility.yul\":7237:7345   */\n    tag_159:\n        /* \"#utility.yul\":7314:7338   */\n      tag_287\n        /* \"#utility.yul\":7332:7337   */\n      dup2\n        /* \"#utility.yul\":7314:7338   */\n      tag_125\n      jump\t// in\n    tag_287:\n        /* \"#utility.yul\":7309:7312   */\n      dup3\n        /* \"#utility.yul\":7302:7339   */\n      mstore\n        /* \"#utility.yul\":7237:7345   */\n      pop\n      pop\n      jump\t// out\n        /* \"#utility.yul\":7351:7450   */\n    tag_160:\n        /* \"#utility.yul\":7422:7443   */\n      tag_289\n        /* \"#utility.yul\":7437:7442   */\n      dup2\n        /* \"#utility.yul\":7422:7443   */\n      tag_127\n      jump\t// in\n    tag_289:\n        /* \"#utility.yul\":7417:7420   */\n      dup3\n        /* \"#utility.yul\":7410:7444   */\n      mstore\n        /* \"#utility.yul\":7351:7450   */\n      pop\n      pop\n      jump\t// out\n        /* \"#utility.yul\":7532:10090   */\n    tag_161:\n        /* \"#utility.yul\":7661:7664   */\n      0x00\n        /* \"#utility.yul\":7697:7703   */\n      0x0180\n        /* \"#utility.yul\":7692:7695   */\n      dup4\n        /* \"#utility.yul\":7688:7704   */\n      add\n        /* \"#utility.yul\":7788:7792   */\n      0x00\n        /* \"#utility.yul\":7781:7786   */\n      dup4\n        /* \"#utility.yul\":7777:7793   */\n      add\n        /* \"#utility.yul\":7771:7794   */\n      mload\n        /* \"#utility.yul\":7807:7886   */\n      tag_291\n        /* \"#utility.yul\":7880:7884   */\n      0x00\n        /* \"#utility.yul\":7875:7878   */\n      dup7\n        /* \"#utility.yul\":7871:7885   */\n      add\n        /* \"#utility.yul\":7857:7869   */\n      dup3\n        /* \"#utility.yul\":7807:7886   */\n      tag_151\n      jump\t// in\n    tag_291:\n        /* \"#utility.yul\":7714:7896   */\n      pop\n        /* \"#utility.yul\":7980:7984   */\n      0x20\n        /* \"#utility.yul\":7973:7978   */\n      dup4\n        /* \"#utility.yul\":7969:7985   */\n      add\n        /* \"#utility.yul\":7963:7986   */\n      mload\n        /* \"#utility.yul\":7999:8062   */\n      tag_292\n        /* \"#utility.yul\":8056:8060   */\n      0x20\n        /* \"#utility.yul\":8051:8054   */\n      dup7\n        /* \"#utility.yul\":8047:8061   */\n      add\n        /* \"#utility.yul\":8033:8045   */\n      dup3\n        /* \"#utility.yul\":7999:8062   */\n      tag_153\n      jump\t// in\n    tag_292:\n        /* \"#utility.yul\":7906:8072   */\n      pop\n        /* \"#utility.yul\":8160:8164   */\n      0x40\n        /* \"#utility.yul\":8153:8158   */\n      dup4\n        /* \"#utility.yul\":8149:8165   */\n      add\n        /* \"#utility.yul\":8143:8166   */\n      mload\n        /* \"#utility.yul\":8213:8216   */\n      dup5\n        /* \"#utility.yul\":8207:8211   */\n      dup3\n        /* \"#utility.yul\":8203:8217   */\n      sub\n        /* \"#utility.yul\":8196:8200   */\n      0x40\n        /* \"#utility.yul\":8191:8194   */\n      dup7\n        /* \"#utility.yul\":8187:8201   */\n      add\n        /* \"#utility.yul\":8180:8218   */\n      mstore\n        /* \"#utility.yul\":8239:8312   */\n      tag_293\n        /* \"#utility.yul\":8307:8311   */\n      dup3\n        /* \"#utility.yul\":8293:8305   */\n      dup3\n        /* \"#utility.yul\":8239:8312   */\n      tag_157\n      jump\t// in\n    tag_293:\n        /* \"#utility.yul\":8231:8312   */\n      swap2\n      pop\n        /* \"#utility.yul\":8082:8323   */\n      pop\n        /* \"#utility.yul\":8411:8415   */\n      0x60\n        /* \"#utility.yul\":8404:8409   */\n      dup4\n        /* \"#utility.yul\":8400:8416   */\n      add\n        /* \"#utility.yul\":8394:8417   */\n      mload\n        /* \"#utility.yul\":8464:8467   */\n      dup5\n        /* \"#utility.yul\":8458:8462   */\n      dup3\n        /* \"#utility.yul\":8454:8468   */\n      sub\n        /* \"#utility.yul\":8447:8451   */\n      0x60\n        /* \"#utility.yul\":8442:8445   */\n      dup7\n        /* \"#utility.yul\":8438:8452   */\n      add\n        /* \"#utility.yul\":8431:8469   */\n      mstore\n        /* \"#utility.yul\":8490:8563   */\n      tag_294\n        /* \"#utility.yul\":8558:8562   */\n      dup3\n        /* \"#utility.yul\":8544:8556   */\n      dup3\n        /* \"#utility.yul\":8490:8563   */\n      tag_157\n      jump\t// in\n    tag_294:\n        /* \"#utility.yul\":8482:8563   */\n      swap2\n      pop\n        /* \"#utility.yul\":8333:8574   */\n      pop\n        /* \"#utility.yul\":8672:8676   */\n      0x80\n        /* \"#utility.yul\":8665:8670   */\n      dup4\n        /* \"#utility.yul\":8661:8677   */\n      add\n        /* \"#utility.yul\":8655:8678   */\n      mload\n        /* \"#utility.yul\":8691:8750   */\n      tag_295\n        /* \"#utility.yul\":8744:8748   */\n      0x80\n        /* \"#utility.yul\":8739:8742   */\n      dup7\n        /* \"#utility.yul\":8735:8749   */\n      add\n        /* \"#utility.yul\":8721:8733   */\n      dup3\n        /* \"#utility.yul\":8691:8750   */\n      tag_158\n      jump\t// in\n    tag_295:\n        /* \"#utility.yul\":8584:8760   */\n      pop\n        /* \"#utility.yul\":8854:8858   */\n      0xa0\n        /* \"#utility.yul\":8847:8852   */\n      dup4\n        /* \"#utility.yul\":8843:8859   */\n      add\n        /* \"#utility.yul\":8837:8860   */\n      mload\n        /* \"#utility.yul\":8873:8936   */\n      tag_296\n        /* \"#utility.yul\":8930:8934   */\n      0xa0\n        /* \"#utility.yul\":8925:8928   */\n      dup7\n        /* \"#utility.yul\":8921:8935   */\n      add\n        /* \"#utility.yul\":8907:8919   */\n      dup3\n        /* \"#utility.yul\":8873:8936   */\n      tag_159\n      jump\t// in\n    tag_296:\n        /* \"#utility.yul\":8770:8946   */\n      pop\n        /* \"#utility.yul\":9042:9046   */\n      0xc0\n        /* \"#utility.yul\":9035:9040   */\n      dup4\n        /* \"#utility.yul\":9031:9047   */\n      add\n        /* \"#utility.yul\":9025:9048   */\n      mload\n        /* \"#utility.yul\":9061:9124   */\n      tag_297\n        /* \"#utility.yul\":9118:9122   */\n      0xc0\n        /* \"#utility.yul\":9113:9116   */\n      dup7\n        /* \"#utility.yul\":9109:9123   */\n      add\n        /* \"#utility.yul\":9095:9107   */\n      dup3\n        /* \"#utility.yul\":9061:9124   */\n      tag_159\n      jump\t// in\n    tag_297:\n        /* \"#utility.yul\":8956:9134   */\n      pop\n        /* \"#utility.yul\":9223:9227   */\n      0xe0\n        /* \"#utility.yul\":9216:9221   */\n      dup4\n        /* \"#utility.yul\":9212:9228   */\n      add\n        /* \"#utility.yul\":9206:9229   */\n      mload\n        /* \"#utility.yul\":9242:9305   */\n      tag_298\n        /* \"#utility.yul\":9299:9303   */\n      0xe0\n        /* \"#utility.yul\":9294:9297   */\n      dup7\n        /* \"#utility.yul\":9290:9304   */\n      add\n        /* \"#utility.yul\":9276:9288   */\n      dup3\n        /* \"#utility.yul\":9242:9305   */\n      tag_159\n      jump\t// in\n    tag_298:\n        /* \"#utility.yul\":9144:9315   */\n      pop\n        /* \"#utility.yul\":9412:9418   */\n      0x0100\n        /* \"#utility.yul\":9405:9410   */\n      dup4\n        /* \"#utility.yul\":9401:9419   */\n      add\n        /* \"#utility.yul\":9395:9420   */\n      mload\n        /* \"#utility.yul\":9433:9498   */\n      tag_299\n        /* \"#utility.yul\":9490:9496   */\n      0x0100\n        /* \"#utility.yul\":9485:9488   */\n      dup7\n        /* \"#utility.yul\":9481:9497   */\n      add\n        /* \"#utility.yul\":9467:9479   */\n      dup3\n        /* \"#utility.yul\":9433:9498   */\n      tag_159\n      jump\t// in\n    tag_299:\n        /* \"#utility.yul\":9325:9508   */\n      pop\n        /* \"#utility.yul\":9605:9611   */\n      0x0120\n        /* \"#utility.yul\":9598:9603   */\n      dup4\n        /* \"#utility.yul\":9594:9612   */\n      add\n        /* \"#utility.yul\":9588:9613   */\n      mload\n        /* \"#utility.yul\":9626:9691   */\n      tag_300\n        /* \"#utility.yul\":9683:9689   */\n      0x0120\n        /* \"#utility.yul\":9678:9681   */\n      dup7\n        /* \"#utility.yul\":9674:9690   */\n      add\n        /* \"#utility.yul\":9660:9672   */\n      dup3\n        /* \"#utility.yul\":9626:9691   */\n      tag_159\n      jump\t// in\n    tag_300:\n        /* \"#utility.yul\":9518:9701   */\n      pop\n        /* \"#utility.yul\":9792:9798   */\n      0x0140\n        /* \"#utility.yul\":9785:9790   */\n      dup4\n        /* \"#utility.yul\":9781:9799   */\n      add\n        /* \"#utility.yul\":9775:9800   */\n      mload\n        /* \"#utility.yul\":9813:9872   */\n      tag_301\n        /* \"#utility.yul\":9864:9870   */\n      0x0140\n        /* \"#utility.yul\":9859:9862   */\n      dup7\n        /* \"#utility.yul\":9855:9871   */\n      add\n        /* \"#utility.yul\":9841:9853   */\n      dup3\n        /* \"#utility.yul\":9813:9872   */\n      tag_160\n      jump\t// in\n    tag_301:\n        /* \"#utility.yul\":9711:9882   */\n      pop\n        /* \"#utility.yul\":9973:9979   */\n      0x0160\n        /* \"#utility.yul\":9966:9971   */\n      dup4\n        /* \"#utility.yul\":9962:9980   */\n      add\n        /* \"#utility.yul\":9956:9981   */\n      mload\n        /* \"#utility.yul\":9994:10053   */\n      tag_302\n        /* \"#utility.yul\":10045:10051   */\n      0x0160\n        /* \"#utility.yul\":10040:10043   */\n      dup7\n        /* \"#utility.yul\":10036:10052   */\n      add\n        /* \"#utility.yul\":10022:10034   */\n      dup3\n        /* \"#utility.yul\":9994:10053   */\n      tag_160\n      jump\t// in\n    tag_302:\n        /* \"#utility.yul\":9892:10063   */\n      pop\n        /* \"#utility.yul\":10080:10084   */\n      dup1\n        /* \"#utility.yul\":10073:10084   */\n      swap2\n      pop\n        /* \"#utility.yul\":7666:10090   */\n      pop\n        /* \"#utility.yul\":7532:10090   */\n      swap3\n      swap2\n      pop\n      pop\n      jump\t// out\n        /* \"#utility.yul\":10096:10489   */\n    tag_51:\n        /* \"#utility.yul\":10249:10253   */\n      0x00\n        /* \"#utility.yul\":10287:10289   */\n      0x20\n        /* \"#utility.yul\":10276:10285   */\n      dup3\n        /* \"#utility.yul\":10272:10290   */\n      add\n        /* \"#utility.yul\":10264:10290   */\n      swap1\n      pop\n        /* \"#utility.yul\":10336:10345   */\n      dup2\n        /* \"#utility.yul\":10330:10334   */\n      dup2\n        /* \"#utility.yul\":10326:10346   */\n      sub\n        /* \"#utility.yul\":10322:10323   */\n      0x00\n        /* \"#utility.yul\":10311:10320   */\n      dup4\n        /* \"#utility.yul\":10307:10324   */\n      add\n        /* \"#utility.yul\":10300:10347   */\n      mstore\n        /* \"#utility.yul\":10364:10482   */\n      tag_304\n        /* \"#utility.yul\":10477:10481   */\n      dup2\n        /* \"#utility.yul\":10468:10474   */\n      dup5\n        /* \"#utility.yul\":10364:10482   */\n      tag_161\n      jump\t// in\n    tag_304:\n        /* \"#utility.yul\":10356:10482   */\n      swap1\n      pop\n        /* \"#utility.yul\":10096:10489   */\n      swap3\n      swap2\n      pop\n      pop\n      jump\t// out\n        /* \"#utility.yul\":10495:10664   */\n    tag_162:\n        /* \"#utility.yul\":10579:10590   */\n      0x00\n        /* \"#utility.yul\":10613:10619   */\n      dup3\n        /* \"#utility.yul\":10608:10611   */\n      dup3\n        /* \"#utility.yul\":10601:10620   */\n      mstore\n        /* \"#utility.yul\":10653:10657   */\n      0x20\n        /* \"#utility.yul\":10648:10651   */\n      dup3\n        /* \"#utility.yul\":10644:10658   */\n      add\n        /* \"#utility.yul\":10629:10658   */\n      swap1\n      pop\n        /* \"#utility.yul\":10495:10664   */\n      swap3\n      swap2\n      pop\n      pop\n      jump\t// out\n        /* \"#utility.yul\":10670:10845   */\n    tag_163:\n        /* \"#utility.yul\":10810:10837   */\n      0x4f6e6c792074686520446562746f722063616e20746869732100000000000000\n        /* \"#utility.yul\":10806:10807   */\n      0x00\n        /* \"#utility.yul\":10798:10804   */\n      dup3\n        /* \"#utility.yul\":10794:10808   */\n      add\n        /* \"#utility.yul\":10787:10838   */\n      mstore\n        /* \"#utility.yul\":10670:10845   */\n      pop\n      jump\t// out\n        /* \"#utility.yul\":10851:11217   */\n    tag_164:\n        /* \"#utility.yul\":10993:10996   */\n      0x00\n        /* \"#utility.yul\":11014:11081   */\n      tag_308\n        /* \"#utility.yul\":11078:11080   */\n      0x19\n        /* \"#utility.yul\":11073:11076   */\n      dup4\n        /* \"#utility.yul\":11014:11081   */\n      tag_162\n      jump\t// in\n    tag_308:\n        /* \"#utility.yul\":11007:11081   */\n      swap2\n      pop\n        /* \"#utility.yul\":11090:11183   */\n      tag_309\n        /* \"#utility.yul\":11179:11182   */\n      dup3\n        /* \"#utility.yul\":11090:11183   */\n      tag_163\n      jump\t// in\n    tag_309:\n        /* \"#utility.yul\":11208:11210   */\n      0x20\n        /* \"#utility.yul\":11203:11206   */\n      dup3\n        /* \"#utility.yul\":11199:11211   */\n      add\n        /* \"#utility.yul\":11192:11211   */\n      swap1\n      pop\n        /* \"#utility.yul\":10851:11217   */\n      swap2\n      swap1\n      pop\n      jump\t// out\n        /* \"#utility.yul\":11223:11642   */\n    tag_58:\n        /* \"#utility.yul\":11389:11393   */\n      0x00\n        /* \"#utility.yul\":11427:11429   */\n      0x20\n        /* \"#utility.yul\":11416:11425   */\n      dup3\n        /* \"#utility.yul\":11412:11430   */\n      add\n        /* \"#utility.yul\":11404:11430   */\n      swap1\n      pop\n        /* \"#utility.yul\":11476:11485   */\n      dup2\n        /* \"#utility.yul\":11470:11474   */\n      dup2\n        /* \"#utility.yul\":11466:11486   */\n      sub\n        /* \"#utility.yul\":11462:11463   */\n      0x00\n        /* \"#utility.yul\":11451:11460   */\n      dup4\n        /* \"#utility.yul\":11447:11464   */\n      add\n        /* \"#utility.yul\":11440:11487   */\n      mstore\n        /* \"#utility.yul\":11504:11635   */\n      tag_311\n        /* \"#utility.yul\":11630:11634   */\n      dup2\n        /* \"#utility.yul\":11504:11635   */\n      tag_164\n      jump\t// in\n    tag_311:\n        /* \"#utility.yul\":11496:11635   */\n      swap1\n      pop\n        /* \"#utility.yul\":11223:11642   */\n      swap2\n      swap1\n      pop\n      jump\t// out\n        /* \"#utility.yul\":11648:11868   */\n    tag_165:\n        /* \"#utility.yul\":11788:11822   */\n      0x4e65656420636f6e73657420666f7220486f6c64657220616e6420446562746f\n        /* \"#utility.yul\":11784:11785   */\n      0x00\n        /* \"#utility.yul\":11776:11782   */\n      dup3\n        /* \"#utility.yul\":11772:11786   */\n      add\n        /* \"#utility.yul\":11765:11823   */\n      mstore\n        /* \"#utility.yul\":11857:11860   */\n      0x7200000000000000000000000000000000000000000000000000000000000000\n        /* \"#utility.yul\":11852:11854   */\n      0x20\n        /* \"#utility.yul\":11844:11850   */\n      dup3\n        /* \"#utility.yul\":11840:11855   */\n      add\n        /* \"#utility.yul\":11833:11861   */\n      mstore\n        /* \"#utility.yul\":11648:11868   */\n      pop\n      jump\t// out\n        /* \"#utility.yul\":11874:12240   */\n    tag_166:\n        /* \"#utility.yul\":12016:12019   */\n      0x00\n        /* \"#utility.yul\":12037:12104   */\n      tag_314\n        /* \"#utility.yul\":12101:12103   */\n      0x21\n        /* \"#utility.yul\":12096:12099   */\n      dup4\n        /* \"#utility.yul\":12037:12104   */\n      tag_162\n      jump\t// in\n    tag_314:\n        /* \"#utility.yul\":12030:12104   */\n      swap2\n      pop\n        /* \"#utility.yul\":12113:12206   */\n      tag_315\n        /* \"#utility.yul\":12202:12205   */\n      dup3\n        /* \"#utility.yul\":12113:12206   */\n      tag_165\n      jump\t// in\n    tag_315:\n        /* \"#utility.yul\":12231:12233   */\n      0x40\n        /* \"#utility.yul\":12226:12229   */\n      dup3\n        /* \"#utility.yul\":12222:12234   */\n      add\n        /* \"#utility.yul\":12215:12234   */\n      swap1\n      pop\n        /* \"#utility.yul\":11874:12240   */\n      swap2\n      swap1\n      pop\n      jump\t// out\n        /* \"#utility.yul\":12246:12665   */\n    tag_63:\n        /* \"#utility.yul\":12412:12416   */\n      0x00\n        /* \"#utility.yul\":12450:12452   */\n      0x20\n        /* \"#utility.yul\":12439:12448   */\n      dup3\n        /* \"#utility.yul\":12435:12453   */\n      add\n        /* \"#utility.yul\":12427:12453   */\n      swap1\n      pop\n        /* \"#utility.yul\":12499:12508   */\n      dup2\n        /* \"#utility.yul\":12493:12497   */\n      dup2\n        /* \"#utility.yul\":12489:12509   */\n      sub\n        /* \"#utility.yul\":12485:12486   */\n      0x00\n        /* \"#utility.yul\":12474:12483   */\n      dup4\n        /* \"#utility.yul\":12470:12487   */\n      add\n        /* \"#utility.yul\":12463:12510   */\n      mstore\n        /* \"#utility.yul\":12527:12658   */\n      tag_317\n        /* \"#utility.yul\":12653:12657   */\n      dup2\n        /* \"#utility.yul\":12527:12658   */\n      tag_166\n      jump\t// in\n    tag_317:\n        /* \"#utility.yul\":12519:12658   */\n      swap1\n      pop\n        /* \"#utility.yul\":12246:12665   */\n      swap2\n      swap1\n      pop\n      jump\t// out\n        /* \"#utility.yul\":12671:12818   */\n    tag_167:\n        /* \"#utility.yul\":12772:12783   */\n      0x00\n        /* \"#utility.yul\":12809:12812   */\n      dup2\n        /* \"#utility.yul\":12794:12812   */\n      swap1\n      pop\n        /* \"#utility.yul\":12671:12818   */\n      swap3\n      swap2\n      pop\n      pop\n      jump\t// out\n        /* \"#utility.yul\":12824:12938   */\n    tag_168:\n      pop\n      jump\t// out\n        /* \"#utility.yul\":12944:13342   */\n    tag_169:\n        /* \"#utility.yul\":13103:13106   */\n      0x00\n        /* \"#utility.yul\":13124:13207   */\n      tag_321\n        /* \"#utility.yul\":13205:13206   */\n      0x00\n        /* \"#utility.yul\":13200:13203   */\n      dup4\n        /* \"#utility.yul\":13124:13207   */\n      tag_167\n      jump\t// in\n    tag_321:\n        /* \"#utility.yul\":13117:13207   */\n      swap2\n      pop\n        /* \"#utility.yul\":13216:13309   */\n      tag_322\n        /* \"#utility.yul\":13305:13308   */\n      dup3\n        /* \"#utility.yul\":13216:13309   */\n      tag_168\n      jump\t// in\n    tag_322:\n        /* \"#utility.yul\":13334:13335   */\n      0x00\n        /* \"#utility.yul\":13329:13332   */\n      dup3\n        /* \"#utility.yul\":13325:13336   */\n      add\n        /* \"#utility.yul\":13318:13336   */\n      swap1\n      pop\n        /* \"#utility.yul\":12944:13342   */\n      swap2\n      swap1\n      pop\n      jump\t// out\n        /* \"#utility.yul\":13348:13727   */\n    tag_66:\n        /* \"#utility.yul\":13532:13535   */\n      0x00\n        /* \"#utility.yul\":13554:13701   */\n      tag_324\n        /* \"#utility.yul\":13697:13700   */\n      dup3\n        /* \"#utility.yul\":13554:13701   */\n      tag_169\n      jump\t// in\n    tag_324:\n        /* \"#utility.yul\":13547:13701   */\n      swap2\n      pop\n        /* \"#utility.yul\":13718:13721   */\n      dup2\n        /* \"#utility.yul\":13711:13721   */\n      swap1\n      pop\n        /* \"#utility.yul\":13348:13727   */\n      swap2\n      swap1\n      pop\n      jump\t// out\n        /* \"#utility.yul\":13733:13908   */\n    tag_170:\n        /* \"#utility.yul\":13873:13900   */\n      0x4f6e6c792074686520486f6c6465722063616e20746869732100000000000000\n        /* \"#utility.yul\":13869:13870   */\n      0x00\n        /* \"#utility.yul\":13861:13867   */\n      dup3\n        /* \"#utility.yul\":13857:13871   */\n      add\n        /* \"#utility.yul\":13850:13901   */\n      mstore\n        /* \"#utility.yul\":13733:13908   */\n      pop\n      jump\t// out\n        /* \"#utility.yul\":13914:14280   */\n    tag_171:\n        /* \"#utility.yul\":14056:14059   */\n      0x00\n        /* \"#utility.yul\":14077:14144   */\n      tag_327\n        /* \"#utility.yul\":14141:14143   */\n      0x19\n        /* \"#utility.yul\":14136:14139   */\n      dup4\n        /* \"#utility.yul\":14077:14144   */\n      tag_162\n      jump\t// in\n    tag_327:\n        /* \"#utility.yul\":14070:14144   */\n      swap2\n      pop\n        /* \"#utility.yul\":14153:14246   */\n      tag_328\n        /* \"#utility.yul\":14242:14245   */\n      dup3\n        /* \"#utility.yul\":14153:14246   */\n      tag_170\n      jump\t// in\n    tag_328:\n        /* \"#utility.yul\":14271:14273   */\n      0x20\n        /* \"#utility.yul\":14266:14269   */\n      dup3\n        /* \"#utility.yul\":14262:14274   */\n      add\n        /* \"#utility.yul\":14255:14274   */\n      swap1\n      pop\n        /* \"#utility.yul\":13914:14280   */\n      swap2\n      swap1\n      pop\n      jump\t// out\n        /* \"#utility.yul\":14286:14705   */\n    tag_74:\n        /* \"#utility.yul\":14452:14456   */\n      0x00\n        /* \"#utility.yul\":14490:14492   */\n      0x20\n        /* \"#utility.yul\":14479:14488   */\n      dup3\n        /* \"#utility.yul\":14475:14493   */\n      add\n        /* \"#utility.yul\":14467:14493   */\n      swap1\n      pop\n        /* \"#utility.yul\":14539:14548   */\n      dup2\n        /* \"#utility.yul\":14533:14537   */\n      dup2\n        /* \"#utility.yul\":14529:14549   */\n      sub\n        /* \"#utility.yul\":14525:14526   */\n      0x00\n        /* \"#utility.yul\":14514:14523   */\n      dup4\n        /* \"#utility.yul\":14510:14527   */\n      add\n        /* \"#utility.yul\":14503:14550   */\n      mstore\n        /* \"#utility.yul\":14567:14698   */\n      tag_330\n        /* \"#utility.yul\":14693:14697   */\n      dup2\n        /* \"#utility.yul\":14567:14698   */\n      tag_171\n      jump\t// in\n    tag_330:\n        /* \"#utility.yul\":14559:14698   */\n      swap1\n      pop\n        /* \"#utility.yul\":14286:14705   */\n      swap2\n      swap1\n      pop\n      jump\t// out\n        /* \"#utility.yul\":14711:14944   */\n    tag_172:\n        /* \"#utility.yul\":14851:14885   */\n      0x5061796d656e74206d757374206265206d616465206265666f72652077697468\n        /* \"#utility.yul\":14847:14848   */\n      0x00\n        /* \"#utility.yul\":14839:14845   */\n      dup3\n        /* \"#utility.yul\":14835:14849   */\n      add\n        /* \"#utility.yul\":14828:14886   */\n      mstore\n        /* \"#utility.yul\":14920:14936   */\n      0x64726177696e672066756e647321000000000000000000000000000000000000\n        /* \"#utility.yul\":14915:14917   */\n      0x20\n        /* \"#utility.yul\":14907:14913   */\n      dup3\n        /* \"#utility.yul\":14903:14918   */\n      add\n        /* \"#utility.yul\":14896:14937   */\n      mstore\n        /* \"#utility.yul\":14711:14944   */\n      pop\n      jump\t// out\n        /* \"#utility.yul\":14950:15316   */\n    tag_173:\n        /* \"#utility.yul\":15092:15095   */\n      0x00\n        /* \"#utility.yul\":15113:15180   */\n      tag_333\n        /* \"#utility.yul\":15177:15179   */\n      0x2e\n        /* \"#utility.yul\":15172:15175   */\n      dup4\n        /* \"#utility.yul\":15113:15180   */\n      tag_162\n      jump\t// in\n    tag_333:\n        /* \"#utility.yul\":15106:15180   */\n      swap2\n      pop\n        /* \"#utility.yul\":15189:15282   */\n      tag_334\n        /* \"#utility.yul\":15278:15281   */\n      dup3\n        /* \"#utility.yul\":15189:15282   */\n      tag_172\n      jump\t// in\n    tag_334:\n        /* \"#utility.yul\":15307:15309   */\n      0x40\n        /* \"#utility.yul\":15302:15305   */\n      dup3\n        /* \"#utility.yul\":15298:15310   */\n      add\n        /* \"#utility.yul\":15291:15310   */\n      swap1\n      pop\n        /* \"#utility.yul\":14950:15316   */\n      swap2\n      swap1\n      pop\n      jump\t// out\n        /* \"#utility.yul\":15322:15741   */\n    tag_78:\n        /* \"#utility.yul\":15488:15492   */\n      0x00\n        /* \"#utility.yul\":15526:15528   */\n      0x20\n        /* \"#utility.yul\":15515:15524   */\n      dup3\n        /* \"#utility.yul\":15511:15529   */\n      add\n        /* \"#utility.yul\":15503:15529   */\n      swap1\n      pop\n        /* \"#utility.yul\":15575:15584   */\n      dup2\n        /* \"#utility.yul\":15569:15573   */\n      dup2\n        /* \"#utility.yul\":15565:15585   */\n      sub\n        /* \"#utility.yul\":15561:15562   */\n      0x00\n        /* \"#utility.yul\":15550:15559   */\n      dup4\n        /* \"#utility.yul\":15546:15563   */\n      add\n        /* \"#utility.yul\":15539:15586   */\n      mstore\n        /* \"#utility.yul\":15603:15734   */\n      tag_336\n        /* \"#utility.yul\":15729:15733   */\n      dup2\n        /* \"#utility.yul\":15603:15734   */\n      tag_173\n      jump\t// in\n    tag_336:\n        /* \"#utility.yul\":15595:15734   */\n      swap1\n      pop\n        /* \"#utility.yul\":15322:15741   */\n      swap2\n      swap1\n      pop\n      jump\t// out\n        /* \"#utility.yul\":15747:15968   */\n    tag_174:\n        /* \"#utility.yul\":15887:15921   */\n      0x596f75206d757374207061792074686520616d6f756e742070726f6d6973736f\n        /* \"#utility.yul\":15883:15884   */\n      0x00\n        /* \"#utility.yul\":15875:15881   */\n      dup3\n        /* \"#utility.yul\":15871:15885   */\n      add\n        /* \"#utility.yul\":15864:15922   */\n      mstore\n        /* \"#utility.yul\":15956:15960   */\n      0x7279000000000000000000000000000000000000000000000000000000000000\n        /* \"#utility.yul\":15951:15953   */\n      0x20\n        /* \"#utility.yul\":15943:15949   */\n      dup3\n        /* \"#utility.yul\":15939:15954   */\n      add\n        /* \"#utility.yul\":15932:15961   */\n      mstore\n        /* \"#utility.yul\":15747:15968   */\n      pop\n      jump\t// out\n        /* \"#utility.yul\":15974:16340   */\n    tag_175:\n        /* \"#utility.yul\":16116:16119   */\n      0x00\n        /* \"#utility.yul\":16137:16204   */\n      tag_339\n        /* \"#utility.yul\":16201:16203   */\n      0x22\n        /* \"#utility.yul\":16196:16199   */\n      dup4\n        /* \"#utility.yul\":16137:16204   */\n      tag_162\n      jump\t// in\n    tag_339:\n        /* \"#utility.yul\":16130:16204   */\n      swap2\n      pop\n        /* \"#utility.yul\":16213:16306   */\n      tag_340\n        /* \"#utility.yul\":16302:16305   */\n      dup3\n        /* \"#utility.yul\":16213:16306   */\n      tag_174\n      jump\t// in\n    tag_340:\n        /* \"#utility.yul\":16331:16333   */\n      0x40\n        /* \"#utility.yul\":16326:16329   */\n      dup3\n        /* \"#utility.yul\":16322:16334   */\n      add\n        /* \"#utility.yul\":16315:16334   */\n      swap1\n      pop\n        /* \"#utility.yul\":15974:16340   */\n      swap2\n      swap1\n      pop\n      jump\t// out\n        /* \"#utility.yul\":16346:16765   */\n    tag_82:\n        /* \"#utility.yul\":16512:16516   */\n      0x00\n        /* \"#utility.yul\":16550:16552   */\n      0x20\n        /* \"#utility.yul\":16539:16548   */\n      dup3\n        /* \"#utility.yul\":16535:16553   */\n      add\n        /* \"#utility.yul\":16527:16553   */\n      swap1\n      pop\n        /* \"#utility.yul\":16599:16608   */\n      dup2\n        /* \"#utility.yul\":16593:16597   */\n      dup2\n        /* \"#utility.yul\":16589:16609   */\n      sub\n        /* \"#utility.yul\":16585:16586   */\n      0x00\n        /* \"#utility.yul\":16574:16583   */\n      dup4\n        /* \"#utility.yul\":16570:16587   */\n      add\n        /* \"#utility.yul\":16563:16610   */\n      mstore\n        /* \"#utility.yul\":16627:16758   */\n      tag_342\n        /* \"#utility.yul\":16753:16757   */\n      dup2\n        /* \"#utility.yul\":16627:16758   */\n      tag_175\n      jump\t// in\n    tag_342:\n        /* \"#utility.yul\":16619:16758   */\n      swap1\n      pop\n        /* \"#utility.yul\":16346:16765   */\n      swap2\n      swap1\n      pop\n      jump\t// out\n        /* \"#utility.yul\":16771:17001   */\n    tag_176:\n        /* \"#utility.yul\":16911:16945   */\n      0x446562746f7220616e6420486f6c646572206d75737420626520646966666572\n        /* \"#utility.yul\":16907:16908   */\n      0x00\n        /* \"#utility.yul\":16899:16905   */\n      dup3\n        /* \"#utility.yul\":16895:16909   */\n      add\n        /* \"#utility.yul\":16888:16946   */\n      mstore\n        /* \"#utility.yul\":16980:16993   */\n      0x656e742070656f706c6573000000000000000000000000000000000000000000\n        /* \"#utility.yul\":16975:16977   */\n      0x20\n        /* \"#utility.yul\":16967:16973   */\n      dup3\n        /* \"#utility.yul\":16963:16978   */\n      add\n        /* \"#utility.yul\":16956:16994   */\n      mstore\n        /* \"#utility.yul\":16771:17001   */\n      pop\n      jump\t// out\n        /* \"#utility.yul\":17007:17373   */\n    tag_177:\n        /* \"#utility.yul\":17149:17152   */\n      0x00\n        /* \"#utility.yul\":17170:17237   */\n      tag_345\n        /* \"#utility.yul\":17234:17236   */\n      0x2b\n        /* \"#utility.yul\":17229:17232   */\n      dup4\n        /* \"#utility.yul\":17170:17237   */\n      tag_162\n      jump\t// in\n    tag_345:\n        /* \"#utility.yul\":17163:17237   */\n      swap2\n      pop\n        /* \"#utility.yul\":17246:17339   */\n      tag_346\n        /* \"#utility.yul\":17335:17338   */\n      dup3\n        /* \"#utility.yul\":17246:17339   */\n      tag_176\n      jump\t// in\n    tag_346:\n        /* \"#utility.yul\":17364:17366   */\n      0x40\n        /* \"#utility.yul\":17359:17362   */\n      dup3\n        /* \"#utility.yul\":17355:17367   */\n      add\n        /* \"#utility.yul\":17348:17367   */\n      swap1\n      pop\n        /* \"#utility.yul\":17007:17373   */\n      swap2\n      swap1\n      pop\n      jump\t// out\n        /* \"#utility.yul\":17379:17798   */\n    tag_93:\n        /* \"#utility.yul\":17545:17549   */\n      0x00\n        /* \"#utility.yul\":17583:17585   */\n      0x20\n        /* \"#utility.yul\":17572:17581   */\n      dup3\n        /* \"#utility.yul\":17568:17586   */\n      add\n        /* \"#utility.yul\":17560:17586   */\n      swap1\n      pop\n        /* \"#utility.yul\":17632:17641   */\n      dup2\n        /* \"#utility.yul\":17626:17630   */\n      dup2\n        /* \"#utility.yul\":17622:17642   */\n      sub\n        /* \"#utility.yul\":17618:17619   */\n      0x00\n        /* \"#utility.yul\":17607:17616   */\n      dup4\n        /* \"#utility.yul\":17603:17620   */\n      add\n        /* \"#utility.yul\":17596:17643   */\n      mstore\n        /* \"#utility.yul\":17660:17791   */\n      tag_348\n        /* \"#utility.yul\":17786:17790   */\n      dup2\n        /* \"#utility.yul\":17660:17791   */\n      tag_177\n      jump\t// in\n    tag_348:\n        /* \"#utility.yul\":17652:17791   */\n      swap1\n      pop\n        /* \"#utility.yul\":17379:17798   */\n      swap2\n      swap1\n      pop\n      jump\t// out\n        /* \"#utility.yul\":17804:17984   */\n    tag_178:\n        /* \"#utility.yul\":17852:17929   */\n      0x4e487b7100000000000000000000000000000000000000000000000000000000\n        /* \"#utility.yul\":17849:17850   */\n      0x00\n        /* \"#utility.yul\":17842:17930   */\n      mstore\n        /* \"#utility.yul\":17949:17953   */\n      0x22\n        /* \"#utility.yul\":17946:17947   */\n      0x04\n        /* \"#utility.yul\":17939:17954   */\n      mstore\n        /* \"#utility.yul\":17973:17977   */\n      0x24\n        /* \"#utility.yul\":17970:17971   */\n      0x00\n        /* \"#utility.yul\":17963:17978   */\n      revert\n        /* \"#utility.yul\":17990:18310   */\n    tag_106:\n        /* \"#utility.yul\":18034:18040   */\n      0x00\n        /* \"#utility.yul\":18071:18072   */\n      0x02\n        /* \"#utility.yul\":18065:18069   */\n      dup3\n        /* \"#utility.yul\":18061:18073   */\n      div\n        /* \"#utility.yul\":18051:18073   */\n      swap1\n      pop\n        /* \"#utility.yul\":18118:18119   */\n      0x01\n        /* \"#utility.yul\":18112:18116   */\n      dup3\n        /* \"#utility.yul\":18108:18120   */\n      and\n        /* \"#utility.yul\":18139:18157   */\n      dup1\n        /* \"#utility.yul\":18129:18210   */\n      tag_351\n      jumpi\n        /* \"#utility.yul\":18195:18199   */\n      0x7f\n        /* \"#utility.yul\":18187:18193   */\n      dup3\n        /* \"#utility.yul\":18183:18200   */\n      and\n        /* \"#utility.yul\":18173:18200   */\n      swap2\n      pop\n        /* \"#utility.yul\":18129:18210   */\n    tag_351:\n        /* \"#utility.yul\":18257:18259   */\n      0x20\n        /* \"#utility.yul\":18249:18255   */\n      dup3\n        /* \"#utility.yul\":18246:18260   */\n      lt\n        /* \"#utility.yul\":18226:18244   */\n      dup2\n        /* \"#utility.yul\":18223:18261   */\n      sub\n        /* \"#utility.yul\":18220:18304   */\n      tag_352\n      jumpi\n        /* \"#utility.yul\":18276:18294   */\n      tag_353\n      tag_178\n      jump\t// in\n    tag_353:\n        /* \"#utility.yul\":18220:18304   */\n    tag_352:\n        /* \"#utility.yul\":18041:18310   */\n      pop\n        /* \"#utility.yul\":17990:18310   */\n      swap2\n      swap1\n      pop\n      jump\t// out\n        /* \"#utility.yul\":18316:18457   */\n    tag_179:\n        /* \"#utility.yul\":18365:18369   */\n      0x00\n        /* \"#utility.yul\":18388:18391   */\n      dup2\n        /* \"#utility.yul\":18380:18391   */\n      swap1\n      pop\n        /* \"#utility.yul\":18411:18414   */\n      dup2\n        /* \"#utility.yul\":18408:18409   */\n      0x00\n        /* \"#utility.yul\":18401:18415   */\n      mstore\n        /* \"#utility.yul\":18445:18449   */\n      0x20\n        /* \"#utility.yul\":18442:18443   */\n      0x00\n        /* \"#utility.yul\":18432:18450   */\n      keccak256\n        /* \"#utility.yul\":18424:18450   */\n      swap1\n      pop\n        /* \"#utility.yul\":18316:18457   */\n      swap2\n      swap1\n      pop\n      jump\t// out\n        /* \"#utility.yul\":18463:18556   */\n    tag_180:\n        /* \"#utility.yul\":18500:18506   */\n      0x00\n        /* \"#utility.yul\":18547:18549   */\n      0x20\n        /* \"#utility.yul\":18542:18544   */\n      0x1f\n        /* \"#utility.yul\":18535:18540   */\n      dup4\n        /* \"#utility.yul\":18531:18545   */\n      add\n        /* \"#utility.yul\":18527:18550   */\n      div\n        /* \"#utility.yul\":18517:18550   */\n      swap1\n      pop\n        /* \"#utility.yul\":18463:18556   */\n      swap2\n      swap1\n      pop\n      jump\t// out\n        /* \"#utility.yul\":18562:18669   */\n    tag_181:\n        /* \"#utility.yul\":18606:18614   */\n      0x00\n        /* \"#utility.yul\":18656:18661   */\n      dup3\n        /* \"#utility.yul\":18650:18654   */\n      dup3\n        /* \"#utility.yul\":18646:18662   */\n      shl\n        /* \"#utility.yul\":18625:18662   */\n      swap1\n      pop\n        /* \"#utility.yul\":18562:18669   */\n      swap3\n      swap2\n      pop\n      pop\n      jump\t// out\n        /* \"#utility.yul\":18675:19068   */\n    tag_182:\n        /* \"#utility.yul\":18744:18750   */\n      0x00\n        /* \"#utility.yul\":18794:18795   */\n      0x08\n        /* \"#utility.yul\":18782:18792   */\n      dup4\n        /* \"#utility.yul\":18778:18796   */\n      mul\n        /* \"#utility.yul\":18817:18914   */\n      tag_358\n        /* \"#utility.yul\":18847:18913   */\n      0xffffffffffffffffffffffffffffffffffffffffffffffffffffffffffffffff\n        /* \"#utility.yul\":18836:18845   */\n      dup3\n        /* \"#utility.yul\":18817:18914   */\n      tag_181\n      jump\t// in\n    tag_358:\n        /* \"#utility.yul\":18935:18974   */\n      tag_359\n        /* \"#utility.yul\":18965:18973   */\n      dup7\n        /* \"#utility.yul\":18954:18963   */\n      dup4\n        /* \"#utility.yul\":18935:18974   */\n      tag_181\n      jump\t// in\n    tag_359:\n        /* \"#utility.yul\":18923:18974   */\n      swap6\n      pop\n        /* \"#utility.yul\":19007:19011   */\n      dup1\n        /* \"#utility.yul\":19003:19012   */\n      not\n        /* \"#utility.yul\":18996:19001   */\n      dup5\n        /* \"#utility.yul\":18992:19013   */\n      and\n        /* \"#utility.yul\":18983:19013   */\n      swap4\n      pop\n        /* \"#utility.yul\":19056:19060   */\n      dup1\n        /* \"#utility.yul\":19046:19054   */\n      dup7\n        /* \"#utility.yul\":19042:19061   */\n      and\n        /* \"#utility.yul\":19035:19040   */\n      dup5\n        /* \"#utility.yul\":19032:19062   */\n      or\n        /* \"#utility.yul\":19022:19062   */\n      swap3\n      pop\n        /* \"#utility.yul\":18751:19068   */\n      pop\n      pop\n        /* \"#utility.yul\":18675:19068   */\n      swap4\n      swap3\n      pop\n      pop\n      pop\n      jump\t// out\n        /* \"#utility.yul\":19074:19134   */\n    tag_183:\n        /* \"#utility.yul\":19102:19105   */\n      0x00\n        /* \"#utility.yul\":19123:19128   */\n      dup2\n        /* \"#utility.yul\":19116:19128   */\n      swap1\n      pop\n        /* \"#utility.yul\":19074:19134   */\n      swap2\n      swap1\n      pop\n      jump\t// out\n        /* \"#utility.yul\":19140:19282   */\n    tag_184:\n        /* \"#utility.yul\":19190:19199   */\n      0x00\n        /* \"#utility.yul\":19223:19276   */\n      tag_362\n        /* \"#utility.yul\":19241:19275   */\n      tag_363\n        /* \"#utility.yul\":19250:19274   */\n      tag_364\n        /* \"#utility.yul\":19268:19273   */\n      dup5\n        /* \"#utility.yul\":19250:19274   */\n      tag_125\n      jump\t// in\n    tag_364:\n        /* \"#utility.yul\":19241:19275   */\n      tag_183\n      jump\t// in\n    tag_363:\n        /* \"#utility.yul\":19223:19276   */\n      tag_125\n      jump\t// in\n    tag_362:\n        /* \"#utility.yul\":19210:19276   */\n      swap1\n      pop\n        /* \"#utility.yul\":19140:19282   */\n      swap2\n      swap1\n      pop\n      jump\t// out\n        /* \"#utility.yul\":19288:19363   */\n    tag_185:\n        /* \"#utility.yul\":19331:19334   */\n      0x00\n        /* \"#utility.yul\":19352:19357   */\n      dup2\n        /* \"#utility.yul\":19345:19357   */\n      swap1\n      pop\n        /* \"#utility.yul\":19288:19363   */\n      swap2\n      swap1\n      pop\n      jump\t// out\n        /* \"#utility.yul\":19369:19638   */\n    tag_186:\n        /* \"#utility.yul\":19479:19518   */\n      tag_367\n        /* \"#utility.yul\":19510:19517   */\n      dup4\n        /* \"#utility.yul\":19479:19518   */\n      tag_184\n      jump\t// in\n    tag_367:\n        /* \"#utility.yul\":19540:19631   */\n      tag_368\n        /* \"#utility.yul\":19589:19630   */\n      tag_369\n        /* \"#utility.yul\":19613:19629   */\n      dup3\n        /* \"#utility.yul\":19589:19630   */\n      tag_185\n      jump\t// in\n    tag_369:\n        /* \"#utility.yul\":19581:19587   */\n      dup5\n        /* \"#utility.yul\":19574:19578   */\n      dup5\n        /* \"#utility.yul\":19568:19579   */\n      sload\n        /* \"#utility.yul\":19540:19631   */\n      tag_182\n      jump\t// in\n    tag_368:\n        /* \"#utility.yul\":19534:19538   */\n      dup3\n        /* \"#utility.yul\":19527:19632   */\n      sstore\n        /* \"#utility.yul\":19445:19638   */\n      pop\n        /* \"#utility.yul\":19369:19638   */\n      pop\n      pop\n      pop\n      jump\t// out\n        /* \"#utility.yul\":19644:19717   */\n    tag_187:\n        /* \"#utility.yul\":19689:19692   */\n      0x00\n        /* \"#utility.yul\":19644:19717   */\n      swap1\n      jump\t// out\n        /* \"#utility.yul\":19723:19912   */\n    tag_188:\n        /* \"#utility.yul\":19800:19832   */\n      tag_372\n      tag_187\n      jump\t// in\n    tag_372:\n        /* \"#utility.yul\":19841:19906   */\n      tag_373\n        /* \"#utility.yul\":19899:19905   */\n      dup2\n        /* \"#utility.yul\":19891:19897   */\n      dup5\n        /* \"#utility.yul\":19885:19889   */\n      dup5\n        /* \"#utility.yul\":19841:19906   */\n      tag_186\n      jump\t// in\n    tag_373:\n        /* \"#utility.yul\":19776:19912   */\n      pop\n        /* \"#utility.yul\":19723:19912   */\n      pop\n      pop\n      jump\t// out\n        /* \"#utility.yul\":19918:20104   */\n    tag_189:\n        /* \"#utility.yul\":19978:20098   */\n    tag_375:\n        /* \"#utility.yul\":19995:19998   */\n      dup2\n        /* \"#utility.yul\":19988:19993   */\n      dup2\n        /* \"#utility.yul\":19985:19999   */\n      lt\n        /* \"#utility.yul\":19978:20098   */\n      iszero\n      tag_377\n      jumpi\n        /* \"#utility.yul\":20049:20088   */\n      tag_378\n        /* \"#utility.yul\":20086:20087   */\n      0x00\n        /* \"#utility.yul\":20079:20084   */\n      dup3\n        /* \"#utility.yul\":20049:20088   */\n      tag_188\n      jump\t// in\n    tag_378:\n        /* \"#utility.yul\":20022:20023   */\n      0x01\n        /* \"#utility.yul\":20015:20020   */\n      dup2\n        /* \"#utility.yul\":20011:20024   */\n      add\n        /* \"#utility.yul\":20002:20024   */\n      swap1\n      pop\n        /* \"#utility.yul\":19978:20098   */\n      jump(tag_375)\n    tag_377:\n        /* \"#utility.yul\":19918:20104   */\n      pop\n      pop\n      jump\t// out\n        /* \"#utility.yul\":20110:20653   */\n    tag_190:\n        /* \"#utility.yul\":20211:20213   */\n      0x1f\n        /* \"#utility.yul\":20206:20209   */\n      dup3\n        /* \"#utility.yul\":20203:20214   */\n      gt\n        /* \"#utility.yul\":20200:20646   */\n      iszero\n      tag_380\n      jumpi\n        /* \"#utility.yul\":20245:20283   */\n      tag_381\n        /* \"#utility.yul\":20277:20282   */\n      dup2\n        /* \"#utility.yul\":20245:20283   */\n      tag_179\n      jump\t// in\n    tag_381:\n        /* \"#utility.yul\":20329:20358   */\n      tag_382\n        /* \"#utility.yul\":20347:20357   */\n      dup5\n        /* \"#utility.yul\":20329:20358   */\n      tag_180\n      jump\t// in\n    tag_382:\n        /* \"#utility.yul\":20319:20327   */\n      dup2\n        /* \"#utility.yul\":20315:20359   */\n      add\n        /* \"#utility.yul\":20512:20514   */\n      0x20\n        /* \"#utility.yul\":20500:20510   */\n      dup6\n        /* \"#utility.yul\":20497:20515   */\n      lt\n        /* \"#utility.yul\":20494:20543   */\n      iszero\n      tag_383\n      jumpi\n        /* \"#utility.yul\":20533:20541   */\n      dup2\n        /* \"#utility.yul\":20518:20541   */\n      swap1\n      pop\n        /* \"#utility.yul\":20494:20543   */\n    tag_383:\n        /* \"#utility.yul\":20556:20636   */\n      tag_384\n        /* \"#utility.yul\":20612:20634   */\n      tag_385\n        /* \"#utility.yul\":20630:20633   */\n      dup6\n        /* \"#utility.yul\":20612:20634   */\n      tag_180\n      jump\t// in\n    tag_385:\n        /* \"#utility.yul\":20602:20610   */\n      dup4\n        /* \"#utility.yul\":20598:20635   */\n      add\n        /* \"#utility.yul\":20585:20596   */\n      dup3\n        /* \"#utility.yul\":20556:20636   */\n      tag_189\n      jump\t// in\n    tag_384:\n        /* \"#utility.yul\":20215:20646   */\n      pop\n      pop\n        /* \"#utility.yul\":20200:20646   */\n    tag_380:\n        /* \"#utility.yul\":20110:20653   */\n      pop\n      pop\n      pop\n      jump\t// out\n        /* \"#utility.yul\":20659:20776   */\n    tag_191:\n        /* \"#utility.yul\":20713:20721   */\n      0x00\n        /* \"#utility.yul\":20763:20768   */\n      dup3\n        /* \"#utility.yul\":20757:20761   */\n      dup3\n        /* \"#utility.yul\":20753:20769   */\n      shr\n        /* \"#utility.yul\":20732:20769   */\n      swap1\n      pop\n        /* \"#utility.yul\":20659:20776   */\n      swap3\n      swap2\n      pop\n      pop\n      jump\t// out\n        /* \"#utility.yul\":20782:20951   */\n    tag_192:\n        /* \"#utility.yul\":20826:20832   */\n      0x00\n        /* \"#utility.yul\":20859:20910   */\n      tag_388\n        /* \"#utility.yul\":20907:20908   */\n      0x00\n        /* \"#utility.yul\":20903:20909   */\n      not\n        /* \"#utility.yul\":20895:20900   */\n      dup5\n        /* \"#utility.yul\":20892:20893   */\n      0x08\n        /* \"#utility.yul\":20888:20901   */\n      mul\n        /* \"#utility.yul\":20859:20910   */\n      tag_191\n      jump\t// in\n    tag_388:\n        /* \"#utility.yul\":20855:20911   */\n      not\n        /* \"#utility.yul\":20940:20944   */\n      dup1\n        /* \"#utility.yul\":20934:20938   */\n      dup4\n        /* \"#utility.yul\":20930:20945   */\n      and\n        /* \"#utility.yul\":20920:20945   */\n      swap2\n      pop\n        /* \"#utility.yul\":20833:20951   */\n      pop\n        /* \"#utility.yul\":20782:20951   */\n      swap3\n      swap2\n      pop\n      pop\n      jump\t// out\n        /* \"#utility.yul\":20956:21251   */\n    tag_193:\n        /* \"#utility.yul\":21032:21036   */\n      0x00\n        /* \"#utility.yul\":21178:21207   */\n      tag_390\n        /* \"#utility.yul\":21203:21206   */\n      dup4\n        /* \"#utility.yul\":21197:21201   */\n      dup4\n        /* \"#utility.yul\":21178:21207   */\n      tag_192\n      jump\t// in\n    tag_390:\n        /* \"#utility.yul\":21170:21207   */\n      swap2\n      pop\n        /* \"#utility.yul\":21240:21243   */\n      dup3\n        /* \"#utility.yul\":21237:21238   */\n      0x02\n        /* \"#utility.yul\":21233:21244   */\n      mul\n        /* \"#utility.yul\":21227:21231   */\n      dup3\n        /* \"#utility.yul\":21224:21245   */\n      or\n        /* \"#utility.yul\":21216:21245   */\n      swap1\n      pop\n        /* \"#utility.yul\":20956:21251   */\n      swap3\n      swap2\n      pop\n      pop\n      jump\t// out\n        /* \"#utility.yul\":21256:22651   */\n    tag_95:\n        /* \"#utility.yul\":21373:21410   */\n      tag_392\n        /* \"#utility.yul\":21406:21409   */\n      dup3\n        /* \"#utility.yul\":21373:21410   */\n      tag_154\n      jump\t// in\n    tag_392:\n        /* \"#utility.yul\":21475:21493   */\n      0xffffffffffffffff\n        /* \"#utility.yul\":21467:21473   */\n      dup2\n        /* \"#utility.yul\":21464:21494   */\n      gt\n        /* \"#utility.yul\":21461:21517   */\n      iszero\n      tag_393\n      jumpi\n        /* \"#utility.yul\":21497:21515   */\n      tag_394\n      tag_139\n      jump\t// in\n    tag_394:\n        /* \"#utility.yul\":21461:21517   */\n    tag_393:\n        /* \"#utility.yul\":21541:21579   */\n      tag_395\n        /* \"#utility.yul\":21573:21577   */\n      dup3\n        /* \"#utility.yul\":21567:21578   */\n      sload\n        /* \"#utility.yul\":21541:21579   */\n      tag_106\n      jump\t// in\n    tag_395:\n        /* \"#utility.yul\":21626:21693   */\n      tag_396\n        /* \"#utility.yul\":21686:21692   */\n      dup3\n        /* \"#utility.yul\":21678:21684   */\n      dup3\n        /* \"#utility.yul\":21672:21676   */\n      dup6\n        /* \"#utility.yul\":21626:21693   */\n      tag_190\n      jump\t// in\n    tag_396:\n        /* \"#utility.yul\":21720:21721   */\n      0x00\n        /* \"#utility.yul\":21744:21748   */\n      0x20\n        /* \"#utility.yul\":21731:21748   */\n      swap1\n      pop\n        /* \"#utility.yul\":21776:21778   */\n      0x1f\n        /* \"#utility.yul\":21768:21774   */\n      dup4\n        /* \"#utility.yul\":21765:21779   */\n      gt\n        /* \"#utility.yul\":21793:21794   */\n      0x01\n        /* \"#utility.yul\":21788:22406   */\n      dup2\n      eq\n      tag_398\n      jumpi\n        /* \"#utility.yul\":22450:22451   */\n      0x00\n        /* \"#utility.yul\":22467:22473   */\n      dup5\n        /* \"#utility.yul\":22464:22541   */\n      iszero\n      tag_399\n      jumpi\n        /* \"#utility.yul\":22516:22525   */\n      dup3\n        /* \"#utility.yul\":22511:22514   */\n      dup8\n        /* \"#utility.yul\":22507:22526   */\n      add\n        /* \"#utility.yul\":22501:22527   */\n      mload\n        /* \"#utility.yul\":22492:22527   */\n      swap1\n      pop\n        /* \"#utility.yul\":22464:22541   */\n    tag_399:\n        /* \"#utility.yul\":22567:22634   */\n      tag_400\n        /* \"#utility.yul\":22627:22633   */\n      dup6\n        /* \"#utility.yul\":22620:22625   */\n      dup3\n        /* \"#utility.yul\":22567:22634   */\n      tag_193\n      jump\t// in\n    tag_400:\n        /* \"#utility.yul\":22561:22565   */\n      dup7\n        /* \"#utility.yul\":22554:22635   */\n      sstore\n        /* \"#utility.yul\":22423:22645   */\n      pop\n        /* \"#utility.yul\":21758:22645   */\n      jump(tag_397)\n        /* \"#utility.yul\":21788:22406   */\n    tag_398:\n        /* \"#utility.yul\":21840:21844   */\n      0x1f\n        /* \"#utility.yul\":21836:21845   */\n      not\n        /* \"#utility.yul\":21828:21834   */\n      dup5\n        /* \"#utility.yul\":21824:21846   */\n      and\n        /* \"#utility.yul\":21874:21911   */\n      tag_401\n        /* \"#utility.yul\":21906:21910   */\n      dup7\n        /* \"#utility.yul\":21874:21911   */\n      tag_179\n      jump\t// in\n    tag_401:\n        /* \"#utility.yul\":21933:21934   */\n      0x00\n        /* \"#utility.yul\":21947:22155   */\n    tag_402:\n        /* \"#utility.yul\":21961:21968   */\n      dup3\n        /* \"#utility.yul\":21958:21959   */\n      dup2\n        /* \"#utility.yul\":21955:21969   */\n      lt\n        /* \"#utility.yul\":21947:22155   */\n      iszero\n      tag_404\n      jumpi\n        /* \"#utility.yul\":22040:22049   */\n      dup5\n        /* \"#utility.yul\":22035:22038   */\n      dup10\n        /* \"#utility.yul\":22031:22050   */\n      add\n        /* \"#utility.yul\":22025:22051   */\n      mload\n        /* \"#utility.yul\":22017:22023   */\n      dup3\n        /* \"#utility.yul\":22010:22052   */\n      sstore\n        /* \"#utility.yul\":22091:22092   */\n      0x01\n        /* \"#utility.yul\":22083:22089   */\n      dup3\n        /* \"#utility.yul\":22079:22093   */\n      add\n        /* \"#utility.yul\":22069:22093   */\n      swap2\n      pop\n        /* \"#utility.yul\":22138:22140   */\n      0x20\n        /* \"#utility.yul\":22127:22136   */\n      dup6\n        /* \"#utility.yul\":22123:22141   */\n      add\n        /* \"#utility.yul\":22110:22141   */\n      swap5\n      pop\n        /* \"#utility.yul\":21984:21988   */\n      0x20\n        /* \"#utility.yul\":21981:21982   */\n      dup2\n        /* \"#utility.yul\":21977:21989   */\n      add\n        /* \"#utility.yul\":21972:21989   */\n      swap1\n      pop\n        /* \"#utility.yul\":21947:22155   */\n      jump(tag_402)\n    tag_404:\n        /* \"#utility.yul\":22183:22189   */\n      dup7\n        /* \"#utility.yul\":22174:22181   */\n      dup4\n        /* \"#utility.yul\":22171:22190   */\n      lt\n        /* \"#utility.yul\":22168:22347   */\n      iszero\n      tag_405\n      jumpi\n        /* \"#utility.yul\":22241:22250   */\n      dup5\n        /* \"#utility.yul\":22236:22239   */\n      dup10\n        /* \"#utility.yul\":22232:22251   */\n      add\n        /* \"#utility.yul\":22226:22252   */\n      mload\n        /* \"#utility.yul\":22284:22332   */\n      tag_406\n        /* \"#utility.yul\":22326:22330   */\n      0x1f\n        /* \"#utility.yul\":22318:22324   */\n      dup10\n        /* \"#utility.yul\":22314:22331   */\n      and\n        /* \"#utility.yul\":22303:22312   */\n      dup3\n        /* \"#utility.yul\":22284:22332   */\n      tag_192\n      jump\t// in\n    tag_406:\n        /* \"#utility.yul\":22276:22282   */\n      dup4\n        /* \"#utility.yul\":22269:22333   */\n      sstore\n        /* \"#utility.yul\":22191:22347   */\n      pop\n        /* \"#utility.yul\":22168:22347   */\n    tag_405:\n        /* \"#utility.yul\":22393:22394   */\n      0x01\n        /* \"#utility.yul\":22389:22390   */\n      0x02\n        /* \"#utility.yul\":22381:22387   */\n      dup9\n        /* \"#utility.yul\":22377:22391   */\n      mul\n        /* \"#utility.yul\":22373:22395   */\n      add\n        /* \"#utility.yul\":22367:22371   */\n      dup9\n        /* \"#utility.yul\":22360:22396   */\n      sstore\n        /* \"#utility.yul\":21795:22406   */\n      pop\n      pop\n      pop\n        /* \"#utility.yul\":21758:22645   */\n    tag_397:\n      pop\n        /* \"#utility.yul\":21348:22651   */\n      pop\n      pop\n      pop\n        /* \"#utility.yul\":21256:22651   */\n      pop\n      pop\n      jump\t// out\n        /* \"#utility.yul\":22657:22837   */\n    tag_194:\n        /* \"#utility.yul\":22705:22782   */\n      0x4e487b7100000000000000000000000000000000000000000000000000000000\n        /* \"#utility.yul\":22702:22703   */\n      0x00\n        /* \"#utility.yul\":22695:22783   */\n      mstore\n        /* \"#utility.yul\":22802:22806   */\n      0x12\n        /* \"#utility.yul\":22799:22800   */\n      0x04\n        /* \"#utility.yul\":22792:22807   */\n      mstore\n        /* \"#utility.yul\":22826:22830   */\n      0x24\n        /* \"#utility.yul\":22823:22824   */\n      0x00\n        /* \"#utility.yul\":22816:22831   */\n      revert\n        /* \"#utility.yul\":22843:23023   */\n    tag_195:\n        /* \"#utility.yul\":22891:22968   */\n      0x4e487b7100000000000000000000000000000000000000000000000000000000\n        /* \"#utility.yul\":22888:22889   */\n      0x00\n        /* \"#utility.yul\":22881:22969   */\n      mstore\n        /* \"#utility.yul\":22988:22992   */\n      0x11\n        /* \"#utility.yul\":22985:22986   */\n      0x04\n        /* \"#utility.yul\":22978:22993   */\n      mstore\n        /* \"#utility.yul\":23012:23016   */\n      0x24\n        /* \"#utility.yul\":23009:23010   */\n      0x00\n        /* \"#utility.yul\":23002:23017   */\n      revert\n        /* \"#utility.yul\":23029:23214   */\n    tag_97:\n        /* \"#utility.yul\":23069:23070   */\n      0x00\n        /* \"#utility.yul\":23086:23106   */\n      tag_410\n        /* \"#utility.yul\":23104:23105   */\n      dup3\n        /* \"#utility.yul\":23086:23106   */\n      tag_125\n      jump\t// in\n    tag_410:\n        /* \"#utility.yul\":23081:23106   */\n      swap2\n      pop\n        /* \"#utility.yul\":23120:23140   */\n      tag_411\n        /* \"#utility.yul\":23138:23139   */\n      dup4\n        /* \"#utility.yul\":23120:23140   */\n      tag_125\n      jump\t// in\n    tag_411:\n        /* \"#utility.yul\":23115:23140   */\n      swap3\n      pop\n        /* \"#utility.yul\":23159:23160   */\n      dup3\n        /* \"#utility.yul\":23149:23184   */\n      tag_412\n      jumpi\n        /* \"#utility.yul\":23164:23182   */\n      tag_413\n      tag_194\n      jump\t// in\n    tag_413:\n        /* \"#utility.yul\":23149:23184   */\n    tag_412:\n        /* \"#utility.yul\":23206:23207   */\n      dup3\n        /* \"#utility.yul\":23203:23204   */\n      dup3\n        /* \"#utility.yul\":23199:23208   */\n      div\n        /* \"#utility.yul\":23194:23208   */\n      swap1\n      pop\n        /* \"#utility.yul\":23029:23214   */\n      swap3\n      swap2\n      pop\n      pop\n      jump\t// out\n        /* \"#utility.yul\":23220:23568   */\n    tag_99:\n        /* \"#utility.yul\":23260:23267   */\n      0x00\n        /* \"#utility.yul\":23283:23303   */\n      tag_415\n        /* \"#utility.yul\":23301:23302   */\n      dup3\n        /* \"#utility.yul\":23283:23303   */\n      tag_125\n      jump\t// in\n    tag_415:\n        /* \"#utility.yul\":23278:23303   */\n      swap2\n      pop\n        /* \"#utility.yul\":23317:23337   */\n      tag_416\n        /* \"#utility.yul\":23335:23336   */\n      dup4\n        /* \"#utility.yul\":23317:23337   */\n      tag_125\n      jump\t// in\n    tag_416:\n        /* \"#utility.yul\":23312:23337   */\n      swap3\n      pop\n        /* \"#utility.yul\":23505:23506   */\n      dup2\n        /* \"#utility.yul\":23437:23503   */\n      0xffffffffffffffffffffffffffffffffffffffffffffffffffffffffffffffff\n        /* \"#utility.yul\":23433:23507   */\n      div\n        /* \"#utility.yul\":23430:23431   */\n      dup4\n        /* \"#utility.yul\":23427:23508   */\n      gt\n        /* \"#utility.yul\":23422:23423   */\n      dup3\n        /* \"#utility.yul\":23415:23424   */\n      iszero\n        /* \"#utility.yul\":23408:23425   */\n      iszero\n        /* \"#utility.yul\":23404:23509   */\n      and\n        /* \"#utility.yul\":23401:23532   */\n      iszero\n      tag_417\n      jumpi\n        /* \"#utility.yul\":23512:23530   */\n      tag_418\n      tag_195\n      jump\t// in\n    tag_418:\n        /* \"#utility.yul\":23401:23532   */\n    tag_417:\n        /* \"#utility.yul\":23560:23561   */\n      dup3\n        /* \"#utility.yul\":23557:23558   */\n      dup3\n        /* \"#utility.yul\":23553:23562   */\n      mul\n        /* \"#utility.yul\":23542:23562   */\n      swap1\n      pop\n        /* \"#utility.yul\":23220:23568   */\n      swap3\n      swap2\n      pop\n      pop\n      jump\t// out\n        /* \"#utility.yul\":23574:23879   */\n    tag_101:\n        /* \"#utility.yul\":23614:23617   */\n      0x00\n        /* \"#utility.yul\":23633:23653   */\n      tag_420\n        /* \"#utility.yul\":23651:23652   */\n      dup3\n        /* \"#utility.yul\":23633:23653   */\n      tag_125\n      jump\t// in\n    tag_420:\n        /* \"#utility.yul\":23628:23653   */\n      swap2\n      pop\n        /* \"#utility.yul\":23667:23687   */\n      tag_421\n        /* \"#utility.yul\":23685:23686   */\n      dup4\n        /* \"#utility.yul\":23667:23687   */\n      tag_125\n      jump\t// in\n    tag_421:\n        /* \"#utility.yul\":23662:23687   */\n      swap3\n      pop\n        /* \"#utility.yul\":23821:23822   */\n      dup3\n        /* \"#utility.yul\":23753:23819   */\n      0xffffffffffffffffffffffffffffffffffffffffffffffffffffffffffffffff\n        /* \"#utility.yul\":23749:23823   */\n      sub\n        /* \"#utility.yul\":23746:23747   */\n      dup3\n        /* \"#utility.yul\":23743:23824   */\n      gt\n        /* \"#utility.yul\":23740:23847   */\n      iszero\n      tag_422\n      jumpi\n        /* \"#utility.yul\":23827:23845   */\n      tag_423\n      tag_195\n      jump\t// in\n    tag_423:\n        /* \"#utility.yul\":23740:23847   */\n    tag_422:\n        /* \"#utility.yul\":23871:23872   */\n      dup3\n        /* \"#utility.yul\":23868:23869   */\n      dup3\n        /* \"#utility.yul\":23864:23873   */\n      add\n        /* \"#utility.yul\":23857:23873   */\n      swap1\n      pop\n        /* \"#utility.yul\":23574:23879   */\n      swap3\n      swap2\n      pop\n      pop\n      jump\t// out\n\n    auxdata: 0xa2646970667358221220b72ff36c984ba7b892bbdae45983573f27e49fd4f7d3d87a1fa939a2d2a2649164736f6c634300080f0033\n}\n",
				"bytecode": {
					"linkReferences": {},
					"object": "608060405260008060006101000a81548160ff02191690831515021790555060008060016101000a81548160ff0219169083151502179055503480156200004557600080fd5b5060405162001f4138038062001f4183398181016040528101906200006b919062000268565b33600360000160006101000a81548173ffffffffffffffffffffffffffffffffffffffff021916908373ffffffffffffffffffffffffffffffffffffffff1602179055508060036002019081620000c3919062000504565b5050620005eb565b6000604051905090565b600080fd5b600080fd5b600080fd5b600080fd5b6000601f19601f8301169050919050565b7f4e487b7100000000000000000000000000000000000000000000000000000000600052604160045260246000fd5b6200013482620000e9565b810181811067ffffffffffffffff82111715620001565762000155620000fa565b5b80604052505050565b60006200016b620000cb565b905062000179828262000129565b919050565b600067ffffffffffffffff8211156200019c576200019b620000fa565b5b620001a782620000e9565b9050602081019050919050565b60005b83811015620001d4578082015181840152602081019050620001b7565b83811115620001e4576000848401525b50505050565b600062000201620001fb846200017e565b6200015f565b90508281526020810184848401111562000220576200021f620000e4565b5b6200022d848285620001b4565b509392505050565b600082601f8301126200024d576200024c620000df565b5b81516200025f848260208601620001ea565b91505092915050565b600060208284031215620002815762000280620000d5565b5b600082015167ffffffffffffffff811115620002a257620002a1620000da565b5b620002b08482850162000235565b91505092915050565b600081519050919050565b7f4e487b7100000000000000000000000000000000000000000000000000000000600052602260045260246000fd5b600060028204905060018216806200030c57607f821691505b602082108103620003225762000321620002c4565b5b50919050565b60008190508160005260206000209050919050565b60006020601f8301049050919050565b600082821b905092915050565b6000600883026200038c7fffffffffffffffffffffffffffffffffffffffffffffffffffffffffffffffff826200034d565b6200039886836200034d565b95508019841693508086168417925050509392505050565b6000819050919050565b6000819050919050565b6000620003e5620003df620003d984620003b0565b620003ba565b620003b0565b9050919050565b6000819050919050565b6200040183620003c4565b620004196200041082620003ec565b8484546200035a565b825550505050565b600090565b6200043062000421565b6200043d818484620003f6565b505050565b5b8181101562000465576200045960008262000426565b60018101905062000443565b5050565b601f821115620004b4576200047e8162000328565b62000489846200033d565b8101602085101562000499578190505b620004b1620004a8856200033d565b83018262000442565b50505b505050565b600082821c905092915050565b6000620004d960001984600802620004b9565b1980831691505092915050565b6000620004f48383620004c6565b9150826002028217905092915050565b6200050f82620002b9565b67ffffffffffffffff8111156200052b576200052a620000fa565b5b620005378254620002f3565b6200054482828562000469565b600060209050601f8311600181146200057c576000841562000567578287015190505b620005738582620004e6565b865550620005e3565b601f1984166200058c8662000328565b60005b82811015620005b6578489015182556001820191506020850194506020810190506200058f565b86831015620005d65784890151620005d2601f891682620004c6565b8355505b6001600288020188555050505b505050505050565b61194680620005fb6000396000f3fe6080604052600436106100955760003560e01c8063ad6069e011610059578063ad6069e01461012f578063b8a6d8701461015a578063c093334014610183578063cf804c84146101ae578063efe270ba146101d95761009c565b80633ea8a717146100a157806370a57fd3146100cc57806372f924ae146100d657806376cdb03b146100ed5780639fcb8099146101185761009c565b3661009c57005b600080fd5b3480156100ad57600080fd5b506100b66101f0565b6040516100c39190610c53565b60405180910390f35b6100d46101f6565b005b3480156100e257600080fd5b506100eb6103c7565b005b3480156100f957600080fd5b50610102610531565b60405161010f9190610c53565b60405180910390f35b34801561012457600080fd5b5061012d610537565b005b34801561013b57600080fd5b5061014461060a565b6040516101519190610c89565b60405180910390f35b34801561016657600080fd5b50610181600480360381019061017c9190610ec1565b61061d565b005b34801561018f57600080fd5b50610198610781565b6040516101a59190610c89565b60405180910390f35b3480156101ba57600080fd5b506101c3610792565b6040516101d0919061115a565b60405180910390f35b3480156101e557600080fd5b506101ee610a02565b005b60015481565b600360010160009054906101000a900473ffffffffffffffffffffffffffffffffffffffff1673ffffffffffffffffffffffffffffffffffffffff163373ffffffffffffffffffffffffffffffffffffffff1614610289576040517f08c379a0000000000000000000000000000000000000000000000000000000008152600401610280906111d9565b60405180910390fd5b600115156003600a0160019054906101000a900460ff1615151480156102c55750600115156003600a0160009054906101000a900460ff161515145b610304576040517f08c379a00000000000000000000000000000000000000000000000000000000081526004016102fb9061126b565b60405180910390fd5b6000600360010160009054906101000a900473ffffffffffffffffffffffffffffffffffffffff16905060008173ffffffffffffffffffffffffffffffffffffffff16600360050154604051610359906112bc565b60006040518083038185875af1925050503d8060008114610396576040519150601f19603f3d011682016040523d82523d6000602084013e61039b565b606091505b50509050806103a957600080fd5b60016000806101000a81548160ff0219169083151502179055505050565b600360000160009054906101000a900473ffffffffffffffffffffffffffffffffffffffff1673ffffffffffffffffffffffffffffffffffffffff163373ffffffffffffffffffffffffffffffffffffffff161461045a576040517f08c379a00000000000000000000000000000000000000000000000000000000081526004016104519061131d565b60405180910390fd5b6001151560008054906101000a900460ff161515146104ae576040517f08c379a00000000000000000000000000000000000000000000000000000000081526004016104a5906113af565b60405180910390fd5b6001151560008054906101000a900460ff16151514610502576040517f08c379a00000000000000000000000000000000000000000000000000000000081526004016104f990611441565b60405180910390fd5b6001600060016101000a81548160ff0219169083151502179055504260036007018190555061052f610ad5565b565b60025481565b600360000160009054906101000a900473ffffffffffffffffffffffffffffffffffffffff1673ffffffffffffffffffffffffffffffffffffffff163373ffffffffffffffffffffffffffffffffffffffff16146105ca576040517f08c379a00000000000000000000000000000000000000000000000000000000081526004016105c19061131d565b60405180910390fd5b60016003600a0160006101000a81548160ff02191690831515021790555042600360080181905550600115156003600a0160019054906101000a90505050565b600060019054906101000a900460ff1681565b600360000160009054906101000a900473ffffffffffffffffffffffffffffffffffffffff1673ffffffffffffffffffffffffffffffffffffffff168673ffffffffffffffffffffffffffffffffffffffff16036106b0576040517f08c379a00000000000000000000000000000000000000000000000000000000081526004016106a7906114d3565b60405180910390fd5b85600360010160006101000a81548173ffffffffffffffffffffffffffffffffffffffff021916908373ffffffffffffffffffffffffffffffffffffffff1602179055508460038001908161070591906116ff565b5083600360040160006101000a81548160ff021916908360ff160217905550600360040160009054906101000a900460ff1660ff16606484610747919061182f565b6107519190611860565b8361075c91906118ba565b6003600501819055508160036006018190555080600360070181905550505050505050565b60008054906101000a900460ff1681565b61079a610ba6565b6003604051806101800160405290816000820160009054906101000a900473ffffffffffffffffffffffffffffffffffffffff1673ffffffffffffffffffffffffffffffffffffffff1673ffffffffffffffffffffffffffffffffffffffff1681526020016001820160009054906101000a900473ffffffffffffffffffffffffffffffffffffffff1673ffffffffffffffffffffffffffffffffffffffff1673ffffffffffffffffffffffffffffffffffffffff16815260200160028201805461086490611522565b80601f016020809104026020016040519081016040528092919081815260200182805461089090611522565b80156108dd5780601f106108b2576101008083540402835291602001916108dd565b820191906000526020600020905b8154815290600101906020018083116108c057829003601f168201915b505050505081526020016003820180546108f690611522565b80601f016020809104026020016040519081016040528092919081815260200182805461092290611522565b801561096f5780601f106109445761010080835404028352916020019161096f565b820191906000526020600020905b81548152906001019060200180831161095257829003601f168201915b505050505081526020016004820160009054906101000a900460ff1660ff1660ff1681526020016005820154815260200160068201548152602001600782015481526020016008820154815260200160098201548152602001600a820160009054906101000a900460ff16151515158152602001600a820160019054906101000a900460ff161515151581525050905090565b600360010160009054906101000a900473ffffffffffffffffffffffffffffffffffffffff1673ffffffffffffffffffffffffffffffffffffffff163373ffffffffffffffffffffffffffffffffffffffff1614610a95576040517f08c379a0000000000000000000000000000000000000000000000000000000008152600401610a8c906111d9565b60405180910390fd5b60016003600a0160016101000a81548160ff02191690831515021790555042600360090181905550600115156003600a0160009054906101000a90505050565b600360000160009054906101000a900473ffffffffffffffffffffffffffffffffffffffff1673ffffffffffffffffffffffffffffffffffffffff163373ffffffffffffffffffffffffffffffffffffffff1614610b68576040517f08c379a0000000000000000000000000000000000000000000000000000000008152600401610b5f9061131d565b60405180910390fd5b600360000160009054906101000a900473ffffffffffffffffffffffffffffffffffffffff1673ffffffffffffffffffffffffffffffffffffffff16ff5b604051806101800160405280600073ffffffffffffffffffffffffffffffffffffffff168152602001600073ffffffffffffffffffffffffffffffffffffffff1681526020016060815260200160608152602001600060ff16815260200160008152602001600081526020016000815260200160008152602001600081526020016000151581526020016000151581525090565b6000819050919050565b610c4d81610c3a565b82525050565b6000602082019050610c686000830184610c44565b92915050565b60008115159050919050565b610c8381610c6e565b82525050565b6000602082019050610c9e6000830184610c7a565b92915050565b6000604051905090565b600080fd5b600080fd5b600073ffffffffffffffffffffffffffffffffffffffff82169050919050565b6000610ce382610cb8565b9050919050565b610cf381610cd8565b8114610cfe57600080fd5b50565b600081359050610d1081610cea565b92915050565b600080fd5b600080fd5b6000601f19601f8301169050919050565b7f4e487b7100000000000000000000000000000000000000000000000000000000600052604160045260246000fd5b610d6982610d20565b810181811067ffffffffffffffff82111715610d8857610d87610d31565b5b80604052505050565b6000610d9b610ca4565b9050610da78282610d60565b919050565b600067ffffffffffffffff821115610dc757610dc6610d31565b5b610dd082610d20565b9050602081019050919050565b82818337600083830152505050565b6000610dff610dfa84610dac565b610d91565b905082815260208101848484011115610e1b57610e1a610d1b565b5b610e26848285610ddd565b509392505050565b600082601f830112610e4357610e42610d16565b5b8135610e53848260208601610dec565b91505092915050565b600060ff82169050919050565b610e7281610e5c565b8114610e7d57600080fd5b50565b600081359050610e8f81610e69565b92915050565b610e9e81610c3a565b8114610ea957600080fd5b50565b600081359050610ebb81610e95565b92915050565b60008060008060008060c08789031215610ede57610edd610cae565b5b6000610eec89828a01610d01565b965050602087013567ffffffffffffffff811115610f0d57610f0c610cb3565b5b610f1989828a01610e2e565b9550506040610f2a89828a01610e80565b9450506060610f3b89828a01610eac565b9350506080610f4c89828a01610eac565b92505060a0610f5d89828a01610eac565b9150509295509295509295565b610f7381610cd8565b82525050565b6000610f8482610cb8565b9050919050565b610f9481610f79565b82525050565b600081519050919050565b600082825260208201905092915050565b60005b83811015610fd4578082015181840152602081019050610fb9565b83811115610fe3576000848401525b50505050565b6000610ff482610f9a565b610ffe8185610fa5565b935061100e818560208601610fb6565b61101781610d20565b840191505092915050565b61102b81610e5c565b82525050565b61103a81610c3a565b82525050565b61104981610c6e565b82525050565b6000610180830160008301516110686000860182610f6a565b50602083015161107b6020860182610f8b565b50604083015184820360408601526110938282610fe9565b915050606083015184820360608601526110ad8282610fe9565b91505060808301516110c26080860182611022565b5060a08301516110d560a0860182611031565b5060c08301516110e860c0860182611031565b5060e08301516110fb60e0860182611031565b50610100830151611110610100860182611031565b50610120830151611125610120860182611031565b5061014083015161113a610140860182611040565b5061016083015161114f610160860182611040565b508091505092915050565b60006020820190508181036000830152611174818461104f565b905092915050565b600082825260208201905092915050565b7f4f6e6c792074686520446562746f722063616e20746869732100000000000000600082015250565b60006111c360198361117c565b91506111ce8261118d565b602082019050919050565b600060208201905081810360008301526111f2816111b6565b9050919050565b7f4e65656420636f6e73657420666f7220486f6c64657220616e6420446562746f60008201527f7200000000000000000000000000000000000000000000000000000000000000602082015250565b600061125560218361117c565b9150611260826111f9565b604082019050919050565b6000602082019050818103600083015261128481611248565b9050919050565b600081905092915050565b50565b60006112a660008361128b565b91506112b182611296565b600082019050919050565b60006112c782611299565b9150819050919050565b7f4f6e6c792074686520486f6c6465722063616e20746869732100000000000000600082015250565b600061130760198361117c565b9150611312826112d1565b602082019050919050565b60006020820190508181036000830152611336816112fa565b9050919050565b7f5061796d656e74206d757374206265206d616465206265666f7265207769746860008201527f64726177696e672066756e647321000000000000000000000000000000000000602082015250565b6000611399602e8361117c565b91506113a48261133d565b604082019050919050565b600060208201905081810360008301526113c88161138c565b9050919050565b7f596f75206d757374207061792074686520616d6f756e742070726f6d6973736f60008201527f7279000000000000000000000000000000000000000000000000000000000000602082015250565b600061142b60228361117c565b9150611436826113cf565b604082019050919050565b6000602082019050818103600083015261145a8161141e565b9050919050565b7f446562746f7220616e6420486f6c646572206d7573742062652064696666657260008201527f656e742070656f706c6573000000000000000000000000000000000000000000602082015250565b60006114bd602b8361117c565b91506114c882611461565b604082019050919050565b600060208201905081810360008301526114ec816114b0565b9050919050565b7f4e487b7100000000000000000000000000000000000000000000000000000000600052602260045260246000fd5b6000600282049050600182168061153a57607f821691505b60208210810361154d5761154c6114f3565b5b50919050565b60008190508160005260206000209050919050565b60006020601f8301049050919050565b600082821b905092915050565b6000600883026115b57fffffffffffffffffffffffffffffffffffffffffffffffffffffffffffffffff82611578565b6115bf8683611578565b95508019841693508086168417925050509392505050565b6000819050919050565b60006115fc6115f76115f284610c3a565b6115d7565b610c3a565b9050919050565b6000819050919050565b611616836115e1565b61162a61162282611603565b848454611585565b825550505050565b600090565b61163f611632565b61164a81848461160d565b505050565b5b8181101561166e57611663600082611637565b600181019050611650565b5050565b601f8211156116b35761168481611553565b61168d84611568565b8101602085101561169c578190505b6116b06116a885611568565b83018261164f565b50505b505050565b600082821c905092915050565b60006116d6600019846008026116b8565b1980831691505092915050565b60006116ef83836116c5565b9150826002028217905092915050565b61170882610f9a565b67ffffffffffffffff81111561172157611720610d31565b5b61172b8254611522565b611736828285611672565b600060209050601f8311600181146117695760008415611757578287015190505b61176185826116e3565b8655506117c9565b601f19841661177786611553565b60005b8281101561179f5784890151825560018201915060208501945060208101905061177a565b868310156117bc57848901516117b8601f8916826116c5565b8355505b6001600288020188555050505b505050505050565b7f4e487b7100000000000000000000000000000000000000000000000000000000600052601260045260246000fd5b7f4e487b7100000000000000000000000000000000000000000000000000000000600052601160045260246000fd5b600061183a82610c3a565b915061184583610c3a565b925082611855576118546117d1565b5b828204905092915050565b600061186b82610c3a565b915061187683610c3a565b9250817fffffffffffffffffffffffffffffffffffffffffffffffffffffffffffffffff04831182151516156118af576118ae611800565b5b828202905092915050565b60006118c582610c3a565b91506118d083610c3a565b9250827fffffffffffffffffffffffffffffffffffffffffffffffffffffffffffffffff0382111561190557611904611800565b5b82820190509291505056fea2646970667358221220b72ff36c984ba7b892bbdae45983573f27e49fd4f7d3d87a1fa939a2d2a2649164736f6c634300080f0033",
					"opcodes": "PUSH1 0x80 PUSH1 0x40 MSTORE PUSH1 0x0 DUP1 PUSH1 0x0 PUSH2 0x100 EXP DUP2 SLOAD DUP2 PUSH1 0xFF MUL NOT AND SWAP1 DUP4 ISZERO ISZERO MUL OR SWAP1 SSTORE POP PUSH1 0x0 DUP1 PUSH1 0x1 PUSH2 0x100 EXP DUP2 SLOAD DUP2 PUSH1 0xFF MUL NOT AND SWAP1 DUP4 ISZERO ISZERO MUL OR SWAP1 SSTORE POP CALLVALUE DUP1 ISZERO PUSH3 0x45 JUMPI PUSH1 0x0 DUP1 REVERT JUMPDEST POP PUSH1 0x40 MLOAD PUSH3 0x1F41 CODESIZE SUB DUP1 PUSH3 0x1F41 DUP4 CODECOPY DUP2 DUP2 ADD PUSH1 0x40 MSTORE DUP2 ADD SWAP1 PUSH3 0x6B SWAP2 SWAP1 PUSH3 0x268 JUMP JUMPDEST CALLER PUSH1 0x3 PUSH1 0x0 ADD PUSH1 0x0 PUSH2 0x100 EXP DUP2 SLOAD DUP2 PUSH20 0xFFFFFFFFFFFFFFFFFFFFFFFFFFFFFFFFFFFFFFFF MUL NOT AND SWAP1 DUP4 PUSH20 0xFFFFFFFFFFFFFFFFFFFFFFFFFFFFFFFFFFFFFFFF AND MUL OR SWAP1 SSTORE POP DUP1 PUSH1 0x3 PUSH1 0x2 ADD SWAP1 DUP2 PUSH3 0xC3 SWAP2 SWAP1 PUSH3 0x504 JUMP JUMPDEST POP POP PUSH3 0x5EB JUMP JUMPDEST PUSH1 0x0 PUSH1 0x40 MLOAD SWAP1 POP SWAP1 JUMP JUMPDEST PUSH1 0x0 DUP1 REVERT JUMPDEST PUSH1 0x0 DUP1 REVERT JUMPDEST PUSH1 0x0 DUP1 REVERT JUMPDEST PUSH1 0x0 DUP1 REVERT JUMPDEST PUSH1 0x0 PUSH1 0x1F NOT PUSH1 0x1F DUP4 ADD AND SWAP1 POP SWAP2 SWAP1 POP JUMP JUMPDEST PUSH32 0x4E487B7100000000000000000000000000000000000000000000000000000000 PUSH1 0x0 MSTORE PUSH1 0x41 PUSH1 0x4 MSTORE PUSH1 0x24 PUSH1 0x0 REVERT JUMPDEST PUSH3 0x134 DUP3 PUSH3 0xE9 JUMP JUMPDEST DUP2 ADD DUP2 DUP2 LT PUSH8 0xFFFFFFFFFFFFFFFF DUP3 GT OR ISZERO PUSH3 0x156 JUMPI PUSH3 0x155 PUSH3 0xFA JUMP JUMPDEST JUMPDEST DUP1 PUSH1 0x40 MSTORE POP POP POP JUMP JUMPDEST PUSH1 0x0 PUSH3 0x16B PUSH3 0xCB JUMP JUMPDEST SWAP1 POP PUSH3 0x179 DUP3 DUP3 PUSH3 0x129 JUMP JUMPDEST SWAP2 SWAP1 POP JUMP JUMPDEST PUSH1 0x0 PUSH8 0xFFFFFFFFFFFFFFFF DUP3 GT ISZERO PUSH3 0x19C JUMPI PUSH3 0x19B PUSH3 0xFA JUMP JUMPDEST JUMPDEST PUSH3 0x1A7 DUP3 PUSH3 0xE9 JUMP JUMPDEST SWAP1 POP PUSH1 0x20 DUP2 ADD SWAP1 POP SWAP2 SWAP1 POP JUMP JUMPDEST PUSH1 0x0 JUMPDEST DUP4 DUP2 LT ISZERO PUSH3 0x1D4 JUMPI DUP1 DUP3 ADD MLOAD DUP2 DUP5 ADD MSTORE PUSH1 0x20 DUP2 ADD SWAP1 POP PUSH3 0x1B7 JUMP JUMPDEST DUP4 DUP2 GT ISZERO PUSH3 0x1E4 JUMPI PUSH1 0x0 DUP5 DUP5 ADD MSTORE JUMPDEST POP POP POP POP JUMP JUMPDEST PUSH1 0x0 PUSH3 0x201 PUSH3 0x1FB DUP5 PUSH3 0x17E JUMP JUMPDEST PUSH3 0x15F JUMP JUMPDEST SWAP1 POP DUP3 DUP2 MSTORE PUSH1 0x20 DUP2 ADD DUP5 DUP5 DUP5 ADD GT ISZERO PUSH3 0x220 JUMPI PUSH3 0x21F PUSH3 0xE4 JUMP JUMPDEST JUMPDEST PUSH3 0x22D DUP5 DUP3 DUP6 PUSH3 0x1B4 JUMP JUMPDEST POP SWAP4 SWAP3 POP POP POP JUMP JUMPDEST PUSH1 0x0 DUP3 PUSH1 0x1F DUP4 ADD SLT PUSH3 0x24D JUMPI PUSH3 0x24C PUSH3 0xDF JUMP JUMPDEST JUMPDEST DUP2 MLOAD PUSH3 0x25F DUP5 DUP3 PUSH1 0x20 DUP7 ADD PUSH3 0x1EA JUMP JUMPDEST SWAP2 POP POP SWAP3 SWAP2 POP POP JUMP JUMPDEST PUSH1 0x0 PUSH1 0x20 DUP3 DUP5 SUB SLT ISZERO PUSH3 0x281 JUMPI PUSH3 0x280 PUSH3 0xD5 JUMP JUMPDEST JUMPDEST PUSH1 0x0 DUP3 ADD MLOAD PUSH8 0xFFFFFFFFFFFFFFFF DUP2 GT ISZERO PUSH3 0x2A2 JUMPI PUSH3 0x2A1 PUSH3 0xDA JUMP JUMPDEST JUMPDEST PUSH3 0x2B0 DUP5 DUP3 DUP6 ADD PUSH3 0x235 JUMP JUMPDEST SWAP2 POP POP SWAP3 SWAP2 POP POP JUMP JUMPDEST PUSH1 0x0 DUP2 MLOAD SWAP1 POP SWAP2 SWAP1 POP JUMP JUMPDEST PUSH32 0x4E487B7100000000000000000000000000000000000000000000000000000000 PUSH1 0x0 MSTORE PUSH1 0x22 PUSH1 0x4 MSTORE PUSH1 0x24 PUSH1 0x0 REVERT JUMPDEST PUSH1 0x0 PUSH1 0x2 DUP3 DIV SWAP1 POP PUSH1 0x1 DUP3 AND DUP1 PUSH3 0x30C JUMPI PUSH1 0x7F DUP3 AND SWAP2 POP JUMPDEST PUSH1 0x20 DUP3 LT DUP2 SUB PUSH3 0x322 JUMPI PUSH3 0x321 PUSH3 0x2C4 JUMP JUMPDEST JUMPDEST POP SWAP2 SWAP1 POP JUMP JUMPDEST PUSH1 0x0 DUP2 SWAP1 POP DUP2 PUSH1 0x0 MSTORE PUSH1 0x20 PUSH1 0x0 KECCAK256 SWAP1 POP SWAP2 SWAP1 POP JUMP JUMPDEST PUSH1 0x0 PUSH1 0x20 PUSH1 0x1F DUP4 ADD DIV SWAP1 POP SWAP2 SWAP1 POP JUMP JUMPDEST PUSH1 0x0 DUP3 DUP3 SHL SWAP1 POP SWAP3 SWAP2 POP POP JUMP JUMPDEST PUSH1 0x0 PUSH1 0x8 DUP4 MUL PUSH3 0x38C PUSH32 0xFFFFFFFFFFFFFFFFFFFFFFFFFFFFFFFFFFFFFFFFFFFFFFFFFFFFFFFFFFFFFFFF DUP3 PUSH3 0x34D JUMP JUMPDEST PUSH3 0x398 DUP7 DUP4 PUSH3 0x34D JUMP JUMPDEST SWAP6 POP DUP1 NOT DUP5 AND SWAP4 POP DUP1 DUP7 AND DUP5 OR SWAP3 POP POP POP SWAP4 SWAP3 POP POP POP JUMP JUMPDEST PUSH1 0x0 DUP2 SWAP1 POP SWAP2 SWAP1 POP JUMP JUMPDEST PUSH1 0x0 DUP2 SWAP1 POP SWAP2 SWAP1 POP JUMP JUMPDEST PUSH1 0x0 PUSH3 0x3E5 PUSH3 0x3DF PUSH3 0x3D9 DUP5 PUSH3 0x3B0 JUMP JUMPDEST PUSH3 0x3BA JUMP JUMPDEST PUSH3 0x3B0 JUMP JUMPDEST SWAP1 POP SWAP2 SWAP1 POP JUMP JUMPDEST PUSH1 0x0 DUP2 SWAP1 POP SWAP2 SWAP1 POP JUMP JUMPDEST PUSH3 0x401 DUP4 PUSH3 0x3C4 JUMP JUMPDEST PUSH3 0x419 PUSH3 0x410 DUP3 PUSH3 0x3EC JUMP JUMPDEST DUP5 DUP5 SLOAD PUSH3 0x35A JUMP JUMPDEST DUP3 SSTORE POP POP POP POP JUMP JUMPDEST PUSH1 0x0 SWAP1 JUMP JUMPDEST PUSH3 0x430 PUSH3 0x421 JUMP JUMPDEST PUSH3 0x43D DUP2 DUP5 DUP5 PUSH3 0x3F6 JUMP JUMPDEST POP POP POP JUMP JUMPDEST JUMPDEST DUP2 DUP2 LT ISZERO PUSH3 0x465 JUMPI PUSH3 0x459 PUSH1 0x0 DUP3 PUSH3 0x426 JUMP JUMPDEST PUSH1 0x1 DUP2 ADD SWAP1 POP PUSH3 0x443 JUMP JUMPDEST POP POP JUMP JUMPDEST PUSH1 0x1F DUP3 GT ISZERO PUSH3 0x4B4 JUMPI PUSH3 0x47E DUP2 PUSH3 0x328 JUMP JUMPDEST PUSH3 0x489 DUP5 PUSH3 0x33D JUMP JUMPDEST DUP2 ADD PUSH1 0x20 DUP6 LT ISZERO PUSH3 0x499 JUMPI DUP2 SWAP1 POP JUMPDEST PUSH3 0x4B1 PUSH3 0x4A8 DUP6 PUSH3 0x33D JUMP JUMPDEST DUP4 ADD DUP3 PUSH3 0x442 JUMP JUMPDEST POP POP JUMPDEST POP POP POP JUMP JUMPDEST PUSH1 0x0 DUP3 DUP3 SHR SWAP1 POP SWAP3 SWAP2 POP POP JUMP JUMPDEST PUSH1 0x0 PUSH3 0x4D9 PUSH1 0x0 NOT DUP5 PUSH1 0x8 MUL PUSH3 0x4B9 JUMP JUMPDEST NOT DUP1 DUP4 AND SWAP2 POP POP SWAP3 SWAP2 POP POP JUMP JUMPDEST PUSH1 0x0 PUSH3 0x4F4 DUP4 DUP4 PUSH3 0x4C6 JUMP JUMPDEST SWAP2 POP DUP3 PUSH1 0x2 MUL DUP3 OR SWAP1 POP SWAP3 SWAP2 POP POP JUMP JUMPDEST PUSH3 0x50F DUP3 PUSH3 0x2B9 JUMP JUMPDEST PUSH8 0xFFFFFFFFFFFFFFFF DUP2 GT ISZERO PUSH3 0x52B JUMPI PUSH3 0x52A PUSH3 0xFA JUMP JUMPDEST JUMPDEST PUSH3 0x537 DUP3 SLOAD PUSH3 0x2F3 JUMP JUMPDEST PUSH3 0x544 DUP3 DUP3 DUP6 PUSH3 0x469 JUMP JUMPDEST PUSH1 0x0 PUSH1 0x20 SWAP1 POP PUSH1 0x1F DUP4 GT PUSH1 0x1 DUP2 EQ PUSH3 0x57C JUMPI PUSH1 0x0 DUP5 ISZERO PUSH3 0x567 JUMPI DUP3 DUP8 ADD MLOAD SWAP1 POP JUMPDEST PUSH3 0x573 DUP6 DUP3 PUSH3 0x4E6 JUMP JUMPDEST DUP7 SSTORE POP PUSH3 0x5E3 JUMP JUMPDEST PUSH1 0x1F NOT DUP5 AND PUSH3 0x58C DUP7 PUSH3 0x328 JUMP JUMPDEST PUSH1 0x0 JUMPDEST DUP3 DUP2 LT ISZERO PUSH3 0x5B6 JUMPI DUP5 DUP10 ADD MLOAD DUP3 SSTORE PUSH1 0x1 DUP3 ADD SWAP2 POP PUSH1 0x20 DUP6 ADD SWAP5 POP PUSH1 0x20 DUP2 ADD SWAP1 POP PUSH3 0x58F JUMP JUMPDEST DUP7 DUP4 LT ISZERO PUSH3 0x5D6 JUMPI DUP5 DUP10 ADD MLOAD PUSH3 0x5D2 PUSH1 0x1F DUP10 AND DUP3 PUSH3 0x4C6 JUMP JUMPDEST DUP4 SSTORE POP JUMPDEST PUSH1 0x1 PUSH1 0x2 DUP9 MUL ADD DUP9 SSTORE POP POP POP JUMPDEST POP POP POP POP POP POP JUMP JUMPDEST PUSH2 0x1946 DUP1 PUSH3 0x5FB PUSH1 0x0 CODECOPY PUSH1 0x0 RETURN INVALID PUSH1 0x80 PUSH1 0x40 MSTORE PUSH1 0x4 CALLDATASIZE LT PUSH2 0x95 JUMPI PUSH1 0x0 CALLDATALOAD PUSH1 0xE0 SHR DUP1 PUSH4 0xAD6069E0 GT PUSH2 0x59 JUMPI DUP1 PUSH4 0xAD6069E0 EQ PUSH2 0x12F JUMPI DUP1 PUSH4 0xB8A6D870 EQ PUSH2 0x15A JUMPI DUP1 PUSH4 0xC0933340 EQ PUSH2 0x183 JUMPI DUP1 PUSH4 0xCF804C84 EQ PUSH2 0x1AE JUMPI DUP1 PUSH4 0xEFE270BA EQ PUSH2 0x1D9 JUMPI PUSH2 0x9C JUMP JUMPDEST DUP1 PUSH4 0x3EA8A717 EQ PUSH2 0xA1 JUMPI DUP1 PUSH4 0x70A57FD3 EQ PUSH2 0xCC JUMPI DUP1 PUSH4 0x72F924AE EQ PUSH2 0xD6 JUMPI DUP1 PUSH4 0x76CDB03B EQ PUSH2 0xED JUMPI DUP1 PUSH4 0x9FCB8099 EQ PUSH2 0x118 JUMPI PUSH2 0x9C JUMP JUMPDEST CALLDATASIZE PUSH2 0x9C JUMPI STOP JUMPDEST PUSH1 0x0 DUP1 REVERT JUMPDEST CALLVALUE DUP1 ISZERO PUSH2 0xAD JUMPI PUSH1 0x0 DUP1 REVERT JUMPDEST POP PUSH2 0xB6 PUSH2 0x1F0 JUMP JUMPDEST PUSH1 0x40 MLOAD PUSH2 0xC3 SWAP2 SWAP1 PUSH2 0xC53 JUMP JUMPDEST PUSH1 0x40 MLOAD DUP1 SWAP2 SUB SWAP1 RETURN JUMPDEST PUSH2 0xD4 PUSH2 0x1F6 JUMP JUMPDEST STOP JUMPDEST CALLVALUE DUP1 ISZERO PUSH2 0xE2 JUMPI PUSH1 0x0 DUP1 REVERT JUMPDEST POP PUSH2 0xEB PUSH2 0x3C7 JUMP JUMPDEST STOP JUMPDEST CALLVALUE DUP1 ISZERO PUSH2 0xF9 JUMPI PUSH1 0x0 DUP1 REVERT JUMPDEST POP PUSH2 0x102 PUSH2 0x531 JUMP JUMPDEST PUSH1 0x40 MLOAD PUSH2 0x10F SWAP2 SWAP1 PUSH2 0xC53 JUMP JUMPDEST PUSH1 0x40 MLOAD DUP1 SWAP2 SUB SWAP1 RETURN JUMPDEST CALLVALUE DUP1 ISZERO PUSH2 0x124 JUMPI PUSH1 0x0 DUP1 REVERT JUMPDEST POP PUSH2 0x12D PUSH2 0x537 JUMP JUMPDEST STOP JUMPDEST CALLVALUE DUP1 ISZERO PUSH2 0x13B JUMPI PUSH1 0x0 DUP1 REVERT JUMPDEST POP PUSH2 0x144 PUSH2 0x60A JUMP JUMPDEST PUSH1 0x40 MLOAD PUSH2 0x151 SWAP2 SWAP1 PUSH2 0xC89 JUMP JUMPDEST PUSH1 0x40 MLOAD DUP1 SWAP2 SUB SWAP1 RETURN JUMPDEST CALLVALUE DUP1 ISZERO PUSH2 0x166 JUMPI PUSH1 0x0 DUP1 REVERT JUMPDEST POP PUSH2 0x181 PUSH1 0x4 DUP1 CALLDATASIZE SUB DUP2 ADD SWAP1 PUSH2 0x17C SWAP2 SWAP1 PUSH2 0xEC1 JUMP JUMPDEST PUSH2 0x61D JUMP JUMPDEST STOP JUMPDEST CALLVALUE DUP1 ISZERO PUSH2 0x18F JUMPI PUSH1 0x0 DUP1 REVERT JUMPDEST POP PUSH2 0x198 PUSH2 0x781 JUMP JUMPDEST PUSH1 0x40 MLOAD PUSH2 0x1A5 SWAP2 SWAP1 PUSH2 0xC89 JUMP JUMPDEST PUSH1 0x40 MLOAD DUP1 SWAP2 SUB SWAP1 RETURN JUMPDEST CALLVALUE DUP1 ISZERO PUSH2 0x1BA JUMPI PUSH1 0x0 DUP1 REVERT JUMPDEST POP PUSH2 0x1C3 PUSH2 0x792 JUMP JUMPDEST PUSH1 0x40 MLOAD PUSH2 0x1D0 SWAP2 SWAP1 PUSH2 0x115A JUMP JUMPDEST PUSH1 0x40 MLOAD DUP1 SWAP2 SUB SWAP1 RETURN JUMPDEST CALLVALUE DUP1 ISZERO PUSH2 0x1E5 JUMPI PUSH1 0x0 DUP1 REVERT JUMPDEST POP PUSH2 0x1EE PUSH2 0xA02 JUMP JUMPDEST STOP JUMPDEST PUSH1 0x1 SLOAD DUP2 JUMP JUMPDEST PUSH1 0x3 PUSH1 0x1 ADD PUSH1 0x0 SWAP1 SLOAD SWAP1 PUSH2 0x100 EXP SWAP1 DIV PUSH20 0xFFFFFFFFFFFFFFFFFFFFFFFFFFFFFFFFFFFFFFFF AND PUSH20 0xFFFFFFFFFFFFFFFFFFFFFFFFFFFFFFFFFFFFFFFF AND CALLER PUSH20 0xFFFFFFFFFFFFFFFFFFFFFFFFFFFFFFFFFFFFFFFF AND EQ PUSH2 0x289 JUMPI PUSH1 0x40 MLOAD PUSH32 0x8C379A000000000000000000000000000000000000000000000000000000000 DUP2 MSTORE PUSH1 0x4 ADD PUSH2 0x280 SWAP1 PUSH2 0x11D9 JUMP JUMPDEST PUSH1 0x40 MLOAD DUP1 SWAP2 SUB SWAP1 REVERT JUMPDEST PUSH1 0x1 ISZERO ISZERO PUSH1 0x3 PUSH1 0xA ADD PUSH1 0x1 SWAP1 SLOAD SWAP1 PUSH2 0x100 EXP SWAP1 DIV PUSH1 0xFF AND ISZERO ISZERO EQ DUP1 ISZERO PUSH2 0x2C5 JUMPI POP PUSH1 0x1 ISZERO ISZERO PUSH1 0x3 PUSH1 0xA ADD PUSH1 0x0 SWAP1 SLOAD SWAP1 PUSH2 0x100 EXP SWAP1 DIV PUSH1 0xFF AND ISZERO ISZERO EQ JUMPDEST PUSH2 0x304 JUMPI PUSH1 0x40 MLOAD PUSH32 0x8C379A000000000000000000000000000000000000000000000000000000000 DUP2 MSTORE PUSH1 0x4 ADD PUSH2 0x2FB SWAP1 PUSH2 0x126B JUMP JUMPDEST PUSH1 0x40 MLOAD DUP1 SWAP2 SUB SWAP1 REVERT JUMPDEST PUSH1 0x0 PUSH1 0x3 PUSH1 0x1 ADD PUSH1 0x0 SWAP1 SLOAD SWAP1 PUSH2 0x100 EXP SWAP1 DIV PUSH20 0xFFFFFFFFFFFFFFFFFFFFFFFFFFFFFFFFFFFFFFFF AND SWAP1 POP PUSH1 0x0 DUP2 PUSH20 0xFFFFFFFFFFFFFFFFFFFFFFFFFFFFFFFFFFFFFFFF AND PUSH1 0x3 PUSH1 0x5 ADD SLOAD PUSH1 0x40 MLOAD PUSH2 0x359 SWAP1 PUSH2 0x12BC JUMP JUMPDEST PUSH1 0x0 PUSH1 0x40 MLOAD DUP1 DUP4 SUB DUP2 DUP6 DUP8 GAS CALL SWAP3 POP POP POP RETURNDATASIZE DUP1 PUSH1 0x0 DUP2 EQ PUSH2 0x396 JUMPI PUSH1 0x40 MLOAD SWAP2 POP PUSH1 0x1F NOT PUSH1 0x3F RETURNDATASIZE ADD AND DUP3 ADD PUSH1 0x40 MSTORE RETURNDATASIZE DUP3 MSTORE RETURNDATASIZE PUSH1 0x0 PUSH1 0x20 DUP5 ADD RETURNDATACOPY PUSH2 0x39B JUMP JUMPDEST PUSH1 0x60 SWAP2 POP JUMPDEST POP POP SWAP1 POP DUP1 PUSH2 0x3A9 JUMPI PUSH1 0x0 DUP1 REVERT JUMPDEST PUSH1 0x1 PUSH1 0x0 DUP1 PUSH2 0x100 EXP DUP2 SLOAD DUP2 PUSH1 0xFF MUL NOT AND SWAP1 DUP4 ISZERO ISZERO MUL OR SWAP1 SSTORE POP POP POP JUMP JUMPDEST PUSH1 0x3 PUSH1 0x0 ADD PUSH1 0x0 SWAP1 SLOAD SWAP1 PUSH2 0x100 EXP SWAP1 DIV PUSH20 0xFFFFFFFFFFFFFFFFFFFFFFFFFFFFFFFFFFFFFFFF AND PUSH20 0xFFFFFFFFFFFFFFFFFFFFFFFFFFFFFFFFFFFFFFFF AND CALLER PUSH20 0xFFFFFFFFFFFFFFFFFFFFFFFFFFFFFFFFFFFFFFFF AND EQ PUSH2 0x45A JUMPI PUSH1 0x40 MLOAD PUSH32 0x8C379A000000000000000000000000000000000000000000000000000000000 DUP2 MSTORE PUSH1 0x4 ADD PUSH2 0x451 SWAP1 PUSH2 0x131D JUMP JUMPDEST PUSH1 0x40 MLOAD DUP1 SWAP2 SUB SWAP1 REVERT JUMPDEST PUSH1 0x1 ISZERO ISZERO PUSH1 0x0 DUP1 SLOAD SWAP1 PUSH2 0x100 EXP SWAP1 DIV PUSH1 0xFF AND ISZERO ISZERO EQ PUSH2 0x4AE JUMPI PUSH1 0x40 MLOAD PUSH32 0x8C379A000000000000000000000000000000000000000000000000000000000 DUP2 MSTORE PUSH1 0x4 ADD PUSH2 0x4A5 SWAP1 PUSH2 0x13AF JUMP JUMPDEST PUSH1 0x40 MLOAD DUP1 SWAP2 SUB SWAP1 REVERT JUMPDEST PUSH1 0x1 ISZERO ISZERO PUSH1 0x0 DUP1 SLOAD SWAP1 PUSH2 0x100 EXP SWAP1 DIV PUSH1 0xFF AND ISZERO ISZERO EQ PUSH2 0x502 JUMPI PUSH1 0x40 MLOAD PUSH32 0x8C379A000000000000000000000000000000000000000000000000000000000 DUP2 MSTORE PUSH1 0x4 ADD PUSH2 0x4F9 SWAP1 PUSH2 0x1441 JUMP JUMPDEST PUSH1 0x40 MLOAD DUP1 SWAP2 SUB SWAP1 REVERT JUMPDEST PUSH1 0x1 PUSH1 0x0 PUSH1 0x1 PUSH2 0x100 EXP DUP2 SLOAD DUP2 PUSH1 0xFF MUL NOT AND SWAP1 DUP4 ISZERO ISZERO MUL OR SWAP1 SSTORE POP TIMESTAMP PUSH1 0x3 PUSH1 0x7 ADD DUP2 SWAP1 SSTORE POP PUSH2 0x52F PUSH2 0xAD5 JUMP JUMPDEST JUMP JUMPDEST PUSH1 0x2 SLOAD DUP2 JUMP JUMPDEST PUSH1 0x3 PUSH1 0x0 ADD PUSH1 0x0 SWAP1 SLOAD SWAP1 PUSH2 0x100 EXP SWAP1 DIV PUSH20 0xFFFFFFFFFFFFFFFFFFFFFFFFFFFFFFFFFFFFFFFF AND PUSH20 0xFFFFFFFFFFFFFFFFFFFFFFFFFFFFFFFFFFFFFFFF AND CALLER PUSH20 0xFFFFFFFFFFFFFFFFFFFFFFFFFFFFFFFFFFFFFFFF AND EQ PUSH2 0x5CA JUMPI PUSH1 0x40 MLOAD PUSH32 0x8C379A000000000000000000000000000000000000000000000000000000000 DUP2 MSTORE PUSH1 0x4 ADD PUSH2 0x5C1 SWAP1 PUSH2 0x131D JUMP JUMPDEST PUSH1 0x40 MLOAD DUP1 SWAP2 SUB SWAP1 REVERT JUMPDEST PUSH1 0x1 PUSH1 0x3 PUSH1 0xA ADD PUSH1 0x0 PUSH2 0x100 EXP DUP2 SLOAD DUP2 PUSH1 0xFF MUL NOT AND SWAP1 DUP4 ISZERO ISZERO MUL OR SWAP1 SSTORE POP TIMESTAMP PUSH1 0x3 PUSH1 0x8 ADD DUP2 SWAP1 SSTORE POP PUSH1 0x1 ISZERO ISZERO PUSH1 0x3 PUSH1 0xA ADD PUSH1 0x1 SWAP1 SLOAD SWAP1 PUSH2 0x100 EXP SWAP1 POP POP POP JUMP JUMPDEST PUSH1 0x0 PUSH1 0x1 SWAP1 SLOAD SWAP1 PUSH2 0x100 EXP SWAP1 DIV PUSH1 0xFF AND DUP2 JUMP JUMPDEST PUSH1 0x3 PUSH1 0x0 ADD PUSH1 0x0 SWAP1 SLOAD SWAP1 PUSH2 0x100 EXP SWAP1 DIV PUSH20 0xFFFFFFFFFFFFFFFFFFFFFFFFFFFFFFFFFFFFFFFF AND PUSH20 0xFFFFFFFFFFFFFFFFFFFFFFFFFFFFFFFFFFFFFFFF AND DUP7 PUSH20 0xFFFFFFFFFFFFFFFFFFFFFFFFFFFFFFFFFFFFFFFF AND SUB PUSH2 0x6B0 JUMPI PUSH1 0x40 MLOAD PUSH32 0x8C379A000000000000000000000000000000000000000000000000000000000 DUP2 MSTORE PUSH1 0x4 ADD PUSH2 0x6A7 SWAP1 PUSH2 0x14D3 JUMP JUMPDEST PUSH1 0x40 MLOAD DUP1 SWAP2 SUB SWAP1 REVERT JUMPDEST DUP6 PUSH1 0x3 PUSH1 0x1 ADD PUSH1 0x0 PUSH2 0x100 EXP DUP2 SLOAD DUP2 PUSH20 0xFFFFFFFFFFFFFFFFFFFFFFFFFFFFFFFFFFFFFFFF MUL NOT AND SWAP1 DUP4 PUSH20 0xFFFFFFFFFFFFFFFFFFFFFFFFFFFFFFFFFFFFFFFF AND MUL OR SWAP1 SSTORE POP DUP5 PUSH1 0x3 DUP1 ADD SWAP1 DUP2 PUSH2 0x705 SWAP2 SWAP1 PUSH2 0x16FF JUMP JUMPDEST POP DUP4 PUSH1 0x3 PUSH1 0x4 ADD PUSH1 0x0 PUSH2 0x100 EXP DUP2 SLOAD DUP2 PUSH1 0xFF MUL NOT AND SWAP1 DUP4 PUSH1 0xFF AND MUL OR SWAP1 SSTORE POP PUSH1 0x3 PUSH1 0x4 ADD PUSH1 0x0 SWAP1 SLOAD SWAP1 PUSH2 0x100 EXP SWAP1 DIV PUSH1 0xFF AND PUSH1 0xFF AND PUSH1 0x64 DUP5 PUSH2 0x747 SWAP2 SWAP1 PUSH2 0x182F JUMP JUMPDEST PUSH2 0x751 SWAP2 SWAP1 PUSH2 0x1860 JUMP JUMPDEST DUP4 PUSH2 0x75C SWAP2 SWAP1 PUSH2 0x18BA JUMP JUMPDEST PUSH1 0x3 PUSH1 0x5 ADD DUP2 SWAP1 SSTORE POP DUP2 PUSH1 0x3 PUSH1 0x6 ADD DUP2 SWAP1 SSTORE POP DUP1 PUSH1 0x3 PUSH1 0x7 ADD DUP2 SWAP1 SSTORE POP POP POP POP POP POP POP JUMP JUMPDEST PUSH1 0x0 DUP1 SLOAD SWAP1 PUSH2 0x100 EXP SWAP1 DIV PUSH1 0xFF AND DUP2 JUMP JUMPDEST PUSH2 0x79A PUSH2 0xBA6 JUMP JUMPDEST PUSH1 0x3 PUSH1 0x40 MLOAD DUP1 PUSH2 0x180 ADD PUSH1 0x40 MSTORE SWAP1 DUP2 PUSH1 0x0 DUP3 ADD PUSH1 0x0 SWAP1 SLOAD SWAP1 PUSH2 0x100 EXP SWAP1 DIV PUSH20 0xFFFFFFFFFFFFFFFFFFFFFFFFFFFFFFFFFFFFFFFF AND PUSH20 0xFFFFFFFFFFFFFFFFFFFFFFFFFFFFFFFFFFFFFFFF AND PUSH20 0xFFFFFFFFFFFFFFFFFFFFFFFFFFFFFFFFFFFFFFFF AND DUP2 MSTORE PUSH1 0x20 ADD PUSH1 0x1 DUP3 ADD PUSH1 0x0 SWAP1 SLOAD SWAP1 PUSH2 0x100 EXP SWAP1 DIV PUSH20 0xFFFFFFFFFFFFFFFFFFFFFFFFFFFFFFFFFFFFFFFF AND PUSH20 0xFFFFFFFFFFFFFFFFFFFFFFFFFFFFFFFFFFFFFFFF AND PUSH20 0xFFFFFFFFFFFFFFFFFFFFFFFFFFFFFFFFFFFFFFFF AND DUP2 MSTORE PUSH1 0x20 ADD PUSH1 0x2 DUP3 ADD DUP1 SLOAD PUSH2 0x864 SWAP1 PUSH2 0x1522 JUMP JUMPDEST DUP1 PUSH1 0x1F ADD PUSH1 0x20 DUP1 SWAP2 DIV MUL PUSH1 0x20 ADD PUSH1 0x40 MLOAD SWAP1 DUP2 ADD PUSH1 0x40 MSTORE DUP1 SWAP3 SWAP2 SWAP1 DUP2 DUP2 MSTORE PUSH1 0x20 ADD DUP3 DUP1 SLOAD PUSH2 0x890 SWAP1 PUSH2 0x1522 JUMP JUMPDEST DUP1 ISZERO PUSH2 0x8DD JUMPI DUP1 PUSH1 0x1F LT PUSH2 0x8B2 JUMPI PUSH2 0x100 DUP1 DUP4 SLOAD DIV MUL DUP4 MSTORE SWAP2 PUSH1 0x20 ADD SWAP2 PUSH2 0x8DD JUMP JUMPDEST DUP3 ADD SWAP2 SWAP1 PUSH1 0x0 MSTORE PUSH1 0x20 PUSH1 0x0 KECCAK256 SWAP1 JUMPDEST DUP2 SLOAD DUP2 MSTORE SWAP1 PUSH1 0x1 ADD SWAP1 PUSH1 0x20 ADD DUP1 DUP4 GT PUSH2 0x8C0 JUMPI DUP3 SWAP1 SUB PUSH1 0x1F AND DUP3 ADD SWAP2 JUMPDEST POP POP POP POP POP DUP2 MSTORE PUSH1 0x20 ADD PUSH1 0x3 DUP3 ADD DUP1 SLOAD PUSH2 0x8F6 SWAP1 PUSH2 0x1522 JUMP JUMPDEST DUP1 PUSH1 0x1F ADD PUSH1 0x20 DUP1 SWAP2 DIV MUL PUSH1 0x20 ADD PUSH1 0x40 MLOAD SWAP1 DUP2 ADD PUSH1 0x40 MSTORE DUP1 SWAP3 SWAP2 SWAP1 DUP2 DUP2 MSTORE PUSH1 0x20 ADD DUP3 DUP1 SLOAD PUSH2 0x922 SWAP1 PUSH2 0x1522 JUMP JUMPDEST DUP1 ISZERO PUSH2 0x96F JUMPI DUP1 PUSH1 0x1F LT PUSH2 0x944 JUMPI PUSH2 0x100 DUP1 DUP4 SLOAD DIV MUL DUP4 MSTORE SWAP2 PUSH1 0x20 ADD SWAP2 PUSH2 0x96F JUMP JUMPDEST DUP3 ADD SWAP2 SWAP1 PUSH1 0x0 MSTORE PUSH1 0x20 PUSH1 0x0 KECCAK256 SWAP1 JUMPDEST DUP2 SLOAD DUP2 MSTORE SWAP1 PUSH1 0x1 ADD SWAP1 PUSH1 0x20 ADD DUP1 DUP4 GT PUSH2 0x952 JUMPI DUP3 SWAP1 SUB PUSH1 0x1F AND DUP3 ADD SWAP2 JUMPDEST POP POP POP POP POP DUP2 MSTORE PUSH1 0x20 ADD PUSH1 0x4 DUP3 ADD PUSH1 0x0 SWAP1 SLOAD SWAP1 PUSH2 0x100 EXP SWAP1 DIV PUSH1 0xFF AND PUSH1 0xFF AND PUSH1 0xFF AND DUP2 MSTORE PUSH1 0x20 ADD PUSH1 0x5 DUP3 ADD SLOAD DUP2 MSTORE PUSH1 0x20 ADD PUSH1 0x6 DUP3 ADD SLOAD DUP2 MSTORE PUSH1 0x20 ADD PUSH1 0x7 DUP3 ADD SLOAD DUP2 MSTORE PUSH1 0x20 ADD PUSH1 0x8 DUP3 ADD SLOAD DUP2 MSTORE PUSH1 0x20 ADD PUSH1 0x9 DUP3 ADD SLOAD DUP2 MSTORE PUSH1 0x20 ADD PUSH1 0xA DUP3 ADD PUSH1 0x0 SWAP1 SLOAD SWAP1 PUSH2 0x100 EXP SWAP1 DIV PUSH1 0xFF AND ISZERO ISZERO ISZERO ISZERO DUP2 MSTORE PUSH1 0x20 ADD PUSH1 0xA DUP3 ADD PUSH1 0x1 SWAP1 SLOAD SWAP1 PUSH2 0x100 EXP SWAP1 DIV PUSH1 0xFF AND ISZERO ISZERO ISZERO ISZERO DUP2 MSTORE POP POP SWAP1 POP SWAP1 JUMP JUMPDEST PUSH1 0x3 PUSH1 0x1 ADD PUSH1 0x0 SWAP1 SLOAD SWAP1 PUSH2 0x100 EXP SWAP1 DIV PUSH20 0xFFFFFFFFFFFFFFFFFFFFFFFFFFFFFFFFFFFFFFFF AND PUSH20 0xFFFFFFFFFFFFFFFFFFFFFFFFFFFFFFFFFFFFFFFF AND CALLER PUSH20 0xFFFFFFFFFFFFFFFFFFFFFFFFFFFFFFFFFFFFFFFF AND EQ PUSH2 0xA95 JUMPI PUSH1 0x40 MLOAD PUSH32 0x8C379A000000000000000000000000000000000000000000000000000000000 DUP2 MSTORE PUSH1 0x4 ADD PUSH2 0xA8C SWAP1 PUSH2 0x11D9 JUMP JUMPDEST PUSH1 0x40 MLOAD DUP1 SWAP2 SUB SWAP1 REVERT JUMPDEST PUSH1 0x1 PUSH1 0x3 PUSH1 0xA ADD PUSH1 0x1 PUSH2 0x100 EXP DUP2 SLOAD DUP2 PUSH1 0xFF MUL NOT AND SWAP1 DUP4 ISZERO ISZERO MUL OR SWAP1 SSTORE POP TIMESTAMP PUSH1 0x3 PUSH1 0x9 ADD DUP2 SWAP1 SSTORE POP PUSH1 0x1 ISZERO ISZERO PUSH1 0x3 PUSH1 0xA ADD PUSH1 0x0 SWAP1 SLOAD SWAP1 PUSH2 0x100 EXP SWAP1 POP POP POP JUMP JUMPDEST PUSH1 0x3 PUSH1 0x0 ADD PUSH1 0x0 SWAP1 SLOAD SWAP1 PUSH2 0x100 EXP SWAP1 DIV PUSH20 0xFFFFFFFFFFFFFFFFFFFFFFFFFFFFFFFFFFFFFFFF AND PUSH20 0xFFFFFFFFFFFFFFFFFFFFFFFFFFFFFFFFFFFFFFFF AND CALLER PUSH20 0xFFFFFFFFFFFFFFFFFFFFFFFFFFFFFFFFFFFFFFFF AND EQ PUSH2 0xB68 JUMPI PUSH1 0x40 MLOAD PUSH32 0x8C379A000000000000000000000000000000000000000000000000000000000 DUP2 MSTORE PUSH1 0x4 ADD PUSH2 0xB5F SWAP1 PUSH2 0x131D JUMP JUMPDEST PUSH1 0x40 MLOAD DUP1 SWAP2 SUB SWAP1 REVERT JUMPDEST PUSH1 0x3 PUSH1 0x0 ADD PUSH1 0x0 SWAP1 SLOAD SWAP1 PUSH2 0x100 EXP SWAP1 DIV PUSH20 0xFFFFFFFFFFFFFFFFFFFFFFFFFFFFFFFFFFFFFFFF AND PUSH20 0xFFFFFFFFFFFFFFFFFFFFFFFFFFFFFFFFFFFFFFFF AND SELFDESTRUCT JUMPDEST PUSH1 0x40 MLOAD DUP1 PUSH2 0x180 ADD PUSH1 0x40 MSTORE DUP1 PUSH1 0x0 PUSH20 0xFFFFFFFFFFFFFFFFFFFFFFFFFFFFFFFFFFFFFFFF AND DUP2 MSTORE PUSH1 0x20 ADD PUSH1 0x0 PUSH20 0xFFFFFFFFFFFFFFFFFFFFFFFFFFFFFFFFFFFFFFFF AND DUP2 MSTORE PUSH1 0x20 ADD PUSH1 0x60 DUP2 MSTORE PUSH1 0x20 ADD PUSH1 0x60 DUP2 MSTORE PUSH1 0x20 ADD PUSH1 0x0 PUSH1 0xFF AND DUP2 MSTORE PUSH1 0x20 ADD PUSH1 0x0 DUP2 MSTORE PUSH1 0x20 ADD PUSH1 0x0 DUP2 MSTORE PUSH1 0x20 ADD PUSH1 0x0 DUP2 MSTORE PUSH1 0x20 ADD PUSH1 0x0 DUP2 MSTORE PUSH1 0x20 ADD PUSH1 0x0 DUP2 MSTORE PUSH1 0x20 ADD PUSH1 0x0 ISZERO ISZERO DUP2 MSTORE PUSH1 0x20 ADD PUSH1 0x0 ISZERO ISZERO DUP2 MSTORE POP SWAP1 JUMP JUMPDEST PUSH1 0x0 DUP2 SWAP1 POP SWAP2 SWAP1 POP JUMP JUMPDEST PUSH2 0xC4D DUP2 PUSH2 0xC3A JUMP JUMPDEST DUP3 MSTORE POP POP JUMP JUMPDEST PUSH1 0x0 PUSH1 0x20 DUP3 ADD SWAP1 POP PUSH2 0xC68 PUSH1 0x0 DUP4 ADD DUP5 PUSH2 0xC44 JUMP JUMPDEST SWAP3 SWAP2 POP POP JUMP JUMPDEST PUSH1 0x0 DUP2 ISZERO ISZERO SWAP1 POP SWAP2 SWAP1 POP JUMP JUMPDEST PUSH2 0xC83 DUP2 PUSH2 0xC6E JUMP JUMPDEST DUP3 MSTORE POP POP JUMP JUMPDEST PUSH1 0x0 PUSH1 0x20 DUP3 ADD SWAP1 POP PUSH2 0xC9E PUSH1 0x0 DUP4 ADD DUP5 PUSH2 0xC7A JUMP JUMPDEST SWAP3 SWAP2 POP POP JUMP JUMPDEST PUSH1 0x0 PUSH1 0x40 MLOAD SWAP1 POP SWAP1 JUMP JUMPDEST PUSH1 0x0 DUP1 REVERT JUMPDEST PUSH1 0x0 DUP1 REVERT JUMPDEST PUSH1 0x0 PUSH20 0xFFFFFFFFFFFFFFFFFFFFFFFFFFFFFFFFFFFFFFFF DUP3 AND SWAP1 POP SWAP2 SWAP1 POP JUMP JUMPDEST PUSH1 0x0 PUSH2 0xCE3 DUP3 PUSH2 0xCB8 JUMP JUMPDEST SWAP1 POP SWAP2 SWAP1 POP JUMP JUMPDEST PUSH2 0xCF3 DUP2 PUSH2 0xCD8 JUMP JUMPDEST DUP2 EQ PUSH2 0xCFE JUMPI PUSH1 0x0 DUP1 REVERT JUMPDEST POP JUMP JUMPDEST PUSH1 0x0 DUP2 CALLDATALOAD SWAP1 POP PUSH2 0xD10 DUP2 PUSH2 0xCEA JUMP JUMPDEST SWAP3 SWAP2 POP POP JUMP JUMPDEST PUSH1 0x0 DUP1 REVERT JUMPDEST PUSH1 0x0 DUP1 REVERT JUMPDEST PUSH1 0x0 PUSH1 0x1F NOT PUSH1 0x1F DUP4 ADD AND SWAP1 POP SWAP2 SWAP1 POP JUMP JUMPDEST PUSH32 0x4E487B7100000000000000000000000000000000000000000000000000000000 PUSH1 0x0 MSTORE PUSH1 0x41 PUSH1 0x4 MSTORE PUSH1 0x24 PUSH1 0x0 REVERT JUMPDEST PUSH2 0xD69 DUP3 PUSH2 0xD20 JUMP JUMPDEST DUP2 ADD DUP2 DUP2 LT PUSH8 0xFFFFFFFFFFFFFFFF DUP3 GT OR ISZERO PUSH2 0xD88 JUMPI PUSH2 0xD87 PUSH2 0xD31 JUMP JUMPDEST JUMPDEST DUP1 PUSH1 0x40 MSTORE POP POP POP JUMP JUMPDEST PUSH1 0x0 PUSH2 0xD9B PUSH2 0xCA4 JUMP JUMPDEST SWAP1 POP PUSH2 0xDA7 DUP3 DUP3 PUSH2 0xD60 JUMP JUMPDEST SWAP2 SWAP1 POP JUMP JUMPDEST PUSH1 0x0 PUSH8 0xFFFFFFFFFFFFFFFF DUP3 GT ISZERO PUSH2 0xDC7 JUMPI PUSH2 0xDC6 PUSH2 0xD31 JUMP JUMPDEST JUMPDEST PUSH2 0xDD0 DUP3 PUSH2 0xD20 JUMP JUMPDEST SWAP1 POP PUSH1 0x20 DUP2 ADD SWAP1 POP SWAP2 SWAP1 POP JUMP JUMPDEST DUP3 DUP2 DUP4 CALLDATACOPY PUSH1 0x0 DUP4 DUP4 ADD MSTORE POP POP POP JUMP JUMPDEST PUSH1 0x0 PUSH2 0xDFF PUSH2 0xDFA DUP5 PUSH2 0xDAC JUMP JUMPDEST PUSH2 0xD91 JUMP JUMPDEST SWAP1 POP DUP3 DUP2 MSTORE PUSH1 0x20 DUP2 ADD DUP5 DUP5 DUP5 ADD GT ISZERO PUSH2 0xE1B JUMPI PUSH2 0xE1A PUSH2 0xD1B JUMP JUMPDEST JUMPDEST PUSH2 0xE26 DUP5 DUP3 DUP6 PUSH2 0xDDD JUMP JUMPDEST POP SWAP4 SWAP3 POP POP POP JUMP JUMPDEST PUSH1 0x0 DUP3 PUSH1 0x1F DUP4 ADD SLT PUSH2 0xE43 JUMPI PUSH2 0xE42 PUSH2 0xD16 JUMP JUMPDEST JUMPDEST DUP2 CALLDATALOAD PUSH2 0xE53 DUP5 DUP3 PUSH1 0x20 DUP7 ADD PUSH2 0xDEC JUMP JUMPDEST SWAP2 POP POP SWAP3 SWAP2 POP POP JUMP JUMPDEST PUSH1 0x0 PUSH1 0xFF DUP3 AND SWAP1 POP SWAP2 SWAP1 POP JUMP JUMPDEST PUSH2 0xE72 DUP2 PUSH2 0xE5C JUMP JUMPDEST DUP2 EQ PUSH2 0xE7D JUMPI PUSH1 0x0 DUP1 REVERT JUMPDEST POP JUMP JUMPDEST PUSH1 0x0 DUP2 CALLDATALOAD SWAP1 POP PUSH2 0xE8F DUP2 PUSH2 0xE69 JUMP JUMPDEST SWAP3 SWAP2 POP POP JUMP JUMPDEST PUSH2 0xE9E DUP2 PUSH2 0xC3A JUMP JUMPDEST DUP2 EQ PUSH2 0xEA9 JUMPI PUSH1 0x0 DUP1 REVERT JUMPDEST POP JUMP JUMPDEST PUSH1 0x0 DUP2 CALLDATALOAD SWAP1 POP PUSH2 0xEBB DUP2 PUSH2 0xE95 JUMP JUMPDEST SWAP3 SWAP2 POP POP JUMP JUMPDEST PUSH1 0x0 DUP1 PUSH1 0x0 DUP1 PUSH1 0x0 DUP1 PUSH1 0xC0 DUP8 DUP10 SUB SLT ISZERO PUSH2 0xEDE JUMPI PUSH2 0xEDD PUSH2 0xCAE JUMP JUMPDEST JUMPDEST PUSH1 0x0 PUSH2 0xEEC DUP10 DUP3 DUP11 ADD PUSH2 0xD01 JUMP JUMPDEST SWAP7 POP POP PUSH1 0x20 DUP8 ADD CALLDATALOAD PUSH8 0xFFFFFFFFFFFFFFFF DUP2 GT ISZERO PUSH2 0xF0D JUMPI PUSH2 0xF0C PUSH2 0xCB3 JUMP JUMPDEST JUMPDEST PUSH2 0xF19 DUP10 DUP3 DUP11 ADD PUSH2 0xE2E JUMP JUMPDEST SWAP6 POP POP PUSH1 0x40 PUSH2 0xF2A DUP10 DUP3 DUP11 ADD PUSH2 0xE80 JUMP JUMPDEST SWAP5 POP POP PUSH1 0x60 PUSH2 0xF3B DUP10 DUP3 DUP11 ADD PUSH2 0xEAC JUMP JUMPDEST SWAP4 POP POP PUSH1 0x80 PUSH2 0xF4C DUP10 DUP3 DUP11 ADD PUSH2 0xEAC JUMP JUMPDEST SWAP3 POP POP PUSH1 0xA0 PUSH2 0xF5D DUP10 DUP3 DUP11 ADD PUSH2 0xEAC JUMP JUMPDEST SWAP2 POP POP SWAP3 SWAP6 POP SWAP3 SWAP6 POP SWAP3 SWAP6 JUMP JUMPDEST PUSH2 0xF73 DUP2 PUSH2 0xCD8 JUMP JUMPDEST DUP3 MSTORE POP POP JUMP JUMPDEST PUSH1 0x0 PUSH2 0xF84 DUP3 PUSH2 0xCB8 JUMP JUMPDEST SWAP1 POP SWAP2 SWAP1 POP JUMP JUMPDEST PUSH2 0xF94 DUP2 PUSH2 0xF79 JUMP JUMPDEST DUP3 MSTORE POP POP JUMP JUMPDEST PUSH1 0x0 DUP2 MLOAD SWAP1 POP SWAP2 SWAP1 POP JUMP JUMPDEST PUSH1 0x0 DUP3 DUP3 MSTORE PUSH1 0x20 DUP3 ADD SWAP1 POP SWAP3 SWAP2 POP POP JUMP JUMPDEST PUSH1 0x0 JUMPDEST DUP4 DUP2 LT ISZERO PUSH2 0xFD4 JUMPI DUP1 DUP3 ADD MLOAD DUP2 DUP5 ADD MSTORE PUSH1 0x20 DUP2 ADD SWAP1 POP PUSH2 0xFB9 JUMP JUMPDEST DUP4 DUP2 GT ISZERO PUSH2 0xFE3 JUMPI PUSH1 0x0 DUP5 DUP5 ADD MSTORE JUMPDEST POP POP POP POP JUMP JUMPDEST PUSH1 0x0 PUSH2 0xFF4 DUP3 PUSH2 0xF9A JUMP JUMPDEST PUSH2 0xFFE DUP2 DUP6 PUSH2 0xFA5 JUMP JUMPDEST SWAP4 POP PUSH2 0x100E DUP2 DUP6 PUSH1 0x20 DUP7 ADD PUSH2 0xFB6 JUMP JUMPDEST PUSH2 0x1017 DUP2 PUSH2 0xD20 JUMP JUMPDEST DUP5 ADD SWAP2 POP POP SWAP3 SWAP2 POP POP JUMP JUMPDEST PUSH2 0x102B DUP2 PUSH2 0xE5C JUMP JUMPDEST DUP3 MSTORE POP POP JUMP JUMPDEST PUSH2 0x103A DUP2 PUSH2 0xC3A JUMP JUMPDEST DUP3 MSTORE POP POP JUMP JUMPDEST PUSH2 0x1049 DUP2 PUSH2 0xC6E JUMP JUMPDEST DUP3 MSTORE POP POP JUMP JUMPDEST PUSH1 0x0 PUSH2 0x180 DUP4 ADD PUSH1 0x0 DUP4 ADD MLOAD PUSH2 0x1068 PUSH1 0x0 DUP7 ADD DUP3 PUSH2 0xF6A JUMP JUMPDEST POP PUSH1 0x20 DUP4 ADD MLOAD PUSH2 0x107B PUSH1 0x20 DUP7 ADD DUP3 PUSH2 0xF8B JUMP JUMPDEST POP PUSH1 0x40 DUP4 ADD MLOAD DUP5 DUP3 SUB PUSH1 0x40 DUP7 ADD MSTORE PUSH2 0x1093 DUP3 DUP3 PUSH2 0xFE9 JUMP JUMPDEST SWAP2 POP POP PUSH1 0x60 DUP4 ADD MLOAD DUP5 DUP3 SUB PUSH1 0x60 DUP7 ADD MSTORE PUSH2 0x10AD DUP3 DUP3 PUSH2 0xFE9 JUMP JUMPDEST SWAP2 POP POP PUSH1 0x80 DUP4 ADD MLOAD PUSH2 0x10C2 PUSH1 0x80 DUP7 ADD DUP3 PUSH2 0x1022 JUMP JUMPDEST POP PUSH1 0xA0 DUP4 ADD MLOAD PUSH2 0x10D5 PUSH1 0xA0 DUP7 ADD DUP3 PUSH2 0x1031 JUMP JUMPDEST POP PUSH1 0xC0 DUP4 ADD MLOAD PUSH2 0x10E8 PUSH1 0xC0 DUP7 ADD DUP3 PUSH2 0x1031 JUMP JUMPDEST POP PUSH1 0xE0 DUP4 ADD MLOAD PUSH2 0x10FB PUSH1 0xE0 DUP7 ADD DUP3 PUSH2 0x1031 JUMP JUMPDEST POP PUSH2 0x100 DUP4 ADD MLOAD PUSH2 0x1110 PUSH2 0x100 DUP7 ADD DUP3 PUSH2 0x1031 JUMP JUMPDEST POP PUSH2 0x120 DUP4 ADD MLOAD PUSH2 0x1125 PUSH2 0x120 DUP7 ADD DUP3 PUSH2 0x1031 JUMP JUMPDEST POP PUSH2 0x140 DUP4 ADD MLOAD PUSH2 0x113A PUSH2 0x140 DUP7 ADD DUP3 PUSH2 0x1040 JUMP JUMPDEST POP PUSH2 0x160 DUP4 ADD MLOAD PUSH2 0x114F PUSH2 0x160 DUP7 ADD DUP3 PUSH2 0x1040 JUMP JUMPDEST POP DUP1 SWAP2 POP POP SWAP3 SWAP2 POP POP JUMP JUMPDEST PUSH1 0x0 PUSH1 0x20 DUP3 ADD SWAP1 POP DUP2 DUP2 SUB PUSH1 0x0 DUP4 ADD MSTORE PUSH2 0x1174 DUP2 DUP5 PUSH2 0x104F JUMP JUMPDEST SWAP1 POP SWAP3 SWAP2 POP POP JUMP JUMPDEST PUSH1 0x0 DUP3 DUP3 MSTORE PUSH1 0x20 DUP3 ADD SWAP1 POP SWAP3 SWAP2 POP POP JUMP JUMPDEST PUSH32 0x4F6E6C792074686520446562746F722063616E20746869732100000000000000 PUSH1 0x0 DUP3 ADD MSTORE POP JUMP JUMPDEST PUSH1 0x0 PUSH2 0x11C3 PUSH1 0x19 DUP4 PUSH2 0x117C JUMP JUMPDEST SWAP2 POP PUSH2 0x11CE DUP3 PUSH2 0x118D JUMP JUMPDEST PUSH1 0x20 DUP3 ADD SWAP1 POP SWAP2 SWAP1 POP JUMP JUMPDEST PUSH1 0x0 PUSH1 0x20 DUP3 ADD SWAP1 POP DUP2 DUP2 SUB PUSH1 0x0 DUP4 ADD MSTORE PUSH2 0x11F2 DUP2 PUSH2 0x11B6 JUMP JUMPDEST SWAP1 POP SWAP2 SWAP1 POP JUMP JUMPDEST PUSH32 0x4E65656420636F6E73657420666F7220486F6C64657220616E6420446562746F PUSH1 0x0 DUP3 ADD MSTORE PUSH32 0x7200000000000000000000000000000000000000000000000000000000000000 PUSH1 0x20 DUP3 ADD MSTORE POP JUMP JUMPDEST PUSH1 0x0 PUSH2 0x1255 PUSH1 0x21 DUP4 PUSH2 0x117C JUMP JUMPDEST SWAP2 POP PUSH2 0x1260 DUP3 PUSH2 0x11F9 JUMP JUMPDEST PUSH1 0x40 DUP3 ADD SWAP1 POP SWAP2 SWAP1 POP JUMP JUMPDEST PUSH1 0x0 PUSH1 0x20 DUP3 ADD SWAP1 POP DUP2 DUP2 SUB PUSH1 0x0 DUP4 ADD MSTORE PUSH2 0x1284 DUP2 PUSH2 0x1248 JUMP JUMPDEST SWAP1 POP SWAP2 SWAP1 POP JUMP JUMPDEST PUSH1 0x0 DUP2 SWAP1 POP SWAP3 SWAP2 POP POP JUMP JUMPDEST POP JUMP JUMPDEST PUSH1 0x0 PUSH2 0x12A6 PUSH1 0x0 DUP4 PUSH2 0x128B JUMP JUMPDEST SWAP2 POP PUSH2 0x12B1 DUP3 PUSH2 0x1296 JUMP JUMPDEST PUSH1 0x0 DUP3 ADD SWAP1 POP SWAP2 SWAP1 POP JUMP JUMPDEST PUSH1 0x0 PUSH2 0x12C7 DUP3 PUSH2 0x1299 JUMP JUMPDEST SWAP2 POP DUP2 SWAP1 POP SWAP2 SWAP1 POP JUMP JUMPDEST PUSH32 0x4F6E6C792074686520486F6C6465722063616E20746869732100000000000000 PUSH1 0x0 DUP3 ADD MSTORE POP JUMP JUMPDEST PUSH1 0x0 PUSH2 0x1307 PUSH1 0x19 DUP4 PUSH2 0x117C JUMP JUMPDEST SWAP2 POP PUSH2 0x1312 DUP3 PUSH2 0x12D1 JUMP JUMPDEST PUSH1 0x20 DUP3 ADD SWAP1 POP SWAP2 SWAP1 POP JUMP JUMPDEST PUSH1 0x0 PUSH1 0x20 DUP3 ADD SWAP1 POP DUP2 DUP2 SUB PUSH1 0x0 DUP4 ADD MSTORE PUSH2 0x1336 DUP2 PUSH2 0x12FA JUMP JUMPDEST SWAP1 POP SWAP2 SWAP1 POP JUMP JUMPDEST PUSH32 0x5061796D656E74206D757374206265206D616465206265666F72652077697468 PUSH1 0x0 DUP3 ADD MSTORE PUSH32 0x64726177696E672066756E647321000000000000000000000000000000000000 PUSH1 0x20 DUP3 ADD MSTORE POP JUMP JUMPDEST PUSH1 0x0 PUSH2 0x1399 PUSH1 0x2E DUP4 PUSH2 0x117C JUMP JUMPDEST SWAP2 POP PUSH2 0x13A4 DUP3 PUSH2 0x133D JUMP JUMPDEST PUSH1 0x40 DUP3 ADD SWAP1 POP SWAP2 SWAP1 POP JUMP JUMPDEST PUSH1 0x0 PUSH1 0x20 DUP3 ADD SWAP1 POP DUP2 DUP2 SUB PUSH1 0x0 DUP4 ADD MSTORE PUSH2 0x13C8 DUP2 PUSH2 0x138C JUMP JUMPDEST SWAP1 POP SWAP2 SWAP1 POP JUMP JUMPDEST PUSH32 0x596F75206D757374207061792074686520616D6F756E742070726F6D6973736F PUSH1 0x0 DUP3 ADD MSTORE PUSH32 0x7279000000000000000000000000000000000000000000000000000000000000 PUSH1 0x20 DUP3 ADD MSTORE POP JUMP JUMPDEST PUSH1 0x0 PUSH2 0x142B PUSH1 0x22 DUP4 PUSH2 0x117C JUMP JUMPDEST SWAP2 POP PUSH2 0x1436 DUP3 PUSH2 0x13CF JUMP JUMPDEST PUSH1 0x40 DUP3 ADD SWAP1 POP SWAP2 SWAP1 POP JUMP JUMPDEST PUSH1 0x0 PUSH1 0x20 DUP3 ADD SWAP1 POP DUP2 DUP2 SUB PUSH1 0x0 DUP4 ADD MSTORE PUSH2 0x145A DUP2 PUSH2 0x141E JUMP JUMPDEST SWAP1 POP SWAP2 SWAP1 POP JUMP JUMPDEST PUSH32 0x446562746F7220616E6420486F6C646572206D75737420626520646966666572 PUSH1 0x0 DUP3 ADD MSTORE PUSH32 0x656E742070656F706C6573000000000000000000000000000000000000000000 PUSH1 0x20 DUP3 ADD MSTORE POP JUMP JUMPDEST PUSH1 0x0 PUSH2 0x14BD PUSH1 0x2B DUP4 PUSH2 0x117C JUMP JUMPDEST SWAP2 POP PUSH2 0x14C8 DUP3 PUSH2 0x1461 JUMP JUMPDEST PUSH1 0x40 DUP3 ADD SWAP1 POP SWAP2 SWAP1 POP JUMP JUMPDEST PUSH1 0x0 PUSH1 0x20 DUP3 ADD SWAP1 POP DUP2 DUP2 SUB PUSH1 0x0 DUP4 ADD MSTORE PUSH2 0x14EC DUP2 PUSH2 0x14B0 JUMP JUMPDEST SWAP1 POP SWAP2 SWAP1 POP JUMP JUMPDEST PUSH32 0x4E487B7100000000000000000000000000000000000000000000000000000000 PUSH1 0x0 MSTORE PUSH1 0x22 PUSH1 0x4 MSTORE PUSH1 0x24 PUSH1 0x0 REVERT JUMPDEST PUSH1 0x0 PUSH1 0x2 DUP3 DIV SWAP1 POP PUSH1 0x1 DUP3 AND DUP1 PUSH2 0x153A JUMPI PUSH1 0x7F DUP3 AND SWAP2 POP JUMPDEST PUSH1 0x20 DUP3 LT DUP2 SUB PUSH2 0x154D JUMPI PUSH2 0x154C PUSH2 0x14F3 JUMP JUMPDEST JUMPDEST POP SWAP2 SWAP1 POP JUMP JUMPDEST PUSH1 0x0 DUP2 SWAP1 POP DUP2 PUSH1 0x0 MSTORE PUSH1 0x20 PUSH1 0x0 KECCAK256 SWAP1 POP SWAP2 SWAP1 POP JUMP JUMPDEST PUSH1 0x0 PUSH1 0x20 PUSH1 0x1F DUP4 ADD DIV SWAP1 POP SWAP2 SWAP1 POP JUMP JUMPDEST PUSH1 0x0 DUP3 DUP3 SHL SWAP1 POP SWAP3 SWAP2 POP POP JUMP JUMPDEST PUSH1 0x0 PUSH1 0x8 DUP4 MUL PUSH2 0x15B5 PUSH32 0xFFFFFFFFFFFFFFFFFFFFFFFFFFFFFFFFFFFFFFFFFFFFFFFFFFFFFFFFFFFFFFFF DUP3 PUSH2 0x1578 JUMP JUMPDEST PUSH2 0x15BF DUP7 DUP4 PUSH2 0x1578 JUMP JUMPDEST SWAP6 POP DUP1 NOT DUP5 AND SWAP4 POP DUP1 DUP7 AND DUP5 OR SWAP3 POP POP POP SWAP4 SWAP3 POP POP POP JUMP JUMPDEST PUSH1 0x0 DUP2 SWAP1 POP SWAP2 SWAP1 POP JUMP JUMPDEST PUSH1 0x0 PUSH2 0x15FC PUSH2 0x15F7 PUSH2 0x15F2 DUP5 PUSH2 0xC3A JUMP JUMPDEST PUSH2 0x15D7 JUMP JUMPDEST PUSH2 0xC3A JUMP JUMPDEST SWAP1 POP SWAP2 SWAP1 POP JUMP JUMPDEST PUSH1 0x0 DUP2 SWAP1 POP SWAP2 SWAP1 POP JUMP JUMPDEST PUSH2 0x1616 DUP4 PUSH2 0x15E1 JUMP JUMPDEST PUSH2 0x162A PUSH2 0x1622 DUP3 PUSH2 0x1603 JUMP JUMPDEST DUP5 DUP5 SLOAD PUSH2 0x1585 JUMP JUMPDEST DUP3 SSTORE POP POP POP POP JUMP JUMPDEST PUSH1 0x0 SWAP1 JUMP JUMPDEST PUSH2 0x163F PUSH2 0x1632 JUMP JUMPDEST PUSH2 0x164A DUP2 DUP5 DUP5 PUSH2 0x160D JUMP JUMPDEST POP POP POP JUMP JUMPDEST JUMPDEST DUP2 DUP2 LT ISZERO PUSH2 0x166E JUMPI PUSH2 0x1663 PUSH1 0x0 DUP3 PUSH2 0x1637 JUMP JUMPDEST PUSH1 0x1 DUP2 ADD SWAP1 POP PUSH2 0x1650 JUMP JUMPDEST POP POP JUMP JUMPDEST PUSH1 0x1F DUP3 GT ISZERO PUSH2 0x16B3 JUMPI PUSH2 0x1684 DUP2 PUSH2 0x1553 JUMP JUMPDEST PUSH2 0x168D DUP5 PUSH2 0x1568 JUMP JUMPDEST DUP2 ADD PUSH1 0x20 DUP6 LT ISZERO PUSH2 0x169C JUMPI DUP2 SWAP1 POP JUMPDEST PUSH2 0x16B0 PUSH2 0x16A8 DUP6 PUSH2 0x1568 JUMP JUMPDEST DUP4 ADD DUP3 PUSH2 0x164F JUMP JUMPDEST POP POP JUMPDEST POP POP POP JUMP JUMPDEST PUSH1 0x0 DUP3 DUP3 SHR SWAP1 POP SWAP3 SWAP2 POP POP JUMP JUMPDEST PUSH1 0x0 PUSH2 0x16D6 PUSH1 0x0 NOT DUP5 PUSH1 0x8 MUL PUSH2 0x16B8 JUMP JUMPDEST NOT DUP1 DUP4 AND SWAP2 POP POP SWAP3 SWAP2 POP POP JUMP JUMPDEST PUSH1 0x0 PUSH2 0x16EF DUP4 DUP4 PUSH2 0x16C5 JUMP JUMPDEST SWAP2 POP DUP3 PUSH1 0x2 MUL DUP3 OR SWAP1 POP SWAP3 SWAP2 POP POP JUMP JUMPDEST PUSH2 0x1708 DUP3 PUSH2 0xF9A JUMP JUMPDEST PUSH8 0xFFFFFFFFFFFFFFFF DUP2 GT ISZERO PUSH2 0x1721 JUMPI PUSH2 0x1720 PUSH2 0xD31 JUMP JUMPDEST JUMPDEST PUSH2 0x172B DUP3 SLOAD PUSH2 0x1522 JUMP JUMPDEST PUSH2 0x1736 DUP3 DUP3 DUP6 PUSH2 0x1672 JUMP JUMPDEST PUSH1 0x0 PUSH1 0x20 SWAP1 POP PUSH1 0x1F DUP4 GT PUSH1 0x1 DUP2 EQ PUSH2 0x1769 JUMPI PUSH1 0x0 DUP5 ISZERO PUSH2 0x1757 JUMPI DUP3 DUP8 ADD MLOAD SWAP1 POP JUMPDEST PUSH2 0x1761 DUP6 DUP3 PUSH2 0x16E3 JUMP JUMPDEST DUP7 SSTORE POP PUSH2 0x17C9 JUMP JUMPDEST PUSH1 0x1F NOT DUP5 AND PUSH2 0x1777 DUP7 PUSH2 0x1553 JUMP JUMPDEST PUSH1 0x0 JUMPDEST DUP3 DUP2 LT ISZERO PUSH2 0x179F JUMPI DUP5 DUP10 ADD MLOAD DUP3 SSTORE PUSH1 0x1 DUP3 ADD SWAP2 POP PUSH1 0x20 DUP6 ADD SWAP5 POP PUSH1 0x20 DUP2 ADD SWAP1 POP PUSH2 0x177A JUMP JUMPDEST DUP7 DUP4 LT ISZERO PUSH2 0x17BC JUMPI DUP5 DUP10 ADD MLOAD PUSH2 0x17B8 PUSH1 0x1F DUP10 AND DUP3 PUSH2 0x16C5 JUMP JUMPDEST DUP4 SSTORE POP JUMPDEST PUSH1 0x1 PUSH1 0x2 DUP9 MUL ADD DUP9 SSTORE POP POP POP JUMPDEST POP POP POP POP POP POP JUMP JUMPDEST PUSH32 0x4E487B7100000000000000000000000000000000000000000000000000000000 PUSH1 0x0 MSTORE PUSH1 0x12 PUSH1 0x4 MSTORE PUSH1 0x24 PUSH1 0x0 REVERT JUMPDEST PUSH32 0x4E487B7100000000000000000000000000000000000000000000000000000000 PUSH1 0x0 MSTORE PUSH1 0x11 PUSH1 0x4 MSTORE PUSH1 0x24 PUSH1 0x0 REVERT JUMPDEST PUSH1 0x0 PUSH2 0x183A DUP3 PUSH2 0xC3A JUMP JUMPDEST SWAP2 POP PUSH2 0x1845 DUP4 PUSH2 0xC3A JUMP JUMPDEST SWAP3 POP DUP3 PUSH2 0x1855 JUMPI PUSH2 0x1854 PUSH2 0x17D1 JUMP JUMPDEST JUMPDEST DUP3 DUP3 DIV SWAP1 POP SWAP3 SWAP2 POP POP JUMP JUMPDEST PUSH1 0x0 PUSH2 0x186B DUP3 PUSH2 0xC3A JUMP JUMPDEST SWAP2 POP PUSH2 0x1876 DUP4 PUSH2 0xC3A JUMP JUMPDEST SWAP3 POP DUP2 PUSH32 0xFFFFFFFFFFFFFFFFFFFFFFFFFFFFFFFFFFFFFFFFFFFFFFFFFFFFFFFFFFFFFFFF DIV DUP4 GT DUP3 ISZERO ISZERO AND ISZERO PUSH2 0x18AF JUMPI PUSH2 0x18AE PUSH2 0x1800 JUMP JUMPDEST JUMPDEST DUP3 DUP3 MUL SWAP1 POP SWAP3 SWAP2 POP POP JUMP JUMPDEST PUSH1 0x0 PUSH2 0x18C5 DUP3 PUSH2 0xC3A JUMP JUMPDEST SWAP2 POP PUSH2 0x18D0 DUP4 PUSH2 0xC3A JUMP JUMPDEST SWAP3 POP DUP3 PUSH32 0xFFFFFFFFFFFFFFFFFFFFFFFFFFFFFFFFFFFFFFFFFFFFFFFFFFFFFFFFFFFFFFFF SUB DUP3 GT ISZERO PUSH2 0x1905 JUMPI PUSH2 0x1904 PUSH2 0x1800 JUMP JUMPDEST JUMPDEST DUP3 DUP3 ADD SWAP1 POP SWAP3 SWAP2 POP POP JUMP INVALID LOG2 PUSH5 0x6970667358 0x22 SLT KECCAK256 0xB7 0x2F RETURN PUSH13 0x984BA7B892BBDAE45983573F27 0xE4 SWAP16 0xD4 0xF7 0xD3 0xD8 PUSH27 0x1FA939A2D2A2649164736F6C634300080F00330000000000000000 "
				},
				"gasEstimates": {
					"creation": {
						"codeDepositCost": "1294000",
						"executionCost": "infinite",
						"totalCost": "infinite"
					},
					"external": {
						"bank()": "2496",
						"dateOfAcceptance()": "2430",
						"getPromissoryInfo()": "infinite",
						"payPromissory()": "infinite",
						"paymentAccepted()": "2521",
						"promissoryPaid()": "2512",
						"setDebtorConsent()": "50999",
						"setHolderConsent()": "51000",
						"setPaymentAccepted()": "85070",
						"setPromissoryInfo(address,string,uint8,uint256,uint256,uint256)": "infinite"
					},
					"internal": {
						"killContract()": "infinite",
						"setDateOfRegistration()": "infinite"
					}
				},
				"methodIdentifiers": {
					"bank()": "76cdb03b",
					"dateOfAcceptance()": "3ea8a717",
					"getPromissoryInfo()": "cf804c84",
					"payPromissory()": "70a57fd3",
					"paymentAccepted()": "ad6069e0",
					"promissoryPaid()": "c0933340",
					"setDebtorConsent()": "efe270ba",
					"setHolderConsent()": "9fcb8099",
					"setPaymentAccepted()": "72f924ae",
					"setPromissoryInfo(address,string,uint8,uint256,uint256,uint256)": "b8a6d870"
				}
			},
			"storageLayout": {
				"storage": [
					{
						"astId": 4,
						"contract": "contracts/promissory.sol:Promissory",
						"label": "promissoryPaid",
						"offset": 0,
						"slot": "0",
						"type": "t_bool"
					},
					{
						"astId": 7,
						"contract": "contracts/promissory.sol:Promissory",
						"label": "paymentAccepted",
						"offset": 1,
						"slot": "0",
						"type": "t_bool"
					},
					{
						"astId": 9,
						"contract": "contracts/promissory.sol:Promissory",
						"label": "dateOfAcceptance",
						"offset": 0,
						"slot": "1",
						"type": "t_uint256"
					},
					{
						"astId": 11,
						"contract": "contracts/promissory.sol:Promissory",
						"label": "bank",
						"offset": 0,
						"slot": "2",
						"type": "t_uint256"
					},
					{
						"astId": 39,
						"contract": "contracts/promissory.sol:Promissory",
						"label": "promissory",
						"offset": 0,
						"slot": "3",
						"type": "t_struct(PromissoryInfo)36_storage"
					}
				],
				"types": {
					"t_address": {
						"encoding": "inplace",
						"label": "address",
						"numberOfBytes": "20"
					},
					"t_address_payable": {
						"encoding": "inplace",
						"label": "address payable",
						"numberOfBytes": "20"
					},
					"t_bool": {
						"encoding": "inplace",
						"label": "bool",
						"numberOfBytes": "1"
					},
					"t_string_storage": {
						"encoding": "bytes",
						"label": "string",
						"numberOfBytes": "32"
					},
					"t_struct(PromissoryInfo)36_storage": {
						"encoding": "inplace",
						"label": "struct Promissory.PromissoryInfo",
						"members": [
							{
								"astId": 13,
								"contract": "contracts/promissory.sol:Promissory",
								"label": "holder",
								"offset": 0,
								"slot": "0",
								"type": "t_address_payable"
							},
							{
								"astId": 15,
								"contract": "contracts/promissory.sol:Promissory",
								"label": "debtor",
								"offset": 0,
								"slot": "1",
								"type": "t_address"
							},
							{
								"astId": 17,
								"contract": "contracts/promissory.sol:Promissory",
								"label": "holderName",
								"offset": 0,
								"slot": "2",
								"type": "t_string_storage"
							},
							{
								"astId": 19,
								"contract": "contracts/promissory.sol:Promissory",
								"label": "debtorName",
								"offset": 0,
								"slot": "3",
								"type": "t_string_storage"
							},
							{
								"astId": 21,
								"contract": "contracts/promissory.sol:Promissory",
								"label": "promissoryCommission",
								"offset": 0,
								"slot": "4",
								"type": "t_uint8"
							},
							{
								"astId": 23,
								"contract": "contracts/promissory.sol:Promissory",
								"label": "promissoryAmount",
								"offset": 0,
								"slot": "5",
								"type": "t_uint256"
							},
							{
								"astId": 25,
								"contract": "contracts/promissory.sol:Promissory",
								"label": "dateOfRegistration",
								"offset": 0,
								"slot": "6",
								"type": "t_uint256"
							},
							{
								"astId": 27,
								"contract": "contracts/promissory.sol:Promissory",
								"label": "dateOfClose",
								"offset": 0,
								"slot": "7",
								"type": "t_uint256"
							},
							{
								"astId": 29,
								"contract": "contracts/promissory.sol:Promissory",
								"label": "dateOfHolderConsent",
								"offset": 0,
								"slot": "8",
								"type": "t_uint256"
							},
							{
								"astId": 31,
								"contract": "contracts/promissory.sol:Promissory",
								"label": "dateOfDebtorConsent",
								"offset": 0,
								"slot": "9",
								"type": "t_uint256"
							},
							{
								"astId": 33,
								"contract": "contracts/promissory.sol:Promissory",
								"label": "holderConsent",
								"offset": 0,
								"slot": "10",
								"type": "t_bool"
							},
							{
								"astId": 35,
								"contract": "contracts/promissory.sol:Promissory",
								"label": "debtorConsent",
								"offset": 1,
								"slot": "10",
								"type": "t_bool"
							}
						],
						"numberOfBytes": "352"
					},
					"t_uint256": {
						"encoding": "inplace",
						"label": "uint256",
						"numberOfBytes": "32"
					},
					"t_uint8": {
						"encoding": "inplace",
						"label": "uint8",
						"numberOfBytes": "1"
					}
				}
			},
			"userdoc": {
				"kind": "user",
				"methods": {},
				"version": 1
			}
		}
	}
}